{
	"contract/dragon/Copy_批量mint高级版.sol": {
		"Batcher": {
			"abi": [
				{
					"inputs": [],
					"stateMutability": "nonpayable",
					"type": "constructor"
				},
				{
					"inputs": [
						{
							"internalType": "address",
							"name": "contractAddress",
							"type": "address"
						},
						{
							"internalType": "uint256",
							"name": "times",
							"type": "uint256"
						}
					],
					"name": "fooyaoBulkMint",
					"outputs": [],
					"stateMutability": "payable",
					"type": "function"
				}
			],
			"devdoc": {
				"kind": "dev",
				"methods": {},
				"version": 1
			},
			"evm": {
				"assembly": "    /* \"contract/dragon/Copy_\\xe6\\x89\\xb9\\xe9\\x87\\x8fmint\\xe9\\xab\\x98\\xe7\\xba\\xa7\\xe7\\x89\\x88.sol\":548:1413  contract Batcher {... */\n  mstore(0x40, 0xa0)\n    /* \"contract/dragon/Copy_\\xe6\\x89\\xb9\\xe9\\x87\\x8fmint\\xe9\\xab\\x98\\xe7\\xba\\xa7\\xe7\\x89\\x88.sol\":713:762  constructor() {... */\n  callvalue\n  dup1\n  iszero\n  tag_1\n  jumpi\n  0x00\n  dup1\n  revert\ntag_1:\n  pop\n    /* \"contract/dragon/Copy_\\xe6\\x89\\xb9\\xe9\\x87\\x8fmint\\xe9\\xab\\x98\\xe7\\xba\\xa7\\xe7\\x89\\x88.sol\":745:755  msg.sender */\n  caller\n    /* \"contract/dragon/Copy_\\xe6\\x89\\xb9\\xe9\\x87\\x8fmint\\xe9\\xab\\x98\\xe7\\xba\\xa7\\xe7\\x89\\x88.sol\":737:755  owner = msg.sender */\n  0xffffffffffffffffffffffffffffffffffffffff\n  and\n  0x80\n  dup2\n  0xffffffffffffffffffffffffffffffffffffffff\n  and\n  dup2\n  mstore\n  pop\n  pop\n    /* \"contract/dragon/Copy_\\xe6\\x89\\xb9\\xe9\\x87\\x8fmint\\xe9\\xab\\x98\\xe7\\xba\\xa7\\xe7\\x89\\x88.sol\":548:1413  contract Batcher {... */\n  mload(0x80)\n  codecopy(0x00, dataOffset(sub_0), dataSize(sub_0))\n  0x00\n  assignImmutable(\"0x6304e47846f882085b0f4b1a184252ae95ffe5e2a02daf39c014f492dcb1441c\")\n  return(0x00, dataSize(sub_0))\nstop\n\nsub_0: assembly {\n        /* \"contract/dragon/Copy_\\xe6\\x89\\xb9\\xe9\\x87\\x8fmint\\xe9\\xab\\x98\\xe7\\xba\\xa7\\xe7\\x89\\x88.sol\":548:1413  contract Batcher {... */\n      mstore(0x40, 0x80)\n      jumpi(tag_1, lt(calldatasize, 0x04))\n      shr(0xe0, calldataload(0x00))\n      dup1\n      0xc36c17a8\n      eq\n      tag_2\n      jumpi\n    tag_1:\n      0x00\n      dup1\n      revert\n        /* \"contract/dragon/Copy_\\xe6\\x89\\xb9\\xe9\\x87\\x8fmint\\xe9\\xab\\x98\\xe7\\xba\\xa7\\xe7\\x89\\x88.sol\":768:1411  function fooyaoBulkMint(... */\n    tag_2:\n      tag_3\n      0x04\n      dup1\n      calldatasize\n      sub\n      dup2\n      add\n      swap1\n      tag_4\n      swap2\n      swap1\n      tag_5\n      jump\t// in\n    tag_4:\n      tag_6\n      jump\t// in\n    tag_3:\n      stop\n    tag_6:\n        /* \"contract/dragon/Copy_\\xe6\\x89\\xb9\\xe9\\x87\\x8fmint\\xe9\\xab\\x98\\xe7\\xba\\xa7\\xe7\\x89\\x88.sol\":881:891  uint price */\n      0x00\n        /* \"contract/dragon/Copy_\\xe6\\x89\\xb9\\xe9\\x87\\x8fmint\\xe9\\xab\\x98\\xe7\\xba\\xa7\\xe7\\x89\\x88.sol\":917:918  0 */\n      dup1\n        /* \"contract/dragon/Copy_\\xe6\\x89\\xb9\\xe9\\x87\\x8fmint\\xe9\\xab\\x98\\xe7\\xba\\xa7\\xe7\\x89\\x88.sol\":905:914  msg.value */\n      callvalue\n        /* \"contract/dragon/Copy_\\xe6\\x89\\xb9\\xe9\\x87\\x8fmint\\xe9\\xab\\x98\\xe7\\xba\\xa7\\xe7\\x89\\x88.sol\":905:918  msg.value > 0 */\n      gt\n        /* \"contract/dragon/Copy_\\xe6\\x89\\xb9\\xe9\\x87\\x8fmint\\xe9\\xab\\x98\\xe7\\xba\\xa7\\xe7\\x89\\x88.sol\":901:970  if (msg.value > 0) {... */\n      iszero\n      tag_8\n      jumpi\n        /* \"contract/dragon/Copy_\\xe6\\x89\\xb9\\xe9\\x87\\x8fmint\\xe9\\xab\\x98\\xe7\\xba\\xa7\\xe7\\x89\\x88.sol\":954:959  times */\n      dup2\n        /* \"contract/dragon/Copy_\\xe6\\x89\\xb9\\xe9\\x87\\x8fmint\\xe9\\xab\\x98\\xe7\\xba\\xa7\\xe7\\x89\\x88.sol\":942:951  msg.value */\n      callvalue\n        /* \"contract/dragon/Copy_\\xe6\\x89\\xb9\\xe9\\x87\\x8fmint\\xe9\\xab\\x98\\xe7\\xba\\xa7\\xe7\\x89\\x88.sol\":942:959  msg.value / times */\n      tag_9\n      swap2\n      swap1\n      tag_10\n      jump\t// in\n    tag_9:\n        /* \"contract/dragon/Copy_\\xe6\\x89\\xb9\\xe9\\x87\\x8fmint\\xe9\\xab\\x98\\xe7\\xba\\xa7\\xe7\\x89\\x88.sol\":934:959  price = msg.value / times */\n      swap1\n      pop\n        /* \"contract/dragon/Copy_\\xe6\\x89\\xb9\\xe9\\x87\\x8fmint\\xe9\\xab\\x98\\xe7\\xba\\xa7\\xe7\\x89\\x88.sol\":901:970  if (msg.value > 0) {... */\n    tag_8:\n        /* \"contract/dragon/Copy_\\xe6\\x89\\xb9\\xe9\\x87\\x8fmint\\xe9\\xab\\x98\\xe7\\xba\\xa7\\xe7\\x89\\x88.sol\":979:989  address to */\n      0x00\n        /* \"contract/dragon/Copy_\\xe6\\x89\\xb9\\xe9\\x87\\x8fmint\\xe9\\xab\\x98\\xe7\\xba\\xa7\\xe7\\x89\\x88.sol\":992:1002  msg.sender */\n      caller\n        /* \"contract/dragon/Copy_\\xe6\\x89\\xb9\\xe9\\x87\\x8fmint\\xe9\\xab\\x98\\xe7\\xba\\xa7\\xe7\\x89\\x88.sol\":979:1002  address to = msg.sender */\n      swap1\n      pop\n        /* \"contract/dragon/Copy_\\xe6\\x89\\xb9\\xe9\\x87\\x8fmint\\xe9\\xab\\x98\\xe7\\xba\\xa7\\xe7\\x89\\x88.sol\":1012:1021  uint _max */\n      0x00\n        /* \"contract/dragon/Copy_\\xe6\\x89\\xb9\\xe9\\x87\\x8fmint\\xe9\\xab\\x98\\xe7\\xba\\xa7\\xe7\\x89\\x88.sol\":1031:1046  contractAddress */\n      dup5\n        /* \"contract/dragon/Copy_\\xe6\\x89\\xb9\\xe9\\x87\\x8fmint\\xe9\\xab\\x98\\xe7\\xba\\xa7\\xe7\\x89\\x88.sol\":1024:1066  BERC20(contractAddress)._maxMintPerAddress */\n      0xffffffffffffffffffffffffffffffffffffffff\n      and\n      0xcfa69a53\n        /* \"contract/dragon/Copy_\\xe6\\x89\\xb9\\xe9\\x87\\x8fmint\\xe9\\xab\\x98\\xe7\\xba\\xa7\\xe7\\x89\\x88.sol\":1024:1068  BERC20(contractAddress)._maxMintPerAddress() */\n      mload(0x40)\n      dup2\n      0xffffffff\n      and\n      0xe0\n      shl\n      dup2\n      mstore\n      0x04\n      add\n      0x20\n      mload(0x40)\n      dup1\n      dup4\n      sub\n      dup2\n      dup7\n      gas\n      staticcall\n      iszero\n      dup1\n      iszero\n      tag_12\n      jumpi\n      returndatasize\n      0x00\n      dup1\n      returndatacopy\n      revert(0x00, returndatasize)\n    tag_12:\n      pop\n      pop\n      pop\n      pop\n      mload(0x40)\n      returndatasize\n      not(0x1f)\n      0x1f\n      dup3\n      add\n      and\n      dup3\n      add\n      dup1\n      0x40\n      mstore\n      pop\n      dup2\n      add\n      swap1\n      tag_13\n      swap2\n      swap1\n      tag_14\n      jump\t// in\n    tag_13:\n        /* \"contract/dragon/Copy_\\xe6\\x89\\xb9\\xe9\\x87\\x8fmint\\xe9\\xab\\x98\\xe7\\xba\\xa7\\xe7\\x89\\x88.sol\":1012:1068  uint _max = BERC20(contractAddress)._maxMintPerAddress() */\n      swap1\n      pop\n        /* \"contract/dragon/Copy_\\xe6\\x89\\xb9\\xe9\\x87\\x8fmint\\xe9\\xab\\x98\\xe7\\xba\\xa7\\xe7\\x89\\x88.sol\":1107:1112  times */\n      dup4\n        /* \"contract/dragon/Copy_\\xe6\\x89\\xb9\\xe9\\x87\\x8fmint\\xe9\\xab\\x98\\xe7\\xba\\xa7\\xe7\\x89\\x88.sol\":1099:1104  price */\n      dup4\n        /* \"contract/dragon/Copy_\\xe6\\x89\\xb9\\xe9\\x87\\x8fmint\\xe9\\xab\\x98\\xe7\\xba\\xa7\\xe7\\x89\\x88.sol\":1099:1112  price * times */\n      tag_15\n      swap2\n      swap1\n      tag_16\n      jump\t// in\n    tag_15:\n        /* \"contract/dragon/Copy_\\xe6\\x89\\xb9\\xe9\\x87\\x8fmint\\xe9\\xab\\x98\\xe7\\xba\\xa7\\xe7\\x89\\x88.sol\":1086:1095  msg.value */\n      callvalue\n        /* \"contract/dragon/Copy_\\xe6\\x89\\xb9\\xe9\\x87\\x8fmint\\xe9\\xab\\x98\\xe7\\xba\\xa7\\xe7\\x89\\x88.sol\":1086:1112  msg.value == price * times */\n      eq\n        /* \"contract/dragon/Copy_\\xe6\\x89\\xb9\\xe9\\x87\\x8fmint\\xe9\\xab\\x98\\xe7\\xba\\xa7\\xe7\\x89\\x88.sol\":1078:1141  require(msg.value == price * times, \"Batch transaction failed\") */\n      tag_17\n      jumpi\n      mload(0x40)\n      0x08c379a000000000000000000000000000000000000000000000000000000000\n      dup2\n      mstore\n      0x04\n      add\n      tag_18\n      swap1\n      tag_19\n      jump\t// in\n    tag_18:\n      mload(0x40)\n      dup1\n      swap2\n      sub\n      swap1\n      revert\n    tag_17:\n        /* \"contract/dragon/Copy_\\xe6\\x89\\xb9\\xe9\\x87\\x8fmint\\xe9\\xab\\x98\\xe7\\xba\\xa7\\xe7\\x89\\x88.sol\":1156:1162  uint i */\n      0x00\n        /* \"contract/dragon/Copy_\\xe6\\x89\\xb9\\xe9\\x87\\x8fmint\\xe9\\xab\\x98\\xe7\\xba\\xa7\\xe7\\x89\\x88.sol\":1151:1405  for (uint i = 0; i < times; i++) {... */\n    tag_20:\n        /* \"contract/dragon/Copy_\\xe6\\x89\\xb9\\xe9\\x87\\x8fmint\\xe9\\xab\\x98\\xe7\\xba\\xa7\\xe7\\x89\\x88.sol\":1172:1177  times */\n      dup5\n        /* \"contract/dragon/Copy_\\xe6\\x89\\xb9\\xe9\\x87\\x8fmint\\xe9\\xab\\x98\\xe7\\xba\\xa7\\xe7\\x89\\x88.sol\":1168:1169  i */\n      dup2\n        /* \"contract/dragon/Copy_\\xe6\\x89\\xb9\\xe9\\x87\\x8fmint\\xe9\\xab\\x98\\xe7\\xba\\xa7\\xe7\\x89\\x88.sol\":1168:1177  i < times */\n      lt\n        /* \"contract/dragon/Copy_\\xe6\\x89\\xb9\\xe9\\x87\\x8fmint\\xe9\\xab\\x98\\xe7\\xba\\xa7\\xe7\\x89\\x88.sol\":1151:1405  for (uint i = 0; i < times; i++) {... */\n      iszero\n      tag_21\n      jumpi\n        /* \"contract/dragon/Copy_\\xe6\\x89\\xb9\\xe9\\x87\\x8fmint\\xe9\\xab\\x98\\xe7\\xba\\xa7\\xe7\\x89\\x88.sol\":1206:1207  0 */\n      0x00\n        /* \"contract/dragon/Copy_\\xe6\\x89\\xb9\\xe9\\x87\\x8fmint\\xe9\\xab\\x98\\xe7\\xba\\xa7\\xe7\\x89\\x88.sol\":1202:1203  i */\n      dup2\n        /* \"contract/dragon/Copy_\\xe6\\x89\\xb9\\xe9\\x87\\x8fmint\\xe9\\xab\\x98\\xe7\\xba\\xa7\\xe7\\x89\\x88.sol\":1202:1207  i > 0 */\n      gt\n        /* \"contract/dragon/Copy_\\xe6\\x89\\xb9\\xe9\\x87\\x8fmint\\xe9\\xab\\x98\\xe7\\xba\\xa7\\xe7\\x89\\x88.sol\":1202:1222  i > 0 && i % 19 == 0 */\n      dup1\n      iszero\n      tag_23\n      jumpi\n      pop\n        /* \"contract/dragon/Copy_\\xe6\\x89\\xb9\\xe9\\x87\\x8fmint\\xe9\\xab\\x98\\xe7\\xba\\xa7\\xe7\\x89\\x88.sol\":1221:1222  0 */\n      0x00\n        /* \"contract/dragon/Copy_\\xe6\\x89\\xb9\\xe9\\x87\\x8fmint\\xe9\\xab\\x98\\xe7\\xba\\xa7\\xe7\\x89\\x88.sol\":1215:1217  19 */\n      0x13\n        /* \"contract/dragon/Copy_\\xe6\\x89\\xb9\\xe9\\x87\\x8fmint\\xe9\\xab\\x98\\xe7\\xba\\xa7\\xe7\\x89\\x88.sol\":1211:1212  i */\n      dup3\n        /* \"contract/dragon/Copy_\\xe6\\x89\\xb9\\xe9\\x87\\x8fmint\\xe9\\xab\\x98\\xe7\\xba\\xa7\\xe7\\x89\\x88.sol\":1211:1217  i % 19 */\n      tag_24\n      swap2\n      swap1\n      tag_25\n      jump\t// in\n    tag_24:\n        /* \"contract/dragon/Copy_\\xe6\\x89\\xb9\\xe9\\x87\\x8fmint\\xe9\\xab\\x98\\xe7\\xba\\xa7\\xe7\\x89\\x88.sol\":1211:1222  i % 19 == 0 */\n      eq\n        /* \"contract/dragon/Copy_\\xe6\\x89\\xb9\\xe9\\x87\\x8fmint\\xe9\\xab\\x98\\xe7\\xba\\xa7\\xe7\\x89\\x88.sol\":1202:1222  i > 0 && i % 19 == 0 */\n    tag_23:\n        /* \"contract/dragon/Copy_\\xe6\\x89\\xb9\\xe9\\x87\\x8fmint\\xe9\\xab\\x98\\xe7\\xba\\xa7\\xe7\\x89\\x88.sol\":1198:1395  if (i > 0 && i % 19 == 0) {... */\n      iszero\n      tag_26\n      jumpi\n        /* \"contract/dragon/Copy_\\xe6\\x89\\xb9\\xe9\\x87\\x8fmint\\xe9\\xab\\x98\\xe7\\xba\\xa7\\xe7\\x89\\x88.sol\":1257:1262  price */\n      dup4\n        /* \"contract/dragon/Copy_\\xe6\\x89\\xb9\\xe9\\x87\\x8fmint\\xe9\\xab\\x98\\xe7\\xba\\xa7\\xe7\\x89\\x88.sol\":1264:1279  contractAddress */\n      dup7\n        /* \"contract/dragon/Copy_\\xe6\\x89\\xb9\\xe9\\x87\\x8fmint\\xe9\\xab\\x98\\xe7\\xba\\xa7\\xe7\\x89\\x88.sol\":1281:1286  owner */\n      immutable(\"0x6304e47846f882085b0f4b1a184252ae95ffe5e2a02daf39c014f492dcb1441c\")\n        /* \"contract/dragon/Copy_\\xe6\\x89\\xb9\\xe9\\x87\\x8fmint\\xe9\\xab\\x98\\xe7\\xba\\xa7\\xe7\\x89\\x88.sol\":1288:1292  _max */\n      dup5\n        /* \"contract/dragon/Copy_\\xe6\\x89\\xb9\\xe9\\x87\\x8fmint\\xe9\\xab\\x98\\xe7\\xba\\xa7\\xe7\\x89\\x88.sol\":1242:1293  new bot{value: price}(contractAddress, owner, _max) */\n      mload(0x40)\n      tag_27\n      swap1\n      tag_28\n      jump\t// in\n    tag_27:\n      tag_29\n      swap4\n      swap3\n      swap2\n      swap1\n      tag_30\n      jump\t// in\n    tag_29:\n      mload(0x40)\n      dup1\n      swap2\n      sub\n      swap1\n      dup3\n      create\n      swap1\n      pop\n      dup1\n      iszero\n      dup1\n      iszero\n      tag_31\n      jumpi\n      returndatasize\n      0x00\n      dup1\n      returndatacopy\n      revert(0x00, returndatasize)\n    tag_31:\n      pop\n      pop\n        /* \"contract/dragon/Copy_\\xe6\\x89\\xb9\\xe9\\x87\\x8fmint\\xe9\\xab\\x98\\xe7\\xba\\xa7\\xe7\\x89\\x88.sol\":1198:1395  if (i > 0 && i % 19 == 0) {... */\n      jump(tag_32)\n    tag_26:\n        /* \"contract/dragon/Copy_\\xe6\\x89\\xb9\\xe9\\x87\\x8fmint\\xe9\\xab\\x98\\xe7\\xba\\xa7\\xe7\\x89\\x88.sol\":1347:1352  price */\n      dup4\n        /* \"contract/dragon/Copy_\\xe6\\x89\\xb9\\xe9\\x87\\x8fmint\\xe9\\xab\\x98\\xe7\\xba\\xa7\\xe7\\x89\\x88.sol\":1354:1369  contractAddress */\n      dup7\n        /* \"contract/dragon/Copy_\\xe6\\x89\\xb9\\xe9\\x87\\x8fmint\\xe9\\xab\\x98\\xe7\\xba\\xa7\\xe7\\x89\\x88.sol\":1371:1373  to */\n      dup5\n        /* \"contract/dragon/Copy_\\xe6\\x89\\xb9\\xe9\\x87\\x8fmint\\xe9\\xab\\x98\\xe7\\xba\\xa7\\xe7\\x89\\x88.sol\":1375:1379  _max */\n      dup5\n        /* \"contract/dragon/Copy_\\xe6\\x89\\xb9\\xe9\\x87\\x8fmint\\xe9\\xab\\x98\\xe7\\xba\\xa7\\xe7\\x89\\x88.sol\":1332:1380  new bot{value: price}(contractAddress, to, _max) */\n      mload(0x40)\n      tag_33\n      swap1\n      tag_28\n      jump\t// in\n    tag_33:\n      tag_34\n      swap4\n      swap3\n      swap2\n      swap1\n      tag_30\n      jump\t// in\n    tag_34:\n      mload(0x40)\n      dup1\n      swap2\n      sub\n      swap1\n      dup3\n      create\n      swap1\n      pop\n      dup1\n      iszero\n      dup1\n      iszero\n      tag_35\n      jumpi\n      returndatasize\n      0x00\n      dup1\n      returndatacopy\n      revert(0x00, returndatasize)\n    tag_35:\n      pop\n      pop\n        /* \"contract/dragon/Copy_\\xe6\\x89\\xb9\\xe9\\x87\\x8fmint\\xe9\\xab\\x98\\xe7\\xba\\xa7\\xe7\\x89\\x88.sol\":1198:1395  if (i > 0 && i % 19 == 0) {... */\n    tag_32:\n        /* \"contract/dragon/Copy_\\xe6\\x89\\xb9\\xe9\\x87\\x8fmint\\xe9\\xab\\x98\\xe7\\xba\\xa7\\xe7\\x89\\x88.sol\":1179:1182  i++ */\n      dup1\n      dup1\n      tag_36\n      swap1\n      tag_37\n      jump\t// in\n    tag_36:\n      swap2\n      pop\n      pop\n        /* \"contract/dragon/Copy_\\xe6\\x89\\xb9\\xe9\\x87\\x8fmint\\xe9\\xab\\x98\\xe7\\xba\\xa7\\xe7\\x89\\x88.sol\":1151:1405  for (uint i = 0; i < times; i++) {... */\n      jump(tag_20)\n    tag_21:\n      pop\n        /* \"contract/dragon/Copy_\\xe6\\x89\\xb9\\xe9\\x87\\x8fmint\\xe9\\xab\\x98\\xe7\\xba\\xa7\\xe7\\x89\\x88.sol\":871:1411  {... */\n      pop\n      pop\n      pop\n        /* \"contract/dragon/Copy_\\xe6\\x89\\xb9\\xe9\\x87\\x8fmint\\xe9\\xab\\x98\\xe7\\xba\\xa7\\xe7\\x89\\x88.sol\":768:1411  function fooyaoBulkMint(... */\n      pop\n      pop\n      jump\t// out\n    tag_28:\n      dataSize(sub_0)\n      dup1\n      dataOffset(sub_0)\n      dup4\n      codecopy\n      add\n      swap1\n      jump\t// out\n        /* \"#utility.yul\":88:205   */\n    tag_39:\n        /* \"#utility.yul\":197:198   */\n      0x00\n        /* \"#utility.yul\":194:195   */\n      dup1\n        /* \"#utility.yul\":187:199   */\n      revert\n        /* \"#utility.yul\":334:460   */\n    tag_41:\n        /* \"#utility.yul\":371:378   */\n      0x00\n        /* \"#utility.yul\":411:453   */\n      0xffffffffffffffffffffffffffffffffffffffff\n        /* \"#utility.yul\":404:409   */\n      dup3\n        /* \"#utility.yul\":400:454   */\n      and\n        /* \"#utility.yul\":389:454   */\n      swap1\n      pop\n        /* \"#utility.yul\":334:460   */\n      swap2\n      swap1\n      pop\n      jump\t// out\n        /* \"#utility.yul\":466:562   */\n    tag_42:\n        /* \"#utility.yul\":503:510   */\n      0x00\n        /* \"#utility.yul\":532:556   */\n      tag_62\n        /* \"#utility.yul\":550:555   */\n      dup3\n        /* \"#utility.yul\":532:556   */\n      tag_41\n      jump\t// in\n    tag_62:\n        /* \"#utility.yul\":521:556   */\n      swap1\n      pop\n        /* \"#utility.yul\":466:562   */\n      swap2\n      swap1\n      pop\n      jump\t// out\n        /* \"#utility.yul\":568:690   */\n    tag_43:\n        /* \"#utility.yul\":641:665   */\n      tag_64\n        /* \"#utility.yul\":659:664   */\n      dup2\n        /* \"#utility.yul\":641:665   */\n      tag_42\n      jump\t// in\n    tag_64:\n        /* \"#utility.yul\":634:639   */\n      dup2\n        /* \"#utility.yul\":631:666   */\n      eq\n        /* \"#utility.yul\":621:684   */\n      tag_65\n      jumpi\n        /* \"#utility.yul\":680:681   */\n      0x00\n        /* \"#utility.yul\":677:678   */\n      dup1\n        /* \"#utility.yul\":670:682   */\n      revert\n        /* \"#utility.yul\":621:684   */\n    tag_65:\n        /* \"#utility.yul\":568:690   */\n      pop\n      jump\t// out\n        /* \"#utility.yul\":696:835   */\n    tag_44:\n        /* \"#utility.yul\":742:747   */\n      0x00\n        /* \"#utility.yul\":780:786   */\n      dup2\n        /* \"#utility.yul\":767:787   */\n      calldataload\n        /* \"#utility.yul\":758:787   */\n      swap1\n      pop\n        /* \"#utility.yul\":796:829   */\n      tag_67\n        /* \"#utility.yul\":823:828   */\n      dup2\n        /* \"#utility.yul\":796:829   */\n      tag_43\n      jump\t// in\n    tag_67:\n        /* \"#utility.yul\":696:835   */\n      swap3\n      swap2\n      pop\n      pop\n      jump\t// out\n        /* \"#utility.yul\":841:918   */\n    tag_45:\n        /* \"#utility.yul\":878:885   */\n      0x00\n        /* \"#utility.yul\":907:912   */\n      dup2\n        /* \"#utility.yul\":896:912   */\n      swap1\n      pop\n        /* \"#utility.yul\":841:918   */\n      swap2\n      swap1\n      pop\n      jump\t// out\n        /* \"#utility.yul\":924:1046   */\n    tag_46:\n        /* \"#utility.yul\":997:1021   */\n      tag_70\n        /* \"#utility.yul\":1015:1020   */\n      dup2\n        /* \"#utility.yul\":997:1021   */\n      tag_45\n      jump\t// in\n    tag_70:\n        /* \"#utility.yul\":990:995   */\n      dup2\n        /* \"#utility.yul\":987:1022   */\n      eq\n        /* \"#utility.yul\":977:1040   */\n      tag_71\n      jumpi\n        /* \"#utility.yul\":1036:1037   */\n      0x00\n        /* \"#utility.yul\":1033:1034   */\n      dup1\n        /* \"#utility.yul\":1026:1038   */\n      revert\n        /* \"#utility.yul\":977:1040   */\n    tag_71:\n        /* \"#utility.yul\":924:1046   */\n      pop\n      jump\t// out\n        /* \"#utility.yul\":1052:1191   */\n    tag_47:\n        /* \"#utility.yul\":1098:1103   */\n      0x00\n        /* \"#utility.yul\":1136:1142   */\n      dup2\n        /* \"#utility.yul\":1123:1143   */\n      calldataload\n        /* \"#utility.yul\":1114:1143   */\n      swap1\n      pop\n        /* \"#utility.yul\":1152:1185   */\n      tag_73\n        /* \"#utility.yul\":1179:1184   */\n      dup2\n        /* \"#utility.yul\":1152:1185   */\n      tag_46\n      jump\t// in\n    tag_73:\n        /* \"#utility.yul\":1052:1191   */\n      swap3\n      swap2\n      pop\n      pop\n      jump\t// out\n        /* \"#utility.yul\":1197:1671   */\n    tag_5:\n        /* \"#utility.yul\":1265:1271   */\n      0x00\n        /* \"#utility.yul\":1273:1279   */\n      dup1\n        /* \"#utility.yul\":1322:1324   */\n      0x40\n        /* \"#utility.yul\":1310:1319   */\n      dup4\n        /* \"#utility.yul\":1301:1308   */\n      dup6\n        /* \"#utility.yul\":1297:1320   */\n      sub\n        /* \"#utility.yul\":1293:1325   */\n      slt\n        /* \"#utility.yul\":1290:1409   */\n      iszero\n      tag_75\n      jumpi\n        /* \"#utility.yul\":1328:1407   */\n      tag_76\n      tag_39\n      jump\t// in\n    tag_76:\n        /* \"#utility.yul\":1290:1409   */\n    tag_75:\n        /* \"#utility.yul\":1448:1449   */\n      0x00\n        /* \"#utility.yul\":1473:1526   */\n      tag_77\n        /* \"#utility.yul\":1518:1525   */\n      dup6\n        /* \"#utility.yul\":1509:1515   */\n      dup3\n        /* \"#utility.yul\":1498:1507   */\n      dup7\n        /* \"#utility.yul\":1494:1516   */\n      add\n        /* \"#utility.yul\":1473:1526   */\n      tag_44\n      jump\t// in\n    tag_77:\n        /* \"#utility.yul\":1463:1526   */\n      swap3\n      pop\n        /* \"#utility.yul\":1419:1536   */\n      pop\n        /* \"#utility.yul\":1575:1577   */\n      0x20\n        /* \"#utility.yul\":1601:1654   */\n      tag_78\n        /* \"#utility.yul\":1646:1653   */\n      dup6\n        /* \"#utility.yul\":1637:1643   */\n      dup3\n        /* \"#utility.yul\":1626:1635   */\n      dup7\n        /* \"#utility.yul\":1622:1644   */\n      add\n        /* \"#utility.yul\":1601:1654   */\n      tag_47\n      jump\t// in\n    tag_78:\n        /* \"#utility.yul\":1591:1654   */\n      swap2\n      pop\n        /* \"#utility.yul\":1546:1664   */\n      pop\n        /* \"#utility.yul\":1197:1671   */\n      swap3\n      pop\n      swap3\n      swap1\n      pop\n      jump\t// out\n        /* \"#utility.yul\":1677:1857   */\n    tag_48:\n        /* \"#utility.yul\":1725:1802   */\n      0x4e487b7100000000000000000000000000000000000000000000000000000000\n        /* \"#utility.yul\":1722:1723   */\n      0x00\n        /* \"#utility.yul\":1715:1803   */\n      mstore\n        /* \"#utility.yul\":1822:1826   */\n      0x12\n        /* \"#utility.yul\":1819:1820   */\n      0x04\n        /* \"#utility.yul\":1812:1827   */\n      mstore\n        /* \"#utility.yul\":1846:1850   */\n      0x24\n        /* \"#utility.yul\":1843:1844   */\n      0x00\n        /* \"#utility.yul\":1836:1851   */\n      revert\n        /* \"#utility.yul\":1863:2043   */\n    tag_49:\n        /* \"#utility.yul\":1911:1988   */\n      0x4e487b7100000000000000000000000000000000000000000000000000000000\n        /* \"#utility.yul\":1908:1909   */\n      0x00\n        /* \"#utility.yul\":1901:1989   */\n      mstore\n        /* \"#utility.yul\":2008:2012   */\n      0x11\n        /* \"#utility.yul\":2005:2006   */\n      0x04\n        /* \"#utility.yul\":1998:2013   */\n      mstore\n        /* \"#utility.yul\":2032:2036   */\n      0x24\n        /* \"#utility.yul\":2029:2030   */\n      0x00\n        /* \"#utility.yul\":2022:2037   */\n      revert\n        /* \"#utility.yul\":2049:2234   */\n    tag_10:\n        /* \"#utility.yul\":2089:2090   */\n      0x00\n        /* \"#utility.yul\":2106:2126   */\n      tag_82\n        /* \"#utility.yul\":2124:2125   */\n      dup3\n        /* \"#utility.yul\":2106:2126   */\n      tag_45\n      jump\t// in\n    tag_82:\n        /* \"#utility.yul\":2101:2126   */\n      swap2\n      pop\n        /* \"#utility.yul\":2140:2160   */\n      tag_83\n        /* \"#utility.yul\":2158:2159   */\n      dup4\n        /* \"#utility.yul\":2140:2160   */\n      tag_45\n      jump\t// in\n    tag_83:\n        /* \"#utility.yul\":2135:2160   */\n      swap3\n      pop\n        /* \"#utility.yul\":2179:2180   */\n      dup3\n        /* \"#utility.yul\":2169:2204   */\n      tag_84\n      jumpi\n        /* \"#utility.yul\":2184:2202   */\n      tag_85\n      tag_48\n      jump\t// in\n    tag_85:\n        /* \"#utility.yul\":2169:2204   */\n    tag_84:\n        /* \"#utility.yul\":2226:2227   */\n      dup3\n        /* \"#utility.yul\":2223:2224   */\n      dup3\n        /* \"#utility.yul\":2219:2228   */\n      div\n        /* \"#utility.yul\":2214:2228   */\n      swap1\n      pop\n        /* \"#utility.yul\":2049:2234   */\n      swap3\n      swap2\n      pop\n      pop\n      jump\t// out\n        /* \"#utility.yul\":2240:2383   */\n    tag_50:\n        /* \"#utility.yul\":2297:2302   */\n      0x00\n        /* \"#utility.yul\":2328:2334   */\n      dup2\n        /* \"#utility.yul\":2322:2335   */\n      mload\n        /* \"#utility.yul\":2313:2335   */\n      swap1\n      pop\n        /* \"#utility.yul\":2344:2377   */\n      tag_87\n        /* \"#utility.yul\":2371:2376   */\n      dup2\n        /* \"#utility.yul\":2344:2377   */\n      tag_46\n      jump\t// in\n    tag_87:\n        /* \"#utility.yul\":2240:2383   */\n      swap3\n      swap2\n      pop\n      pop\n      jump\t// out\n        /* \"#utility.yul\":2389:2740   */\n    tag_14:\n        /* \"#utility.yul\":2459:2465   */\n      0x00\n        /* \"#utility.yul\":2508:2510   */\n      0x20\n        /* \"#utility.yul\":2496:2505   */\n      dup3\n        /* \"#utility.yul\":2487:2494   */\n      dup5\n        /* \"#utility.yul\":2483:2506   */\n      sub\n        /* \"#utility.yul\":2479:2511   */\n      slt\n        /* \"#utility.yul\":2476:2595   */\n      iszero\n      tag_89\n      jumpi\n        /* \"#utility.yul\":2514:2593   */\n      tag_90\n      tag_39\n      jump\t// in\n    tag_90:\n        /* \"#utility.yul\":2476:2595   */\n    tag_89:\n        /* \"#utility.yul\":2634:2635   */\n      0x00\n        /* \"#utility.yul\":2659:2723   */\n      tag_91\n        /* \"#utility.yul\":2715:2722   */\n      dup5\n        /* \"#utility.yul\":2706:2712   */\n      dup3\n        /* \"#utility.yul\":2695:2704   */\n      dup6\n        /* \"#utility.yul\":2691:2713   */\n      add\n        /* \"#utility.yul\":2659:2723   */\n      tag_50\n      jump\t// in\n    tag_91:\n        /* \"#utility.yul\":2649:2723   */\n      swap2\n      pop\n        /* \"#utility.yul\":2605:2733   */\n      pop\n        /* \"#utility.yul\":2389:2740   */\n      swap3\n      swap2\n      pop\n      pop\n      jump\t// out\n        /* \"#utility.yul\":2746:3156   */\n    tag_16:\n        /* \"#utility.yul\":2786:2793   */\n      0x00\n        /* \"#utility.yul\":2809:2829   */\n      tag_93\n        /* \"#utility.yul\":2827:2828   */\n      dup3\n        /* \"#utility.yul\":2809:2829   */\n      tag_45\n      jump\t// in\n    tag_93:\n        /* \"#utility.yul\":2804:2829   */\n      swap2\n      pop\n        /* \"#utility.yul\":2843:2863   */\n      tag_94\n        /* \"#utility.yul\":2861:2862   */\n      dup4\n        /* \"#utility.yul\":2843:2863   */\n      tag_45\n      jump\t// in\n    tag_94:\n        /* \"#utility.yul\":2838:2863   */\n      swap3\n      pop\n        /* \"#utility.yul\":2898:2899   */\n      dup3\n        /* \"#utility.yul\":2895:2896   */\n      dup3\n        /* \"#utility.yul\":2891:2900   */\n      mul\n        /* \"#utility.yul\":2920:2950   */\n      tag_95\n        /* \"#utility.yul\":2938:2949   */\n      dup2\n        /* \"#utility.yul\":2920:2950   */\n      tag_45\n      jump\t// in\n    tag_95:\n        /* \"#utility.yul\":2909:2950   */\n      swap2\n      pop\n        /* \"#utility.yul\":3099:3100   */\n      dup3\n        /* \"#utility.yul\":3090:3097   */\n      dup3\n        /* \"#utility.yul\":3086:3101   */\n      div\n        /* \"#utility.yul\":3083:3084   */\n      dup5\n        /* \"#utility.yul\":3080:3102   */\n      eq\n        /* \"#utility.yul\":3060:3061   */\n      dup4\n        /* \"#utility.yul\":3053:3062   */\n      iszero\n        /* \"#utility.yul\":3033:3116   */\n      or\n        /* \"#utility.yul\":3010:3149   */\n      tag_96\n      jumpi\n        /* \"#utility.yul\":3129:3147   */\n      tag_97\n      tag_49\n      jump\t// in\n    tag_97:\n        /* \"#utility.yul\":3010:3149   */\n    tag_96:\n        /* \"#utility.yul\":2794:3156   */\n      pop\n        /* \"#utility.yul\":2746:3156   */\n      swap3\n      swap2\n      pop\n      pop\n      jump\t// out\n        /* \"#utility.yul\":3162:3331   */\n    tag_51:\n        /* \"#utility.yul\":3246:3257   */\n      0x00\n        /* \"#utility.yul\":3280:3286   */\n      dup3\n        /* \"#utility.yul\":3275:3278   */\n      dup3\n        /* \"#utility.yul\":3268:3287   */\n      mstore\n        /* \"#utility.yul\":3320:3324   */\n      0x20\n        /* \"#utility.yul\":3315:3318   */\n      dup3\n        /* \"#utility.yul\":3311:3325   */\n      add\n        /* \"#utility.yul\":3296:3325   */\n      swap1\n      pop\n        /* \"#utility.yul\":3162:3331   */\n      swap3\n      swap2\n      pop\n      pop\n      jump\t// out\n        /* \"#utility.yul\":3337:3511   */\n    tag_52:\n        /* \"#utility.yul\":3477:3503   */\n      0x4261746368207472616e73616374696f6e206661696c65640000000000000000\n        /* \"#utility.yul\":3473:3474   */\n      0x00\n        /* \"#utility.yul\":3465:3471   */\n      dup3\n        /* \"#utility.yul\":3461:3475   */\n      add\n        /* \"#utility.yul\":3454:3504   */\n      mstore\n        /* \"#utility.yul\":3337:3511   */\n      pop\n      jump\t// out\n        /* \"#utility.yul\":3517:3883   */\n    tag_53:\n        /* \"#utility.yul\":3659:3662   */\n      0x00\n        /* \"#utility.yul\":3680:3747   */\n      tag_101\n        /* \"#utility.yul\":3744:3746   */\n      0x18\n        /* \"#utility.yul\":3739:3742   */\n      dup4\n        /* \"#utility.yul\":3680:3747   */\n      tag_51\n      jump\t// in\n    tag_101:\n        /* \"#utility.yul\":3673:3747   */\n      swap2\n      pop\n        /* \"#utility.yul\":3756:3849   */\n      tag_102\n        /* \"#utility.yul\":3845:3848   */\n      dup3\n        /* \"#utility.yul\":3756:3849   */\n      tag_52\n      jump\t// in\n    tag_102:\n        /* \"#utility.yul\":3874:3876   */\n      0x20\n        /* \"#utility.yul\":3869:3872   */\n      dup3\n        /* \"#utility.yul\":3865:3877   */\n      add\n        /* \"#utility.yul\":3858:3877   */\n      swap1\n      pop\n        /* \"#utility.yul\":3517:3883   */\n      swap2\n      swap1\n      pop\n      jump\t// out\n        /* \"#utility.yul\":3889:4308   */\n    tag_19:\n        /* \"#utility.yul\":4055:4059   */\n      0x00\n        /* \"#utility.yul\":4093:4095   */\n      0x20\n        /* \"#utility.yul\":4082:4091   */\n      dup3\n        /* \"#utility.yul\":4078:4096   */\n      add\n        /* \"#utility.yul\":4070:4096   */\n      swap1\n      pop\n        /* \"#utility.yul\":4142:4151   */\n      dup2\n        /* \"#utility.yul\":4136:4140   */\n      dup2\n        /* \"#utility.yul\":4132:4152   */\n      sub\n        /* \"#utility.yul\":4128:4129   */\n      0x00\n        /* \"#utility.yul\":4117:4126   */\n      dup4\n        /* \"#utility.yul\":4113:4130   */\n      add\n        /* \"#utility.yul\":4106:4153   */\n      mstore\n        /* \"#utility.yul\":4170:4301   */\n      tag_104\n        /* \"#utility.yul\":4296:4300   */\n      dup2\n        /* \"#utility.yul\":4170:4301   */\n      tag_53\n      jump\t// in\n    tag_104:\n        /* \"#utility.yul\":4162:4301   */\n      swap1\n      pop\n        /* \"#utility.yul\":3889:4308   */\n      swap2\n      swap1\n      pop\n      jump\t// out\n        /* \"#utility.yul\":4314:4490   */\n    tag_25:\n        /* \"#utility.yul\":4346:4347   */\n      0x00\n        /* \"#utility.yul\":4363:4383   */\n      tag_106\n        /* \"#utility.yul\":4381:4382   */\n      dup3\n        /* \"#utility.yul\":4363:4383   */\n      tag_45\n      jump\t// in\n    tag_106:\n        /* \"#utility.yul\":4358:4383   */\n      swap2\n      pop\n        /* \"#utility.yul\":4397:4417   */\n      tag_107\n        /* \"#utility.yul\":4415:4416   */\n      dup4\n        /* \"#utility.yul\":4397:4417   */\n      tag_45\n      jump\t// in\n    tag_107:\n        /* \"#utility.yul\":4392:4417   */\n      swap3\n      pop\n        /* \"#utility.yul\":4436:4437   */\n      dup3\n        /* \"#utility.yul\":4426:4461   */\n      tag_108\n      jumpi\n        /* \"#utility.yul\":4441:4459   */\n      tag_109\n      tag_48\n      jump\t// in\n    tag_109:\n        /* \"#utility.yul\":4426:4461   */\n    tag_108:\n        /* \"#utility.yul\":4482:4483   */\n      dup3\n        /* \"#utility.yul\":4479:4480   */\n      dup3\n        /* \"#utility.yul\":4475:4484   */\n      mod\n        /* \"#utility.yul\":4470:4484   */\n      swap1\n      pop\n        /* \"#utility.yul\":4314:4490   */\n      swap3\n      swap2\n      pop\n      pop\n      jump\t// out\n        /* \"#utility.yul\":4496:4614   */\n    tag_54:\n        /* \"#utility.yul\":4583:4607   */\n      tag_111\n        /* \"#utility.yul\":4601:4606   */\n      dup2\n        /* \"#utility.yul\":4583:4607   */\n      tag_42\n      jump\t// in\n    tag_111:\n        /* \"#utility.yul\":4578:4581   */\n      dup3\n        /* \"#utility.yul\":4571:4608   */\n      mstore\n        /* \"#utility.yul\":4496:4614   */\n      pop\n      pop\n      jump\t// out\n        /* \"#utility.yul\":4620:4738   */\n    tag_55:\n        /* \"#utility.yul\":4707:4731   */\n      tag_113\n        /* \"#utility.yul\":4725:4730   */\n      dup2\n        /* \"#utility.yul\":4707:4731   */\n      tag_45\n      jump\t// in\n    tag_113:\n        /* \"#utility.yul\":4702:4705   */\n      dup3\n        /* \"#utility.yul\":4695:4732   */\n      mstore\n        /* \"#utility.yul\":4620:4738   */\n      pop\n      pop\n      jump\t// out\n        /* \"#utility.yul\":4744:5186   */\n    tag_30:\n        /* \"#utility.yul\":4893:4897   */\n      0x00\n        /* \"#utility.yul\":4931:4933   */\n      0x60\n        /* \"#utility.yul\":4920:4929   */\n      dup3\n        /* \"#utility.yul\":4916:4934   */\n      add\n        /* \"#utility.yul\":4908:4934   */\n      swap1\n      pop\n        /* \"#utility.yul\":4944:5015   */\n      tag_115\n        /* \"#utility.yul\":5012:5013   */\n      0x00\n        /* \"#utility.yul\":5001:5010   */\n      dup4\n        /* \"#utility.yul\":4997:5014   */\n      add\n        /* \"#utility.yul\":4988:4994   */\n      dup7\n        /* \"#utility.yul\":4944:5015   */\n      tag_54\n      jump\t// in\n    tag_115:\n        /* \"#utility.yul\":5025:5097   */\n      tag_116\n        /* \"#utility.yul\":5093:5095   */\n      0x20\n        /* \"#utility.yul\":5082:5091   */\n      dup4\n        /* \"#utility.yul\":5078:5096   */\n      add\n        /* \"#utility.yul\":5069:5075   */\n      dup6\n        /* \"#utility.yul\":5025:5097   */\n      tag_54\n      jump\t// in\n    tag_116:\n        /* \"#utility.yul\":5107:5179   */\n      tag_117\n        /* \"#utility.yul\":5175:5177   */\n      0x40\n        /* \"#utility.yul\":5164:5173   */\n      dup4\n        /* \"#utility.yul\":5160:5178   */\n      add\n        /* \"#utility.yul\":5151:5157   */\n      dup5\n        /* \"#utility.yul\":5107:5179   */\n      tag_55\n      jump\t// in\n    tag_117:\n        /* \"#utility.yul\":4744:5186   */\n      swap5\n      swap4\n      pop\n      pop\n      pop\n      pop\n      jump\t// out\n        /* \"#utility.yul\":5192:5425   */\n    tag_37:\n        /* \"#utility.yul\":5231:5234   */\n      0x00\n        /* \"#utility.yul\":5254:5278   */\n      tag_119\n        /* \"#utility.yul\":5272:5277   */\n      dup3\n        /* \"#utility.yul\":5254:5278   */\n      tag_45\n      jump\t// in\n    tag_119:\n        /* \"#utility.yul\":5245:5278   */\n      swap2\n      pop\n        /* \"#utility.yul\":5300:5366   */\n      0xffffffffffffffffffffffffffffffffffffffffffffffffffffffffffffffff\n        /* \"#utility.yul\":5293:5298   */\n      dup3\n        /* \"#utility.yul\":5290:5367   */\n      sub\n        /* \"#utility.yul\":5287:5390   */\n      tag_120\n      jumpi\n        /* \"#utility.yul\":5370:5388   */\n      tag_121\n      tag_49\n      jump\t// in\n    tag_121:\n        /* \"#utility.yul\":5287:5390   */\n    tag_120:\n        /* \"#utility.yul\":5417:5418   */\n      0x01\n        /* \"#utility.yul\":5410:5415   */\n      dup3\n        /* \"#utility.yul\":5406:5419   */\n      add\n        /* \"#utility.yul\":5399:5419   */\n      swap1\n      pop\n        /* \"#utility.yul\":5192:5425   */\n      swap2\n      swap1\n      pop\n      jump\t// out\n    stop\n\n    sub_0: assembly {\n            /* \"contract/dragon/Copy_\\xe6\\x89\\xb9\\xe9\\x87\\x8fmint\\xe9\\xab\\x98\\xe7\\xba\\xa7\\xe7\\x89\\x88.sol\":216:546  contract bot {... */\n          mstore(0x40, 0x80)\n            /* \"contract/dragon/Copy_\\xe6\\x89\\xb9\\xe9\\x87\\x8fmint\\xe9\\xab\\x98\\xe7\\xba\\xa7\\xe7\\x89\\x88.sol\":235:544  constructor(address contractAddress, address to, uint256 _max) payable {... */\n          mload(0x40)\n          sub(codesize, bytecodeSize)\n          dup1\n          bytecodeSize\n          dup4\n          codecopy\n          dup2\n          dup2\n          add\n          0x40\n          mstore\n          dup2\n          add\n          swap1\n          tag_1\n          swap2\n          swap1\n          tag_2\n          jump\t// in\n        tag_1:\n            /* \"contract/dragon/Copy_\\xe6\\x89\\xb9\\xe9\\x87\\x8fmint\\xe9\\xab\\x98\\xe7\\xba\\xa7\\xe7\\x89\\x88.sol\":317:329  bool success */\n          0x00\n            /* \"contract/dragon/Copy_\\xe6\\x89\\xb9\\xe9\\x87\\x8fmint\\xe9\\xab\\x98\\xe7\\xba\\xa7\\xe7\\x89\\x88.sol\":335:350  contractAddress */\n          dup4\n            /* \"contract/dragon/Copy_\\xe6\\x89\\xb9\\xe9\\x87\\x8fmint\\xe9\\xab\\x98\\xe7\\xba\\xa7\\xe7\\x89\\x88.sol\":335:355  contractAddress.call */\n          0xffffffffffffffffffffffffffffffffffffffff\n          and\n            /* \"contract/dragon/Copy_\\xe6\\x89\\xb9\\xe9\\x87\\x8fmint\\xe9\\xab\\x98\\xe7\\xba\\xa7\\xe7\\x89\\x88.sol\":363:372  msg.value */\n          callvalue\n            /* \"contract/dragon/Copy_\\xe6\\x89\\xb9\\xe9\\x87\\x8fmint\\xe9\\xab\\x98\\xe7\\xba\\xa7\\xe7\\x89\\x88.sol\":410:420  0x94bf804d */\n          0x94bf804d\n            /* \"contract/dragon/Copy_\\xe6\\x89\\xb9\\xe9\\x87\\x8fmint\\xe9\\xab\\x98\\xe7\\xba\\xa7\\xe7\\x89\\x88.sol\":422:426  _max */\n          dup5\n            /* \"contract/dragon/Copy_\\xe6\\x89\\xb9\\xe9\\x87\\x8fmint\\xe9\\xab\\x98\\xe7\\xba\\xa7\\xe7\\x89\\x88.sol\":428:430  to */\n          dup7\n            /* \"contract/dragon/Copy_\\xe6\\x89\\xb9\\xe9\\x87\\x8fmint\\xe9\\xab\\x98\\xe7\\xba\\xa7\\xe7\\x89\\x88.sol\":387:431  abi.encodeWithSelector(0x94bf804d, _max, to) */\n          add(0x24, mload(0x40))\n          tag_5\n          swap3\n          swap2\n          swap1\n          tag_6\n          jump\t// in\n        tag_5:\n          mload(0x40)\n          0x20\n          dup2\n          dup4\n          sub\n          sub\n          dup2\n          mstore\n          swap1\n          0x40\n          mstore\n          swap1\n          0xe0\n          shl\n          0x20\n          dup3\n          add\n          dup1\n          mload\n          0xffffffffffffffffffffffffffffffffffffffffffffffffffffffff\n          dup4\n          dup2\n          dup4\n          and\n          or\n          dup4\n          mstore\n          pop\n          pop\n          pop\n          pop\n            /* \"contract/dragon/Copy_\\xe6\\x89\\xb9\\xe9\\x87\\x8fmint\\xe9\\xab\\x98\\xe7\\xba\\xa7\\xe7\\x89\\x88.sol\":335:441  contractAddress.call{value: msg.value}(... */\n          mload(0x40)\n          tag_7\n          swap2\n          swap1\n          tag_8\n          jump\t// in\n        tag_7:\n          0x00\n          mload(0x40)\n          dup1\n          dup4\n          sub\n          dup2\n          dup6\n          dup8\n          gas\n          call\n          swap3\n          pop\n          pop\n          pop\n          returndatasize\n          dup1\n          0x00\n          dup2\n          eq\n          tag_11\n          jumpi\n          mload(0x40)\n          swap2\n          pop\n          and(add(returndatasize, 0x3f), not(0x1f))\n          dup3\n          add\n          0x40\n          mstore\n          returndatasize\n          dup3\n          mstore\n          returndatasize\n          0x00\n          0x20\n          dup5\n          add\n          returndatacopy\n          jump(tag_10)\n        tag_11:\n          0x60\n          swap2\n          pop\n        tag_10:\n          pop\n            /* \"contract/dragon/Copy_\\xe6\\x89\\xb9\\xe9\\x87\\x8fmint\\xe9\\xab\\x98\\xe7\\xba\\xa7\\xe7\\x89\\x88.sol\":316:441  (bool success, ) = contractAddress.call{value: msg.value}(... */\n          pop\n          swap1\n          pop\n            /* \"contract/dragon/Copy_\\xe6\\x89\\xb9\\xe9\\x87\\x8fmint\\xe9\\xab\\x98\\xe7\\xba\\xa7\\xe7\\x89\\x88.sol\":459:466  success */\n          dup1\n            /* \"contract/dragon/Copy_\\xe6\\x89\\xb9\\xe9\\x87\\x8fmint\\xe9\\xab\\x98\\xe7\\xba\\xa7\\xe7\\x89\\x88.sol\":451:495  require(success, \"Batch transaction failed\") */\n          tag_12\n          jumpi\n          mload(0x40)\n          0x08c379a000000000000000000000000000000000000000000000000000000000\n          dup2\n          mstore\n          0x04\n          add\n          tag_13\n          swap1\n          tag_14\n          jump\t// in\n        tag_13:\n          mload(0x40)\n          dup1\n          swap2\n          sub\n          swap1\n          revert\n        tag_12:\n            /* \"contract/dragon/Copy_\\xe6\\x89\\xb9\\xe9\\x87\\x8fmint\\xe9\\xab\\x98\\xe7\\xba\\xa7\\xe7\\x89\\x88.sol\":526:535  tx.origin */\n          origin\n            /* \"contract/dragon/Copy_\\xe6\\x89\\xb9\\xe9\\x87\\x8fmint\\xe9\\xab\\x98\\xe7\\xba\\xa7\\xe7\\x89\\x88.sol\":505:537  selfdestruct(payable(tx.origin)) */\n          0xffffffffffffffffffffffffffffffffffffffff\n          and\n          selfdestruct\n            /* \"#utility.yul\":88:205   */\n        tag_17:\n            /* \"#utility.yul\":197:198   */\n          0x00\n            /* \"#utility.yul\":194:195   */\n          dup1\n            /* \"#utility.yul\":187:199   */\n          revert\n            /* \"#utility.yul\":334:460   */\n        tag_19:\n            /* \"#utility.yul\":371:378   */\n          0x00\n            /* \"#utility.yul\":411:453   */\n          0xffffffffffffffffffffffffffffffffffffffff\n            /* \"#utility.yul\":404:409   */\n          dup3\n            /* \"#utility.yul\":400:454   */\n          and\n            /* \"#utility.yul\":389:454   */\n          swap1\n          pop\n            /* \"#utility.yul\":334:460   */\n          swap2\n          swap1\n          pop\n          jump\t// out\n            /* \"#utility.yul\":466:562   */\n        tag_20:\n            /* \"#utility.yul\":503:510   */\n          0x00\n            /* \"#utility.yul\":532:556   */\n          tag_41\n            /* \"#utility.yul\":550:555   */\n          dup3\n            /* \"#utility.yul\":532:556   */\n          tag_19\n          jump\t// in\n        tag_41:\n            /* \"#utility.yul\":521:556   */\n          swap1\n          pop\n            /* \"#utility.yul\":466:562   */\n          swap2\n          swap1\n          pop\n          jump\t// out\n            /* \"#utility.yul\":568:690   */\n        tag_21:\n            /* \"#utility.yul\":641:665   */\n          tag_43\n            /* \"#utility.yul\":659:664   */\n          dup2\n            /* \"#utility.yul\":641:665   */\n          tag_20\n          jump\t// in\n        tag_43:\n            /* \"#utility.yul\":634:639   */\n          dup2\n            /* \"#utility.yul\":631:666   */\n          eq\n            /* \"#utility.yul\":621:684   */\n          tag_44\n          jumpi\n            /* \"#utility.yul\":680:681   */\n          0x00\n            /* \"#utility.yul\":677:678   */\n          dup1\n            /* \"#utility.yul\":670:682   */\n          revert\n            /* \"#utility.yul\":621:684   */\n        tag_44:\n            /* \"#utility.yul\":568:690   */\n          pop\n          jump\t// out\n            /* \"#utility.yul\":696:839   */\n        tag_22:\n            /* \"#utility.yul\":753:758   */\n          0x00\n            /* \"#utility.yul\":784:790   */\n          dup2\n            /* \"#utility.yul\":778:791   */\n          mload\n            /* \"#utility.yul\":769:791   */\n          swap1\n          pop\n            /* \"#utility.yul\":800:833   */\n          tag_46\n            /* \"#utility.yul\":827:832   */\n          dup2\n            /* \"#utility.yul\":800:833   */\n          tag_21\n          jump\t// in\n        tag_46:\n            /* \"#utility.yul\":696:839   */\n          swap3\n          swap2\n          pop\n          pop\n          jump\t// out\n            /* \"#utility.yul\":845:922   */\n        tag_23:\n            /* \"#utility.yul\":882:889   */\n          0x00\n            /* \"#utility.yul\":911:916   */\n          dup2\n            /* \"#utility.yul\":900:916   */\n          swap1\n          pop\n            /* \"#utility.yul\":845:922   */\n          swap2\n          swap1\n          pop\n          jump\t// out\n            /* \"#utility.yul\":928:1050   */\n        tag_24:\n            /* \"#utility.yul\":1001:1025   */\n          tag_49\n            /* \"#utility.yul\":1019:1024   */\n          dup2\n            /* \"#utility.yul\":1001:1025   */\n          tag_23\n          jump\t// in\n        tag_49:\n            /* \"#utility.yul\":994:999   */\n          dup2\n            /* \"#utility.yul\":991:1026   */\n          eq\n            /* \"#utility.yul\":981:1044   */\n          tag_50\n          jumpi\n            /* \"#utility.yul\":1040:1041   */\n          0x00\n            /* \"#utility.yul\":1037:1038   */\n          dup1\n            /* \"#utility.yul\":1030:1042   */\n          revert\n            /* \"#utility.yul\":981:1044   */\n        tag_50:\n            /* \"#utility.yul\":928:1050   */\n          pop\n          jump\t// out\n            /* \"#utility.yul\":1056:1199   */\n        tag_25:\n            /* \"#utility.yul\":1113:1118   */\n          0x00\n            /* \"#utility.yul\":1144:1150   */\n          dup2\n            /* \"#utility.yul\":1138:1151   */\n          mload\n            /* \"#utility.yul\":1129:1151   */\n          swap1\n          pop\n            /* \"#utility.yul\":1160:1193   */\n          tag_52\n            /* \"#utility.yul\":1187:1192   */\n          dup2\n            /* \"#utility.yul\":1160:1193   */\n          tag_24\n          jump\t// in\n        tag_52:\n            /* \"#utility.yul\":1056:1199   */\n          swap3\n          swap2\n          pop\n          pop\n          jump\t// out\n            /* \"#utility.yul\":1205:1868   */\n        tag_2:\n            /* \"#utility.yul\":1293:1299   */\n          0x00\n            /* \"#utility.yul\":1301:1307   */\n          dup1\n            /* \"#utility.yul\":1309:1315   */\n          0x00\n            /* \"#utility.yul\":1358:1360   */\n          0x60\n            /* \"#utility.yul\":1346:1355   */\n          dup5\n            /* \"#utility.yul\":1337:1344   */\n          dup7\n            /* \"#utility.yul\":1333:1356   */\n          sub\n            /* \"#utility.yul\":1329:1361   */\n          slt\n            /* \"#utility.yul\":1326:1445   */\n          iszero\n          tag_54\n          jumpi\n            /* \"#utility.yul\":1364:1443   */\n          tag_55\n          tag_17\n          jump\t// in\n        tag_55:\n            /* \"#utility.yul\":1326:1445   */\n        tag_54:\n            /* \"#utility.yul\":1484:1485   */\n          0x00\n            /* \"#utility.yul\":1509:1573   */\n          tag_56\n            /* \"#utility.yul\":1565:1572   */\n          dup7\n            /* \"#utility.yul\":1556:1562   */\n          dup3\n            /* \"#utility.yul\":1545:1554   */\n          dup8\n            /* \"#utility.yul\":1541:1563   */\n          add\n            /* \"#utility.yul\":1509:1573   */\n          tag_22\n          jump\t// in\n        tag_56:\n            /* \"#utility.yul\":1499:1573   */\n          swap4\n          pop\n            /* \"#utility.yul\":1455:1583   */\n          pop\n            /* \"#utility.yul\":1622:1624   */\n          0x20\n            /* \"#utility.yul\":1648:1712   */\n          tag_57\n            /* \"#utility.yul\":1704:1711   */\n          dup7\n            /* \"#utility.yul\":1695:1701   */\n          dup3\n            /* \"#utility.yul\":1684:1693   */\n          dup8\n            /* \"#utility.yul\":1680:1702   */\n          add\n            /* \"#utility.yul\":1648:1712   */\n          tag_22\n          jump\t// in\n        tag_57:\n            /* \"#utility.yul\":1638:1712   */\n          swap3\n          pop\n            /* \"#utility.yul\":1593:1722   */\n          pop\n            /* \"#utility.yul\":1761:1763   */\n          0x40\n            /* \"#utility.yul\":1787:1851   */\n          tag_58\n            /* \"#utility.yul\":1843:1850   */\n          dup7\n            /* \"#utility.yul\":1834:1840   */\n          dup3\n            /* \"#utility.yul\":1823:1832   */\n          dup8\n            /* \"#utility.yul\":1819:1841   */\n          add\n            /* \"#utility.yul\":1787:1851   */\n          tag_25\n          jump\t// in\n        tag_58:\n            /* \"#utility.yul\":1777:1851   */\n          swap2\n          pop\n            /* \"#utility.yul\":1732:1861   */\n          pop\n            /* \"#utility.yul\":1205:1868   */\n          swap3\n          pop\n          swap3\n          pop\n          swap3\n          jump\t// out\n            /* \"#utility.yul\":1874:1992   */\n        tag_26:\n            /* \"#utility.yul\":1961:1985   */\n          tag_60\n            /* \"#utility.yul\":1979:1984   */\n          dup2\n            /* \"#utility.yul\":1961:1985   */\n          tag_23\n          jump\t// in\n        tag_60:\n            /* \"#utility.yul\":1956:1959   */\n          dup3\n            /* \"#utility.yul\":1949:1986   */\n          mstore\n            /* \"#utility.yul\":1874:1992   */\n          pop\n          pop\n          jump\t// out\n            /* \"#utility.yul\":1998:2116   */\n        tag_27:\n            /* \"#utility.yul\":2085:2109   */\n          tag_62\n            /* \"#utility.yul\":2103:2108   */\n          dup2\n            /* \"#utility.yul\":2085:2109   */\n          tag_20\n          jump\t// in\n        tag_62:\n            /* \"#utility.yul\":2080:2083   */\n          dup3\n            /* \"#utility.yul\":2073:2110   */\n          mstore\n            /* \"#utility.yul\":1998:2116   */\n          pop\n          pop\n          jump\t// out\n            /* \"#utility.yul\":2122:2454   */\n        tag_6:\n            /* \"#utility.yul\":2243:2247   */\n          0x00\n            /* \"#utility.yul\":2281:2283   */\n          0x40\n            /* \"#utility.yul\":2270:2279   */\n          dup3\n            /* \"#utility.yul\":2266:2284   */\n          add\n            /* \"#utility.yul\":2258:2284   */\n          swap1\n          pop\n            /* \"#utility.yul\":2294:2365   */\n          tag_64\n            /* \"#utility.yul\":2362:2363   */\n          0x00\n            /* \"#utility.yul\":2351:2360   */\n          dup4\n            /* \"#utility.yul\":2347:2364   */\n          add\n            /* \"#utility.yul\":2338:2344   */\n          dup6\n            /* \"#utility.yul\":2294:2365   */\n          tag_26\n          jump\t// in\n        tag_64:\n            /* \"#utility.yul\":2375:2447   */\n          tag_65\n            /* \"#utility.yul\":2443:2445   */\n          0x20\n            /* \"#utility.yul\":2432:2441   */\n          dup4\n            /* \"#utility.yul\":2428:2446   */\n          add\n            /* \"#utility.yul\":2419:2425   */\n          dup5\n            /* \"#utility.yul\":2375:2447   */\n          tag_27\n          jump\t// in\n        tag_65:\n            /* \"#utility.yul\":2122:2454   */\n          swap4\n          swap3\n          pop\n          pop\n          pop\n          jump\t// out\n            /* \"#utility.yul\":2460:2558   */\n        tag_28:\n            /* \"#utility.yul\":2511:2517   */\n          0x00\n            /* \"#utility.yul\":2545:2550   */\n          dup2\n            /* \"#utility.yul\":2539:2551   */\n          mload\n            /* \"#utility.yul\":2529:2551   */\n          swap1\n          pop\n            /* \"#utility.yul\":2460:2558   */\n          swap2\n          swap1\n          pop\n          jump\t// out\n            /* \"#utility.yul\":2564:2711   */\n        tag_29:\n            /* \"#utility.yul\":2665:2676   */\n          0x00\n            /* \"#utility.yul\":2702:2705   */\n          dup2\n            /* \"#utility.yul\":2687:2705   */\n          swap1\n          pop\n            /* \"#utility.yul\":2564:2711   */\n          swap3\n          swap2\n          pop\n          pop\n          jump\t// out\n            /* \"#utility.yul\":2717:2963   */\n        tag_30:\n            /* \"#utility.yul\":2798:2799   */\n          0x00\n            /* \"#utility.yul\":2808:2921   */\n        tag_69:\n            /* \"#utility.yul\":2822:2828   */\n          dup4\n            /* \"#utility.yul\":2819:2820   */\n          dup2\n            /* \"#utility.yul\":2816:2829   */\n          lt\n            /* \"#utility.yul\":2808:2921   */\n          iszero\n          tag_71\n          jumpi\n            /* \"#utility.yul\":2907:2908   */\n          dup1\n            /* \"#utility.yul\":2902:2905   */\n          dup3\n            /* \"#utility.yul\":2898:2909   */\n          add\n            /* \"#utility.yul\":2892:2910   */\n          mload\n            /* \"#utility.yul\":2888:2889   */\n          dup2\n            /* \"#utility.yul\":2883:2886   */\n          dup5\n            /* \"#utility.yul\":2879:2890   */\n          add\n            /* \"#utility.yul\":2872:2911   */\n          mstore\n            /* \"#utility.yul\":2844:2846   */\n          0x20\n            /* \"#utility.yul\":2841:2842   */\n          dup2\n            /* \"#utility.yul\":2837:2847   */\n          add\n            /* \"#utility.yul\":2832:2847   */\n          swap1\n          pop\n            /* \"#utility.yul\":2808:2921   */\n          jump(tag_69)\n        tag_71:\n            /* \"#utility.yul\":2955:2956   */\n          0x00\n            /* \"#utility.yul\":2946:2952   */\n          dup5\n            /* \"#utility.yul\":2941:2944   */\n          dup5\n            /* \"#utility.yul\":2937:2953   */\n          add\n            /* \"#utility.yul\":2930:2957   */\n          mstore\n            /* \"#utility.yul\":2779:2963   */\n          pop\n            /* \"#utility.yul\":2717:2963   */\n          pop\n          pop\n          pop\n          jump\t// out\n            /* \"#utility.yul\":2969:3355   */\n        tag_31:\n            /* \"#utility.yul\":3073:3076   */\n          0x00\n            /* \"#utility.yul\":3101:3139   */\n          tag_73\n            /* \"#utility.yul\":3133:3138   */\n          dup3\n            /* \"#utility.yul\":3101:3139   */\n          tag_28\n          jump\t// in\n        tag_73:\n            /* \"#utility.yul\":3155:3243   */\n          tag_74\n            /* \"#utility.yul\":3236:3242   */\n          dup2\n            /* \"#utility.yul\":3231:3234   */\n          dup6\n            /* \"#utility.yul\":3155:3243   */\n          tag_29\n          jump\t// in\n        tag_74:\n            /* \"#utility.yul\":3148:3243   */\n          swap4\n          pop\n            /* \"#utility.yul\":3252:3317   */\n          tag_75\n            /* \"#utility.yul\":3310:3316   */\n          dup2\n            /* \"#utility.yul\":3305:3308   */\n          dup6\n            /* \"#utility.yul\":3298:3302   */\n          0x20\n            /* \"#utility.yul\":3291:3296   */\n          dup7\n            /* \"#utility.yul\":3287:3303   */\n          add\n            /* \"#utility.yul\":3252:3317   */\n          tag_30\n          jump\t// in\n        tag_75:\n            /* \"#utility.yul\":3342:3348   */\n          dup1\n            /* \"#utility.yul\":3337:3340   */\n          dup5\n            /* \"#utility.yul\":3333:3349   */\n          add\n            /* \"#utility.yul\":3326:3349   */\n          swap2\n          pop\n            /* \"#utility.yul\":3077:3355   */\n          pop\n            /* \"#utility.yul\":2969:3355   */\n          swap3\n          swap2\n          pop\n          pop\n          jump\t// out\n            /* \"#utility.yul\":3361:3632   */\n        tag_8:\n            /* \"#utility.yul\":3491:3494   */\n          0x00\n            /* \"#utility.yul\":3513:3606   */\n          tag_77\n            /* \"#utility.yul\":3602:3605   */\n          dup3\n            /* \"#utility.yul\":3593:3599   */\n          dup5\n            /* \"#utility.yul\":3513:3606   */\n          tag_31\n          jump\t// in\n        tag_77:\n            /* \"#utility.yul\":3506:3606   */\n          swap2\n          pop\n            /* \"#utility.yul\":3623:3626   */\n          dup2\n            /* \"#utility.yul\":3616:3626   */\n          swap1\n          pop\n            /* \"#utility.yul\":3361:3632   */\n          swap3\n          swap2\n          pop\n          pop\n          jump\t// out\n            /* \"#utility.yul\":3638:3807   */\n        tag_32:\n            /* \"#utility.yul\":3722:3733   */\n          0x00\n            /* \"#utility.yul\":3756:3762   */\n          dup3\n            /* \"#utility.yul\":3751:3754   */\n          dup3\n            /* \"#utility.yul\":3744:3763   */\n          mstore\n            /* \"#utility.yul\":3796:3800   */\n          0x20\n            /* \"#utility.yul\":3791:3794   */\n          dup3\n            /* \"#utility.yul\":3787:3801   */\n          add\n            /* \"#utility.yul\":3772:3801   */\n          swap1\n          pop\n            /* \"#utility.yul\":3638:3807   */\n          swap3\n          swap2\n          pop\n          pop\n          jump\t// out\n            /* \"#utility.yul\":3813:3987   */\n        tag_33:\n            /* \"#utility.yul\":3953:3979   */\n          0x4261746368207472616e73616374696f6e206661696c65640000000000000000\n            /* \"#utility.yul\":3949:3950   */\n          0x00\n            /* \"#utility.yul\":3941:3947   */\n          dup3\n            /* \"#utility.yul\":3937:3951   */\n          add\n            /* \"#utility.yul\":3930:3980   */\n          mstore\n            /* \"#utility.yul\":3813:3987   */\n          pop\n          jump\t// out\n            /* \"#utility.yul\":3993:4359   */\n        tag_34:\n            /* \"#utility.yul\":4135:4138   */\n          0x00\n            /* \"#utility.yul\":4156:4223   */\n          tag_81\n            /* \"#utility.yul\":4220:4222   */\n          0x18\n            /* \"#utility.yul\":4215:4218   */\n          dup4\n            /* \"#utility.yul\":4156:4223   */\n          tag_32\n          jump\t// in\n        tag_81:\n            /* \"#utility.yul\":4149:4223   */\n          swap2\n          pop\n            /* \"#utility.yul\":4232:4325   */\n          tag_82\n            /* \"#utility.yul\":4321:4324   */\n          dup3\n            /* \"#utility.yul\":4232:4325   */\n          tag_33\n          jump\t// in\n        tag_82:\n            /* \"#utility.yul\":4350:4352   */\n          0x20\n            /* \"#utility.yul\":4345:4348   */\n          dup3\n            /* \"#utility.yul\":4341:4353   */\n          add\n            /* \"#utility.yul\":4334:4353   */\n          swap1\n          pop\n            /* \"#utility.yul\":3993:4359   */\n          swap2\n          swap1\n          pop\n          jump\t// out\n            /* \"#utility.yul\":4365:4784   */\n        tag_14:\n            /* \"#utility.yul\":4531:4535   */\n          0x00\n            /* \"#utility.yul\":4569:4571   */\n          0x20\n            /* \"#utility.yul\":4558:4567   */\n          dup3\n            /* \"#utility.yul\":4554:4572   */\n          add\n            /* \"#utility.yul\":4546:4572   */\n          swap1\n          pop\n            /* \"#utility.yul\":4618:4627   */\n          dup2\n            /* \"#utility.yul\":4612:4616   */\n          dup2\n            /* \"#utility.yul\":4608:4628   */\n          sub\n            /* \"#utility.yul\":4604:4605   */\n          0x00\n            /* \"#utility.yul\":4593:4602   */\n          dup4\n            /* \"#utility.yul\":4589:4606   */\n          add\n            /* \"#utility.yul\":4582:4629   */\n          mstore\n            /* \"#utility.yul\":4646:4777   */\n          tag_84\n            /* \"#utility.yul\":4772:4776   */\n          dup2\n            /* \"#utility.yul\":4646:4777   */\n          tag_34\n          jump\t// in\n        tag_84:\n            /* \"#utility.yul\":4638:4777   */\n          swap1\n          pop\n            /* \"#utility.yul\":4365:4784   */\n          swap2\n          swap1\n          pop\n          jump\t// out\n        stop\n\n        sub_0: assembly {\n                /* \"contract/dragon/Copy_\\xe6\\x89\\xb9\\xe9\\x87\\x8fmint\\xe9\\xab\\x98\\xe7\\xba\\xa7\\xe7\\x89\\x88.sol\":216:546  contract bot {... */\n              mstore(0x40, 0x80)\n              0x00\n              dup1\n              revert\n\n            auxdata: 0xa26469706673582212209207a769e7152642779fd1f73a693d6eab48c71c7c25856044a31b92f512eca464736f6c63430008130033\n        }\n    }\n\n    auxdata: 0xa26469706673582212205412c353e1ecaf216624ffb7e736c319760c6fcd171ffcbf4129e638cda43c2964736f6c63430008130033\n}\n",
				"bytecode": {
					"linkReferences": {},
					"object": "60a060405234801561001057600080fd5b503373ffffffffffffffffffffffffffffffffffffffff1660808173ffffffffffffffffffffffffffffffffffffffff1681525050608051610962610060600039600061016301526109626000f3fe608060405260043610620000205760003560e01c8063c36c17a81462000025575b600080fd5b6200004360048036038101906200003d9190620002d7565b62000045565b005b600080341115620000615781346200005e91906200037c565b90505b600033905060008473ffffffffffffffffffffffffffffffffffffffff1663cfa69a536040518163ffffffff1660e01b8152600401602060405180830381865afa158015620000b4573d6000803e3d6000fd5b505050506040513d601f19601f82011682018060405250810190620000da9190620003cb565b90508383620000ea9190620003fd565b34146200012e576040517f08c379a00000000000000000000000000000000000000000000000000000000081526004016200012590620004a9565b60405180910390fd5b60005b848110156200021c576000811180156200015957506000601382620001579190620004cb565b145b15620001c55783867f000000000000000000000000000000000000000000000000000000000000000084604051620001919062000224565b6200019f9392919062000525565b6040518091039082f0905080158015620001bd573d6000803e3d6000fd5b505062000206565b83868484604051620001d79062000224565b620001e59392919062000525565b6040518091039082f090508015801562000203573d6000803e3d6000fd5b50505b8080620002139062000562565b91505062000131565b505050505050565b61037d80620005b083390190565b600080fd5b600073ffffffffffffffffffffffffffffffffffffffff82169050919050565b6000620002648262000237565b9050919050565b620002768162000257565b81146200028257600080fd5b50565b60008135905062000296816200026b565b92915050565b6000819050919050565b620002b1816200029c565b8114620002bd57600080fd5b50565b600081359050620002d181620002a6565b92915050565b60008060408385031215620002f157620002f062000232565b5b6000620003018582860162000285565b92505060206200031485828601620002c0565b9150509250929050565b7f4e487b7100000000000000000000000000000000000000000000000000000000600052601260045260246000fd5b7f4e487b7100000000000000000000000000000000000000000000000000000000600052601160045260246000fd5b600062000389826200029c565b915062000396836200029c565b925082620003a957620003a86200031e565b5b828204905092915050565b600081519050620003c581620002a6565b92915050565b600060208284031215620003e457620003e362000232565b5b6000620003f484828501620003b4565b91505092915050565b60006200040a826200029c565b915062000417836200029c565b925082820262000427816200029c565b915082820484148315176200044157620004406200034d565b5b5092915050565b600082825260208201905092915050565b7f4261746368207472616e73616374696f6e206661696c65640000000000000000600082015250565b60006200049160188362000448565b91506200049e8262000459565b602082019050919050565b60006020820190508181036000830152620004c48162000482565b9050919050565b6000620004d8826200029c565b9150620004e5836200029c565b925082620004f857620004f76200031e565b5b828206905092915050565b6200050e8162000257565b82525050565b6200051f816200029c565b82525050565b60006060820190506200053c600083018662000503565b6200054b602083018562000503565b6200055a604083018462000514565b949350505050565b60006200056f826200029c565b91507fffffffffffffffffffffffffffffffffffffffffffffffffffffffffffffffff8203620005a457620005a36200034d565b5b60018201905091905056fe608060405260405161037d38038061037d833981810160405281019061002591906101dd565b60008373ffffffffffffffffffffffffffffffffffffffff16346394bf804d848660405160240161005792919061024e565b6040516020818303038152906040529060e01b6020820180517bffffffffffffffffffffffffffffffffffffffffffffffffffffffff83818316178352505050506040516100a591906102e8565b60006040518083038185875af1925050503d80600081146100e2576040519150601f19603f3d011682016040523d82523d6000602084013e6100e7565b606091505b505090508061012b576040517f08c379a00000000000000000000000000000000000000000000000000000000081526004016101229061035c565b60405180910390fd5b3273ffffffffffffffffffffffffffffffffffffffff16ff5b600080fd5b600073ffffffffffffffffffffffffffffffffffffffff82169050919050565b600061017482610149565b9050919050565b61018481610169565b811461018f57600080fd5b50565b6000815190506101a18161017b565b92915050565b6000819050919050565b6101ba816101a7565b81146101c557600080fd5b50565b6000815190506101d7816101b1565b92915050565b6000806000606084860312156101f6576101f5610144565b5b600061020486828701610192565b935050602061021586828701610192565b9250506040610226868287016101c8565b9150509250925092565b610239816101a7565b82525050565b61024881610169565b82525050565b60006040820190506102636000830185610230565b610270602083018461023f565b9392505050565b600081519050919050565b600081905092915050565b60005b838110156102ab578082015181840152602081019050610290565b60008484015250505050565b60006102c282610277565b6102cc8185610282565b93506102dc81856020860161028d565b80840191505092915050565b60006102f482846102b7565b915081905092915050565b600082825260208201905092915050565b7f4261746368207472616e73616374696f6e206661696c65640000000000000000600082015250565b60006103466018836102ff565b915061035182610310565b602082019050919050565b6000602082019050818103600083015261037581610339565b905091905056fea26469706673582212205412c353e1ecaf216624ffb7e736c319760c6fcd171ffcbf4129e638cda43c2964736f6c63430008130033",
					"opcodes": "PUSH1 0xA0 PUSH1 0x40 MSTORE CALLVALUE DUP1 ISZERO PUSH2 0x10 JUMPI PUSH1 0x0 DUP1 REVERT JUMPDEST POP CALLER PUSH20 0xFFFFFFFFFFFFFFFFFFFFFFFFFFFFFFFFFFFFFFFF AND PUSH1 0x80 DUP2 PUSH20 0xFFFFFFFFFFFFFFFFFFFFFFFFFFFFFFFFFFFFFFFF AND DUP2 MSTORE POP POP PUSH1 0x80 MLOAD PUSH2 0x962 PUSH2 0x60 PUSH1 0x0 CODECOPY PUSH1 0x0 PUSH2 0x163 ADD MSTORE PUSH2 0x962 PUSH1 0x0 RETURN INVALID PUSH1 0x80 PUSH1 0x40 MSTORE PUSH1 0x4 CALLDATASIZE LT PUSH3 0x20 JUMPI PUSH1 0x0 CALLDATALOAD PUSH1 0xE0 SHR DUP1 PUSH4 0xC36C17A8 EQ PUSH3 0x25 JUMPI JUMPDEST PUSH1 0x0 DUP1 REVERT JUMPDEST PUSH3 0x43 PUSH1 0x4 DUP1 CALLDATASIZE SUB DUP2 ADD SWAP1 PUSH3 0x3D SWAP2 SWAP1 PUSH3 0x2D7 JUMP JUMPDEST PUSH3 0x45 JUMP JUMPDEST STOP JUMPDEST PUSH1 0x0 DUP1 CALLVALUE GT ISZERO PUSH3 0x61 JUMPI DUP2 CALLVALUE PUSH3 0x5E SWAP2 SWAP1 PUSH3 0x37C JUMP JUMPDEST SWAP1 POP JUMPDEST PUSH1 0x0 CALLER SWAP1 POP PUSH1 0x0 DUP5 PUSH20 0xFFFFFFFFFFFFFFFFFFFFFFFFFFFFFFFFFFFFFFFF AND PUSH4 0xCFA69A53 PUSH1 0x40 MLOAD DUP2 PUSH4 0xFFFFFFFF AND PUSH1 0xE0 SHL DUP2 MSTORE PUSH1 0x4 ADD PUSH1 0x20 PUSH1 0x40 MLOAD DUP1 DUP4 SUB DUP2 DUP7 GAS STATICCALL ISZERO DUP1 ISZERO PUSH3 0xB4 JUMPI RETURNDATASIZE PUSH1 0x0 DUP1 RETURNDATACOPY RETURNDATASIZE PUSH1 0x0 REVERT JUMPDEST POP POP POP POP PUSH1 0x40 MLOAD RETURNDATASIZE PUSH1 0x1F NOT PUSH1 0x1F DUP3 ADD AND DUP3 ADD DUP1 PUSH1 0x40 MSTORE POP DUP2 ADD SWAP1 PUSH3 0xDA SWAP2 SWAP1 PUSH3 0x3CB JUMP JUMPDEST SWAP1 POP DUP4 DUP4 PUSH3 0xEA SWAP2 SWAP1 PUSH3 0x3FD JUMP JUMPDEST CALLVALUE EQ PUSH3 0x12E JUMPI PUSH1 0x40 MLOAD PUSH32 0x8C379A000000000000000000000000000000000000000000000000000000000 DUP2 MSTORE PUSH1 0x4 ADD PUSH3 0x125 SWAP1 PUSH3 0x4A9 JUMP JUMPDEST PUSH1 0x40 MLOAD DUP1 SWAP2 SUB SWAP1 REVERT JUMPDEST PUSH1 0x0 JUMPDEST DUP5 DUP2 LT ISZERO PUSH3 0x21C JUMPI PUSH1 0x0 DUP2 GT DUP1 ISZERO PUSH3 0x159 JUMPI POP PUSH1 0x0 PUSH1 0x13 DUP3 PUSH3 0x157 SWAP2 SWAP1 PUSH3 0x4CB JUMP JUMPDEST EQ JUMPDEST ISZERO PUSH3 0x1C5 JUMPI DUP4 DUP7 PUSH32 0x0 DUP5 PUSH1 0x40 MLOAD PUSH3 0x191 SWAP1 PUSH3 0x224 JUMP JUMPDEST PUSH3 0x19F SWAP4 SWAP3 SWAP2 SWAP1 PUSH3 0x525 JUMP JUMPDEST PUSH1 0x40 MLOAD DUP1 SWAP2 SUB SWAP1 DUP3 CREATE SWAP1 POP DUP1 ISZERO DUP1 ISZERO PUSH3 0x1BD JUMPI RETURNDATASIZE PUSH1 0x0 DUP1 RETURNDATACOPY RETURNDATASIZE PUSH1 0x0 REVERT JUMPDEST POP POP PUSH3 0x206 JUMP JUMPDEST DUP4 DUP7 DUP5 DUP5 PUSH1 0x40 MLOAD PUSH3 0x1D7 SWAP1 PUSH3 0x224 JUMP JUMPDEST PUSH3 0x1E5 SWAP4 SWAP3 SWAP2 SWAP1 PUSH3 0x525 JUMP JUMPDEST PUSH1 0x40 MLOAD DUP1 SWAP2 SUB SWAP1 DUP3 CREATE SWAP1 POP DUP1 ISZERO DUP1 ISZERO PUSH3 0x203 JUMPI RETURNDATASIZE PUSH1 0x0 DUP1 RETURNDATACOPY RETURNDATASIZE PUSH1 0x0 REVERT JUMPDEST POP POP JUMPDEST DUP1 DUP1 PUSH3 0x213 SWAP1 PUSH3 0x562 JUMP JUMPDEST SWAP2 POP POP PUSH3 0x131 JUMP JUMPDEST POP POP POP POP POP POP JUMP JUMPDEST PUSH2 0x37D DUP1 PUSH3 0x5B0 DUP4 CODECOPY ADD SWAP1 JUMP JUMPDEST PUSH1 0x0 DUP1 REVERT JUMPDEST PUSH1 0x0 PUSH20 0xFFFFFFFFFFFFFFFFFFFFFFFFFFFFFFFFFFFFFFFF DUP3 AND SWAP1 POP SWAP2 SWAP1 POP JUMP JUMPDEST PUSH1 0x0 PUSH3 0x264 DUP3 PUSH3 0x237 JUMP JUMPDEST SWAP1 POP SWAP2 SWAP1 POP JUMP JUMPDEST PUSH3 0x276 DUP2 PUSH3 0x257 JUMP JUMPDEST DUP2 EQ PUSH3 0x282 JUMPI PUSH1 0x0 DUP1 REVERT JUMPDEST POP JUMP JUMPDEST PUSH1 0x0 DUP2 CALLDATALOAD SWAP1 POP PUSH3 0x296 DUP2 PUSH3 0x26B JUMP JUMPDEST SWAP3 SWAP2 POP POP JUMP JUMPDEST PUSH1 0x0 DUP2 SWAP1 POP SWAP2 SWAP1 POP JUMP JUMPDEST PUSH3 0x2B1 DUP2 PUSH3 0x29C JUMP JUMPDEST DUP2 EQ PUSH3 0x2BD JUMPI PUSH1 0x0 DUP1 REVERT JUMPDEST POP JUMP JUMPDEST PUSH1 0x0 DUP2 CALLDATALOAD SWAP1 POP PUSH3 0x2D1 DUP2 PUSH3 0x2A6 JUMP JUMPDEST SWAP3 SWAP2 POP POP JUMP JUMPDEST PUSH1 0x0 DUP1 PUSH1 0x40 DUP4 DUP6 SUB SLT ISZERO PUSH3 0x2F1 JUMPI PUSH3 0x2F0 PUSH3 0x232 JUMP JUMPDEST JUMPDEST PUSH1 0x0 PUSH3 0x301 DUP6 DUP3 DUP7 ADD PUSH3 0x285 JUMP JUMPDEST SWAP3 POP POP PUSH1 0x20 PUSH3 0x314 DUP6 DUP3 DUP7 ADD PUSH3 0x2C0 JUMP JUMPDEST SWAP2 POP POP SWAP3 POP SWAP3 SWAP1 POP JUMP JUMPDEST PUSH32 0x4E487B7100000000000000000000000000000000000000000000000000000000 PUSH1 0x0 MSTORE PUSH1 0x12 PUSH1 0x4 MSTORE PUSH1 0x24 PUSH1 0x0 REVERT JUMPDEST PUSH32 0x4E487B7100000000000000000000000000000000000000000000000000000000 PUSH1 0x0 MSTORE PUSH1 0x11 PUSH1 0x4 MSTORE PUSH1 0x24 PUSH1 0x0 REVERT JUMPDEST PUSH1 0x0 PUSH3 0x389 DUP3 PUSH3 0x29C JUMP JUMPDEST SWAP2 POP PUSH3 0x396 DUP4 PUSH3 0x29C JUMP JUMPDEST SWAP3 POP DUP3 PUSH3 0x3A9 JUMPI PUSH3 0x3A8 PUSH3 0x31E JUMP JUMPDEST JUMPDEST DUP3 DUP3 DIV SWAP1 POP SWAP3 SWAP2 POP POP JUMP JUMPDEST PUSH1 0x0 DUP2 MLOAD SWAP1 POP PUSH3 0x3C5 DUP2 PUSH3 0x2A6 JUMP JUMPDEST SWAP3 SWAP2 POP POP JUMP JUMPDEST PUSH1 0x0 PUSH1 0x20 DUP3 DUP5 SUB SLT ISZERO PUSH3 0x3E4 JUMPI PUSH3 0x3E3 PUSH3 0x232 JUMP JUMPDEST JUMPDEST PUSH1 0x0 PUSH3 0x3F4 DUP5 DUP3 DUP6 ADD PUSH3 0x3B4 JUMP JUMPDEST SWAP2 POP POP SWAP3 SWAP2 POP POP JUMP JUMPDEST PUSH1 0x0 PUSH3 0x40A DUP3 PUSH3 0x29C JUMP JUMPDEST SWAP2 POP PUSH3 0x417 DUP4 PUSH3 0x29C JUMP JUMPDEST SWAP3 POP DUP3 DUP3 MUL PUSH3 0x427 DUP2 PUSH3 0x29C JUMP JUMPDEST SWAP2 POP DUP3 DUP3 DIV DUP5 EQ DUP4 ISZERO OR PUSH3 0x441 JUMPI PUSH3 0x440 PUSH3 0x34D JUMP JUMPDEST JUMPDEST POP SWAP3 SWAP2 POP POP JUMP JUMPDEST PUSH1 0x0 DUP3 DUP3 MSTORE PUSH1 0x20 DUP3 ADD SWAP1 POP SWAP3 SWAP2 POP POP JUMP JUMPDEST PUSH32 0x4261746368207472616E73616374696F6E206661696C65640000000000000000 PUSH1 0x0 DUP3 ADD MSTORE POP JUMP JUMPDEST PUSH1 0x0 PUSH3 0x491 PUSH1 0x18 DUP4 PUSH3 0x448 JUMP JUMPDEST SWAP2 POP PUSH3 0x49E DUP3 PUSH3 0x459 JUMP JUMPDEST PUSH1 0x20 DUP3 ADD SWAP1 POP SWAP2 SWAP1 POP JUMP JUMPDEST PUSH1 0x0 PUSH1 0x20 DUP3 ADD SWAP1 POP DUP2 DUP2 SUB PUSH1 0x0 DUP4 ADD MSTORE PUSH3 0x4C4 DUP2 PUSH3 0x482 JUMP JUMPDEST SWAP1 POP SWAP2 SWAP1 POP JUMP JUMPDEST PUSH1 0x0 PUSH3 0x4D8 DUP3 PUSH3 0x29C JUMP JUMPDEST SWAP2 POP PUSH3 0x4E5 DUP4 PUSH3 0x29C JUMP JUMPDEST SWAP3 POP DUP3 PUSH3 0x4F8 JUMPI PUSH3 0x4F7 PUSH3 0x31E JUMP JUMPDEST JUMPDEST DUP3 DUP3 MOD SWAP1 POP SWAP3 SWAP2 POP POP JUMP JUMPDEST PUSH3 0x50E DUP2 PUSH3 0x257 JUMP JUMPDEST DUP3 MSTORE POP POP JUMP JUMPDEST PUSH3 0x51F DUP2 PUSH3 0x29C JUMP JUMPDEST DUP3 MSTORE POP POP JUMP JUMPDEST PUSH1 0x0 PUSH1 0x60 DUP3 ADD SWAP1 POP PUSH3 0x53C PUSH1 0x0 DUP4 ADD DUP7 PUSH3 0x503 JUMP JUMPDEST PUSH3 0x54B PUSH1 0x20 DUP4 ADD DUP6 PUSH3 0x503 JUMP JUMPDEST PUSH3 0x55A PUSH1 0x40 DUP4 ADD DUP5 PUSH3 0x514 JUMP JUMPDEST SWAP5 SWAP4 POP POP POP POP JUMP JUMPDEST PUSH1 0x0 PUSH3 0x56F DUP3 PUSH3 0x29C JUMP JUMPDEST SWAP2 POP PUSH32 0xFFFFFFFFFFFFFFFFFFFFFFFFFFFFFFFFFFFFFFFFFFFFFFFFFFFFFFFFFFFFFFFF DUP3 SUB PUSH3 0x5A4 JUMPI PUSH3 0x5A3 PUSH3 0x34D JUMP JUMPDEST JUMPDEST PUSH1 0x1 DUP3 ADD SWAP1 POP SWAP2 SWAP1 POP JUMP INVALID PUSH1 0x80 PUSH1 0x40 MSTORE PUSH1 0x40 MLOAD PUSH2 0x37D CODESIZE SUB DUP1 PUSH2 0x37D DUP4 CODECOPY DUP2 DUP2 ADD PUSH1 0x40 MSTORE DUP2 ADD SWAP1 PUSH2 0x25 SWAP2 SWAP1 PUSH2 0x1DD JUMP JUMPDEST PUSH1 0x0 DUP4 PUSH20 0xFFFFFFFFFFFFFFFFFFFFFFFFFFFFFFFFFFFFFFFF AND CALLVALUE PUSH4 0x94BF804D DUP5 DUP7 PUSH1 0x40 MLOAD PUSH1 0x24 ADD PUSH2 0x57 SWAP3 SWAP2 SWAP1 PUSH2 0x24E JUMP JUMPDEST PUSH1 0x40 MLOAD PUSH1 0x20 DUP2 DUP4 SUB SUB DUP2 MSTORE SWAP1 PUSH1 0x40 MSTORE SWAP1 PUSH1 0xE0 SHL PUSH1 0x20 DUP3 ADD DUP1 MLOAD PUSH28 0xFFFFFFFFFFFFFFFFFFFFFFFFFFFFFFFFFFFFFFFFFFFFFFFFFFFFFFFF DUP4 DUP2 DUP4 AND OR DUP4 MSTORE POP POP POP POP PUSH1 0x40 MLOAD PUSH2 0xA5 SWAP2 SWAP1 PUSH2 0x2E8 JUMP JUMPDEST PUSH1 0x0 PUSH1 0x40 MLOAD DUP1 DUP4 SUB DUP2 DUP6 DUP8 GAS CALL SWAP3 POP POP POP RETURNDATASIZE DUP1 PUSH1 0x0 DUP2 EQ PUSH2 0xE2 JUMPI PUSH1 0x40 MLOAD SWAP2 POP PUSH1 0x1F NOT PUSH1 0x3F RETURNDATASIZE ADD AND DUP3 ADD PUSH1 0x40 MSTORE RETURNDATASIZE DUP3 MSTORE RETURNDATASIZE PUSH1 0x0 PUSH1 0x20 DUP5 ADD RETURNDATACOPY PUSH2 0xE7 JUMP JUMPDEST PUSH1 0x60 SWAP2 POP JUMPDEST POP POP SWAP1 POP DUP1 PUSH2 0x12B JUMPI PUSH1 0x40 MLOAD PUSH32 0x8C379A000000000000000000000000000000000000000000000000000000000 DUP2 MSTORE PUSH1 0x4 ADD PUSH2 0x122 SWAP1 PUSH2 0x35C JUMP JUMPDEST PUSH1 0x40 MLOAD DUP1 SWAP2 SUB SWAP1 REVERT JUMPDEST ORIGIN PUSH20 0xFFFFFFFFFFFFFFFFFFFFFFFFFFFFFFFFFFFFFFFF AND SELFDESTRUCT JUMPDEST PUSH1 0x0 DUP1 REVERT JUMPDEST PUSH1 0x0 PUSH20 0xFFFFFFFFFFFFFFFFFFFFFFFFFFFFFFFFFFFFFFFF DUP3 AND SWAP1 POP SWAP2 SWAP1 POP JUMP JUMPDEST PUSH1 0x0 PUSH2 0x174 DUP3 PUSH2 0x149 JUMP JUMPDEST SWAP1 POP SWAP2 SWAP1 POP JUMP JUMPDEST PUSH2 0x184 DUP2 PUSH2 0x169 JUMP JUMPDEST DUP2 EQ PUSH2 0x18F JUMPI PUSH1 0x0 DUP1 REVERT JUMPDEST POP JUMP JUMPDEST PUSH1 0x0 DUP2 MLOAD SWAP1 POP PUSH2 0x1A1 DUP2 PUSH2 0x17B JUMP JUMPDEST SWAP3 SWAP2 POP POP JUMP JUMPDEST PUSH1 0x0 DUP2 SWAP1 POP SWAP2 SWAP1 POP JUMP JUMPDEST PUSH2 0x1BA DUP2 PUSH2 0x1A7 JUMP JUMPDEST DUP2 EQ PUSH2 0x1C5 JUMPI PUSH1 0x0 DUP1 REVERT JUMPDEST POP JUMP JUMPDEST PUSH1 0x0 DUP2 MLOAD SWAP1 POP PUSH2 0x1D7 DUP2 PUSH2 0x1B1 JUMP JUMPDEST SWAP3 SWAP2 POP POP JUMP JUMPDEST PUSH1 0x0 DUP1 PUSH1 0x0 PUSH1 0x60 DUP5 DUP7 SUB SLT ISZERO PUSH2 0x1F6 JUMPI PUSH2 0x1F5 PUSH2 0x144 JUMP JUMPDEST JUMPDEST PUSH1 0x0 PUSH2 0x204 DUP7 DUP3 DUP8 ADD PUSH2 0x192 JUMP JUMPDEST SWAP4 POP POP PUSH1 0x20 PUSH2 0x215 DUP7 DUP3 DUP8 ADD PUSH2 0x192 JUMP JUMPDEST SWAP3 POP POP PUSH1 0x40 PUSH2 0x226 DUP7 DUP3 DUP8 ADD PUSH2 0x1C8 JUMP JUMPDEST SWAP2 POP POP SWAP3 POP SWAP3 POP SWAP3 JUMP JUMPDEST PUSH2 0x239 DUP2 PUSH2 0x1A7 JUMP JUMPDEST DUP3 MSTORE POP POP JUMP JUMPDEST PUSH2 0x248 DUP2 PUSH2 0x169 JUMP JUMPDEST DUP3 MSTORE POP POP JUMP JUMPDEST PUSH1 0x0 PUSH1 0x40 DUP3 ADD SWAP1 POP PUSH2 0x263 PUSH1 0x0 DUP4 ADD DUP6 PUSH2 0x230 JUMP JUMPDEST PUSH2 0x270 PUSH1 0x20 DUP4 ADD DUP5 PUSH2 0x23F JUMP JUMPDEST SWAP4 SWAP3 POP POP POP JUMP JUMPDEST PUSH1 0x0 DUP2 MLOAD SWAP1 POP SWAP2 SWAP1 POP JUMP JUMPDEST PUSH1 0x0 DUP2 SWAP1 POP SWAP3 SWAP2 POP POP JUMP JUMPDEST PUSH1 0x0 JUMPDEST DUP4 DUP2 LT ISZERO PUSH2 0x2AB JUMPI DUP1 DUP3 ADD MLOAD DUP2 DUP5 ADD MSTORE PUSH1 0x20 DUP2 ADD SWAP1 POP PUSH2 0x290 JUMP JUMPDEST PUSH1 0x0 DUP5 DUP5 ADD MSTORE POP POP POP POP JUMP JUMPDEST PUSH1 0x0 PUSH2 0x2C2 DUP3 PUSH2 0x277 JUMP JUMPDEST PUSH2 0x2CC DUP2 DUP6 PUSH2 0x282 JUMP JUMPDEST SWAP4 POP PUSH2 0x2DC DUP2 DUP6 PUSH1 0x20 DUP7 ADD PUSH2 0x28D JUMP JUMPDEST DUP1 DUP5 ADD SWAP2 POP POP SWAP3 SWAP2 POP POP JUMP JUMPDEST PUSH1 0x0 PUSH2 0x2F4 DUP3 DUP5 PUSH2 0x2B7 JUMP JUMPDEST SWAP2 POP DUP2 SWAP1 POP SWAP3 SWAP2 POP POP JUMP JUMPDEST PUSH1 0x0 DUP3 DUP3 MSTORE PUSH1 0x20 DUP3 ADD SWAP1 POP SWAP3 SWAP2 POP POP JUMP JUMPDEST PUSH32 0x4261746368207472616E73616374696F6E206661696C65640000000000000000 PUSH1 0x0 DUP3 ADD MSTORE POP JUMP JUMPDEST PUSH1 0x0 PUSH2 0x346 PUSH1 0x18 DUP4 PUSH2 0x2FF JUMP JUMPDEST SWAP2 POP PUSH2 0x351 DUP3 PUSH2 0x310 JUMP JUMPDEST PUSH1 0x20 DUP3 ADD SWAP1 POP SWAP2 SWAP1 POP JUMP JUMPDEST PUSH1 0x0 PUSH1 0x20 DUP3 ADD SWAP1 POP DUP2 DUP2 SUB PUSH1 0x0 DUP4 ADD MSTORE PUSH2 0x375 DUP2 PUSH2 0x339 JUMP JUMPDEST SWAP1 POP SWAP2 SWAP1 POP JUMP INVALID LOG2 PUSH5 0x6970667358 0x22 SLT KECCAK256 SLOAD SLT 0xC3 MSTORE8 0xE1 0xEC 0xAF 0x21 PUSH7 0x24FFB7E736C319 PUSH23 0xC6FCD171FFCBF4129E638CDA43C2964736F6C63430008 SGT STOP CALLER "
				},
				"gasEstimates": {
					"creation": {
						"codeDepositCost": "480400",
						"executionCost": "infinite",
						"totalCost": "infinite"
					},
					"external": {
						"fooyaoBulkMint(address,uint256)": "infinite"
					}
				},
				"methodIdentifiers": {
					"fooyaoBulkMint(address,uint256)": "c36c17a8"
				}
			},
			"storageLayout": {
				"storage": [],
				"types": null
			},
			"userdoc": {
				"kind": "user",
				"methods": {},
				"version": 1
			}
		}
	}
}