{
	"contract/dragon/dragon.sol": {
		"bot": {
			"abi": [
				{
					"inputs": [
						{
							"internalType": "uint256",
							"name": "code",
							"type": "uint256"
						}
					],
					"stateMutability": "payable",
					"type": "constructor"
				},
				{
					"inputs": [],
					"name": "Withdraw",
					"outputs": [],
					"stateMutability": "nonpayable",
					"type": "function"
				},
				{
					"inputs": [],
					"name": "boost",
					"outputs": [],
					"stateMutability": "nonpayable",
					"type": "function"
				}
			],
			"devdoc": {
				"kind": "dev",
				"methods": {},
				"version": 1
			},
			"evm": {
				"assembly": "    /* \"contract/dragon/dragon.sol\":800:1703  contract bot {... */\n  mstore(0x40, 0x80)\n    /* \"contract/dragon/dragon.sol\":844:886  0xEf64C03D5E757a5f6dC5284F3d627F3C255F09aB */\n  0xef64c03d5e757a5f6dc5284f3d627f3c255f09ab\n    /* \"contract/dragon/dragon.sol\":819:887  IDragon dragon = IDragon(0xEf64C03D5E757a5f6dC5284F3d627F3C255F09aB) */\n  0x00\n  dup1\n  0x0100\n  exp\n  dup2\n  sload\n  dup2\n  0xffffffffffffffffffffffffffffffffffffffff\n  mul\n  not\n  and\n  swap1\n  dup4\n  0xffffffffffffffffffffffffffffffffffffffff\n  and\n  mul\n  or\n  swap1\n  sstore\n  pop\n    /* \"contract/dragon/dragon.sol\":894:1265  constructor(uint256 code) payable {... */\n  mload(0x40)\n  sub(codesize, bytecodeSize)\n  dup1\n  bytecodeSize\n  dup4\n  codecopy\n  dup2\n  dup2\n  add\n  0x40\n  mstore\n  dup2\n  add\n  swap1\n  tag_1\n  swap2\n  swap1\n  tag_2\n  jump\t// in\ntag_1:\n    /* \"contract/dragon/dragon.sol\":939:951  bool success */\n  0x00\n    /* \"contract/dragon/dragon.sol\":957:999  0xEf64C03D5E757a5f6dC5284F3d627F3C255F09aB */\n  0xef64c03d5e757a5f6dc5284f3d627f3c255f09ab\n    /* \"contract/dragon/dragon.sol\":957:1004  0xEf64C03D5E757a5f6dC5284F3d627F3C255F09aB.call */\n  0xffffffffffffffffffffffffffffffffffffffff\n  and\n    /* \"contract/dragon/dragon.sol\":1041:1051  0xb260c42a */\n  0xb260c42a\n    /* \"contract/dragon/dragon.sol\":1053:1057  code */\n  dup4\n    /* \"contract/dragon/dragon.sol\":1018:1058  abi.encodeWithSelector(0xb260c42a, code) */\n  add(0x24, mload(0x40))\n  tag_5\n  swap2\n  swap1\n  tag_6\n  jump\t// in\ntag_5:\n  mload(0x40)\n  0x20\n  dup2\n  dup4\n  sub\n  sub\n  dup2\n  mstore\n  swap1\n  0x40\n  mstore\n  swap1\n  0xe0\n  shl\n  0x20\n  dup3\n  add\n  dup1\n  mload\n  0xffffffffffffffffffffffffffffffffffffffffffffffffffffffff\n  dup4\n  dup2\n  dup4\n  and\n  or\n  dup4\n  mstore\n  pop\n  pop\n  pop\n  pop\n    /* \"contract/dragon/dragon.sol\":957:1068  0xEf64C03D5E757a5f6dC5284F3d627F3C255F09aB.call(... */\n  mload(0x40)\n  tag_7\n  swap2\n  swap1\n  tag_8\n  jump\t// in\ntag_7:\n  0x00\n  mload(0x40)\n  dup1\n  dup4\n  sub\n  dup2\n  0x00\n  dup7\n  gas\n  call\n  swap2\n  pop\n  pop\n  returndatasize\n  dup1\n  0x00\n  dup2\n  eq\n  tag_11\n  jumpi\n  mload(0x40)\n  swap2\n  pop\n  and(add(returndatasize, 0x3f), not(0x1f))\n  dup3\n  add\n  0x40\n  mstore\n  returndatasize\n  dup3\n  mstore\n  returndatasize\n  0x00\n  0x20\n  dup5\n  add\n  returndatacopy\n  jump(tag_10)\ntag_11:\n  0x60\n  swap2\n  pop\ntag_10:\n  pop\n    /* \"contract/dragon/dragon.sol\":938:1068  (bool success, ) = 0xEf64C03D5E757a5f6dC5284F3d627F3C255F09aB.call(... */\n  pop\n  swap1\n  pop\n    /* \"contract/dragon/dragon.sol\":1086:1093  success */\n  dup1\n    /* \"contract/dragon/dragon.sol\":1078:1122  require(success, \"Batch transaction failed\") */\n  tag_12\n  jumpi\n  mload(0x40)\n  0x08c379a000000000000000000000000000000000000000000000000000000000\n  dup2\n  mstore\n  0x04\n  add\n  tag_13\n  swap1\n  tag_14\n  jump\t// in\ntag_13:\n  mload(0x40)\n  dup1\n  swap2\n  sub\n  swap1\n  revert\ntag_12:\n    /* \"contract/dragon/dragon.sol\":1139:1181  0xF0f942D563A6BaCf875d8cEe5AE663b12Ce62149 */\n  0xf0f942d563a6bacf875d8cee5ae663b12ce62149\n    /* \"contract/dragon/dragon.sol\":1132:1190  IERC20(0xF0f942D563A6BaCf875d8cEe5AE663b12Ce62149).approve */\n  0xffffffffffffffffffffffffffffffffffffffff\n  and\n  0x095ea7b3\n    /* \"contract/dragon/dragon.sol\":1204:1214  msg.sender */\n  caller\n    /* \"contract/dragon/dragon.sol\":1245:1246  0 */\n  0x00\n    /* \"contract/dragon/dragon.sol\":1236:1247  ~uint256(0) */\n  not\n    /* \"contract/dragon/dragon.sol\":1132:1258  IERC20(0xF0f942D563A6BaCf875d8cEe5AE663b12Ce62149).approve(... */\n  mload(0x40)\n  dup4\n  0xffffffff\n  and\n  0xe0\n  shl\n  dup2\n  mstore\n  0x04\n  add\n  tag_15\n  swap3\n  swap2\n  swap1\n  tag_16\n  jump\t// in\ntag_15:\n  0x20\n  mload(0x40)\n  dup1\n  dup4\n  sub\n  dup2\n  0x00\n  dup8\n  gas\n  call\n  iszero\n  dup1\n  iszero\n  tag_18\n  jumpi\n  returndatasize\n  0x00\n  dup1\n  returndatacopy\n  revert(0x00, returndatasize)\ntag_18:\n  pop\n  pop\n  pop\n  pop\n  mload(0x40)\n  returndatasize\n  not(0x1f)\n  0x1f\n  dup3\n  add\n  and\n  dup3\n  add\n  dup1\n  0x40\n  mstore\n  pop\n  dup2\n  add\n  swap1\n  tag_19\n  swap2\n  swap1\n  tag_20\n  jump\t// in\ntag_19:\n  pop\n    /* \"contract/dragon/dragon.sol\":928:1265  {... */\n  pop\n    /* \"contract/dragon/dragon.sol\":894:1265  constructor(uint256 code) payable {... */\n  pop\n    /* \"contract/dragon/dragon.sol\":800:1703  contract bot {... */\n  jump(tag_21)\n    /* \"#utility.yul\":88:205   */\ntag_23:\n    /* \"#utility.yul\":197:198   */\n  0x00\n    /* \"#utility.yul\":194:195   */\n  dup1\n    /* \"#utility.yul\":187:199   */\n  revert\n    /* \"#utility.yul\":334:411   */\ntag_25:\n    /* \"#utility.yul\":371:378   */\n  0x00\n    /* \"#utility.yul\":400:405   */\n  dup2\n    /* \"#utility.yul\":389:405   */\n  swap1\n  pop\n    /* \"#utility.yul\":334:411   */\n  swap2\n  swap1\n  pop\n  jump\t// out\n    /* \"#utility.yul\":417:539   */\ntag_26:\n    /* \"#utility.yul\":490:514   */\n  tag_48\n    /* \"#utility.yul\":508:513   */\n  dup2\n    /* \"#utility.yul\":490:514   */\n  tag_25\n  jump\t// in\ntag_48:\n    /* \"#utility.yul\":483:488   */\n  dup2\n    /* \"#utility.yul\":480:515   */\n  eq\n    /* \"#utility.yul\":470:533   */\n  tag_49\n  jumpi\n    /* \"#utility.yul\":529:530   */\n  0x00\n    /* \"#utility.yul\":526:527   */\n  dup1\n    /* \"#utility.yul\":519:531   */\n  revert\n    /* \"#utility.yul\":470:533   */\ntag_49:\n    /* \"#utility.yul\":417:539   */\n  pop\n  jump\t// out\n    /* \"#utility.yul\":545:688   */\ntag_27:\n    /* \"#utility.yul\":602:607   */\n  0x00\n    /* \"#utility.yul\":633:639   */\n  dup2\n    /* \"#utility.yul\":627:640   */\n  mload\n    /* \"#utility.yul\":618:640   */\n  swap1\n  pop\n    /* \"#utility.yul\":649:682   */\n  tag_51\n    /* \"#utility.yul\":676:681   */\n  dup2\n    /* \"#utility.yul\":649:682   */\n  tag_26\n  jump\t// in\ntag_51:\n    /* \"#utility.yul\":545:688   */\n  swap3\n  swap2\n  pop\n  pop\n  jump\t// out\n    /* \"#utility.yul\":694:1045   */\ntag_2:\n    /* \"#utility.yul\":764:770   */\n  0x00\n    /* \"#utility.yul\":813:815   */\n  0x20\n    /* \"#utility.yul\":801:810   */\n  dup3\n    /* \"#utility.yul\":792:799   */\n  dup5\n    /* \"#utility.yul\":788:811   */\n  sub\n    /* \"#utility.yul\":784:816   */\n  slt\n    /* \"#utility.yul\":781:900   */\n  iszero\n  tag_53\n  jumpi\n    /* \"#utility.yul\":819:898   */\n  tag_54\n  tag_23\n  jump\t// in\ntag_54:\n    /* \"#utility.yul\":781:900   */\ntag_53:\n    /* \"#utility.yul\":939:940   */\n  0x00\n    /* \"#utility.yul\":964:1028   */\n  tag_55\n    /* \"#utility.yul\":1020:1027   */\n  dup5\n    /* \"#utility.yul\":1011:1017   */\n  dup3\n    /* \"#utility.yul\":1000:1009   */\n  dup6\n    /* \"#utility.yul\":996:1018   */\n  add\n    /* \"#utility.yul\":964:1028   */\n  tag_27\n  jump\t// in\ntag_55:\n    /* \"#utility.yul\":954:1028   */\n  swap2\n  pop\n    /* \"#utility.yul\":910:1038   */\n  pop\n    /* \"#utility.yul\":694:1045   */\n  swap3\n  swap2\n  pop\n  pop\n  jump\t// out\n    /* \"#utility.yul\":1051:1169   */\ntag_28:\n    /* \"#utility.yul\":1138:1162   */\n  tag_57\n    /* \"#utility.yul\":1156:1161   */\n  dup2\n    /* \"#utility.yul\":1138:1162   */\n  tag_25\n  jump\t// in\ntag_57:\n    /* \"#utility.yul\":1133:1136   */\n  dup3\n    /* \"#utility.yul\":1126:1163   */\n  mstore\n    /* \"#utility.yul\":1051:1169   */\n  pop\n  pop\n  jump\t// out\n    /* \"#utility.yul\":1175:1397   */\ntag_6:\n    /* \"#utility.yul\":1268:1272   */\n  0x00\n    /* \"#utility.yul\":1306:1308   */\n  0x20\n    /* \"#utility.yul\":1295:1304   */\n  dup3\n    /* \"#utility.yul\":1291:1309   */\n  add\n    /* \"#utility.yul\":1283:1309   */\n  swap1\n  pop\n    /* \"#utility.yul\":1319:1390   */\n  tag_59\n    /* \"#utility.yul\":1387:1388   */\n  0x00\n    /* \"#utility.yul\":1376:1385   */\n  dup4\n    /* \"#utility.yul\":1372:1389   */\n  add\n    /* \"#utility.yul\":1363:1369   */\n  dup5\n    /* \"#utility.yul\":1319:1390   */\n  tag_28\n  jump\t// in\ntag_59:\n    /* \"#utility.yul\":1175:1397   */\n  swap3\n  swap2\n  pop\n  pop\n  jump\t// out\n    /* \"#utility.yul\":1403:1501   */\ntag_29:\n    /* \"#utility.yul\":1454:1460   */\n  0x00\n    /* \"#utility.yul\":1488:1493   */\n  dup2\n    /* \"#utility.yul\":1482:1494   */\n  mload\n    /* \"#utility.yul\":1472:1494   */\n  swap1\n  pop\n    /* \"#utility.yul\":1403:1501   */\n  swap2\n  swap1\n  pop\n  jump\t// out\n    /* \"#utility.yul\":1507:1654   */\ntag_30:\n    /* \"#utility.yul\":1608:1619   */\n  0x00\n    /* \"#utility.yul\":1645:1648   */\n  dup2\n    /* \"#utility.yul\":1630:1648   */\n  swap1\n  pop\n    /* \"#utility.yul\":1507:1654   */\n  swap3\n  swap2\n  pop\n  pop\n  jump\t// out\n    /* \"#utility.yul\":1660:1906   */\ntag_31:\n    /* \"#utility.yul\":1741:1742   */\n  0x00\n    /* \"#utility.yul\":1751:1864   */\ntag_63:\n    /* \"#utility.yul\":1765:1771   */\n  dup4\n    /* \"#utility.yul\":1762:1763   */\n  dup2\n    /* \"#utility.yul\":1759:1772   */\n  lt\n    /* \"#utility.yul\":1751:1864   */\n  iszero\n  tag_65\n  jumpi\n    /* \"#utility.yul\":1850:1851   */\n  dup1\n    /* \"#utility.yul\":1845:1848   */\n  dup3\n    /* \"#utility.yul\":1841:1852   */\n  add\n    /* \"#utility.yul\":1835:1853   */\n  mload\n    /* \"#utility.yul\":1831:1832   */\n  dup2\n    /* \"#utility.yul\":1826:1829   */\n  dup5\n    /* \"#utility.yul\":1822:1833   */\n  add\n    /* \"#utility.yul\":1815:1854   */\n  mstore\n    /* \"#utility.yul\":1787:1789   */\n  0x20\n    /* \"#utility.yul\":1784:1785   */\n  dup2\n    /* \"#utility.yul\":1780:1790   */\n  add\n    /* \"#utility.yul\":1775:1790   */\n  swap1\n  pop\n    /* \"#utility.yul\":1751:1864   */\n  jump(tag_63)\ntag_65:\n    /* \"#utility.yul\":1898:1899   */\n  0x00\n    /* \"#utility.yul\":1889:1895   */\n  dup5\n    /* \"#utility.yul\":1884:1887   */\n  dup5\n    /* \"#utility.yul\":1880:1896   */\n  add\n    /* \"#utility.yul\":1873:1900   */\n  mstore\n    /* \"#utility.yul\":1722:1906   */\n  pop\n    /* \"#utility.yul\":1660:1906   */\n  pop\n  pop\n  pop\n  jump\t// out\n    /* \"#utility.yul\":1912:2298   */\ntag_32:\n    /* \"#utility.yul\":2016:2019   */\n  0x00\n    /* \"#utility.yul\":2044:2082   */\n  tag_67\n    /* \"#utility.yul\":2076:2081   */\n  dup3\n    /* \"#utility.yul\":2044:2082   */\n  tag_29\n  jump\t// in\ntag_67:\n    /* \"#utility.yul\":2098:2186   */\n  tag_68\n    /* \"#utility.yul\":2179:2185   */\n  dup2\n    /* \"#utility.yul\":2174:2177   */\n  dup6\n    /* \"#utility.yul\":2098:2186   */\n  tag_30\n  jump\t// in\ntag_68:\n    /* \"#utility.yul\":2091:2186   */\n  swap4\n  pop\n    /* \"#utility.yul\":2195:2260   */\n  tag_69\n    /* \"#utility.yul\":2253:2259   */\n  dup2\n    /* \"#utility.yul\":2248:2251   */\n  dup6\n    /* \"#utility.yul\":2241:2245   */\n  0x20\n    /* \"#utility.yul\":2234:2239   */\n  dup7\n    /* \"#utility.yul\":2230:2246   */\n  add\n    /* \"#utility.yul\":2195:2260   */\n  tag_31\n  jump\t// in\ntag_69:\n    /* \"#utility.yul\":2285:2291   */\n  dup1\n    /* \"#utility.yul\":2280:2283   */\n  dup5\n    /* \"#utility.yul\":2276:2292   */\n  add\n    /* \"#utility.yul\":2269:2292   */\n  swap2\n  pop\n    /* \"#utility.yul\":2020:2298   */\n  pop\n    /* \"#utility.yul\":1912:2298   */\n  swap3\n  swap2\n  pop\n  pop\n  jump\t// out\n    /* \"#utility.yul\":2304:2575   */\ntag_8:\n    /* \"#utility.yul\":2434:2437   */\n  0x00\n    /* \"#utility.yul\":2456:2549   */\n  tag_71\n    /* \"#utility.yul\":2545:2548   */\n  dup3\n    /* \"#utility.yul\":2536:2542   */\n  dup5\n    /* \"#utility.yul\":2456:2549   */\n  tag_32\n  jump\t// in\ntag_71:\n    /* \"#utility.yul\":2449:2549   */\n  swap2\n  pop\n    /* \"#utility.yul\":2566:2569   */\n  dup2\n    /* \"#utility.yul\":2559:2569   */\n  swap1\n  pop\n    /* \"#utility.yul\":2304:2575   */\n  swap3\n  swap2\n  pop\n  pop\n  jump\t// out\n    /* \"#utility.yul\":2581:2750   */\ntag_33:\n    /* \"#utility.yul\":2665:2676   */\n  0x00\n    /* \"#utility.yul\":2699:2705   */\n  dup3\n    /* \"#utility.yul\":2694:2697   */\n  dup3\n    /* \"#utility.yul\":2687:2706   */\n  mstore\n    /* \"#utility.yul\":2739:2743   */\n  0x20\n    /* \"#utility.yul\":2734:2737   */\n  dup3\n    /* \"#utility.yul\":2730:2744   */\n  add\n    /* \"#utility.yul\":2715:2744   */\n  swap1\n  pop\n    /* \"#utility.yul\":2581:2750   */\n  swap3\n  swap2\n  pop\n  pop\n  jump\t// out\n    /* \"#utility.yul\":2756:2930   */\ntag_34:\n    /* \"#utility.yul\":2896:2922   */\n  0x4261746368207472616e73616374696f6e206661696c65640000000000000000\n    /* \"#utility.yul\":2892:2893   */\n  0x00\n    /* \"#utility.yul\":2884:2890   */\n  dup3\n    /* \"#utility.yul\":2880:2894   */\n  add\n    /* \"#utility.yul\":2873:2923   */\n  mstore\n    /* \"#utility.yul\":2756:2930   */\n  pop\n  jump\t// out\n    /* \"#utility.yul\":2936:3302   */\ntag_35:\n    /* \"#utility.yul\":3078:3081   */\n  0x00\n    /* \"#utility.yul\":3099:3166   */\n  tag_75\n    /* \"#utility.yul\":3163:3165   */\n  0x18\n    /* \"#utility.yul\":3158:3161   */\n  dup4\n    /* \"#utility.yul\":3099:3166   */\n  tag_33\n  jump\t// in\ntag_75:\n    /* \"#utility.yul\":3092:3166   */\n  swap2\n  pop\n    /* \"#utility.yul\":3175:3268   */\n  tag_76\n    /* \"#utility.yul\":3264:3267   */\n  dup3\n    /* \"#utility.yul\":3175:3268   */\n  tag_34\n  jump\t// in\ntag_76:\n    /* \"#utility.yul\":3293:3295   */\n  0x20\n    /* \"#utility.yul\":3288:3291   */\n  dup3\n    /* \"#utility.yul\":3284:3296   */\n  add\n    /* \"#utility.yul\":3277:3296   */\n  swap1\n  pop\n    /* \"#utility.yul\":2936:3302   */\n  swap2\n  swap1\n  pop\n  jump\t// out\n    /* \"#utility.yul\":3308:3727   */\ntag_14:\n    /* \"#utility.yul\":3474:3478   */\n  0x00\n    /* \"#utility.yul\":3512:3514   */\n  0x20\n    /* \"#utility.yul\":3501:3510   */\n  dup3\n    /* \"#utility.yul\":3497:3515   */\n  add\n    /* \"#utility.yul\":3489:3515   */\n  swap1\n  pop\n    /* \"#utility.yul\":3561:3570   */\n  dup2\n    /* \"#utility.yul\":3555:3559   */\n  dup2\n    /* \"#utility.yul\":3551:3571   */\n  sub\n    /* \"#utility.yul\":3547:3548   */\n  0x00\n    /* \"#utility.yul\":3536:3545   */\n  dup4\n    /* \"#utility.yul\":3532:3549   */\n  add\n    /* \"#utility.yul\":3525:3572   */\n  mstore\n    /* \"#utility.yul\":3589:3720   */\n  tag_78\n    /* \"#utility.yul\":3715:3719   */\n  dup2\n    /* \"#utility.yul\":3589:3720   */\n  tag_35\n  jump\t// in\ntag_78:\n    /* \"#utility.yul\":3581:3720   */\n  swap1\n  pop\n    /* \"#utility.yul\":3308:3727   */\n  swap2\n  swap1\n  pop\n  jump\t// out\n    /* \"#utility.yul\":3733:3859   */\ntag_36:\n    /* \"#utility.yul\":3770:3777   */\n  0x00\n    /* \"#utility.yul\":3810:3852   */\n  0xffffffffffffffffffffffffffffffffffffffff\n    /* \"#utility.yul\":3803:3808   */\n  dup3\n    /* \"#utility.yul\":3799:3853   */\n  and\n    /* \"#utility.yul\":3788:3853   */\n  swap1\n  pop\n    /* \"#utility.yul\":3733:3859   */\n  swap2\n  swap1\n  pop\n  jump\t// out\n    /* \"#utility.yul\":3865:3961   */\ntag_37:\n    /* \"#utility.yul\":3902:3909   */\n  0x00\n    /* \"#utility.yul\":3931:3955   */\n  tag_81\n    /* \"#utility.yul\":3949:3954   */\n  dup3\n    /* \"#utility.yul\":3931:3955   */\n  tag_36\n  jump\t// in\ntag_81:\n    /* \"#utility.yul\":3920:3955   */\n  swap1\n  pop\n    /* \"#utility.yul\":3865:3961   */\n  swap2\n  swap1\n  pop\n  jump\t// out\n    /* \"#utility.yul\":3967:4085   */\ntag_38:\n    /* \"#utility.yul\":4054:4078   */\n  tag_83\n    /* \"#utility.yul\":4072:4077   */\n  dup2\n    /* \"#utility.yul\":4054:4078   */\n  tag_37\n  jump\t// in\ntag_83:\n    /* \"#utility.yul\":4049:4052   */\n  dup3\n    /* \"#utility.yul\":4042:4079   */\n  mstore\n    /* \"#utility.yul\":3967:4085   */\n  pop\n  pop\n  jump\t// out\n    /* \"#utility.yul\":4091:4423   */\ntag_16:\n    /* \"#utility.yul\":4212:4216   */\n  0x00\n    /* \"#utility.yul\":4250:4252   */\n  0x40\n    /* \"#utility.yul\":4239:4248   */\n  dup3\n    /* \"#utility.yul\":4235:4253   */\n  add\n    /* \"#utility.yul\":4227:4253   */\n  swap1\n  pop\n    /* \"#utility.yul\":4263:4334   */\n  tag_85\n    /* \"#utility.yul\":4331:4332   */\n  0x00\n    /* \"#utility.yul\":4320:4329   */\n  dup4\n    /* \"#utility.yul\":4316:4333   */\n  add\n    /* \"#utility.yul\":4307:4313   */\n  dup6\n    /* \"#utility.yul\":4263:4334   */\n  tag_38\n  jump\t// in\ntag_85:\n    /* \"#utility.yul\":4344:4416   */\n  tag_86\n    /* \"#utility.yul\":4412:4414   */\n  0x20\n    /* \"#utility.yul\":4401:4410   */\n  dup4\n    /* \"#utility.yul\":4397:4415   */\n  add\n    /* \"#utility.yul\":4388:4394   */\n  dup5\n    /* \"#utility.yul\":4344:4416   */\n  tag_28\n  jump\t// in\ntag_86:\n    /* \"#utility.yul\":4091:4423   */\n  swap4\n  swap3\n  pop\n  pop\n  pop\n  jump\t// out\n    /* \"#utility.yul\":4429:4519   */\ntag_39:\n    /* \"#utility.yul\":4463:4470   */\n  0x00\n    /* \"#utility.yul\":4506:4511   */\n  dup2\n    /* \"#utility.yul\":4499:4512   */\n  iszero\n    /* \"#utility.yul\":4492:4513   */\n  iszero\n    /* \"#utility.yul\":4481:4513   */\n  swap1\n  pop\n    /* \"#utility.yul\":4429:4519   */\n  swap2\n  swap1\n  pop\n  jump\t// out\n    /* \"#utility.yul\":4525:4641   */\ntag_40:\n    /* \"#utility.yul\":4595:4616   */\n  tag_89\n    /* \"#utility.yul\":4610:4615   */\n  dup2\n    /* \"#utility.yul\":4595:4616   */\n  tag_39\n  jump\t// in\ntag_89:\n    /* \"#utility.yul\":4588:4593   */\n  dup2\n    /* \"#utility.yul\":4585:4617   */\n  eq\n    /* \"#utility.yul\":4575:4635   */\n  tag_90\n  jumpi\n    /* \"#utility.yul\":4631:4632   */\n  0x00\n    /* \"#utility.yul\":4628:4629   */\n  dup1\n    /* \"#utility.yul\":4621:4633   */\n  revert\n    /* \"#utility.yul\":4575:4635   */\ntag_90:\n    /* \"#utility.yul\":4525:4641   */\n  pop\n  jump\t// out\n    /* \"#utility.yul\":4647:4784   */\ntag_41:\n    /* \"#utility.yul\":4701:4706   */\n  0x00\n    /* \"#utility.yul\":4732:4738   */\n  dup2\n    /* \"#utility.yul\":4726:4739   */\n  mload\n    /* \"#utility.yul\":4717:4739   */\n  swap1\n  pop\n    /* \"#utility.yul\":4748:4778   */\n  tag_92\n    /* \"#utility.yul\":4772:4777   */\n  dup2\n    /* \"#utility.yul\":4748:4778   */\n  tag_40\n  jump\t// in\ntag_92:\n    /* \"#utility.yul\":4647:4784   */\n  swap3\n  swap2\n  pop\n  pop\n  jump\t// out\n    /* \"#utility.yul\":4790:5135   */\ntag_20:\n    /* \"#utility.yul\":4857:4863   */\n  0x00\n    /* \"#utility.yul\":4906:4908   */\n  0x20\n    /* \"#utility.yul\":4894:4903   */\n  dup3\n    /* \"#utility.yul\":4885:4892   */\n  dup5\n    /* \"#utility.yul\":4881:4904   */\n  sub\n    /* \"#utility.yul\":4877:4909   */\n  slt\n    /* \"#utility.yul\":4874:4993   */\n  iszero\n  tag_94\n  jumpi\n    /* \"#utility.yul\":4912:4991   */\n  tag_95\n  tag_23\n  jump\t// in\ntag_95:\n    /* \"#utility.yul\":4874:4993   */\ntag_94:\n    /* \"#utility.yul\":5032:5033   */\n  0x00\n    /* \"#utility.yul\":5057:5118   */\n  tag_96\n    /* \"#utility.yul\":5110:5117   */\n  dup5\n    /* \"#utility.yul\":5101:5107   */\n  dup3\n    /* \"#utility.yul\":5090:5099   */\n  dup6\n    /* \"#utility.yul\":5086:5108   */\n  add\n    /* \"#utility.yul\":5057:5118   */\n  tag_41\n  jump\t// in\ntag_96:\n    /* \"#utility.yul\":5047:5118   */\n  swap2\n  pop\n    /* \"#utility.yul\":5003:5128   */\n  pop\n    /* \"#utility.yul\":4790:5135   */\n  swap3\n  swap2\n  pop\n  pop\n  jump\t// out\n    /* \"contract/dragon/dragon.sol\":800:1703  contract bot {... */\ntag_21:\n  dataSize(sub_0)\n  dup1\n  dataOffset(sub_0)\n  0x00\n  codecopy\n  0x00\n  return\nstop\n\nsub_0: assembly {\n        /* \"contract/dragon/dragon.sol\":800:1703  contract bot {... */\n      mstore(0x40, 0x80)\n      callvalue\n      dup1\n      iszero\n      tag_1\n      jumpi\n      0x00\n      dup1\n      revert\n    tag_1:\n      pop\n      jumpi(tag_2, lt(calldatasize, 0x04))\n      shr(0xe0, calldataload(0x00))\n      dup1\n      0x57ea89b6\n      eq\n      tag_3\n      jumpi\n      dup1\n      0xa66f42c0\n      eq\n      tag_4\n      jumpi\n    tag_2:\n      0x00\n      dup1\n      revert\n        /* \"contract/dragon/dragon.sol\":1271:1486  function Withdraw() external {... */\n    tag_3:\n      tag_5\n      tag_6\n      jump\t// in\n    tag_5:\n      stop\n        /* \"contract/dragon/dragon.sol\":1492:1701  function boost() external {... */\n    tag_4:\n      tag_7\n      tag_8\n      jump\t// in\n    tag_7:\n      stop\n        /* \"contract/dragon/dragon.sol\":1271:1486  function Withdraw() external {... */\n    tag_6:\n        /* \"contract/dragon/dragon.sol\":1311:1323  bool success */\n      0x00\n        /* \"contract/dragon/dragon.sol\":1329:1371  0xEf64C03D5E757a5f6dC5284F3d627F3C255F09aB */\n      0xef64c03d5e757a5f6dc5284f3d627f3c255f09ab\n        /* \"contract/dragon/dragon.sol\":1329:1376  0xEf64C03D5E757a5f6dC5284F3d627F3C255F09aB.call */\n      0xffffffffffffffffffffffffffffffffffffffff\n      and\n        /* \"contract/dragon/dragon.sol\":1413:1423  0x3ccfd60b */\n      0x3ccfd60b\n        /* \"contract/dragon/dragon.sol\":1390:1424  abi.encodeWithSelector(0x3ccfd60b) */\n      add(0x24, mload(0x40))\n      mload(0x40)\n      0x20\n      dup2\n      dup4\n      sub\n      sub\n      dup2\n      mstore\n      swap1\n      0x40\n      mstore\n      swap1\n      0xe0\n      shl\n      0x20\n      dup3\n      add\n      dup1\n      mload\n      0xffffffffffffffffffffffffffffffffffffffffffffffffffffffff\n      dup4\n      dup2\n      dup4\n      and\n      or\n      dup4\n      mstore\n      pop\n      pop\n      pop\n      pop\n        /* \"contract/dragon/dragon.sol\":1329:1434  0xEf64C03D5E757a5f6dC5284F3d627F3C255F09aB.call(... */\n      mload(0x40)\n      tag_10\n      swap2\n      swap1\n      tag_11\n      jump\t// in\n    tag_10:\n      0x00\n      mload(0x40)\n      dup1\n      dup4\n      sub\n      dup2\n      0x00\n      dup7\n      gas\n      call\n      swap2\n      pop\n      pop\n      returndatasize\n      dup1\n      0x00\n      dup2\n      eq\n      tag_14\n      jumpi\n      mload(0x40)\n      swap2\n      pop\n      and(add(returndatasize, 0x3f), not(0x1f))\n      dup3\n      add\n      0x40\n      mstore\n      returndatasize\n      dup3\n      mstore\n      returndatasize\n      0x00\n      0x20\n      dup5\n      add\n      returndatacopy\n      jump(tag_13)\n    tag_14:\n      0x60\n      swap2\n      pop\n    tag_13:\n      pop\n        /* \"contract/dragon/dragon.sol\":1310:1434  (bool success, ) = 0xEf64C03D5E757a5f6dC5284F3d627F3C255F09aB.call(... */\n      pop\n      swap1\n      pop\n        /* \"contract/dragon/dragon.sol\":1452:1459  success */\n      dup1\n        /* \"contract/dragon/dragon.sol\":1444:1479  require(success, \"withdraw failed\") */\n      tag_15\n      jumpi\n      mload(0x40)\n      0x08c379a000000000000000000000000000000000000000000000000000000000\n      dup2\n      mstore\n      0x04\n      add\n      tag_16\n      swap1\n      tag_17\n      jump\t// in\n    tag_16:\n      mload(0x40)\n      dup1\n      swap2\n      sub\n      swap1\n      revert\n    tag_15:\n        /* \"contract/dragon/dragon.sol\":1300:1486  {... */\n      pop\n        /* \"contract/dragon/dragon.sol\":1271:1486  function Withdraw() external {... */\n      jump\t// out\n        /* \"contract/dragon/dragon.sol\":1492:1701  function boost() external {... */\n    tag_8:\n        /* \"contract/dragon/dragon.sol\":1529:1541  bool success */\n      0x00\n        /* \"contract/dragon/dragon.sol\":1547:1589  0xEf64C03D5E757a5f6dC5284F3d627F3C255F09aB */\n      0xef64c03d5e757a5f6dc5284f3d627f3c255f09ab\n        /* \"contract/dragon/dragon.sol\":1547:1594  0xEf64C03D5E757a5f6dC5284F3d627F3C255F09aB.call */\n      0xffffffffffffffffffffffffffffffffffffffff\n      and\n        /* \"contract/dragon/dragon.sol\":1631:1641  0xa66f42c0 */\n      0xa66f42c0\n        /* \"contract/dragon/dragon.sol\":1608:1642  abi.encodeWithSelector(0xa66f42c0) */\n      add(0x24, mload(0x40))\n      mload(0x40)\n      0x20\n      dup2\n      dup4\n      sub\n      sub\n      dup2\n      mstore\n      swap1\n      0x40\n      mstore\n      swap1\n      0xe0\n      shl\n      0x20\n      dup3\n      add\n      dup1\n      mload\n      0xffffffffffffffffffffffffffffffffffffffffffffffffffffffff\n      dup4\n      dup2\n      dup4\n      and\n      or\n      dup4\n      mstore\n      pop\n      pop\n      pop\n      pop\n        /* \"contract/dragon/dragon.sol\":1547:1652  0xEf64C03D5E757a5f6dC5284F3d627F3C255F09aB.call(... */\n      mload(0x40)\n      tag_19\n      swap2\n      swap1\n      tag_11\n      jump\t// in\n    tag_19:\n      0x00\n      mload(0x40)\n      dup1\n      dup4\n      sub\n      dup2\n      0x00\n      dup7\n      gas\n      call\n      swap2\n      pop\n      pop\n      returndatasize\n      dup1\n      0x00\n      dup2\n      eq\n      tag_22\n      jumpi\n      mload(0x40)\n      swap2\n      pop\n      and(add(returndatasize, 0x3f), not(0x1f))\n      dup3\n      add\n      0x40\n      mstore\n      returndatasize\n      dup3\n      mstore\n      returndatasize\n      0x00\n      0x20\n      dup5\n      add\n      returndatacopy\n      jump(tag_21)\n    tag_22:\n      0x60\n      swap2\n      pop\n    tag_21:\n      pop\n        /* \"contract/dragon/dragon.sol\":1528:1652  (bool success, ) = 0xEf64C03D5E757a5f6dC5284F3d627F3C255F09aB.call(... */\n      pop\n      swap1\n      pop\n        /* \"contract/dragon/dragon.sol\":1670:1677  success */\n      dup1\n        /* \"contract/dragon/dragon.sol\":1662:1694  require(success, \"boost failed\") */\n      tag_23\n      jumpi\n      mload(0x40)\n      0x08c379a000000000000000000000000000000000000000000000000000000000\n      dup2\n      mstore\n      0x04\n      add\n      tag_24\n      swap1\n      tag_25\n      jump\t// in\n    tag_24:\n      mload(0x40)\n      dup1\n      swap2\n      sub\n      swap1\n      revert\n    tag_23:\n        /* \"contract/dragon/dragon.sol\":1518:1701  {... */\n      pop\n        /* \"contract/dragon/dragon.sol\":1492:1701  function boost() external {... */\n      jump\t// out\n        /* \"#utility.yul\":7:105   */\n    tag_26:\n        /* \"#utility.yul\":58:64   */\n      0x00\n        /* \"#utility.yul\":92:97   */\n      dup2\n        /* \"#utility.yul\":86:98   */\n      mload\n        /* \"#utility.yul\":76:98   */\n      swap1\n      pop\n        /* \"#utility.yul\":7:105   */\n      swap2\n      swap1\n      pop\n      jump\t// out\n        /* \"#utility.yul\":111:258   */\n    tag_27:\n        /* \"#utility.yul\":212:223   */\n      0x00\n        /* \"#utility.yul\":249:252   */\n      dup2\n        /* \"#utility.yul\":234:252   */\n      swap1\n      pop\n        /* \"#utility.yul\":111:258   */\n      swap3\n      swap2\n      pop\n      pop\n      jump\t// out\n        /* \"#utility.yul\":264:510   */\n    tag_28:\n        /* \"#utility.yul\":345:346   */\n      0x00\n        /* \"#utility.yul\":355:468   */\n    tag_39:\n        /* \"#utility.yul\":369:375   */\n      dup4\n        /* \"#utility.yul\":366:367   */\n      dup2\n        /* \"#utility.yul\":363:376   */\n      lt\n        /* \"#utility.yul\":355:468   */\n      iszero\n      tag_41\n      jumpi\n        /* \"#utility.yul\":454:455   */\n      dup1\n        /* \"#utility.yul\":449:452   */\n      dup3\n        /* \"#utility.yul\":445:456   */\n      add\n        /* \"#utility.yul\":439:457   */\n      mload\n        /* \"#utility.yul\":435:436   */\n      dup2\n        /* \"#utility.yul\":430:433   */\n      dup5\n        /* \"#utility.yul\":426:437   */\n      add\n        /* \"#utility.yul\":419:458   */\n      mstore\n        /* \"#utility.yul\":391:393   */\n      0x20\n        /* \"#utility.yul\":388:389   */\n      dup2\n        /* \"#utility.yul\":384:394   */\n      add\n        /* \"#utility.yul\":379:394   */\n      swap1\n      pop\n        /* \"#utility.yul\":355:468   */\n      jump(tag_39)\n    tag_41:\n        /* \"#utility.yul\":502:503   */\n      0x00\n        /* \"#utility.yul\":493:499   */\n      dup5\n        /* \"#utility.yul\":488:491   */\n      dup5\n        /* \"#utility.yul\":484:500   */\n      add\n        /* \"#utility.yul\":477:504   */\n      mstore\n        /* \"#utility.yul\":326:510   */\n      pop\n        /* \"#utility.yul\":264:510   */\n      pop\n      pop\n      pop\n      jump\t// out\n        /* \"#utility.yul\":516:902   */\n    tag_29:\n        /* \"#utility.yul\":620:623   */\n      0x00\n        /* \"#utility.yul\":648:686   */\n      tag_43\n        /* \"#utility.yul\":680:685   */\n      dup3\n        /* \"#utility.yul\":648:686   */\n      tag_26\n      jump\t// in\n    tag_43:\n        /* \"#utility.yul\":702:790   */\n      tag_44\n        /* \"#utility.yul\":783:789   */\n      dup2\n        /* \"#utility.yul\":778:781   */\n      dup6\n        /* \"#utility.yul\":702:790   */\n      tag_27\n      jump\t// in\n    tag_44:\n        /* \"#utility.yul\":695:790   */\n      swap4\n      pop\n        /* \"#utility.yul\":799:864   */\n      tag_45\n        /* \"#utility.yul\":857:863   */\n      dup2\n        /* \"#utility.yul\":852:855   */\n      dup6\n        /* \"#utility.yul\":845:849   */\n      0x20\n        /* \"#utility.yul\":838:843   */\n      dup7\n        /* \"#utility.yul\":834:850   */\n      add\n        /* \"#utility.yul\":799:864   */\n      tag_28\n      jump\t// in\n    tag_45:\n        /* \"#utility.yul\":889:895   */\n      dup1\n        /* \"#utility.yul\":884:887   */\n      dup5\n        /* \"#utility.yul\":880:896   */\n      add\n        /* \"#utility.yul\":873:896   */\n      swap2\n      pop\n        /* \"#utility.yul\":624:902   */\n      pop\n        /* \"#utility.yul\":516:902   */\n      swap3\n      swap2\n      pop\n      pop\n      jump\t// out\n        /* \"#utility.yul\":908:1179   */\n    tag_11:\n        /* \"#utility.yul\":1038:1041   */\n      0x00\n        /* \"#utility.yul\":1060:1153   */\n      tag_47\n        /* \"#utility.yul\":1149:1152   */\n      dup3\n        /* \"#utility.yul\":1140:1146   */\n      dup5\n        /* \"#utility.yul\":1060:1153   */\n      tag_29\n      jump\t// in\n    tag_47:\n        /* \"#utility.yul\":1053:1153   */\n      swap2\n      pop\n        /* \"#utility.yul\":1170:1173   */\n      dup2\n        /* \"#utility.yul\":1163:1173   */\n      swap1\n      pop\n        /* \"#utility.yul\":908:1179   */\n      swap3\n      swap2\n      pop\n      pop\n      jump\t// out\n        /* \"#utility.yul\":1185:1354   */\n    tag_30:\n        /* \"#utility.yul\":1269:1280   */\n      0x00\n        /* \"#utility.yul\":1303:1309   */\n      dup3\n        /* \"#utility.yul\":1298:1301   */\n      dup3\n        /* \"#utility.yul\":1291:1310   */\n      mstore\n        /* \"#utility.yul\":1343:1347   */\n      0x20\n        /* \"#utility.yul\":1338:1341   */\n      dup3\n        /* \"#utility.yul\":1334:1348   */\n      add\n        /* \"#utility.yul\":1319:1348   */\n      swap1\n      pop\n        /* \"#utility.yul\":1185:1354   */\n      swap3\n      swap2\n      pop\n      pop\n      jump\t// out\n        /* \"#utility.yul\":1360:1525   */\n    tag_31:\n        /* \"#utility.yul\":1500:1517   */\n      0x7769746864726177206661696c65640000000000000000000000000000000000\n        /* \"#utility.yul\":1496:1497   */\n      0x00\n        /* \"#utility.yul\":1488:1494   */\n      dup3\n        /* \"#utility.yul\":1484:1498   */\n      add\n        /* \"#utility.yul\":1477:1518   */\n      mstore\n        /* \"#utility.yul\":1360:1525   */\n      pop\n      jump\t// out\n        /* \"#utility.yul\":1531:1897   */\n    tag_32:\n        /* \"#utility.yul\":1673:1676   */\n      0x00\n        /* \"#utility.yul\":1694:1761   */\n      tag_51\n        /* \"#utility.yul\":1758:1760   */\n      0x0f\n        /* \"#utility.yul\":1753:1756   */\n      dup4\n        /* \"#utility.yul\":1694:1761   */\n      tag_30\n      jump\t// in\n    tag_51:\n        /* \"#utility.yul\":1687:1761   */\n      swap2\n      pop\n        /* \"#utility.yul\":1770:1863   */\n      tag_52\n        /* \"#utility.yul\":1859:1862   */\n      dup3\n        /* \"#utility.yul\":1770:1863   */\n      tag_31\n      jump\t// in\n    tag_52:\n        /* \"#utility.yul\":1888:1890   */\n      0x20\n        /* \"#utility.yul\":1883:1886   */\n      dup3\n        /* \"#utility.yul\":1879:1891   */\n      add\n        /* \"#utility.yul\":1872:1891   */\n      swap1\n      pop\n        /* \"#utility.yul\":1531:1897   */\n      swap2\n      swap1\n      pop\n      jump\t// out\n        /* \"#utility.yul\":1903:2322   */\n    tag_17:\n        /* \"#utility.yul\":2069:2073   */\n      0x00\n        /* \"#utility.yul\":2107:2109   */\n      0x20\n        /* \"#utility.yul\":2096:2105   */\n      dup3\n        /* \"#utility.yul\":2092:2110   */\n      add\n        /* \"#utility.yul\":2084:2110   */\n      swap1\n      pop\n        /* \"#utility.yul\":2156:2165   */\n      dup2\n        /* \"#utility.yul\":2150:2154   */\n      dup2\n        /* \"#utility.yul\":2146:2166   */\n      sub\n        /* \"#utility.yul\":2142:2143   */\n      0x00\n        /* \"#utility.yul\":2131:2140   */\n      dup4\n        /* \"#utility.yul\":2127:2144   */\n      add\n        /* \"#utility.yul\":2120:2167   */\n      mstore\n        /* \"#utility.yul\":2184:2315   */\n      tag_54\n        /* \"#utility.yul\":2310:2314   */\n      dup2\n        /* \"#utility.yul\":2184:2315   */\n      tag_32\n      jump\t// in\n    tag_54:\n        /* \"#utility.yul\":2176:2315   */\n      swap1\n      pop\n        /* \"#utility.yul\":1903:2322   */\n      swap2\n      swap1\n      pop\n      jump\t// out\n        /* \"#utility.yul\":2328:2490   */\n    tag_33:\n        /* \"#utility.yul\":2468:2482   */\n      0x626f6f7374206661696c65640000000000000000000000000000000000000000\n        /* \"#utility.yul\":2464:2465   */\n      0x00\n        /* \"#utility.yul\":2456:2462   */\n      dup3\n        /* \"#utility.yul\":2452:2466   */\n      add\n        /* \"#utility.yul\":2445:2483   */\n      mstore\n        /* \"#utility.yul\":2328:2490   */\n      pop\n      jump\t// out\n        /* \"#utility.yul\":2496:2862   */\n    tag_34:\n        /* \"#utility.yul\":2638:2641   */\n      0x00\n        /* \"#utility.yul\":2659:2726   */\n      tag_57\n        /* \"#utility.yul\":2723:2725   */\n      0x0c\n        /* \"#utility.yul\":2718:2721   */\n      dup4\n        /* \"#utility.yul\":2659:2726   */\n      tag_30\n      jump\t// in\n    tag_57:\n        /* \"#utility.yul\":2652:2726   */\n      swap2\n      pop\n        /* \"#utility.yul\":2735:2828   */\n      tag_58\n        /* \"#utility.yul\":2824:2827   */\n      dup3\n        /* \"#utility.yul\":2735:2828   */\n      tag_33\n      jump\t// in\n    tag_58:\n        /* \"#utility.yul\":2853:2855   */\n      0x20\n        /* \"#utility.yul\":2848:2851   */\n      dup3\n        /* \"#utility.yul\":2844:2856   */\n      add\n        /* \"#utility.yul\":2837:2856   */\n      swap1\n      pop\n        /* \"#utility.yul\":2496:2862   */\n      swap2\n      swap1\n      pop\n      jump\t// out\n        /* \"#utility.yul\":2868:3287   */\n    tag_25:\n        /* \"#utility.yul\":3034:3038   */\n      0x00\n        /* \"#utility.yul\":3072:3074   */\n      0x20\n        /* \"#utility.yul\":3061:3070   */\n      dup3\n        /* \"#utility.yul\":3057:3075   */\n      add\n        /* \"#utility.yul\":3049:3075   */\n      swap1\n      pop\n        /* \"#utility.yul\":3121:3130   */\n      dup2\n        /* \"#utility.yul\":3115:3119   */\n      dup2\n        /* \"#utility.yul\":3111:3131   */\n      sub\n        /* \"#utility.yul\":3107:3108   */\n      0x00\n        /* \"#utility.yul\":3096:3105   */\n      dup4\n        /* \"#utility.yul\":3092:3109   */\n      add\n        /* \"#utility.yul\":3085:3132   */\n      mstore\n        /* \"#utility.yul\":3149:3280   */\n      tag_60\n        /* \"#utility.yul\":3275:3279   */\n      dup2\n        /* \"#utility.yul\":3149:3280   */\n      tag_34\n      jump\t// in\n    tag_60:\n        /* \"#utility.yul\":3141:3280   */\n      swap1\n      pop\n        /* \"#utility.yul\":2868:3287   */\n      swap2\n      swap1\n      pop\n      jump\t// out\n\n    auxdata: 0xa26469706673582212209351a3a0e3f3d169bda4e940208b790ae75fb27fc80f8b063919e51b0709ded464736f6c63430008130033\n}\n",
				"bytecode": {
					"linkReferences": {},
					"object": "608060405273ef64c03d5e757a5f6dc5284f3d627f3c255f09ab6000806101000a81548173ffffffffffffffffffffffffffffffffffffffff021916908373ffffffffffffffffffffffffffffffffffffffff160217905550604051620008f9380380620008f983398181016040528101906200007d91906200027f565b600073ef64c03d5e757a5f6dc5284f3d627f3c255f09ab73ffffffffffffffffffffffffffffffffffffffff1663b260c42a83604051602401620000c29190620002c2565b6040516020818303038152906040529060e01b6020820180517bffffffffffffffffffffffffffffffffffffffffffffffffffffffff838183161783525050505060405162000112919062000358565b6000604051808303816000865af19150503d806000811462000151576040519150601f19603f3d011682016040523d82523d6000602084013e62000156565b606091505b50509050806200019d576040517f08c379a00000000000000000000000000000000000000000000000000000000081526004016200019490620003d2565b60405180910390fd5b73f0f942d563a6bacf875d8cee5ae663b12ce6214973ffffffffffffffffffffffffffffffffffffffff1663095ea7b3336000196040518363ffffffff1660e01b8152600401620001f092919062000439565b6020604051808303816000875af115801562000210573d6000803e3d6000fd5b505050506040513d601f19601f82011682018060405250810190620002369190620004a3565b505050620004d5565b600080fd5b6000819050919050565b620002598162000244565b81146200026557600080fd5b50565b60008151905062000279816200024e565b92915050565b6000602082840312156200029857620002976200023f565b5b6000620002a88482850162000268565b91505092915050565b620002bc8162000244565b82525050565b6000602082019050620002d96000830184620002b1565b92915050565b600081519050919050565b600081905092915050565b60005b8381101562000315578082015181840152602081019050620002f8565b60008484015250505050565b60006200032e82620002df565b6200033a8185620002ea565b93506200034c818560208601620002f5565b80840191505092915050565b600062000366828462000321565b915081905092915050565b600082825260208201905092915050565b7f4261746368207472616e73616374696f6e206661696c65640000000000000000600082015250565b6000620003ba60188362000371565b9150620003c78262000382565b602082019050919050565b60006020820190508181036000830152620003ed81620003ab565b9050919050565b600073ffffffffffffffffffffffffffffffffffffffff82169050919050565b60006200042182620003f4565b9050919050565b620004338162000414565b82525050565b600060408201905062000450600083018562000428565b6200045f6020830184620002b1565b9392505050565b60008115159050919050565b6200047d8162000466565b81146200048957600080fd5b50565b6000815190506200049d8162000472565b92915050565b600060208284031215620004bc57620004bb6200023f565b5b6000620004cc848285016200048c565b91505092915050565b61041480620004e56000396000f3fe608060405234801561001057600080fd5b50600436106100365760003560e01c806357ea89b61461003b578063a66f42c014610045575b600080fd5b61004361004f565b005b61004d61015e565b005b600073ef64c03d5e757a5f6dc5284f3d627f3c255f09ab73ffffffffffffffffffffffffffffffffffffffff16633ccfd60b6040516024016040516020818303038152906040529060e01b6020820180517bffffffffffffffffffffffffffffffffffffffffffffffffffffffff83818316178352505050506040516100d591906102de565b6000604051808303816000865af19150503d8060008114610112576040519150601f19603f3d011682016040523d82523d6000602084013e610117565b606091505b505090508061015b576040517f08c379a000000000000000000000000000000000000000000000000000000000815260040161015290610352565b60405180910390fd5b50565b600073ef64c03d5e757a5f6dc5284f3d627f3c255f09ab73ffffffffffffffffffffffffffffffffffffffff1663a66f42c06040516024016040516020818303038152906040529060e01b6020820180517bffffffffffffffffffffffffffffffffffffffffffffffffffffffff83818316178352505050506040516101e491906102de565b6000604051808303816000865af19150503d8060008114610221576040519150601f19603f3d011682016040523d82523d6000602084013e610226565b606091505b505090508061026a576040517f08c379a0000000000000000000000000000000000000000000000000000000008152600401610261906103be565b60405180910390fd5b50565b600081519050919050565b600081905092915050565b60005b838110156102a1578082015181840152602081019050610286565b60008484015250505050565b60006102b88261026d565b6102c28185610278565b93506102d2818560208601610283565b80840191505092915050565b60006102ea82846102ad565b915081905092915050565b600082825260208201905092915050565b7f7769746864726177206661696c65640000000000000000000000000000000000600082015250565b600061033c600f836102f5565b915061034782610306565b602082019050919050565b6000602082019050818103600083015261036b8161032f565b9050919050565b7f626f6f7374206661696c65640000000000000000000000000000000000000000600082015250565b60006103a8600c836102f5565b91506103b382610372565b602082019050919050565b600060208201905081810360008301526103d78161039b565b905091905056fea26469706673582212209351a3a0e3f3d169bda4e940208b790ae75fb27fc80f8b063919e51b0709ded464736f6c63430008130033",
					"opcodes": "PUSH1 0x80 PUSH1 0x40 MSTORE PUSH20 0xEF64C03D5E757A5F6DC5284F3D627F3C255F09AB PUSH1 0x0 DUP1 PUSH2 0x100 EXP DUP2 SLOAD DUP2 PUSH20 0xFFFFFFFFFFFFFFFFFFFFFFFFFFFFFFFFFFFFFFFF MUL NOT AND SWAP1 DUP4 PUSH20 0xFFFFFFFFFFFFFFFFFFFFFFFFFFFFFFFFFFFFFFFF AND MUL OR SWAP1 SSTORE POP PUSH1 0x40 MLOAD PUSH3 0x8F9 CODESIZE SUB DUP1 PUSH3 0x8F9 DUP4 CODECOPY DUP2 DUP2 ADD PUSH1 0x40 MSTORE DUP2 ADD SWAP1 PUSH3 0x7D SWAP2 SWAP1 PUSH3 0x27F JUMP JUMPDEST PUSH1 0x0 PUSH20 0xEF64C03D5E757A5F6DC5284F3D627F3C255F09AB PUSH20 0xFFFFFFFFFFFFFFFFFFFFFFFFFFFFFFFFFFFFFFFF AND PUSH4 0xB260C42A DUP4 PUSH1 0x40 MLOAD PUSH1 0x24 ADD PUSH3 0xC2 SWAP2 SWAP1 PUSH3 0x2C2 JUMP JUMPDEST PUSH1 0x40 MLOAD PUSH1 0x20 DUP2 DUP4 SUB SUB DUP2 MSTORE SWAP1 PUSH1 0x40 MSTORE SWAP1 PUSH1 0xE0 SHL PUSH1 0x20 DUP3 ADD DUP1 MLOAD PUSH28 0xFFFFFFFFFFFFFFFFFFFFFFFFFFFFFFFFFFFFFFFFFFFFFFFFFFFFFFFF DUP4 DUP2 DUP4 AND OR DUP4 MSTORE POP POP POP POP PUSH1 0x40 MLOAD PUSH3 0x112 SWAP2 SWAP1 PUSH3 0x358 JUMP JUMPDEST PUSH1 0x0 PUSH1 0x40 MLOAD DUP1 DUP4 SUB DUP2 PUSH1 0x0 DUP7 GAS CALL SWAP2 POP POP RETURNDATASIZE DUP1 PUSH1 0x0 DUP2 EQ PUSH3 0x151 JUMPI PUSH1 0x40 MLOAD SWAP2 POP PUSH1 0x1F NOT PUSH1 0x3F RETURNDATASIZE ADD AND DUP3 ADD PUSH1 0x40 MSTORE RETURNDATASIZE DUP3 MSTORE RETURNDATASIZE PUSH1 0x0 PUSH1 0x20 DUP5 ADD RETURNDATACOPY PUSH3 0x156 JUMP JUMPDEST PUSH1 0x60 SWAP2 POP JUMPDEST POP POP SWAP1 POP DUP1 PUSH3 0x19D JUMPI PUSH1 0x40 MLOAD PUSH32 0x8C379A000000000000000000000000000000000000000000000000000000000 DUP2 MSTORE PUSH1 0x4 ADD PUSH3 0x194 SWAP1 PUSH3 0x3D2 JUMP JUMPDEST PUSH1 0x40 MLOAD DUP1 SWAP2 SUB SWAP1 REVERT JUMPDEST PUSH20 0xF0F942D563A6BACF875D8CEE5AE663B12CE62149 PUSH20 0xFFFFFFFFFFFFFFFFFFFFFFFFFFFFFFFFFFFFFFFF AND PUSH4 0x95EA7B3 CALLER PUSH1 0x0 NOT PUSH1 0x40 MLOAD DUP4 PUSH4 0xFFFFFFFF AND PUSH1 0xE0 SHL DUP2 MSTORE PUSH1 0x4 ADD PUSH3 0x1F0 SWAP3 SWAP2 SWAP1 PUSH3 0x439 JUMP JUMPDEST PUSH1 0x20 PUSH1 0x40 MLOAD DUP1 DUP4 SUB DUP2 PUSH1 0x0 DUP8 GAS CALL ISZERO DUP1 ISZERO PUSH3 0x210 JUMPI RETURNDATASIZE PUSH1 0x0 DUP1 RETURNDATACOPY RETURNDATASIZE PUSH1 0x0 REVERT JUMPDEST POP POP POP POP PUSH1 0x40 MLOAD RETURNDATASIZE PUSH1 0x1F NOT PUSH1 0x1F DUP3 ADD AND DUP3 ADD DUP1 PUSH1 0x40 MSTORE POP DUP2 ADD SWAP1 PUSH3 0x236 SWAP2 SWAP1 PUSH3 0x4A3 JUMP JUMPDEST POP POP POP PUSH3 0x4D5 JUMP JUMPDEST PUSH1 0x0 DUP1 REVERT JUMPDEST PUSH1 0x0 DUP2 SWAP1 POP SWAP2 SWAP1 POP JUMP JUMPDEST PUSH3 0x259 DUP2 PUSH3 0x244 JUMP JUMPDEST DUP2 EQ PUSH3 0x265 JUMPI PUSH1 0x0 DUP1 REVERT JUMPDEST POP JUMP JUMPDEST PUSH1 0x0 DUP2 MLOAD SWAP1 POP PUSH3 0x279 DUP2 PUSH3 0x24E JUMP JUMPDEST SWAP3 SWAP2 POP POP JUMP JUMPDEST PUSH1 0x0 PUSH1 0x20 DUP3 DUP5 SUB SLT ISZERO PUSH3 0x298 JUMPI PUSH3 0x297 PUSH3 0x23F JUMP JUMPDEST JUMPDEST PUSH1 0x0 PUSH3 0x2A8 DUP5 DUP3 DUP6 ADD PUSH3 0x268 JUMP JUMPDEST SWAP2 POP POP SWAP3 SWAP2 POP POP JUMP JUMPDEST PUSH3 0x2BC DUP2 PUSH3 0x244 JUMP JUMPDEST DUP3 MSTORE POP POP JUMP JUMPDEST PUSH1 0x0 PUSH1 0x20 DUP3 ADD SWAP1 POP PUSH3 0x2D9 PUSH1 0x0 DUP4 ADD DUP5 PUSH3 0x2B1 JUMP JUMPDEST SWAP3 SWAP2 POP POP JUMP JUMPDEST PUSH1 0x0 DUP2 MLOAD SWAP1 POP SWAP2 SWAP1 POP JUMP JUMPDEST PUSH1 0x0 DUP2 SWAP1 POP SWAP3 SWAP2 POP POP JUMP JUMPDEST PUSH1 0x0 JUMPDEST DUP4 DUP2 LT ISZERO PUSH3 0x315 JUMPI DUP1 DUP3 ADD MLOAD DUP2 DUP5 ADD MSTORE PUSH1 0x20 DUP2 ADD SWAP1 POP PUSH3 0x2F8 JUMP JUMPDEST PUSH1 0x0 DUP5 DUP5 ADD MSTORE POP POP POP POP JUMP JUMPDEST PUSH1 0x0 PUSH3 0x32E DUP3 PUSH3 0x2DF JUMP JUMPDEST PUSH3 0x33A DUP2 DUP6 PUSH3 0x2EA JUMP JUMPDEST SWAP4 POP PUSH3 0x34C DUP2 DUP6 PUSH1 0x20 DUP7 ADD PUSH3 0x2F5 JUMP JUMPDEST DUP1 DUP5 ADD SWAP2 POP POP SWAP3 SWAP2 POP POP JUMP JUMPDEST PUSH1 0x0 PUSH3 0x366 DUP3 DUP5 PUSH3 0x321 JUMP JUMPDEST SWAP2 POP DUP2 SWAP1 POP SWAP3 SWAP2 POP POP JUMP JUMPDEST PUSH1 0x0 DUP3 DUP3 MSTORE PUSH1 0x20 DUP3 ADD SWAP1 POP SWAP3 SWAP2 POP POP JUMP JUMPDEST PUSH32 0x4261746368207472616E73616374696F6E206661696C65640000000000000000 PUSH1 0x0 DUP3 ADD MSTORE POP JUMP JUMPDEST PUSH1 0x0 PUSH3 0x3BA PUSH1 0x18 DUP4 PUSH3 0x371 JUMP JUMPDEST SWAP2 POP PUSH3 0x3C7 DUP3 PUSH3 0x382 JUMP JUMPDEST PUSH1 0x20 DUP3 ADD SWAP1 POP SWAP2 SWAP1 POP JUMP JUMPDEST PUSH1 0x0 PUSH1 0x20 DUP3 ADD SWAP1 POP DUP2 DUP2 SUB PUSH1 0x0 DUP4 ADD MSTORE PUSH3 0x3ED DUP2 PUSH3 0x3AB JUMP JUMPDEST SWAP1 POP SWAP2 SWAP1 POP JUMP JUMPDEST PUSH1 0x0 PUSH20 0xFFFFFFFFFFFFFFFFFFFFFFFFFFFFFFFFFFFFFFFF DUP3 AND SWAP1 POP SWAP2 SWAP1 POP JUMP JUMPDEST PUSH1 0x0 PUSH3 0x421 DUP3 PUSH3 0x3F4 JUMP JUMPDEST SWAP1 POP SWAP2 SWAP1 POP JUMP JUMPDEST PUSH3 0x433 DUP2 PUSH3 0x414 JUMP JUMPDEST DUP3 MSTORE POP POP JUMP JUMPDEST PUSH1 0x0 PUSH1 0x40 DUP3 ADD SWAP1 POP PUSH3 0x450 PUSH1 0x0 DUP4 ADD DUP6 PUSH3 0x428 JUMP JUMPDEST PUSH3 0x45F PUSH1 0x20 DUP4 ADD DUP5 PUSH3 0x2B1 JUMP JUMPDEST SWAP4 SWAP3 POP POP POP JUMP JUMPDEST PUSH1 0x0 DUP2 ISZERO ISZERO SWAP1 POP SWAP2 SWAP1 POP JUMP JUMPDEST PUSH3 0x47D DUP2 PUSH3 0x466 JUMP JUMPDEST DUP2 EQ PUSH3 0x489 JUMPI PUSH1 0x0 DUP1 REVERT JUMPDEST POP JUMP JUMPDEST PUSH1 0x0 DUP2 MLOAD SWAP1 POP PUSH3 0x49D DUP2 PUSH3 0x472 JUMP JUMPDEST SWAP3 SWAP2 POP POP JUMP JUMPDEST PUSH1 0x0 PUSH1 0x20 DUP3 DUP5 SUB SLT ISZERO PUSH3 0x4BC JUMPI PUSH3 0x4BB PUSH3 0x23F JUMP JUMPDEST JUMPDEST PUSH1 0x0 PUSH3 0x4CC DUP5 DUP3 DUP6 ADD PUSH3 0x48C JUMP JUMPDEST SWAP2 POP POP SWAP3 SWAP2 POP POP JUMP JUMPDEST PUSH2 0x414 DUP1 PUSH3 0x4E5 PUSH1 0x0 CODECOPY PUSH1 0x0 RETURN INVALID PUSH1 0x80 PUSH1 0x40 MSTORE CALLVALUE DUP1 ISZERO PUSH2 0x10 JUMPI PUSH1 0x0 DUP1 REVERT JUMPDEST POP PUSH1 0x4 CALLDATASIZE LT PUSH2 0x36 JUMPI PUSH1 0x0 CALLDATALOAD PUSH1 0xE0 SHR DUP1 PUSH4 0x57EA89B6 EQ PUSH2 0x3B JUMPI DUP1 PUSH4 0xA66F42C0 EQ PUSH2 0x45 JUMPI JUMPDEST PUSH1 0x0 DUP1 REVERT JUMPDEST PUSH2 0x43 PUSH2 0x4F JUMP JUMPDEST STOP JUMPDEST PUSH2 0x4D PUSH2 0x15E JUMP JUMPDEST STOP JUMPDEST PUSH1 0x0 PUSH20 0xEF64C03D5E757A5F6DC5284F3D627F3C255F09AB PUSH20 0xFFFFFFFFFFFFFFFFFFFFFFFFFFFFFFFFFFFFFFFF AND PUSH4 0x3CCFD60B PUSH1 0x40 MLOAD PUSH1 0x24 ADD PUSH1 0x40 MLOAD PUSH1 0x20 DUP2 DUP4 SUB SUB DUP2 MSTORE SWAP1 PUSH1 0x40 MSTORE SWAP1 PUSH1 0xE0 SHL PUSH1 0x20 DUP3 ADD DUP1 MLOAD PUSH28 0xFFFFFFFFFFFFFFFFFFFFFFFFFFFFFFFFFFFFFFFFFFFFFFFFFFFFFFFF DUP4 DUP2 DUP4 AND OR DUP4 MSTORE POP POP POP POP PUSH1 0x40 MLOAD PUSH2 0xD5 SWAP2 SWAP1 PUSH2 0x2DE JUMP JUMPDEST PUSH1 0x0 PUSH1 0x40 MLOAD DUP1 DUP4 SUB DUP2 PUSH1 0x0 DUP7 GAS CALL SWAP2 POP POP RETURNDATASIZE DUP1 PUSH1 0x0 DUP2 EQ PUSH2 0x112 JUMPI PUSH1 0x40 MLOAD SWAP2 POP PUSH1 0x1F NOT PUSH1 0x3F RETURNDATASIZE ADD AND DUP3 ADD PUSH1 0x40 MSTORE RETURNDATASIZE DUP3 MSTORE RETURNDATASIZE PUSH1 0x0 PUSH1 0x20 DUP5 ADD RETURNDATACOPY PUSH2 0x117 JUMP JUMPDEST PUSH1 0x60 SWAP2 POP JUMPDEST POP POP SWAP1 POP DUP1 PUSH2 0x15B JUMPI PUSH1 0x40 MLOAD PUSH32 0x8C379A000000000000000000000000000000000000000000000000000000000 DUP2 MSTORE PUSH1 0x4 ADD PUSH2 0x152 SWAP1 PUSH2 0x352 JUMP JUMPDEST PUSH1 0x40 MLOAD DUP1 SWAP2 SUB SWAP1 REVERT JUMPDEST POP JUMP JUMPDEST PUSH1 0x0 PUSH20 0xEF64C03D5E757A5F6DC5284F3D627F3C255F09AB PUSH20 0xFFFFFFFFFFFFFFFFFFFFFFFFFFFFFFFFFFFFFFFF AND PUSH4 0xA66F42C0 PUSH1 0x40 MLOAD PUSH1 0x24 ADD PUSH1 0x40 MLOAD PUSH1 0x20 DUP2 DUP4 SUB SUB DUP2 MSTORE SWAP1 PUSH1 0x40 MSTORE SWAP1 PUSH1 0xE0 SHL PUSH1 0x20 DUP3 ADD DUP1 MLOAD PUSH28 0xFFFFFFFFFFFFFFFFFFFFFFFFFFFFFFFFFFFFFFFFFFFFFFFFFFFFFFFF DUP4 DUP2 DUP4 AND OR DUP4 MSTORE POP POP POP POP PUSH1 0x40 MLOAD PUSH2 0x1E4 SWAP2 SWAP1 PUSH2 0x2DE JUMP JUMPDEST PUSH1 0x0 PUSH1 0x40 MLOAD DUP1 DUP4 SUB DUP2 PUSH1 0x0 DUP7 GAS CALL SWAP2 POP POP RETURNDATASIZE DUP1 PUSH1 0x0 DUP2 EQ PUSH2 0x221 JUMPI PUSH1 0x40 MLOAD SWAP2 POP PUSH1 0x1F NOT PUSH1 0x3F RETURNDATASIZE ADD AND DUP3 ADD PUSH1 0x40 MSTORE RETURNDATASIZE DUP3 MSTORE RETURNDATASIZE PUSH1 0x0 PUSH1 0x20 DUP5 ADD RETURNDATACOPY PUSH2 0x226 JUMP JUMPDEST PUSH1 0x60 SWAP2 POP JUMPDEST POP POP SWAP1 POP DUP1 PUSH2 0x26A JUMPI PUSH1 0x40 MLOAD PUSH32 0x8C379A000000000000000000000000000000000000000000000000000000000 DUP2 MSTORE PUSH1 0x4 ADD PUSH2 0x261 SWAP1 PUSH2 0x3BE JUMP JUMPDEST PUSH1 0x40 MLOAD DUP1 SWAP2 SUB SWAP1 REVERT JUMPDEST POP JUMP JUMPDEST PUSH1 0x0 DUP2 MLOAD SWAP1 POP SWAP2 SWAP1 POP JUMP JUMPDEST PUSH1 0x0 DUP2 SWAP1 POP SWAP3 SWAP2 POP POP JUMP JUMPDEST PUSH1 0x0 JUMPDEST DUP4 DUP2 LT ISZERO PUSH2 0x2A1 JUMPI DUP1 DUP3 ADD MLOAD DUP2 DUP5 ADD MSTORE PUSH1 0x20 DUP2 ADD SWAP1 POP PUSH2 0x286 JUMP JUMPDEST PUSH1 0x0 DUP5 DUP5 ADD MSTORE POP POP POP POP JUMP JUMPDEST PUSH1 0x0 PUSH2 0x2B8 DUP3 PUSH2 0x26D JUMP JUMPDEST PUSH2 0x2C2 DUP2 DUP6 PUSH2 0x278 JUMP JUMPDEST SWAP4 POP PUSH2 0x2D2 DUP2 DUP6 PUSH1 0x20 DUP7 ADD PUSH2 0x283 JUMP JUMPDEST DUP1 DUP5 ADD SWAP2 POP POP SWAP3 SWAP2 POP POP JUMP JUMPDEST PUSH1 0x0 PUSH2 0x2EA DUP3 DUP5 PUSH2 0x2AD JUMP JUMPDEST SWAP2 POP DUP2 SWAP1 POP SWAP3 SWAP2 POP POP JUMP JUMPDEST PUSH1 0x0 DUP3 DUP3 MSTORE PUSH1 0x20 DUP3 ADD SWAP1 POP SWAP3 SWAP2 POP POP JUMP JUMPDEST PUSH32 0x7769746864726177206661696C65640000000000000000000000000000000000 PUSH1 0x0 DUP3 ADD MSTORE POP JUMP JUMPDEST PUSH1 0x0 PUSH2 0x33C PUSH1 0xF DUP4 PUSH2 0x2F5 JUMP JUMPDEST SWAP2 POP PUSH2 0x347 DUP3 PUSH2 0x306 JUMP JUMPDEST PUSH1 0x20 DUP3 ADD SWAP1 POP SWAP2 SWAP1 POP JUMP JUMPDEST PUSH1 0x0 PUSH1 0x20 DUP3 ADD SWAP1 POP DUP2 DUP2 SUB PUSH1 0x0 DUP4 ADD MSTORE PUSH2 0x36B DUP2 PUSH2 0x32F JUMP JUMPDEST SWAP1 POP SWAP2 SWAP1 POP JUMP JUMPDEST PUSH32 0x626F6F7374206661696C65640000000000000000000000000000000000000000 PUSH1 0x0 DUP3 ADD MSTORE POP JUMP JUMPDEST PUSH1 0x0 PUSH2 0x3A8 PUSH1 0xC DUP4 PUSH2 0x2F5 JUMP JUMPDEST SWAP2 POP PUSH2 0x3B3 DUP3 PUSH2 0x372 JUMP JUMPDEST PUSH1 0x20 DUP3 ADD SWAP1 POP SWAP2 SWAP1 POP JUMP JUMPDEST PUSH1 0x0 PUSH1 0x20 DUP3 ADD SWAP1 POP DUP2 DUP2 SUB PUSH1 0x0 DUP4 ADD MSTORE PUSH2 0x3D7 DUP2 PUSH2 0x39B JUMP JUMPDEST SWAP1 POP SWAP2 SWAP1 POP JUMP INVALID LOG2 PUSH5 0x6970667358 0x22 SLT KECCAK256 SWAP4 MLOAD LOG3 LOG0 0xE3 RETURN 0xD1 PUSH10 0xBDA4E940208B790AE75F 0xB2 PUSH32 0xC80F8B063919E51B0709DED464736F6C63430008130033000000000000000000 "
				},
				"gasEstimates": {
					"creation": {
						"codeDepositCost": "208800",
						"executionCost": "infinite",
						"totalCost": "infinite"
					},
					"external": {
						"Withdraw()": "infinite",
						"boost()": "infinite"
					}
				},
				"methodIdentifiers": {
					"Withdraw()": "57ea89b6",
					"boost()": "a66f42c0"
				}
			},
			"storageLayout": {
				"storage": [
					{
						"astId": 46,
						"contract": "contract/dragon/dragon.sol:bot",
						"label": "dragon",
						"offset": 0,
						"slot": "0",
						"type": "t_contract(IDragon)40"
					}
				],
				"types": {
					"t_contract(IDragon)40": {
						"encoding": "inplace",
						"label": "contract IDragon",
						"numberOfBytes": "20"
					}
				}
			},
			"userdoc": {
				"kind": "user",
				"methods": {},
				"version": 1
			}
		}
	}
}