{
	"contract/dragon/dragon.sol": {
		"Batcher": {
			"abi": [
				{
					"inputs": [],
					"stateMutability": "nonpayable",
					"type": "constructor"
				},
				{
					"inputs": [
						{
							"internalType": "uint256",
							"name": "start_index",
							"type": "uint256"
						},
						{
							"internalType": "uint256",
							"name": "end_index",
							"type": "uint256"
						}
					],
					"name": "BatchBoost",
					"outputs": [],
					"stateMutability": "nonpayable",
					"type": "function"
				},
				{
					"inputs": [
						{
							"internalType": "uint256",
							"name": "invite_code",
							"type": "uint256"
						},
						{
							"internalType": "uint256",
							"name": "times",
							"type": "uint256"
						}
					],
					"name": "BatchMint",
					"outputs": [],
					"stateMutability": "nonpayable",
					"type": "function"
				},
				{
					"inputs": [
						{
							"internalType": "uint256",
							"name": "start_index",
							"type": "uint256"
						},
						{
							"internalType": "uint256",
							"name": "end_index",
							"type": "uint256"
						}
					],
					"name": "BatchWithdarw",
					"outputs": [],
					"stateMutability": "nonpayable",
					"type": "function"
				},
				{
					"inputs": [
						{
							"internalType": "uint256",
							"name": "code",
							"type": "uint256"
						}
					],
					"name": "change_code",
					"outputs": [],
					"stateMutability": "nonpayable",
					"type": "function"
				},
				{
					"inputs": [
						{
							"internalType": "uint256",
							"name": "times",
							"type": "uint256"
						}
					],
					"name": "change_times",
					"outputs": [],
					"stateMutability": "nonpayable",
					"type": "function"
				},
				{
					"inputs": [
						{
							"internalType": "address",
							"name": "_owner",
							"type": "address"
						}
					],
					"name": "own_address_num",
					"outputs": [
						{
							"internalType": "uint256",
							"name": "res",
							"type": "uint256"
						}
					],
					"stateMutability": "view",
					"type": "function"
				}
			],
			"devdoc": {
				"kind": "dev",
				"methods": {},
				"version": 1
			},
			"evm": {
				"assembly": "    /* \"contract/dragon/dragon.sol\":1705:4092  contract Batcher {... */\n  mstore(0x40, 0xa0)\n    /* \"contract/dragon/dragon.sol\":1840:1842  15 */\n  0x0f\n    /* \"contract/dragon/dragon.sol\":1820:1842  uint256 tax_times = 15 */\n  0x01\n  sstore\n    /* \"contract/dragon/dragon.sol\":1869:1875  137968 */\n  0x021af0\n    /* \"contract/dragon/dragon.sol\":1848:1875  uint256 owner_code = 137968 */\n  0x02\n  sstore\n    /* \"contract/dragon/dragon.sol\":1906:1948  0xEf64C03D5E757a5f6dC5284F3d627F3C255F09aB */\n  0xef64c03d5e757a5f6dc5284f3d627f3c255f09ab\n    /* \"contract/dragon/dragon.sol\":1881:1949  IDragon dragon = IDragon(0xEf64C03D5E757a5f6dC5284F3d627F3C255F09aB) */\n  0x03\n  exp(0x0100, 0x00)\n  dup2\n  sload\n  dup2\n  0xffffffffffffffffffffffffffffffffffffffff\n  mul\n  not\n  and\n  swap1\n  dup4\n  0xffffffffffffffffffffffffffffffffffffffff\n  and\n  mul\n  or\n  swap1\n  sstore\n  pop\n    /* \"contract/dragon/dragon.sol\":1956:2005  constructor() {... */\n  callvalue\n  dup1\n  iszero\n  tag_1\n  jumpi\n  0x00\n  dup1\n  revert\ntag_1:\n  pop\n    /* \"contract/dragon/dragon.sol\":1988:1998  msg.sender */\n  caller\n    /* \"contract/dragon/dragon.sol\":1980:1998  owner = msg.sender */\n  0xffffffffffffffffffffffffffffffffffffffff\n  and\n  0x80\n  dup2\n  0xffffffffffffffffffffffffffffffffffffffff\n  and\n  dup2\n  mstore\n  pop\n  pop\n    /* \"contract/dragon/dragon.sol\":1705:4092  contract Batcher {... */\n  mload(0x80)\n  codecopy(0x00, dataOffset(sub_0), dataSize(sub_0))\n  0x00\n  assignImmutable(\"0x631897788617bc63fb0292c44f57a6c3824e4264bc88fb4e3c08b910f3f417fc\")\n  return(0x00, dataSize(sub_0))\nstop\n\nsub_0: assembly {\n        /* \"contract/dragon/dragon.sol\":1705:4092  contract Batcher {... */\n      mstore(0x40, 0x80)\n      callvalue\n      dup1\n      iszero\n      tag_1\n      jumpi\n      0x00\n      dup1\n      revert\n    tag_1:\n      pop\n      jumpi(tag_2, lt(calldatasize, 0x04))\n      shr(0xe0, calldataload(0x00))\n      dup1\n      0x06055939\n      eq\n      tag_3\n      jumpi\n      dup1\n      0x1ceeddf4\n      eq\n      tag_4\n      jumpi\n      dup1\n      0x3cd64f18\n      eq\n      tag_5\n      jumpi\n      dup1\n      0xd97af6c2\n      eq\n      tag_6\n      jumpi\n      dup1\n      0xe1381b12\n      eq\n      tag_7\n      jumpi\n      dup1\n      0xe1b903f5\n      eq\n      tag_8\n      jumpi\n    tag_2:\n      0x00\n      dup1\n      revert\n        /* \"contract/dragon/dragon.sol\":2478:3331  function BatchWithdarw(uint256 start_index,uint256 end_index) public {... */\n    tag_3:\n      tag_9\n      0x04\n      dup1\n      calldatasize\n      sub\n      dup2\n      add\n      swap1\n      tag_10\n      swap2\n      swap1\n      tag_11\n      jump\t// in\n    tag_10:\n      tag_12\n      jump\t// in\n    tag_9:\n      stop\n        /* \"contract/dragon/dragon.sol\":3337:3779  function BatchBoost(uint256 start_index,uint256 end_index) public {... */\n    tag_4:\n      tag_13\n      0x04\n      dup1\n      calldatasize\n      sub\n      dup2\n      add\n      swap1\n      tag_14\n      swap2\n      swap1\n      tag_11\n      jump\t// in\n    tag_14:\n      tag_15\n      jump\t// in\n    tag_13:\n      stop\n        /* \"contract/dragon/dragon.sol\":2115:2472  function BatchMint(uint256 invite_code, uint256 times) external {... */\n    tag_5:\n      tag_16\n      0x04\n      dup1\n      calldatasize\n      sub\n      dup2\n      add\n      swap1\n      tag_17\n      swap2\n      swap1\n      tag_11\n      jump\t// in\n    tag_17:\n      tag_18\n      jump\t// in\n    tag_16:\n      stop\n        /* \"contract/dragon/dragon.sol\":3914:3998  function change_code(uint256 code) public isOwner {... */\n    tag_6:\n      tag_19\n      0x04\n      dup1\n      calldatasize\n      sub\n      dup2\n      add\n      swap1\n      tag_20\n      swap2\n      swap1\n      tag_21\n      jump\t// in\n    tag_20:\n      tag_22\n      jump\t// in\n    tag_19:\n      stop\n        /* \"contract/dragon/dragon.sol\":4004:4090  function change_times(uint256 times) public isOwner {... */\n    tag_7:\n      tag_23\n      0x04\n      dup1\n      calldatasize\n      sub\n      dup2\n      add\n      swap1\n      tag_24\n      swap2\n      swap1\n      tag_21\n      jump\t// in\n    tag_24:\n      tag_25\n      jump\t// in\n    tag_23:\n      stop\n        /* \"contract/dragon/dragon.sol\":3785:3908  function own_address_num(address _owner) view public returns (uint256 res){... */\n    tag_8:\n      tag_26\n      0x04\n      dup1\n      calldatasize\n      sub\n      dup2\n      add\n      swap1\n      tag_27\n      swap2\n      swap1\n      tag_28\n      jump\t// in\n    tag_27:\n      tag_29\n      jump\t// in\n    tag_26:\n      mload(0x40)\n      tag_30\n      swap2\n      swap1\n      tag_31\n      jump\t// in\n    tag_30:\n      mload(0x40)\n      dup1\n      swap2\n      sub\n      swap1\n      return\n        /* \"contract/dragon/dragon.sol\":2478:3331  function BatchWithdarw(uint256 start_index,uint256 end_index) public {... */\n    tag_12:\n        /* \"contract/dragon/dragon.sol\":2557:2587  address[] memory contract_list */\n      0x60\n        /* \"contract/dragon/dragon.sol\":2613:2624  own_address */\n      0x00\n        /* \"contract/dragon/dragon.sol\":2613:2636  own_address[msg.sender] */\n      dup1\n        /* \"contract/dragon/dragon.sol\":2625:2635  msg.sender */\n      caller\n        /* \"contract/dragon/dragon.sol\":2613:2636  own_address[msg.sender] */\n      0xffffffffffffffffffffffffffffffffffffffff\n      and\n      0xffffffffffffffffffffffffffffffffffffffff\n      and\n      dup2\n      mstore\n      0x20\n      add\n      swap1\n      dup2\n      mstore\n      0x20\n      add\n      0x00\n      keccak256\n        /* \"contract/dragon/dragon.sol\":2597:2636  contract_list = own_address[msg.sender] */\n      dup1\n      sload\n      dup1\n      0x20\n      mul\n      0x20\n      add\n      mload(0x40)\n      swap1\n      dup2\n      add\n      0x40\n      mstore\n      dup1\n      swap3\n      swap2\n      swap1\n      dup2\n      dup2\n      mstore\n      0x20\n      add\n      dup3\n      dup1\n      sload\n      dup1\n      iszero\n      tag_33\n      jumpi\n      0x20\n      mul\n      dup3\n      add\n      swap2\n      swap1\n      0x00\n      mstore\n      keccak256(0x00, 0x20)\n      swap1\n    tag_34:\n      dup2\n      0x00\n      swap1\n      sload\n      swap1\n      0x0100\n      exp\n      swap1\n      div\n      0xffffffffffffffffffffffffffffffffffffffff\n      and\n      0xffffffffffffffffffffffffffffffffffffffff\n      and\n      dup2\n      mstore\n      0x20\n      add\n      swap1\n      0x01\n      add\n      swap1\n      dup1\n      dup4\n      gt\n      tag_34\n      jumpi\n    tag_33:\n      pop\n      pop\n      pop\n      pop\n      pop\n      swap1\n      pop\n        /* \"contract/dragon/dragon.sol\":2677:2688  start_index */\n      dup3\n        /* \"contract/dragon/dragon.sol\":2654:2667  contract_list */\n      dup2\n        /* \"contract/dragon/dragon.sol\":2654:2674  contract_list.length */\n      mload\n        /* \"contract/dragon/dragon.sol\":2654:2688  contract_list.length > start_index */\n      gt\n        /* \"contract/dragon/dragon.sol\":2654:2723  contract_list.length > start_index && contract_list.length>=end_index */\n      dup1\n      iszero\n      tag_35\n      jumpi\n      pop\n        /* \"contract/dragon/dragon.sol\":2714:2723  end_index */\n      dup2\n        /* \"contract/dragon/dragon.sol\":2692:2705  contract_list */\n      dup2\n        /* \"contract/dragon/dragon.sol\":2692:2712  contract_list.length */\n      mload\n        /* \"contract/dragon/dragon.sol\":2692:2723  contract_list.length>=end_index */\n      lt\n      iszero\n        /* \"contract/dragon/dragon.sol\":2654:2723  contract_list.length > start_index && contract_list.length>=end_index */\n    tag_35:\n        /* \"contract/dragon/dragon.sol\":2646:2728  require(contract_list.length > start_index && contract_list.length>=end_index,\"f\") */\n      tag_36\n      jumpi\n      mload(0x40)\n      0x08c379a000000000000000000000000000000000000000000000000000000000\n      dup2\n      mstore\n      0x04\n      add\n      tag_37\n      swap1\n      tag_38\n      jump\t// in\n    tag_37:\n      mload(0x40)\n      dup1\n      swap2\n      sub\n      swap1\n      revert\n    tag_36:\n        /* \"contract/dragon/dragon.sol\":2738:2757  IERC20 dragon_token */\n      0x00\n        /* \"contract/dragon/dragon.sol\":2780:2822  0xF0f942D563A6BaCf875d8cEe5AE663b12Ce62149 */\n      0xf0f942d563a6bacf875d8cee5ae663b12ce62149\n        /* \"contract/dragon/dragon.sol\":2738:2832  IERC20 dragon_token = IERC20(... */\n      swap1\n      pop\n        /* \"contract/dragon/dragon.sol\":2847:2856  uint256 i */\n      0x00\n        /* \"contract/dragon/dragon.sol\":2859:2870  start_index */\n      dup5\n        /* \"contract/dragon/dragon.sol\":2847:2870  uint256 i = start_index */\n      swap1\n      pop\n        /* \"contract/dragon/dragon.sol\":2842:3325  for (uint256 i = start_index; i < contract_list.length && end_index>=i; i++) {... */\n    tag_39:\n        /* \"contract/dragon/dragon.sol\":2876:2889  contract_list */\n      dup3\n        /* \"contract/dragon/dragon.sol\":2876:2896  contract_list.length */\n      mload\n        /* \"contract/dragon/dragon.sol\":2872:2873  i */\n      dup2\n        /* \"contract/dragon/dragon.sol\":2872:2896  i < contract_list.length */\n      lt\n        /* \"contract/dragon/dragon.sol\":2872:2912  i < contract_list.length && end_index>=i */\n      dup1\n      iszero\n      tag_42\n      jumpi\n      pop\n        /* \"contract/dragon/dragon.sol\":2911:2912  i */\n      dup1\n        /* \"contract/dragon/dragon.sol\":2900:2909  end_index */\n      dup5\n        /* \"contract/dragon/dragon.sol\":2900:2912  end_index>=i */\n      lt\n      iszero\n        /* \"contract/dragon/dragon.sol\":2872:2912  i < contract_list.length && end_index>=i */\n    tag_42:\n        /* \"contract/dragon/dragon.sol\":2842:3325  for (uint256 i = start_index; i < contract_list.length && end_index>=i; i++) {... */\n      iszero\n      tag_40\n      jumpi\n        /* \"contract/dragon/dragon.sol\":2980:2981  0 */\n      0x00\n        /* \"contract/dragon/dragon.sol\":2937:2943  dragon */\n      0x03\n      0x00\n      swap1\n      sload\n      swap1\n      0x0100\n      exp\n      swap1\n      div\n      0xffffffffffffffffffffffffffffffffffffffff\n      and\n        /* \"contract/dragon/dragon.sol\":2937:2959  dragon.getTotalRewards */\n      0xffffffffffffffffffffffffffffffffffffffff\n      and\n      0x2bcf161c\n        /* \"contract/dragon/dragon.sol\":2960:2973  contract_list */\n      dup6\n        /* \"contract/dragon/dragon.sol\":2974:2975  i */\n      dup5\n        /* \"contract/dragon/dragon.sol\":2960:2976  contract_list[i] */\n      dup2\n      mload\n      dup2\n      lt\n      tag_43\n      jumpi\n      tag_44\n      tag_45\n      jump\t// in\n    tag_44:\n    tag_43:\n      0x20\n      mul\n      0x20\n      add\n      add\n      mload\n        /* \"contract/dragon/dragon.sol\":2937:2977  dragon.getTotalRewards(contract_list[i]) */\n      mload(0x40)\n      dup3\n      0xffffffff\n      and\n      0xe0\n      shl\n      dup2\n      mstore\n      0x04\n      add\n      tag_46\n      swap2\n      swap1\n      tag_47\n      jump\t// in\n    tag_46:\n      0x20\n      mload(0x40)\n      dup1\n      dup4\n      sub\n      dup2\n      dup7\n      gas\n      staticcall\n      iszero\n      dup1\n      iszero\n      tag_49\n      jumpi\n      returndatasize\n      0x00\n      dup1\n      returndatacopy\n      revert(0x00, returndatasize)\n    tag_49:\n      pop\n      pop\n      pop\n      pop\n      mload(0x40)\n      returndatasize\n      not(0x1f)\n      0x1f\n      dup3\n      add\n      and\n      dup3\n      add\n      dup1\n      0x40\n      mstore\n      pop\n      dup2\n      add\n      swap1\n      tag_50\n      swap2\n      swap1\n      tag_51\n      jump\t// in\n    tag_50:\n        /* \"contract/dragon/dragon.sol\":2937:2981  dragon.getTotalRewards(contract_list[i]) > 0 */\n      gt\n        /* \"contract/dragon/dragon.sol\":2933:3315  if (dragon.getTotalRewards(contract_list[i]) > 0) {... */\n      iszero\n      tag_52\n      jumpi\n        /* \"contract/dragon/dragon.sol\":3005:3018  contract_list */\n      dup3\n        /* \"contract/dragon/dragon.sol\":3019:3020  i */\n      dup2\n        /* \"contract/dragon/dragon.sol\":3005:3021  contract_list[i] */\n      dup2\n      mload\n      dup2\n      lt\n      tag_53\n      jumpi\n      tag_54\n      tag_45\n      jump\t// in\n    tag_54:\n    tag_53:\n      0x20\n      mul\n      0x20\n      add\n      add\n      mload\n        /* \"contract/dragon/dragon.sol\":3001:3031  bot(contract_list[i]).Withdraw */\n      0xffffffffffffffffffffffffffffffffffffffff\n      and\n      0x57ea89b6\n        /* \"contract/dragon/dragon.sol\":3001:3033  bot(contract_list[i]).Withdraw() */\n      mload(0x40)\n      dup2\n      0xffffffff\n      and\n      0xe0\n      shl\n      dup2\n      mstore\n      0x04\n      add\n      0x00\n      mload(0x40)\n      dup1\n      dup4\n      sub\n      dup2\n      0x00\n      dup8\n      dup1\n      extcodesize\n      iszero\n      dup1\n      iszero\n      tag_55\n      jumpi\n      0x00\n      dup1\n      revert\n    tag_55:\n      pop\n      gas\n      call\n      iszero\n      dup1\n      iszero\n      tag_57\n      jumpi\n      returndatasize\n      0x00\n      dup1\n      returndatacopy\n      revert(0x00, returndatasize)\n    tag_57:\n      pop\n      pop\n      pop\n      pop\n        /* \"contract/dragon/dragon.sol\":3051:3068  uint256 token_num */\n      0x00\n        /* \"contract/dragon/dragon.sol\":3098:3110  dragon_token */\n      dup3\n        /* \"contract/dragon/dragon.sol\":3098:3120  dragon_token.balanceOf */\n      0xffffffffffffffffffffffffffffffffffffffff\n      and\n      0x70a08231\n        /* \"contract/dragon/dragon.sol\":3121:3134  contract_list */\n      dup6\n        /* \"contract/dragon/dragon.sol\":3135:3136  i */\n      dup5\n        /* \"contract/dragon/dragon.sol\":3121:3137  contract_list[i] */\n      dup2\n      mload\n      dup2\n      lt\n      tag_58\n      jumpi\n      tag_59\n      tag_45\n      jump\t// in\n    tag_59:\n    tag_58:\n      0x20\n      mul\n      0x20\n      add\n      add\n      mload\n        /* \"contract/dragon/dragon.sol\":3098:3138  dragon_token.balanceOf(contract_list[i]) */\n      mload(0x40)\n      dup3\n      0xffffffff\n      and\n      0xe0\n      shl\n      dup2\n      mstore\n      0x04\n      add\n      tag_60\n      swap2\n      swap1\n      tag_47\n      jump\t// in\n    tag_60:\n      0x20\n      mload(0x40)\n      dup1\n      dup4\n      sub\n      dup2\n      dup7\n      gas\n      staticcall\n      iszero\n      dup1\n      iszero\n      tag_62\n      jumpi\n      returndatasize\n      0x00\n      dup1\n      returndatacopy\n      revert(0x00, returndatasize)\n    tag_62:\n      pop\n      pop\n      pop\n      pop\n      mload(0x40)\n      returndatasize\n      not(0x1f)\n      0x1f\n      dup3\n      add\n      and\n      dup3\n      add\n      dup1\n      0x40\n      mstore\n      pop\n      dup2\n      add\n      swap1\n      tag_63\n      swap2\n      swap1\n      tag_51\n      jump\t// in\n    tag_63:\n        /* \"contract/dragon/dragon.sol\":3086:3138  token_num = dragon_token.balanceOf(contract_list[i]) */\n      swap1\n      pop\n        /* \"contract/dragon/dragon.sol\":3156:3168  dragon_token */\n      dup3\n        /* \"contract/dragon/dragon.sol\":3156:3181  dragon_token.transferFrom */\n      0xffffffffffffffffffffffffffffffffffffffff\n      and\n      0x23b872dd\n        /* \"contract/dragon/dragon.sol\":3203:3216  contract_list */\n      dup6\n        /* \"contract/dragon/dragon.sol\":3217:3218  i */\n      dup5\n        /* \"contract/dragon/dragon.sol\":3203:3219  contract_list[i] */\n      dup2\n      mload\n      dup2\n      lt\n      tag_64\n      jumpi\n      tag_65\n      tag_45\n      jump\t// in\n    tag_65:\n    tag_64:\n      0x20\n      mul\n      0x20\n      add\n      add\n      mload\n        /* \"contract/dragon/dragon.sol\":3241:3251  msg.sender */\n      caller\n        /* \"contract/dragon/dragon.sol\":3273:3282  token_num */\n      dup5\n        /* \"contract/dragon/dragon.sol\":3156:3300  dragon_token.transferFrom(... */\n      mload(0x40)\n      dup5\n      0xffffffff\n      and\n      0xe0\n      shl\n      dup2\n      mstore\n      0x04\n      add\n      tag_66\n      swap4\n      swap3\n      swap2\n      swap1\n      tag_67\n      jump\t// in\n    tag_66:\n      0x20\n      mload(0x40)\n      dup1\n      dup4\n      sub\n      dup2\n      0x00\n      dup8\n      gas\n      call\n      iszero\n      dup1\n      iszero\n      tag_69\n      jumpi\n      returndatasize\n      0x00\n      dup1\n      returndatacopy\n      revert(0x00, returndatasize)\n    tag_69:\n      pop\n      pop\n      pop\n      pop\n      mload(0x40)\n      returndatasize\n      not(0x1f)\n      0x1f\n      dup3\n      add\n      and\n      dup3\n      add\n      dup1\n      0x40\n      mstore\n      pop\n      dup2\n      add\n      swap1\n      tag_70\n      swap2\n      swap1\n      tag_71\n      jump\t// in\n    tag_70:\n      pop\n        /* \"contract/dragon/dragon.sol\":2983:3315  {... */\n      pop\n        /* \"contract/dragon/dragon.sol\":2933:3315  if (dragon.getTotalRewards(contract_list[i]) > 0) {... */\n    tag_52:\n        /* \"contract/dragon/dragon.sol\":2914:2917  i++ */\n      dup1\n      dup1\n      tag_72\n      swap1\n      tag_73\n      jump\t// in\n    tag_72:\n      swap2\n      pop\n      pop\n        /* \"contract/dragon/dragon.sol\":2842:3325  for (uint256 i = start_index; i < contract_list.length && end_index>=i; i++) {... */\n      jump(tag_39)\n    tag_40:\n      pop\n        /* \"contract/dragon/dragon.sol\":2547:3331  {... */\n      pop\n      pop\n        /* \"contract/dragon/dragon.sol\":2478:3331  function BatchWithdarw(uint256 start_index,uint256 end_index) public {... */\n      pop\n      pop\n      jump\t// out\n        /* \"contract/dragon/dragon.sol\":3337:3779  function BatchBoost(uint256 start_index,uint256 end_index) public {... */\n    tag_15:\n        /* \"contract/dragon/dragon.sol\":3413:3443  address[] memory contract_list */\n      0x60\n        /* \"contract/dragon/dragon.sol\":3469:3480  own_address */\n      0x00\n        /* \"contract/dragon/dragon.sol\":3469:3492  own_address[msg.sender] */\n      dup1\n        /* \"contract/dragon/dragon.sol\":3481:3491  msg.sender */\n      caller\n        /* \"contract/dragon/dragon.sol\":3469:3492  own_address[msg.sender] */\n      0xffffffffffffffffffffffffffffffffffffffff\n      and\n      0xffffffffffffffffffffffffffffffffffffffff\n      and\n      dup2\n      mstore\n      0x20\n      add\n      swap1\n      dup2\n      mstore\n      0x20\n      add\n      0x00\n      keccak256\n        /* \"contract/dragon/dragon.sol\":3453:3492  contract_list = own_address[msg.sender] */\n      dup1\n      sload\n      dup1\n      0x20\n      mul\n      0x20\n      add\n      mload(0x40)\n      swap1\n      dup2\n      add\n      0x40\n      mstore\n      dup1\n      swap3\n      swap2\n      swap1\n      dup2\n      dup2\n      mstore\n      0x20\n      add\n      dup3\n      dup1\n      sload\n      dup1\n      iszero\n      tag_75\n      jumpi\n      0x20\n      mul\n      dup3\n      add\n      swap2\n      swap1\n      0x00\n      mstore\n      keccak256(0x00, 0x20)\n      swap1\n    tag_76:\n      dup2\n      0x00\n      swap1\n      sload\n      swap1\n      0x0100\n      exp\n      swap1\n      div\n      0xffffffffffffffffffffffffffffffffffffffff\n      and\n      0xffffffffffffffffffffffffffffffffffffffff\n      and\n      dup2\n      mstore\n      0x20\n      add\n      swap1\n      0x01\n      add\n      swap1\n      dup1\n      dup4\n      gt\n      tag_76\n      jumpi\n    tag_75:\n      pop\n      pop\n      pop\n      pop\n      pop\n      swap1\n      pop\n        /* \"contract/dragon/dragon.sol\":3518:3529  own_address */\n      0x00\n        /* \"contract/dragon/dragon.sol\":3518:3541  own_address[msg.sender] */\n      dup1\n        /* \"contract/dragon/dragon.sol\":3530:3540  msg.sender */\n      caller\n        /* \"contract/dragon/dragon.sol\":3518:3541  own_address[msg.sender] */\n      0xffffffffffffffffffffffffffffffffffffffff\n      and\n      0xffffffffffffffffffffffffffffffffffffffff\n      and\n      dup2\n      mstore\n      0x20\n      add\n      swap1\n      dup2\n      mstore\n      0x20\n      add\n      0x00\n      keccak256\n        /* \"contract/dragon/dragon.sol\":3502:3541  contract_list = own_address[msg.sender] */\n      dup1\n      sload\n      dup1\n      0x20\n      mul\n      0x20\n      add\n      mload(0x40)\n      swap1\n      dup2\n      add\n      0x40\n      mstore\n      dup1\n      swap3\n      swap2\n      swap1\n      dup2\n      dup2\n      mstore\n      0x20\n      add\n      dup3\n      dup1\n      sload\n      dup1\n      iszero\n      tag_77\n      jumpi\n      0x20\n      mul\n      dup3\n      add\n      swap2\n      swap1\n      0x00\n      mstore\n      keccak256(0x00, 0x20)\n      swap1\n    tag_78:\n      dup2\n      0x00\n      swap1\n      sload\n      swap1\n      0x0100\n      exp\n      swap1\n      div\n      0xffffffffffffffffffffffffffffffffffffffff\n      and\n      0xffffffffffffffffffffffffffffffffffffffff\n      and\n      dup2\n      mstore\n      0x20\n      add\n      swap1\n      0x01\n      add\n      swap1\n      dup1\n      dup4\n      gt\n      tag_78\n      jumpi\n    tag_77:\n      pop\n      pop\n      pop\n      pop\n      pop\n      swap1\n      pop\n        /* \"contract/dragon/dragon.sol\":3582:3593  start_index */\n      dup3\n        /* \"contract/dragon/dragon.sol\":3559:3572  contract_list */\n      dup2\n        /* \"contract/dragon/dragon.sol\":3559:3579  contract_list.length */\n      mload\n        /* \"contract/dragon/dragon.sol\":3559:3593  contract_list.length > start_index */\n      gt\n        /* \"contract/dragon/dragon.sol\":3559:3628  contract_list.length > start_index && contract_list.length>=end_index */\n      dup1\n      iszero\n      tag_79\n      jumpi\n      pop\n        /* \"contract/dragon/dragon.sol\":3619:3628  end_index */\n      dup2\n        /* \"contract/dragon/dragon.sol\":3597:3610  contract_list */\n      dup2\n        /* \"contract/dragon/dragon.sol\":3597:3617  contract_list.length */\n      mload\n        /* \"contract/dragon/dragon.sol\":3597:3628  contract_list.length>=end_index */\n      lt\n      iszero\n        /* \"contract/dragon/dragon.sol\":3559:3628  contract_list.length > start_index && contract_list.length>=end_index */\n    tag_79:\n        /* \"contract/dragon/dragon.sol\":3551:3633  require(contract_list.length > start_index && contract_list.length>=end_index,\"f\") */\n      tag_80\n      jumpi\n      mload(0x40)\n      0x08c379a000000000000000000000000000000000000000000000000000000000\n      dup2\n      mstore\n      0x04\n      add\n      tag_81\n      swap1\n      tag_38\n      jump\t// in\n    tag_81:\n      mload(0x40)\n      dup1\n      swap2\n      sub\n      swap1\n      revert\n    tag_80:\n        /* \"contract/dragon/dragon.sol\":3648:3657  uint256 i */\n      0x00\n        /* \"contract/dragon/dragon.sol\":3660:3671  start_index */\n      dup4\n        /* \"contract/dragon/dragon.sol\":3648:3671  uint256 i = start_index */\n      swap1\n      pop\n        /* \"contract/dragon/dragon.sol\":3643:3773  for (uint256 i = start_index; i < contract_list.length && end_index>i; i++) {... */\n    tag_82:\n        /* \"contract/dragon/dragon.sol\":3677:3690  contract_list */\n      dup2\n        /* \"contract/dragon/dragon.sol\":3677:3697  contract_list.length */\n      mload\n        /* \"contract/dragon/dragon.sol\":3673:3674  i */\n      dup2\n        /* \"contract/dragon/dragon.sol\":3673:3697  i < contract_list.length */\n      lt\n        /* \"contract/dragon/dragon.sol\":3673:3712  i < contract_list.length && end_index>i */\n      dup1\n      iszero\n      tag_85\n      jumpi\n      pop\n        /* \"contract/dragon/dragon.sol\":3711:3712  i */\n      dup1\n        /* \"contract/dragon/dragon.sol\":3701:3710  end_index */\n      dup4\n        /* \"contract/dragon/dragon.sol\":3701:3712  end_index>i */\n      gt\n        /* \"contract/dragon/dragon.sol\":3673:3712  i < contract_list.length && end_index>i */\n    tag_85:\n        /* \"contract/dragon/dragon.sol\":3643:3773  for (uint256 i = start_index; i < contract_list.length && end_index>i; i++) {... */\n      iszero\n      tag_83\n      jumpi\n        /* \"contract/dragon/dragon.sol\":3737:3750  contract_list */\n      dup2\n        /* \"contract/dragon/dragon.sol\":3751:3752  i */\n      dup2\n        /* \"contract/dragon/dragon.sol\":3737:3753  contract_list[i] */\n      dup2\n      mload\n      dup2\n      lt\n      tag_86\n      jumpi\n      tag_87\n      tag_45\n      jump\t// in\n    tag_87:\n    tag_86:\n      0x20\n      mul\n      0x20\n      add\n      add\n      mload\n        /* \"contract/dragon/dragon.sol\":3733:3760  bot(contract_list[i]).boost */\n      0xffffffffffffffffffffffffffffffffffffffff\n      and\n      0xa66f42c0\n        /* \"contract/dragon/dragon.sol\":3733:3762  bot(contract_list[i]).boost() */\n      mload(0x40)\n      dup2\n      0xffffffff\n      and\n      0xe0\n      shl\n      dup2\n      mstore\n      0x04\n      add\n      0x00\n      mload(0x40)\n      dup1\n      dup4\n      sub\n      dup2\n      0x00\n      dup8\n      dup1\n      extcodesize\n      iszero\n      dup1\n      iszero\n      tag_88\n      jumpi\n      0x00\n      dup1\n      revert\n    tag_88:\n      pop\n      gas\n      call\n      iszero\n      dup1\n      iszero\n      tag_90\n      jumpi\n      returndatasize\n      0x00\n      dup1\n      returndatacopy\n      revert(0x00, returndatasize)\n    tag_90:\n      pop\n      pop\n      pop\n      pop\n        /* \"contract/dragon/dragon.sol\":3714:3717  i++ */\n      dup1\n      dup1\n      tag_91\n      swap1\n      tag_73\n      jump\t// in\n    tag_91:\n      swap2\n      pop\n      pop\n        /* \"contract/dragon/dragon.sol\":3643:3773  for (uint256 i = start_index; i < contract_list.length && end_index>i; i++) {... */\n      jump(tag_82)\n    tag_83:\n      pop\n        /* \"contract/dragon/dragon.sol\":3403:3779  {... */\n      pop\n        /* \"contract/dragon/dragon.sol\":3337:3779  function BatchBoost(uint256 start_index,uint256 end_index) public {... */\n      pop\n      pop\n      jump\t// out\n        /* \"contract/dragon/dragon.sol\":2115:2472  function BatchMint(uint256 invite_code, uint256 times) external {... */\n    tag_18:\n        /* \"contract/dragon/dragon.sol\":2194:2203  uint256 i */\n      0x00\n        /* \"contract/dragon/dragon.sol\":2189:2466  for (uint256 i = 0; i < times; i++) {... */\n    tag_93:\n        /* \"contract/dragon/dragon.sol\":2213:2218  times */\n      dup2\n        /* \"contract/dragon/dragon.sol\":2209:2210  i */\n      dup2\n        /* \"contract/dragon/dragon.sol\":2209:2218  i < times */\n      lt\n        /* \"contract/dragon/dragon.sol\":2189:2466  for (uint256 i = 0; i < times; i++) {... */\n      iszero\n      tag_94\n      jumpi\n        /* \"contract/dragon/dragon.sol\":2247:2248  0 */\n      0x00\n        /* \"contract/dragon/dragon.sol\":2243:2244  i */\n      dup2\n        /* \"contract/dragon/dragon.sol\":2243:2248  i > 0 */\n      gt\n        /* \"contract/dragon/dragon.sol\":2243:2270  i > 0 && i % tax_times == 0 */\n      dup1\n      iszero\n      tag_96\n      jumpi\n      pop\n        /* \"contract/dragon/dragon.sol\":2269:2270  0 */\n      0x00\n        /* \"contract/dragon/dragon.sol\":2256:2265  tax_times */\n      sload(0x01)\n        /* \"contract/dragon/dragon.sol\":2252:2253  i */\n      dup3\n        /* \"contract/dragon/dragon.sol\":2252:2265  i % tax_times */\n      tag_97\n      swap2\n      swap1\n      tag_98\n      jump\t// in\n    tag_97:\n        /* \"contract/dragon/dragon.sol\":2252:2270  i % tax_times == 0 */\n      eq\n        /* \"contract/dragon/dragon.sol\":2243:2270  i > 0 && i % tax_times == 0 */\n    tag_96:\n        /* \"contract/dragon/dragon.sol\":2239:2456  if (i > 0 && i % tax_times == 0) {... */\n      iszero\n      tag_99\n      jumpi\n        /* \"contract/dragon/dragon.sol\":2290:2301  own_address */\n      0x00\n        /* \"contract/dragon/dragon.sol\":2290:2313  own_address[msg.sender] */\n      dup1\n        /* \"contract/dragon/dragon.sol\":2302:2312  msg.sender */\n      caller\n        /* \"contract/dragon/dragon.sol\":2290:2313  own_address[msg.sender] */\n      0xffffffffffffffffffffffffffffffffffffffff\n      and\n      0xffffffffffffffffffffffffffffffffffffffff\n      and\n      dup2\n      mstore\n      0x20\n      add\n      swap1\n      dup2\n      mstore\n      0x20\n      add\n      0x00\n      keccak256\n        /* \"contract/dragon/dragon.sol\":2335:2346  invite_code */\n      dup4\n        /* \"contract/dragon/dragon.sol\":2327:2347  new bot(invite_code) */\n      mload(0x40)\n      tag_100\n      swap1\n      tag_101\n      jump\t// in\n    tag_100:\n      tag_102\n      swap2\n      swap1\n      tag_31\n      jump\t// in\n    tag_102:\n      mload(0x40)\n      dup1\n      swap2\n      sub\n      swap1\n      0x00\n      create\n      dup1\n      iszero\n      dup1\n      iszero\n      tag_103\n      jumpi\n      returndatasize\n      0x00\n      dup1\n      returndatacopy\n      revert(0x00, returndatasize)\n    tag_103:\n      pop\n        /* \"contract/dragon/dragon.sol\":2290:2349  own_address[msg.sender].push(address(new bot(invite_code))) */\n      swap1\n      dup1\n      0x01\n      dup2\n      sload\n      add\n      dup1\n      dup3\n      sstore\n      dup1\n      swap2\n      pop\n      pop\n      0x01\n      swap1\n      sub\n      swap1\n      0x00\n      mstore\n      keccak256(0x00, 0x20)\n      add\n      0x00\n      swap1\n      swap2\n      swap1\n      swap2\n      swap1\n      swap2\n      0x0100\n      exp\n      dup2\n      sload\n      dup2\n      0xffffffffffffffffffffffffffffffffffffffff\n      mul\n      not\n      and\n      swap1\n      dup4\n      0xffffffffffffffffffffffffffffffffffffffff\n      and\n      mul\n      or\n      swap1\n      sstore\n      pop\n        /* \"contract/dragon/dragon.sol\":2239:2456  if (i > 0 && i % tax_times == 0) {... */\n      jump(tag_105)\n    tag_99:\n        /* \"contract/dragon/dragon.sol\":2388:2399  own_address */\n      0x00\n        /* \"contract/dragon/dragon.sol\":2388:2406  own_address[owner] */\n      dup1\n        /* \"contract/dragon/dragon.sol\":2400:2405  owner */\n      immutable(\"0x631897788617bc63fb0292c44f57a6c3824e4264bc88fb4e3c08b910f3f417fc\")\n        /* \"contract/dragon/dragon.sol\":2388:2406  own_address[owner] */\n      0xffffffffffffffffffffffffffffffffffffffff\n      and\n      0xffffffffffffffffffffffffffffffffffffffff\n      and\n      dup2\n      mstore\n      0x20\n      add\n      swap1\n      dup2\n      mstore\n      0x20\n      add\n      0x00\n      keccak256\n        /* \"contract/dragon/dragon.sol\":2428:2438  owner_code */\n      sload(0x02)\n        /* \"contract/dragon/dragon.sol\":2420:2439  new bot(owner_code) */\n      mload(0x40)\n      tag_106\n      swap1\n      tag_101\n      jump\t// in\n    tag_106:\n      tag_107\n      swap2\n      swap1\n      tag_31\n      jump\t// in\n    tag_107:\n      mload(0x40)\n      dup1\n      swap2\n      sub\n      swap1\n      0x00\n      create\n      dup1\n      iszero\n      dup1\n      iszero\n      tag_108\n      jumpi\n      returndatasize\n      0x00\n      dup1\n      returndatacopy\n      revert(0x00, returndatasize)\n    tag_108:\n      pop\n        /* \"contract/dragon/dragon.sol\":2388:2441  own_address[owner].push(address(new bot(owner_code))) */\n      swap1\n      dup1\n      0x01\n      dup2\n      sload\n      add\n      dup1\n      dup3\n      sstore\n      dup1\n      swap2\n      pop\n      pop\n      0x01\n      swap1\n      sub\n      swap1\n      0x00\n      mstore\n      keccak256(0x00, 0x20)\n      add\n      0x00\n      swap1\n      swap2\n      swap1\n      swap2\n      swap1\n      swap2\n      0x0100\n      exp\n      dup2\n      sload\n      dup2\n      0xffffffffffffffffffffffffffffffffffffffff\n      mul\n      not\n      and\n      swap1\n      dup4\n      0xffffffffffffffffffffffffffffffffffffffff\n      and\n      mul\n      or\n      swap1\n      sstore\n      pop\n        /* \"contract/dragon/dragon.sol\":2239:2456  if (i > 0 && i % tax_times == 0) {... */\n    tag_105:\n        /* \"contract/dragon/dragon.sol\":2220:2223  i++ */\n      dup1\n      dup1\n      tag_110\n      swap1\n      tag_73\n      jump\t// in\n    tag_110:\n      swap2\n      pop\n      pop\n        /* \"contract/dragon/dragon.sol\":2189:2466  for (uint256 i = 0; i < times; i++) {... */\n      jump(tag_93)\n    tag_94:\n      pop\n        /* \"contract/dragon/dragon.sol\":2115:2472  function BatchMint(uint256 invite_code, uint256 times) external {... */\n      pop\n      pop\n      jump\t// out\n        /* \"contract/dragon/dragon.sol\":3914:3998  function change_code(uint256 code) public isOwner {... */\n    tag_22:\n        /* \"contract/dragon/dragon.sol\":2062:2067  owner */\n      immutable(\"0x631897788617bc63fb0292c44f57a6c3824e4264bc88fb4e3c08b910f3f417fc\")\n        /* \"contract/dragon/dragon.sol\":2048:2067  msg.sender == owner */\n      0xffffffffffffffffffffffffffffffffffffffff\n      and\n        /* \"contract/dragon/dragon.sol\":2048:2058  msg.sender */\n      caller\n        /* \"contract/dragon/dragon.sol\":2048:2067  msg.sender == owner */\n      0xffffffffffffffffffffffffffffffffffffffff\n      and\n      eq\n        /* \"contract/dragon/dragon.sol\":2040:2091  require(msg.sender == owner, \"Caller is not owner\") */\n      tag_112\n      jumpi\n      mload(0x40)\n      0x08c379a000000000000000000000000000000000000000000000000000000000\n      dup2\n      mstore\n      0x04\n      add\n      tag_113\n      swap1\n      tag_114\n      jump\t// in\n    tag_113:\n      mload(0x40)\n      dup1\n      swap2\n      sub\n      swap1\n      revert\n    tag_112:\n        /* \"contract/dragon/dragon.sol\":3987:3991  code */\n      dup1\n        /* \"contract/dragon/dragon.sol\":3974:3984  owner_code */\n      0x02\n        /* \"contract/dragon/dragon.sol\":3974:3991  owner_code = code */\n      dup2\n      swap1\n      sstore\n      pop\n        /* \"contract/dragon/dragon.sol\":3914:3998  function change_code(uint256 code) public isOwner {... */\n      pop\n      jump\t// out\n        /* \"contract/dragon/dragon.sol\":4004:4090  function change_times(uint256 times) public isOwner {... */\n    tag_25:\n        /* \"contract/dragon/dragon.sol\":2062:2067  owner */\n      immutable(\"0x631897788617bc63fb0292c44f57a6c3824e4264bc88fb4e3c08b910f3f417fc\")\n        /* \"contract/dragon/dragon.sol\":2048:2067  msg.sender == owner */\n      0xffffffffffffffffffffffffffffffffffffffff\n      and\n        /* \"contract/dragon/dragon.sol\":2048:2058  msg.sender */\n      caller\n        /* \"contract/dragon/dragon.sol\":2048:2067  msg.sender == owner */\n      0xffffffffffffffffffffffffffffffffffffffff\n      and\n      eq\n        /* \"contract/dragon/dragon.sol\":2040:2091  require(msg.sender == owner, \"Caller is not owner\") */\n      tag_117\n      jumpi\n      mload(0x40)\n      0x08c379a000000000000000000000000000000000000000000000000000000000\n      dup2\n      mstore\n      0x04\n      add\n      tag_118\n      swap1\n      tag_114\n      jump\t// in\n    tag_118:\n      mload(0x40)\n      dup1\n      swap2\n      sub\n      swap1\n      revert\n    tag_117:\n        /* \"contract/dragon/dragon.sol\":4078:4083  times */\n      dup1\n        /* \"contract/dragon/dragon.sol\":4066:4075  tax_times */\n      0x01\n        /* \"contract/dragon/dragon.sol\":4066:4083  tax_times = times */\n      dup2\n      swap1\n      sstore\n      pop\n        /* \"contract/dragon/dragon.sol\":4004:4090  function change_times(uint256 times) public isOwner {... */\n      pop\n      jump\t// out\n        /* \"contract/dragon/dragon.sol\":3785:3908  function own_address_num(address _owner) view public returns (uint256 res){... */\n    tag_29:\n        /* \"contract/dragon/dragon.sol\":3847:3858  uint256 res */\n      0x00\n        /* \"contract/dragon/dragon.sol\":3875:3886  own_address */\n      dup1\n        /* \"contract/dragon/dragon.sol\":3875:3894  own_address[_owner] */\n      0x00\n        /* \"contract/dragon/dragon.sol\":3887:3893  _owner */\n      dup4\n        /* \"contract/dragon/dragon.sol\":3875:3894  own_address[_owner] */\n      0xffffffffffffffffffffffffffffffffffffffff\n      and\n      0xffffffffffffffffffffffffffffffffffffffff\n      and\n      dup2\n      mstore\n      0x20\n      add\n      swap1\n      dup2\n      mstore\n      0x20\n      add\n      0x00\n      keccak256\n        /* \"contract/dragon/dragon.sol\":3875:3901  own_address[_owner].length */\n      dup1\n      sload\n      swap1\n      pop\n        /* \"contract/dragon/dragon.sol\":3869:3901  res = own_address[_owner].length */\n      swap1\n      pop\n        /* \"contract/dragon/dragon.sol\":3785:3908  function own_address_num(address _owner) view public returns (uint256 res){... */\n      swap2\n      swap1\n      pop\n      jump\t// out\n    tag_101:\n      dataSize(sub_0)\n      dup1\n      dataOffset(sub_0)\n      dup4\n      codecopy\n      add\n      swap1\n      jump\t// out\n        /* \"#utility.yul\":88:205   */\n    tag_122:\n        /* \"#utility.yul\":197:198   */\n      0x00\n        /* \"#utility.yul\":194:195   */\n      dup1\n        /* \"#utility.yul\":187:199   */\n      revert\n        /* \"#utility.yul\":334:411   */\n    tag_124:\n        /* \"#utility.yul\":371:378   */\n      0x00\n        /* \"#utility.yul\":400:405   */\n      dup2\n        /* \"#utility.yul\":389:405   */\n      swap1\n      pop\n        /* \"#utility.yul\":334:411   */\n      swap2\n      swap1\n      pop\n      jump\t// out\n        /* \"#utility.yul\":417:539   */\n    tag_125:\n        /* \"#utility.yul\":490:514   */\n      tag_150\n        /* \"#utility.yul\":508:513   */\n      dup2\n        /* \"#utility.yul\":490:514   */\n      tag_124\n      jump\t// in\n    tag_150:\n        /* \"#utility.yul\":483:488   */\n      dup2\n        /* \"#utility.yul\":480:515   */\n      eq\n        /* \"#utility.yul\":470:533   */\n      tag_151\n      jumpi\n        /* \"#utility.yul\":529:530   */\n      0x00\n        /* \"#utility.yul\":526:527   */\n      dup1\n        /* \"#utility.yul\":519:531   */\n      revert\n        /* \"#utility.yul\":470:533   */\n    tag_151:\n        /* \"#utility.yul\":417:539   */\n      pop\n      jump\t// out\n        /* \"#utility.yul\":545:684   */\n    tag_126:\n        /* \"#utility.yul\":591:596   */\n      0x00\n        /* \"#utility.yul\":629:635   */\n      dup2\n        /* \"#utility.yul\":616:636   */\n      calldataload\n        /* \"#utility.yul\":607:636   */\n      swap1\n      pop\n        /* \"#utility.yul\":645:678   */\n      tag_153\n        /* \"#utility.yul\":672:677   */\n      dup2\n        /* \"#utility.yul\":645:678   */\n      tag_125\n      jump\t// in\n    tag_153:\n        /* \"#utility.yul\":545:684   */\n      swap3\n      swap2\n      pop\n      pop\n      jump\t// out\n        /* \"#utility.yul\":690:1164   */\n    tag_11:\n        /* \"#utility.yul\":758:764   */\n      0x00\n        /* \"#utility.yul\":766:772   */\n      dup1\n        /* \"#utility.yul\":815:817   */\n      0x40\n        /* \"#utility.yul\":803:812   */\n      dup4\n        /* \"#utility.yul\":794:801   */\n      dup6\n        /* \"#utility.yul\":790:813   */\n      sub\n        /* \"#utility.yul\":786:818   */\n      slt\n        /* \"#utility.yul\":783:902   */\n      iszero\n      tag_155\n      jumpi\n        /* \"#utility.yul\":821:900   */\n      tag_156\n      tag_122\n      jump\t// in\n    tag_156:\n        /* \"#utility.yul\":783:902   */\n    tag_155:\n        /* \"#utility.yul\":941:942   */\n      0x00\n        /* \"#utility.yul\":966:1019   */\n      tag_157\n        /* \"#utility.yul\":1011:1018   */\n      dup6\n        /* \"#utility.yul\":1002:1008   */\n      dup3\n        /* \"#utility.yul\":991:1000   */\n      dup7\n        /* \"#utility.yul\":987:1009   */\n      add\n        /* \"#utility.yul\":966:1019   */\n      tag_126\n      jump\t// in\n    tag_157:\n        /* \"#utility.yul\":956:1019   */\n      swap3\n      pop\n        /* \"#utility.yul\":912:1029   */\n      pop\n        /* \"#utility.yul\":1068:1070   */\n      0x20\n        /* \"#utility.yul\":1094:1147   */\n      tag_158\n        /* \"#utility.yul\":1139:1146   */\n      dup6\n        /* \"#utility.yul\":1130:1136   */\n      dup3\n        /* \"#utility.yul\":1119:1128   */\n      dup7\n        /* \"#utility.yul\":1115:1137   */\n      add\n        /* \"#utility.yul\":1094:1147   */\n      tag_126\n      jump\t// in\n    tag_158:\n        /* \"#utility.yul\":1084:1147   */\n      swap2\n      pop\n        /* \"#utility.yul\":1039:1157   */\n      pop\n        /* \"#utility.yul\":690:1164   */\n      swap3\n      pop\n      swap3\n      swap1\n      pop\n      jump\t// out\n        /* \"#utility.yul\":1170:1499   */\n    tag_21:\n        /* \"#utility.yul\":1229:1235   */\n      0x00\n        /* \"#utility.yul\":1278:1280   */\n      0x20\n        /* \"#utility.yul\":1266:1275   */\n      dup3\n        /* \"#utility.yul\":1257:1264   */\n      dup5\n        /* \"#utility.yul\":1253:1276   */\n      sub\n        /* \"#utility.yul\":1249:1281   */\n      slt\n        /* \"#utility.yul\":1246:1365   */\n      iszero\n      tag_160\n      jumpi\n        /* \"#utility.yul\":1284:1363   */\n      tag_161\n      tag_122\n      jump\t// in\n    tag_161:\n        /* \"#utility.yul\":1246:1365   */\n    tag_160:\n        /* \"#utility.yul\":1404:1405   */\n      0x00\n        /* \"#utility.yul\":1429:1482   */\n      tag_162\n        /* \"#utility.yul\":1474:1481   */\n      dup5\n        /* \"#utility.yul\":1465:1471   */\n      dup3\n        /* \"#utility.yul\":1454:1463   */\n      dup6\n        /* \"#utility.yul\":1450:1472   */\n      add\n        /* \"#utility.yul\":1429:1482   */\n      tag_126\n      jump\t// in\n    tag_162:\n        /* \"#utility.yul\":1419:1482   */\n      swap2\n      pop\n        /* \"#utility.yul\":1375:1492   */\n      pop\n        /* \"#utility.yul\":1170:1499   */\n      swap3\n      swap2\n      pop\n      pop\n      jump\t// out\n        /* \"#utility.yul\":1505:1631   */\n    tag_127:\n        /* \"#utility.yul\":1542:1549   */\n      0x00\n        /* \"#utility.yul\":1582:1624   */\n      0xffffffffffffffffffffffffffffffffffffffff\n        /* \"#utility.yul\":1575:1580   */\n      dup3\n        /* \"#utility.yul\":1571:1625   */\n      and\n        /* \"#utility.yul\":1560:1625   */\n      swap1\n      pop\n        /* \"#utility.yul\":1505:1631   */\n      swap2\n      swap1\n      pop\n      jump\t// out\n        /* \"#utility.yul\":1637:1733   */\n    tag_128:\n        /* \"#utility.yul\":1674:1681   */\n      0x00\n        /* \"#utility.yul\":1703:1727   */\n      tag_165\n        /* \"#utility.yul\":1721:1726   */\n      dup3\n        /* \"#utility.yul\":1703:1727   */\n      tag_127\n      jump\t// in\n    tag_165:\n        /* \"#utility.yul\":1692:1727   */\n      swap1\n      pop\n        /* \"#utility.yul\":1637:1733   */\n      swap2\n      swap1\n      pop\n      jump\t// out\n        /* \"#utility.yul\":1739:1861   */\n    tag_129:\n        /* \"#utility.yul\":1812:1836   */\n      tag_167\n        /* \"#utility.yul\":1830:1835   */\n      dup2\n        /* \"#utility.yul\":1812:1836   */\n      tag_128\n      jump\t// in\n    tag_167:\n        /* \"#utility.yul\":1805:1810   */\n      dup2\n        /* \"#utility.yul\":1802:1837   */\n      eq\n        /* \"#utility.yul\":1792:1855   */\n      tag_168\n      jumpi\n        /* \"#utility.yul\":1851:1852   */\n      0x00\n        /* \"#utility.yul\":1848:1849   */\n      dup1\n        /* \"#utility.yul\":1841:1853   */\n      revert\n        /* \"#utility.yul\":1792:1855   */\n    tag_168:\n        /* \"#utility.yul\":1739:1861   */\n      pop\n      jump\t// out\n        /* \"#utility.yul\":1867:2006   */\n    tag_130:\n        /* \"#utility.yul\":1913:1918   */\n      0x00\n        /* \"#utility.yul\":1951:1957   */\n      dup2\n        /* \"#utility.yul\":1938:1958   */\n      calldataload\n        /* \"#utility.yul\":1929:1958   */\n      swap1\n      pop\n        /* \"#utility.yul\":1967:2000   */\n      tag_170\n        /* \"#utility.yul\":1994:1999   */\n      dup2\n        /* \"#utility.yul\":1967:2000   */\n      tag_129\n      jump\t// in\n    tag_170:\n        /* \"#utility.yul\":1867:2006   */\n      swap3\n      swap2\n      pop\n      pop\n      jump\t// out\n        /* \"#utility.yul\":2012:2341   */\n    tag_28:\n        /* \"#utility.yul\":2071:2077   */\n      0x00\n        /* \"#utility.yul\":2120:2122   */\n      0x20\n        /* \"#utility.yul\":2108:2117   */\n      dup3\n        /* \"#utility.yul\":2099:2106   */\n      dup5\n        /* \"#utility.yul\":2095:2118   */\n      sub\n        /* \"#utility.yul\":2091:2123   */\n      slt\n        /* \"#utility.yul\":2088:2207   */\n      iszero\n      tag_172\n      jumpi\n        /* \"#utility.yul\":2126:2205   */\n      tag_173\n      tag_122\n      jump\t// in\n    tag_173:\n        /* \"#utility.yul\":2088:2207   */\n    tag_172:\n        /* \"#utility.yul\":2246:2247   */\n      0x00\n        /* \"#utility.yul\":2271:2324   */\n      tag_174\n        /* \"#utility.yul\":2316:2323   */\n      dup5\n        /* \"#utility.yul\":2307:2313   */\n      dup3\n        /* \"#utility.yul\":2296:2305   */\n      dup6\n        /* \"#utility.yul\":2292:2314   */\n      add\n        /* \"#utility.yul\":2271:2324   */\n      tag_130\n      jump\t// in\n    tag_174:\n        /* \"#utility.yul\":2261:2324   */\n      swap2\n      pop\n        /* \"#utility.yul\":2217:2334   */\n      pop\n        /* \"#utility.yul\":2012:2341   */\n      swap3\n      swap2\n      pop\n      pop\n      jump\t// out\n        /* \"#utility.yul\":2347:2465   */\n    tag_131:\n        /* \"#utility.yul\":2434:2458   */\n      tag_176\n        /* \"#utility.yul\":2452:2457   */\n      dup2\n        /* \"#utility.yul\":2434:2458   */\n      tag_124\n      jump\t// in\n    tag_176:\n        /* \"#utility.yul\":2429:2432   */\n      dup3\n        /* \"#utility.yul\":2422:2459   */\n      mstore\n        /* \"#utility.yul\":2347:2465   */\n      pop\n      pop\n      jump\t// out\n        /* \"#utility.yul\":2471:2693   */\n    tag_31:\n        /* \"#utility.yul\":2564:2568   */\n      0x00\n        /* \"#utility.yul\":2602:2604   */\n      0x20\n        /* \"#utility.yul\":2591:2600   */\n      dup3\n        /* \"#utility.yul\":2587:2605   */\n      add\n        /* \"#utility.yul\":2579:2605   */\n      swap1\n      pop\n        /* \"#utility.yul\":2615:2686   */\n      tag_178\n        /* \"#utility.yul\":2683:2684   */\n      0x00\n        /* \"#utility.yul\":2672:2681   */\n      dup4\n        /* \"#utility.yul\":2668:2685   */\n      add\n        /* \"#utility.yul\":2659:2665   */\n      dup5\n        /* \"#utility.yul\":2615:2686   */\n      tag_131\n      jump\t// in\n    tag_178:\n        /* \"#utility.yul\":2471:2693   */\n      swap3\n      swap2\n      pop\n      pop\n      jump\t// out\n        /* \"#utility.yul\":2699:2868   */\n    tag_132:\n        /* \"#utility.yul\":2783:2794   */\n      0x00\n        /* \"#utility.yul\":2817:2823   */\n      dup3\n        /* \"#utility.yul\":2812:2815   */\n      dup3\n        /* \"#utility.yul\":2805:2824   */\n      mstore\n        /* \"#utility.yul\":2857:2861   */\n      0x20\n        /* \"#utility.yul\":2852:2855   */\n      dup3\n        /* \"#utility.yul\":2848:2862   */\n      add\n        /* \"#utility.yul\":2833:2862   */\n      swap1\n      pop\n        /* \"#utility.yul\":2699:2868   */\n      swap3\n      swap2\n      pop\n      pop\n      jump\t// out\n        /* \"#utility.yul\":2874:3025   */\n    tag_133:\n        /* \"#utility.yul\":3014:3017   */\n      0x6600000000000000000000000000000000000000000000000000000000000000\n        /* \"#utility.yul\":3010:3011   */\n      0x00\n        /* \"#utility.yul\":3002:3008   */\n      dup3\n        /* \"#utility.yul\":2998:3012   */\n      add\n        /* \"#utility.yul\":2991:3018   */\n      mstore\n        /* \"#utility.yul\":2874:3025   */\n      pop\n      jump\t// out\n        /* \"#utility.yul\":3031:3396   */\n    tag_134:\n        /* \"#utility.yul\":3173:3176   */\n      0x00\n        /* \"#utility.yul\":3194:3260   */\n      tag_182\n        /* \"#utility.yul\":3258:3259   */\n      0x01\n        /* \"#utility.yul\":3253:3256   */\n      dup4\n        /* \"#utility.yul\":3194:3260   */\n      tag_132\n      jump\t// in\n    tag_182:\n        /* \"#utility.yul\":3187:3260   */\n      swap2\n      pop\n        /* \"#utility.yul\":3269:3362   */\n      tag_183\n        /* \"#utility.yul\":3358:3361   */\n      dup3\n        /* \"#utility.yul\":3269:3362   */\n      tag_133\n      jump\t// in\n    tag_183:\n        /* \"#utility.yul\":3387:3389   */\n      0x20\n        /* \"#utility.yul\":3382:3385   */\n      dup3\n        /* \"#utility.yul\":3378:3390   */\n      add\n        /* \"#utility.yul\":3371:3390   */\n      swap1\n      pop\n        /* \"#utility.yul\":3031:3396   */\n      swap2\n      swap1\n      pop\n      jump\t// out\n        /* \"#utility.yul\":3402:3821   */\n    tag_38:\n        /* \"#utility.yul\":3568:3572   */\n      0x00\n        /* \"#utility.yul\":3606:3608   */\n      0x20\n        /* \"#utility.yul\":3595:3604   */\n      dup3\n        /* \"#utility.yul\":3591:3609   */\n      add\n        /* \"#utility.yul\":3583:3609   */\n      swap1\n      pop\n        /* \"#utility.yul\":3655:3664   */\n      dup2\n        /* \"#utility.yul\":3649:3653   */\n      dup2\n        /* \"#utility.yul\":3645:3665   */\n      sub\n        /* \"#utility.yul\":3641:3642   */\n      0x00\n        /* \"#utility.yul\":3630:3639   */\n      dup4\n        /* \"#utility.yul\":3626:3643   */\n      add\n        /* \"#utility.yul\":3619:3666   */\n      mstore\n        /* \"#utility.yul\":3683:3814   */\n      tag_185\n        /* \"#utility.yul\":3809:3813   */\n      dup2\n        /* \"#utility.yul\":3683:3814   */\n      tag_134\n      jump\t// in\n    tag_185:\n        /* \"#utility.yul\":3675:3814   */\n      swap1\n      pop\n        /* \"#utility.yul\":3402:3821   */\n      swap2\n      swap1\n      pop\n      jump\t// out\n        /* \"#utility.yul\":3827:4007   */\n    tag_45:\n        /* \"#utility.yul\":3875:3952   */\n      0x4e487b7100000000000000000000000000000000000000000000000000000000\n        /* \"#utility.yul\":3872:3873   */\n      0x00\n        /* \"#utility.yul\":3865:3953   */\n      mstore\n        /* \"#utility.yul\":3972:3976   */\n      0x32\n        /* \"#utility.yul\":3969:3970   */\n      0x04\n        /* \"#utility.yul\":3962:3977   */\n      mstore\n        /* \"#utility.yul\":3996:4000   */\n      0x24\n        /* \"#utility.yul\":3993:3994   */\n      0x00\n        /* \"#utility.yul\":3986:4001   */\n      revert\n        /* \"#utility.yul\":4013:4131   */\n    tag_135:\n        /* \"#utility.yul\":4100:4124   */\n      tag_188\n        /* \"#utility.yul\":4118:4123   */\n      dup2\n        /* \"#utility.yul\":4100:4124   */\n      tag_128\n      jump\t// in\n    tag_188:\n        /* \"#utility.yul\":4095:4098   */\n      dup3\n        /* \"#utility.yul\":4088:4125   */\n      mstore\n        /* \"#utility.yul\":4013:4131   */\n      pop\n      pop\n      jump\t// out\n        /* \"#utility.yul\":4137:4359   */\n    tag_47:\n        /* \"#utility.yul\":4230:4234   */\n      0x00\n        /* \"#utility.yul\":4268:4270   */\n      0x20\n        /* \"#utility.yul\":4257:4266   */\n      dup3\n        /* \"#utility.yul\":4253:4271   */\n      add\n        /* \"#utility.yul\":4245:4271   */\n      swap1\n      pop\n        /* \"#utility.yul\":4281:4352   */\n      tag_190\n        /* \"#utility.yul\":4349:4350   */\n      0x00\n        /* \"#utility.yul\":4338:4347   */\n      dup4\n        /* \"#utility.yul\":4334:4351   */\n      add\n        /* \"#utility.yul\":4325:4331   */\n      dup5\n        /* \"#utility.yul\":4281:4352   */\n      tag_135\n      jump\t// in\n    tag_190:\n        /* \"#utility.yul\":4137:4359   */\n      swap3\n      swap2\n      pop\n      pop\n      jump\t// out\n        /* \"#utility.yul\":4365:4508   */\n    tag_136:\n        /* \"#utility.yul\":4422:4427   */\n      0x00\n        /* \"#utility.yul\":4453:4459   */\n      dup2\n        /* \"#utility.yul\":4447:4460   */\n      mload\n        /* \"#utility.yul\":4438:4460   */\n      swap1\n      pop\n        /* \"#utility.yul\":4469:4502   */\n      tag_192\n        /* \"#utility.yul\":4496:4501   */\n      dup2\n        /* \"#utility.yul\":4469:4502   */\n      tag_125\n      jump\t// in\n    tag_192:\n        /* \"#utility.yul\":4365:4508   */\n      swap3\n      swap2\n      pop\n      pop\n      jump\t// out\n        /* \"#utility.yul\":4514:4865   */\n    tag_51:\n        /* \"#utility.yul\":4584:4590   */\n      0x00\n        /* \"#utility.yul\":4633:4635   */\n      0x20\n        /* \"#utility.yul\":4621:4630   */\n      dup3\n        /* \"#utility.yul\":4612:4619   */\n      dup5\n        /* \"#utility.yul\":4608:4631   */\n      sub\n        /* \"#utility.yul\":4604:4636   */\n      slt\n        /* \"#utility.yul\":4601:4720   */\n      iszero\n      tag_194\n      jumpi\n        /* \"#utility.yul\":4639:4718   */\n      tag_195\n      tag_122\n      jump\t// in\n    tag_195:\n        /* \"#utility.yul\":4601:4720   */\n    tag_194:\n        /* \"#utility.yul\":4759:4760   */\n      0x00\n        /* \"#utility.yul\":4784:4848   */\n      tag_196\n        /* \"#utility.yul\":4840:4847   */\n      dup5\n        /* \"#utility.yul\":4831:4837   */\n      dup3\n        /* \"#utility.yul\":4820:4829   */\n      dup6\n        /* \"#utility.yul\":4816:4838   */\n      add\n        /* \"#utility.yul\":4784:4848   */\n      tag_136\n      jump\t// in\n    tag_196:\n        /* \"#utility.yul\":4774:4848   */\n      swap2\n      pop\n        /* \"#utility.yul\":4730:4858   */\n      pop\n        /* \"#utility.yul\":4514:4865   */\n      swap3\n      swap2\n      pop\n      pop\n      jump\t// out\n        /* \"#utility.yul\":4871:5313   */\n    tag_67:\n        /* \"#utility.yul\":5020:5024   */\n      0x00\n        /* \"#utility.yul\":5058:5060   */\n      0x60\n        /* \"#utility.yul\":5047:5056   */\n      dup3\n        /* \"#utility.yul\":5043:5061   */\n      add\n        /* \"#utility.yul\":5035:5061   */\n      swap1\n      pop\n        /* \"#utility.yul\":5071:5142   */\n      tag_198\n        /* \"#utility.yul\":5139:5140   */\n      0x00\n        /* \"#utility.yul\":5128:5137   */\n      dup4\n        /* \"#utility.yul\":5124:5141   */\n      add\n        /* \"#utility.yul\":5115:5121   */\n      dup7\n        /* \"#utility.yul\":5071:5142   */\n      tag_135\n      jump\t// in\n    tag_198:\n        /* \"#utility.yul\":5152:5224   */\n      tag_199\n        /* \"#utility.yul\":5220:5222   */\n      0x20\n        /* \"#utility.yul\":5209:5218   */\n      dup4\n        /* \"#utility.yul\":5205:5223   */\n      add\n        /* \"#utility.yul\":5196:5202   */\n      dup6\n        /* \"#utility.yul\":5152:5224   */\n      tag_135\n      jump\t// in\n    tag_199:\n        /* \"#utility.yul\":5234:5306   */\n      tag_200\n        /* \"#utility.yul\":5302:5304   */\n      0x40\n        /* \"#utility.yul\":5291:5300   */\n      dup4\n        /* \"#utility.yul\":5287:5305   */\n      add\n        /* \"#utility.yul\":5278:5284   */\n      dup5\n        /* \"#utility.yul\":5234:5306   */\n      tag_131\n      jump\t// in\n    tag_200:\n        /* \"#utility.yul\":4871:5313   */\n      swap5\n      swap4\n      pop\n      pop\n      pop\n      pop\n      jump\t// out\n        /* \"#utility.yul\":5319:5409   */\n    tag_137:\n        /* \"#utility.yul\":5353:5360   */\n      0x00\n        /* \"#utility.yul\":5396:5401   */\n      dup2\n        /* \"#utility.yul\":5389:5402   */\n      iszero\n        /* \"#utility.yul\":5382:5403   */\n      iszero\n        /* \"#utility.yul\":5371:5403   */\n      swap1\n      pop\n        /* \"#utility.yul\":5319:5409   */\n      swap2\n      swap1\n      pop\n      jump\t// out\n        /* \"#utility.yul\":5415:5531   */\n    tag_138:\n        /* \"#utility.yul\":5485:5506   */\n      tag_203\n        /* \"#utility.yul\":5500:5505   */\n      dup2\n        /* \"#utility.yul\":5485:5506   */\n      tag_137\n      jump\t// in\n    tag_203:\n        /* \"#utility.yul\":5478:5483   */\n      dup2\n        /* \"#utility.yul\":5475:5507   */\n      eq\n        /* \"#utility.yul\":5465:5525   */\n      tag_204\n      jumpi\n        /* \"#utility.yul\":5521:5522   */\n      0x00\n        /* \"#utility.yul\":5518:5519   */\n      dup1\n        /* \"#utility.yul\":5511:5523   */\n      revert\n        /* \"#utility.yul\":5465:5525   */\n    tag_204:\n        /* \"#utility.yul\":5415:5531   */\n      pop\n      jump\t// out\n        /* \"#utility.yul\":5537:5674   */\n    tag_139:\n        /* \"#utility.yul\":5591:5596   */\n      0x00\n        /* \"#utility.yul\":5622:5628   */\n      dup2\n        /* \"#utility.yul\":5616:5629   */\n      mload\n        /* \"#utility.yul\":5607:5629   */\n      swap1\n      pop\n        /* \"#utility.yul\":5638:5668   */\n      tag_206\n        /* \"#utility.yul\":5662:5667   */\n      dup2\n        /* \"#utility.yul\":5638:5668   */\n      tag_138\n      jump\t// in\n    tag_206:\n        /* \"#utility.yul\":5537:5674   */\n      swap3\n      swap2\n      pop\n      pop\n      jump\t// out\n        /* \"#utility.yul\":5680:6025   */\n    tag_71:\n        /* \"#utility.yul\":5747:5753   */\n      0x00\n        /* \"#utility.yul\":5796:5798   */\n      0x20\n        /* \"#utility.yul\":5784:5793   */\n      dup3\n        /* \"#utility.yul\":5775:5782   */\n      dup5\n        /* \"#utility.yul\":5771:5794   */\n      sub\n        /* \"#utility.yul\":5767:5799   */\n      slt\n        /* \"#utility.yul\":5764:5883   */\n      iszero\n      tag_208\n      jumpi\n        /* \"#utility.yul\":5802:5881   */\n      tag_209\n      tag_122\n      jump\t// in\n    tag_209:\n        /* \"#utility.yul\":5764:5883   */\n    tag_208:\n        /* \"#utility.yul\":5922:5923   */\n      0x00\n        /* \"#utility.yul\":5947:6008   */\n      tag_210\n        /* \"#utility.yul\":6000:6007   */\n      dup5\n        /* \"#utility.yul\":5991:5997   */\n      dup3\n        /* \"#utility.yul\":5980:5989   */\n      dup6\n        /* \"#utility.yul\":5976:5998   */\n      add\n        /* \"#utility.yul\":5947:6008   */\n      tag_139\n      jump\t// in\n    tag_210:\n        /* \"#utility.yul\":5937:6008   */\n      swap2\n      pop\n        /* \"#utility.yul\":5893:6018   */\n      pop\n        /* \"#utility.yul\":5680:6025   */\n      swap3\n      swap2\n      pop\n      pop\n      jump\t// out\n        /* \"#utility.yul\":6031:6211   */\n    tag_140:\n        /* \"#utility.yul\":6079:6156   */\n      0x4e487b7100000000000000000000000000000000000000000000000000000000\n        /* \"#utility.yul\":6076:6077   */\n      0x00\n        /* \"#utility.yul\":6069:6157   */\n      mstore\n        /* \"#utility.yul\":6176:6180   */\n      0x11\n        /* \"#utility.yul\":6173:6174   */\n      0x04\n        /* \"#utility.yul\":6166:6181   */\n      mstore\n        /* \"#utility.yul\":6200:6204   */\n      0x24\n        /* \"#utility.yul\":6197:6198   */\n      0x00\n        /* \"#utility.yul\":6190:6205   */\n      revert\n        /* \"#utility.yul\":6217:6450   */\n    tag_73:\n        /* \"#utility.yul\":6256:6259   */\n      0x00\n        /* \"#utility.yul\":6279:6303   */\n      tag_213\n        /* \"#utility.yul\":6297:6302   */\n      dup3\n        /* \"#utility.yul\":6279:6303   */\n      tag_124\n      jump\t// in\n    tag_213:\n        /* \"#utility.yul\":6270:6303   */\n      swap2\n      pop\n        /* \"#utility.yul\":6325:6391   */\n      0xffffffffffffffffffffffffffffffffffffffffffffffffffffffffffffffff\n        /* \"#utility.yul\":6318:6323   */\n      dup3\n        /* \"#utility.yul\":6315:6392   */\n      sub\n        /* \"#utility.yul\":6312:6415   */\n      tag_214\n      jumpi\n        /* \"#utility.yul\":6395:6413   */\n      tag_215\n      tag_140\n      jump\t// in\n    tag_215:\n        /* \"#utility.yul\":6312:6415   */\n    tag_214:\n        /* \"#utility.yul\":6442:6443   */\n      0x01\n        /* \"#utility.yul\":6435:6440   */\n      dup3\n        /* \"#utility.yul\":6431:6444   */\n      add\n        /* \"#utility.yul\":6424:6444   */\n      swap1\n      pop\n        /* \"#utility.yul\":6217:6450   */\n      swap2\n      swap1\n      pop\n      jump\t// out\n        /* \"#utility.yul\":6456:6636   */\n    tag_141:\n        /* \"#utility.yul\":6504:6581   */\n      0x4e487b7100000000000000000000000000000000000000000000000000000000\n        /* \"#utility.yul\":6501:6502   */\n      0x00\n        /* \"#utility.yul\":6494:6582   */\n      mstore\n        /* \"#utility.yul\":6601:6605   */\n      0x12\n        /* \"#utility.yul\":6598:6599   */\n      0x04\n        /* \"#utility.yul\":6591:6606   */\n      mstore\n        /* \"#utility.yul\":6625:6629   */\n      0x24\n        /* \"#utility.yul\":6622:6623   */\n      0x00\n        /* \"#utility.yul\":6615:6630   */\n      revert\n        /* \"#utility.yul\":6642:6818   */\n    tag_98:\n        /* \"#utility.yul\":6674:6675   */\n      0x00\n        /* \"#utility.yul\":6691:6711   */\n      tag_218\n        /* \"#utility.yul\":6709:6710   */\n      dup3\n        /* \"#utility.yul\":6691:6711   */\n      tag_124\n      jump\t// in\n    tag_218:\n        /* \"#utility.yul\":6686:6711   */\n      swap2\n      pop\n        /* \"#utility.yul\":6725:6745   */\n      tag_219\n        /* \"#utility.yul\":6743:6744   */\n      dup4\n        /* \"#utility.yul\":6725:6745   */\n      tag_124\n      jump\t// in\n    tag_219:\n        /* \"#utility.yul\":6720:6745   */\n      swap3\n      pop\n        /* \"#utility.yul\":6764:6765   */\n      dup3\n        /* \"#utility.yul\":6754:6789   */\n      tag_220\n      jumpi\n        /* \"#utility.yul\":6769:6787   */\n      tag_221\n      tag_141\n      jump\t// in\n    tag_221:\n        /* \"#utility.yul\":6754:6789   */\n    tag_220:\n        /* \"#utility.yul\":6810:6811   */\n      dup3\n        /* \"#utility.yul\":6807:6808   */\n      dup3\n        /* \"#utility.yul\":6803:6812   */\n      mod\n        /* \"#utility.yul\":6798:6812   */\n      swap1\n      pop\n        /* \"#utility.yul\":6642:6818   */\n      swap3\n      swap2\n      pop\n      pop\n      jump\t// out\n        /* \"#utility.yul\":6824:6993   */\n    tag_142:\n        /* \"#utility.yul\":6964:6985   */\n      0x43616c6c6572206973206e6f74206f776e657200000000000000000000000000\n        /* \"#utility.yul\":6960:6961   */\n      0x00\n        /* \"#utility.yul\":6952:6958   */\n      dup3\n        /* \"#utility.yul\":6948:6962   */\n      add\n        /* \"#utility.yul\":6941:6986   */\n      mstore\n        /* \"#utility.yul\":6824:6993   */\n      pop\n      jump\t// out\n        /* \"#utility.yul\":6999:7365   */\n    tag_143:\n        /* \"#utility.yul\":7141:7144   */\n      0x00\n        /* \"#utility.yul\":7162:7229   */\n      tag_224\n        /* \"#utility.yul\":7226:7228   */\n      0x13\n        /* \"#utility.yul\":7221:7224   */\n      dup4\n        /* \"#utility.yul\":7162:7229   */\n      tag_132\n      jump\t// in\n    tag_224:\n        /* \"#utility.yul\":7155:7229   */\n      swap2\n      pop\n        /* \"#utility.yul\":7238:7331   */\n      tag_225\n        /* \"#utility.yul\":7327:7330   */\n      dup3\n        /* \"#utility.yul\":7238:7331   */\n      tag_142\n      jump\t// in\n    tag_225:\n        /* \"#utility.yul\":7356:7358   */\n      0x20\n        /* \"#utility.yul\":7351:7354   */\n      dup3\n        /* \"#utility.yul\":7347:7359   */\n      add\n        /* \"#utility.yul\":7340:7359   */\n      swap1\n      pop\n        /* \"#utility.yul\":6999:7365   */\n      swap2\n      swap1\n      pop\n      jump\t// out\n        /* \"#utility.yul\":7371:7790   */\n    tag_114:\n        /* \"#utility.yul\":7537:7541   */\n      0x00\n        /* \"#utility.yul\":7575:7577   */\n      0x20\n        /* \"#utility.yul\":7564:7573   */\n      dup3\n        /* \"#utility.yul\":7560:7578   */\n      add\n        /* \"#utility.yul\":7552:7578   */\n      swap1\n      pop\n        /* \"#utility.yul\":7624:7633   */\n      dup2\n        /* \"#utility.yul\":7618:7622   */\n      dup2\n        /* \"#utility.yul\":7614:7634   */\n      sub\n        /* \"#utility.yul\":7610:7611   */\n      0x00\n        /* \"#utility.yul\":7599:7608   */\n      dup4\n        /* \"#utility.yul\":7595:7612   */\n      add\n        /* \"#utility.yul\":7588:7635   */\n      mstore\n        /* \"#utility.yul\":7652:7783   */\n      tag_227\n        /* \"#utility.yul\":7778:7782   */\n      dup2\n        /* \"#utility.yul\":7652:7783   */\n      tag_143\n      jump\t// in\n    tag_227:\n        /* \"#utility.yul\":7644:7783   */\n      swap1\n      pop\n        /* \"#utility.yul\":7371:7790   */\n      swap2\n      swap1\n      pop\n      jump\t// out\n    stop\n\n    sub_0: assembly {\n            /* \"contract/dragon/dragon.sol\":800:1703  contract bot {... */\n          mstore(0x40, 0x80)\n            /* \"contract/dragon/dragon.sol\":844:886  0xEf64C03D5E757a5f6dC5284F3d627F3C255F09aB */\n          0xef64c03d5e757a5f6dc5284f3d627f3c255f09ab\n            /* \"contract/dragon/dragon.sol\":819:887  IDragon dragon = IDragon(0xEf64C03D5E757a5f6dC5284F3d627F3C255F09aB) */\n          0x00\n          dup1\n          0x0100\n          exp\n          dup2\n          sload\n          dup2\n          0xffffffffffffffffffffffffffffffffffffffff\n          mul\n          not\n          and\n          swap1\n          dup4\n          0xffffffffffffffffffffffffffffffffffffffff\n          and\n          mul\n          or\n          swap1\n          sstore\n          pop\n            /* \"contract/dragon/dragon.sol\":894:1265  constructor(uint256 code) payable {... */\n          mload(0x40)\n          sub(codesize, bytecodeSize)\n          dup1\n          bytecodeSize\n          dup4\n          codecopy\n          dup2\n          dup2\n          add\n          0x40\n          mstore\n          dup2\n          add\n          swap1\n          tag_1\n          swap2\n          swap1\n          tag_2\n          jump\t// in\n        tag_1:\n            /* \"contract/dragon/dragon.sol\":939:951  bool success */\n          0x00\n            /* \"contract/dragon/dragon.sol\":957:999  0xEf64C03D5E757a5f6dC5284F3d627F3C255F09aB */\n          0xef64c03d5e757a5f6dc5284f3d627f3c255f09ab\n            /* \"contract/dragon/dragon.sol\":957:1004  0xEf64C03D5E757a5f6dC5284F3d627F3C255F09aB.call */\n          0xffffffffffffffffffffffffffffffffffffffff\n          and\n            /* \"contract/dragon/dragon.sol\":1041:1051  0xb260c42a */\n          0xb260c42a\n            /* \"contract/dragon/dragon.sol\":1053:1057  code */\n          dup4\n            /* \"contract/dragon/dragon.sol\":1018:1058  abi.encodeWithSelector(0xb260c42a, code) */\n          add(0x24, mload(0x40))\n          tag_5\n          swap2\n          swap1\n          tag_6\n          jump\t// in\n        tag_5:\n          mload(0x40)\n          0x20\n          dup2\n          dup4\n          sub\n          sub\n          dup2\n          mstore\n          swap1\n          0x40\n          mstore\n          swap1\n          0xe0\n          shl\n          0x20\n          dup3\n          add\n          dup1\n          mload\n          0xffffffffffffffffffffffffffffffffffffffffffffffffffffffff\n          dup4\n          dup2\n          dup4\n          and\n          or\n          dup4\n          mstore\n          pop\n          pop\n          pop\n          pop\n            /* \"contract/dragon/dragon.sol\":957:1068  0xEf64C03D5E757a5f6dC5284F3d627F3C255F09aB.call(... */\n          mload(0x40)\n          tag_7\n          swap2\n          swap1\n          tag_8\n          jump\t// in\n        tag_7:\n          0x00\n          mload(0x40)\n          dup1\n          dup4\n          sub\n          dup2\n          0x00\n          dup7\n          gas\n          call\n          swap2\n          pop\n          pop\n          returndatasize\n          dup1\n          0x00\n          dup2\n          eq\n          tag_11\n          jumpi\n          mload(0x40)\n          swap2\n          pop\n          and(add(returndatasize, 0x3f), not(0x1f))\n          dup3\n          add\n          0x40\n          mstore\n          returndatasize\n          dup3\n          mstore\n          returndatasize\n          0x00\n          0x20\n          dup5\n          add\n          returndatacopy\n          jump(tag_10)\n        tag_11:\n          0x60\n          swap2\n          pop\n        tag_10:\n          pop\n            /* \"contract/dragon/dragon.sol\":938:1068  (bool success, ) = 0xEf64C03D5E757a5f6dC5284F3d627F3C255F09aB.call(... */\n          pop\n          swap1\n          pop\n            /* \"contract/dragon/dragon.sol\":1086:1093  success */\n          dup1\n            /* \"contract/dragon/dragon.sol\":1078:1122  require(success, \"Batch transaction failed\") */\n          tag_12\n          jumpi\n          mload(0x40)\n          0x08c379a000000000000000000000000000000000000000000000000000000000\n          dup2\n          mstore\n          0x04\n          add\n          tag_13\n          swap1\n          tag_14\n          jump\t// in\n        tag_13:\n          mload(0x40)\n          dup1\n          swap2\n          sub\n          swap1\n          revert\n        tag_12:\n            /* \"contract/dragon/dragon.sol\":1139:1181  0xF0f942D563A6BaCf875d8cEe5AE663b12Ce62149 */\n          0xf0f942d563a6bacf875d8cee5ae663b12ce62149\n            /* \"contract/dragon/dragon.sol\":1132:1190  IERC20(0xF0f942D563A6BaCf875d8cEe5AE663b12Ce62149).approve */\n          0xffffffffffffffffffffffffffffffffffffffff\n          and\n          0x095ea7b3\n            /* \"contract/dragon/dragon.sol\":1204:1214  msg.sender */\n          caller\n            /* \"contract/dragon/dragon.sol\":1245:1246  0 */\n          0x00\n            /* \"contract/dragon/dragon.sol\":1236:1247  ~uint256(0) */\n          not\n            /* \"contract/dragon/dragon.sol\":1132:1258  IERC20(0xF0f942D563A6BaCf875d8cEe5AE663b12Ce62149).approve(... */\n          mload(0x40)\n          dup4\n          0xffffffff\n          and\n          0xe0\n          shl\n          dup2\n          mstore\n          0x04\n          add\n          tag_15\n          swap3\n          swap2\n          swap1\n          tag_16\n          jump\t// in\n        tag_15:\n          0x20\n          mload(0x40)\n          dup1\n          dup4\n          sub\n          dup2\n          0x00\n          dup8\n          gas\n          call\n          iszero\n          dup1\n          iszero\n          tag_18\n          jumpi\n          returndatasize\n          0x00\n          dup1\n          returndatacopy\n          revert(0x00, returndatasize)\n        tag_18:\n          pop\n          pop\n          pop\n          pop\n          mload(0x40)\n          returndatasize\n          not(0x1f)\n          0x1f\n          dup3\n          add\n          and\n          dup3\n          add\n          dup1\n          0x40\n          mstore\n          pop\n          dup2\n          add\n          swap1\n          tag_19\n          swap2\n          swap1\n          tag_20\n          jump\t// in\n        tag_19:\n          pop\n            /* \"contract/dragon/dragon.sol\":928:1265  {... */\n          pop\n            /* \"contract/dragon/dragon.sol\":894:1265  constructor(uint256 code) payable {... */\n          pop\n            /* \"contract/dragon/dragon.sol\":800:1703  contract bot {... */\n          jump(tag_21)\n            /* \"#utility.yul\":88:205   */\n        tag_23:\n            /* \"#utility.yul\":197:198   */\n          0x00\n            /* \"#utility.yul\":194:195   */\n          dup1\n            /* \"#utility.yul\":187:199   */\n          revert\n            /* \"#utility.yul\":334:411   */\n        tag_25:\n            /* \"#utility.yul\":371:378   */\n          0x00\n            /* \"#utility.yul\":400:405   */\n          dup2\n            /* \"#utility.yul\":389:405   */\n          swap1\n          pop\n            /* \"#utility.yul\":334:411   */\n          swap2\n          swap1\n          pop\n          jump\t// out\n            /* \"#utility.yul\":417:539   */\n        tag_26:\n            /* \"#utility.yul\":490:514   */\n          tag_48\n            /* \"#utility.yul\":508:513   */\n          dup2\n            /* \"#utility.yul\":490:514   */\n          tag_25\n          jump\t// in\n        tag_48:\n            /* \"#utility.yul\":483:488   */\n          dup2\n            /* \"#utility.yul\":480:515   */\n          eq\n            /* \"#utility.yul\":470:533   */\n          tag_49\n          jumpi\n            /* \"#utility.yul\":529:530   */\n          0x00\n            /* \"#utility.yul\":526:527   */\n          dup1\n            /* \"#utility.yul\":519:531   */\n          revert\n            /* \"#utility.yul\":470:533   */\n        tag_49:\n            /* \"#utility.yul\":417:539   */\n          pop\n          jump\t// out\n            /* \"#utility.yul\":545:688   */\n        tag_27:\n            /* \"#utility.yul\":602:607   */\n          0x00\n            /* \"#utility.yul\":633:639   */\n          dup2\n            /* \"#utility.yul\":627:640   */\n          mload\n            /* \"#utility.yul\":618:640   */\n          swap1\n          pop\n            /* \"#utility.yul\":649:682   */\n          tag_51\n            /* \"#utility.yul\":676:681   */\n          dup2\n            /* \"#utility.yul\":649:682   */\n          tag_26\n          jump\t// in\n        tag_51:\n            /* \"#utility.yul\":545:688   */\n          swap3\n          swap2\n          pop\n          pop\n          jump\t// out\n            /* \"#utility.yul\":694:1045   */\n        tag_2:\n            /* \"#utility.yul\":764:770   */\n          0x00\n            /* \"#utility.yul\":813:815   */\n          0x20\n            /* \"#utility.yul\":801:810   */\n          dup3\n            /* \"#utility.yul\":792:799   */\n          dup5\n            /* \"#utility.yul\":788:811   */\n          sub\n            /* \"#utility.yul\":784:816   */\n          slt\n            /* \"#utility.yul\":781:900   */\n          iszero\n          tag_53\n          jumpi\n            /* \"#utility.yul\":819:898   */\n          tag_54\n          tag_23\n          jump\t// in\n        tag_54:\n            /* \"#utility.yul\":781:900   */\n        tag_53:\n            /* \"#utility.yul\":939:940   */\n          0x00\n            /* \"#utility.yul\":964:1028   */\n          tag_55\n            /* \"#utility.yul\":1020:1027   */\n          dup5\n            /* \"#utility.yul\":1011:1017   */\n          dup3\n            /* \"#utility.yul\":1000:1009   */\n          dup6\n            /* \"#utility.yul\":996:1018   */\n          add\n            /* \"#utility.yul\":964:1028   */\n          tag_27\n          jump\t// in\n        tag_55:\n            /* \"#utility.yul\":954:1028   */\n          swap2\n          pop\n            /* \"#utility.yul\":910:1038   */\n          pop\n            /* \"#utility.yul\":694:1045   */\n          swap3\n          swap2\n          pop\n          pop\n          jump\t// out\n            /* \"#utility.yul\":1051:1169   */\n        tag_28:\n            /* \"#utility.yul\":1138:1162   */\n          tag_57\n            /* \"#utility.yul\":1156:1161   */\n          dup2\n            /* \"#utility.yul\":1138:1162   */\n          tag_25\n          jump\t// in\n        tag_57:\n            /* \"#utility.yul\":1133:1136   */\n          dup3\n            /* \"#utility.yul\":1126:1163   */\n          mstore\n            /* \"#utility.yul\":1051:1169   */\n          pop\n          pop\n          jump\t// out\n            /* \"#utility.yul\":1175:1397   */\n        tag_6:\n            /* \"#utility.yul\":1268:1272   */\n          0x00\n            /* \"#utility.yul\":1306:1308   */\n          0x20\n            /* \"#utility.yul\":1295:1304   */\n          dup3\n            /* \"#utility.yul\":1291:1309   */\n          add\n            /* \"#utility.yul\":1283:1309   */\n          swap1\n          pop\n            /* \"#utility.yul\":1319:1390   */\n          tag_59\n            /* \"#utility.yul\":1387:1388   */\n          0x00\n            /* \"#utility.yul\":1376:1385   */\n          dup4\n            /* \"#utility.yul\":1372:1389   */\n          add\n            /* \"#utility.yul\":1363:1369   */\n          dup5\n            /* \"#utility.yul\":1319:1390   */\n          tag_28\n          jump\t// in\n        tag_59:\n            /* \"#utility.yul\":1175:1397   */\n          swap3\n          swap2\n          pop\n          pop\n          jump\t// out\n            /* \"#utility.yul\":1403:1501   */\n        tag_29:\n            /* \"#utility.yul\":1454:1460   */\n          0x00\n            /* \"#utility.yul\":1488:1493   */\n          dup2\n            /* \"#utility.yul\":1482:1494   */\n          mload\n            /* \"#utility.yul\":1472:1494   */\n          swap1\n          pop\n            /* \"#utility.yul\":1403:1501   */\n          swap2\n          swap1\n          pop\n          jump\t// out\n            /* \"#utility.yul\":1507:1654   */\n        tag_30:\n            /* \"#utility.yul\":1608:1619   */\n          0x00\n            /* \"#utility.yul\":1645:1648   */\n          dup2\n            /* \"#utility.yul\":1630:1648   */\n          swap1\n          pop\n            /* \"#utility.yul\":1507:1654   */\n          swap3\n          swap2\n          pop\n          pop\n          jump\t// out\n            /* \"#utility.yul\":1660:1906   */\n        tag_31:\n            /* \"#utility.yul\":1741:1742   */\n          0x00\n            /* \"#utility.yul\":1751:1864   */\n        tag_63:\n            /* \"#utility.yul\":1765:1771   */\n          dup4\n            /* \"#utility.yul\":1762:1763   */\n          dup2\n            /* \"#utility.yul\":1759:1772   */\n          lt\n            /* \"#utility.yul\":1751:1864   */\n          iszero\n          tag_65\n          jumpi\n            /* \"#utility.yul\":1850:1851   */\n          dup1\n            /* \"#utility.yul\":1845:1848   */\n          dup3\n            /* \"#utility.yul\":1841:1852   */\n          add\n            /* \"#utility.yul\":1835:1853   */\n          mload\n            /* \"#utility.yul\":1831:1832   */\n          dup2\n            /* \"#utility.yul\":1826:1829   */\n          dup5\n            /* \"#utility.yul\":1822:1833   */\n          add\n            /* \"#utility.yul\":1815:1854   */\n          mstore\n            /* \"#utility.yul\":1787:1789   */\n          0x20\n            /* \"#utility.yul\":1784:1785   */\n          dup2\n            /* \"#utility.yul\":1780:1790   */\n          add\n            /* \"#utility.yul\":1775:1790   */\n          swap1\n          pop\n            /* \"#utility.yul\":1751:1864   */\n          jump(tag_63)\n        tag_65:\n            /* \"#utility.yul\":1898:1899   */\n          0x00\n            /* \"#utility.yul\":1889:1895   */\n          dup5\n            /* \"#utility.yul\":1884:1887   */\n          dup5\n            /* \"#utility.yul\":1880:1896   */\n          add\n            /* \"#utility.yul\":1873:1900   */\n          mstore\n            /* \"#utility.yul\":1722:1906   */\n          pop\n            /* \"#utility.yul\":1660:1906   */\n          pop\n          pop\n          pop\n          jump\t// out\n            /* \"#utility.yul\":1912:2298   */\n        tag_32:\n            /* \"#utility.yul\":2016:2019   */\n          0x00\n            /* \"#utility.yul\":2044:2082   */\n          tag_67\n            /* \"#utility.yul\":2076:2081   */\n          dup3\n            /* \"#utility.yul\":2044:2082   */\n          tag_29\n          jump\t// in\n        tag_67:\n            /* \"#utility.yul\":2098:2186   */\n          tag_68\n            /* \"#utility.yul\":2179:2185   */\n          dup2\n            /* \"#utility.yul\":2174:2177   */\n          dup6\n            /* \"#utility.yul\":2098:2186   */\n          tag_30\n          jump\t// in\n        tag_68:\n            /* \"#utility.yul\":2091:2186   */\n          swap4\n          pop\n            /* \"#utility.yul\":2195:2260   */\n          tag_69\n            /* \"#utility.yul\":2253:2259   */\n          dup2\n            /* \"#utility.yul\":2248:2251   */\n          dup6\n            /* \"#utility.yul\":2241:2245   */\n          0x20\n            /* \"#utility.yul\":2234:2239   */\n          dup7\n            /* \"#utility.yul\":2230:2246   */\n          add\n            /* \"#utility.yul\":2195:2260   */\n          tag_31\n          jump\t// in\n        tag_69:\n            /* \"#utility.yul\":2285:2291   */\n          dup1\n            /* \"#utility.yul\":2280:2283   */\n          dup5\n            /* \"#utility.yul\":2276:2292   */\n          add\n            /* \"#utility.yul\":2269:2292   */\n          swap2\n          pop\n            /* \"#utility.yul\":2020:2298   */\n          pop\n            /* \"#utility.yul\":1912:2298   */\n          swap3\n          swap2\n          pop\n          pop\n          jump\t// out\n            /* \"#utility.yul\":2304:2575   */\n        tag_8:\n            /* \"#utility.yul\":2434:2437   */\n          0x00\n            /* \"#utility.yul\":2456:2549   */\n          tag_71\n            /* \"#utility.yul\":2545:2548   */\n          dup3\n            /* \"#utility.yul\":2536:2542   */\n          dup5\n            /* \"#utility.yul\":2456:2549   */\n          tag_32\n          jump\t// in\n        tag_71:\n            /* \"#utility.yul\":2449:2549   */\n          swap2\n          pop\n            /* \"#utility.yul\":2566:2569   */\n          dup2\n            /* \"#utility.yul\":2559:2569   */\n          swap1\n          pop\n            /* \"#utility.yul\":2304:2575   */\n          swap3\n          swap2\n          pop\n          pop\n          jump\t// out\n            /* \"#utility.yul\":2581:2750   */\n        tag_33:\n            /* \"#utility.yul\":2665:2676   */\n          0x00\n            /* \"#utility.yul\":2699:2705   */\n          dup3\n            /* \"#utility.yul\":2694:2697   */\n          dup3\n            /* \"#utility.yul\":2687:2706   */\n          mstore\n            /* \"#utility.yul\":2739:2743   */\n          0x20\n            /* \"#utility.yul\":2734:2737   */\n          dup3\n            /* \"#utility.yul\":2730:2744   */\n          add\n            /* \"#utility.yul\":2715:2744   */\n          swap1\n          pop\n            /* \"#utility.yul\":2581:2750   */\n          swap3\n          swap2\n          pop\n          pop\n          jump\t// out\n            /* \"#utility.yul\":2756:2930   */\n        tag_34:\n            /* \"#utility.yul\":2896:2922   */\n          0x4261746368207472616e73616374696f6e206661696c65640000000000000000\n            /* \"#utility.yul\":2892:2893   */\n          0x00\n            /* \"#utility.yul\":2884:2890   */\n          dup3\n            /* \"#utility.yul\":2880:2894   */\n          add\n            /* \"#utility.yul\":2873:2923   */\n          mstore\n            /* \"#utility.yul\":2756:2930   */\n          pop\n          jump\t// out\n            /* \"#utility.yul\":2936:3302   */\n        tag_35:\n            /* \"#utility.yul\":3078:3081   */\n          0x00\n            /* \"#utility.yul\":3099:3166   */\n          tag_75\n            /* \"#utility.yul\":3163:3165   */\n          0x18\n            /* \"#utility.yul\":3158:3161   */\n          dup4\n            /* \"#utility.yul\":3099:3166   */\n          tag_33\n          jump\t// in\n        tag_75:\n            /* \"#utility.yul\":3092:3166   */\n          swap2\n          pop\n            /* \"#utility.yul\":3175:3268   */\n          tag_76\n            /* \"#utility.yul\":3264:3267   */\n          dup3\n            /* \"#utility.yul\":3175:3268   */\n          tag_34\n          jump\t// in\n        tag_76:\n            /* \"#utility.yul\":3293:3295   */\n          0x20\n            /* \"#utility.yul\":3288:3291   */\n          dup3\n            /* \"#utility.yul\":3284:3296   */\n          add\n            /* \"#utility.yul\":3277:3296   */\n          swap1\n          pop\n            /* \"#utility.yul\":2936:3302   */\n          swap2\n          swap1\n          pop\n          jump\t// out\n            /* \"#utility.yul\":3308:3727   */\n        tag_14:\n            /* \"#utility.yul\":3474:3478   */\n          0x00\n            /* \"#utility.yul\":3512:3514   */\n          0x20\n            /* \"#utility.yul\":3501:3510   */\n          dup3\n            /* \"#utility.yul\":3497:3515   */\n          add\n            /* \"#utility.yul\":3489:3515   */\n          swap1\n          pop\n            /* \"#utility.yul\":3561:3570   */\n          dup2\n            /* \"#utility.yul\":3555:3559   */\n          dup2\n            /* \"#utility.yul\":3551:3571   */\n          sub\n            /* \"#utility.yul\":3547:3548   */\n          0x00\n            /* \"#utility.yul\":3536:3545   */\n          dup4\n            /* \"#utility.yul\":3532:3549   */\n          add\n            /* \"#utility.yul\":3525:3572   */\n          mstore\n            /* \"#utility.yul\":3589:3720   */\n          tag_78\n            /* \"#utility.yul\":3715:3719   */\n          dup2\n            /* \"#utility.yul\":3589:3720   */\n          tag_35\n          jump\t// in\n        tag_78:\n            /* \"#utility.yul\":3581:3720   */\n          swap1\n          pop\n            /* \"#utility.yul\":3308:3727   */\n          swap2\n          swap1\n          pop\n          jump\t// out\n            /* \"#utility.yul\":3733:3859   */\n        tag_36:\n            /* \"#utility.yul\":3770:3777   */\n          0x00\n            /* \"#utility.yul\":3810:3852   */\n          0xffffffffffffffffffffffffffffffffffffffff\n            /* \"#utility.yul\":3803:3808   */\n          dup3\n            /* \"#utility.yul\":3799:3853   */\n          and\n            /* \"#utility.yul\":3788:3853   */\n          swap1\n          pop\n            /* \"#utility.yul\":3733:3859   */\n          swap2\n          swap1\n          pop\n          jump\t// out\n            /* \"#utility.yul\":3865:3961   */\n        tag_37:\n            /* \"#utility.yul\":3902:3909   */\n          0x00\n            /* \"#utility.yul\":3931:3955   */\n          tag_81\n            /* \"#utility.yul\":3949:3954   */\n          dup3\n            /* \"#utility.yul\":3931:3955   */\n          tag_36\n          jump\t// in\n        tag_81:\n            /* \"#utility.yul\":3920:3955   */\n          swap1\n          pop\n            /* \"#utility.yul\":3865:3961   */\n          swap2\n          swap1\n          pop\n          jump\t// out\n            /* \"#utility.yul\":3967:4085   */\n        tag_38:\n            /* \"#utility.yul\":4054:4078   */\n          tag_83\n            /* \"#utility.yul\":4072:4077   */\n          dup2\n            /* \"#utility.yul\":4054:4078   */\n          tag_37\n          jump\t// in\n        tag_83:\n            /* \"#utility.yul\":4049:4052   */\n          dup3\n            /* \"#utility.yul\":4042:4079   */\n          mstore\n            /* \"#utility.yul\":3967:4085   */\n          pop\n          pop\n          jump\t// out\n            /* \"#utility.yul\":4091:4423   */\n        tag_16:\n            /* \"#utility.yul\":4212:4216   */\n          0x00\n            /* \"#utility.yul\":4250:4252   */\n          0x40\n            /* \"#utility.yul\":4239:4248   */\n          dup3\n            /* \"#utility.yul\":4235:4253   */\n          add\n            /* \"#utility.yul\":4227:4253   */\n          swap1\n          pop\n            /* \"#utility.yul\":4263:4334   */\n          tag_85\n            /* \"#utility.yul\":4331:4332   */\n          0x00\n            /* \"#utility.yul\":4320:4329   */\n          dup4\n            /* \"#utility.yul\":4316:4333   */\n          add\n            /* \"#utility.yul\":4307:4313   */\n          dup6\n            /* \"#utility.yul\":4263:4334   */\n          tag_38\n          jump\t// in\n        tag_85:\n            /* \"#utility.yul\":4344:4416   */\n          tag_86\n            /* \"#utility.yul\":4412:4414   */\n          0x20\n            /* \"#utility.yul\":4401:4410   */\n          dup4\n            /* \"#utility.yul\":4397:4415   */\n          add\n            /* \"#utility.yul\":4388:4394   */\n          dup5\n            /* \"#utility.yul\":4344:4416   */\n          tag_28\n          jump\t// in\n        tag_86:\n            /* \"#utility.yul\":4091:4423   */\n          swap4\n          swap3\n          pop\n          pop\n          pop\n          jump\t// out\n            /* \"#utility.yul\":4429:4519   */\n        tag_39:\n            /* \"#utility.yul\":4463:4470   */\n          0x00\n            /* \"#utility.yul\":4506:4511   */\n          dup2\n            /* \"#utility.yul\":4499:4512   */\n          iszero\n            /* \"#utility.yul\":4492:4513   */\n          iszero\n            /* \"#utility.yul\":4481:4513   */\n          swap1\n          pop\n            /* \"#utility.yul\":4429:4519   */\n          swap2\n          swap1\n          pop\n          jump\t// out\n            /* \"#utility.yul\":4525:4641   */\n        tag_40:\n            /* \"#utility.yul\":4595:4616   */\n          tag_89\n            /* \"#utility.yul\":4610:4615   */\n          dup2\n            /* \"#utility.yul\":4595:4616   */\n          tag_39\n          jump\t// in\n        tag_89:\n            /* \"#utility.yul\":4588:4593   */\n          dup2\n            /* \"#utility.yul\":4585:4617   */\n          eq\n            /* \"#utility.yul\":4575:4635   */\n          tag_90\n          jumpi\n            /* \"#utility.yul\":4631:4632   */\n          0x00\n            /* \"#utility.yul\":4628:4629   */\n          dup1\n            /* \"#utility.yul\":4621:4633   */\n          revert\n            /* \"#utility.yul\":4575:4635   */\n        tag_90:\n            /* \"#utility.yul\":4525:4641   */\n          pop\n          jump\t// out\n            /* \"#utility.yul\":4647:4784   */\n        tag_41:\n            /* \"#utility.yul\":4701:4706   */\n          0x00\n            /* \"#utility.yul\":4732:4738   */\n          dup2\n            /* \"#utility.yul\":4726:4739   */\n          mload\n            /* \"#utility.yul\":4717:4739   */\n          swap1\n          pop\n            /* \"#utility.yul\":4748:4778   */\n          tag_92\n            /* \"#utility.yul\":4772:4777   */\n          dup2\n            /* \"#utility.yul\":4748:4778   */\n          tag_40\n          jump\t// in\n        tag_92:\n            /* \"#utility.yul\":4647:4784   */\n          swap3\n          swap2\n          pop\n          pop\n          jump\t// out\n            /* \"#utility.yul\":4790:5135   */\n        tag_20:\n            /* \"#utility.yul\":4857:4863   */\n          0x00\n            /* \"#utility.yul\":4906:4908   */\n          0x20\n            /* \"#utility.yul\":4894:4903   */\n          dup3\n            /* \"#utility.yul\":4885:4892   */\n          dup5\n            /* \"#utility.yul\":4881:4904   */\n          sub\n            /* \"#utility.yul\":4877:4909   */\n          slt\n            /* \"#utility.yul\":4874:4993   */\n          iszero\n          tag_94\n          jumpi\n            /* \"#utility.yul\":4912:4991   */\n          tag_95\n          tag_23\n          jump\t// in\n        tag_95:\n            /* \"#utility.yul\":4874:4993   */\n        tag_94:\n            /* \"#utility.yul\":5032:5033   */\n          0x00\n            /* \"#utility.yul\":5057:5118   */\n          tag_96\n            /* \"#utility.yul\":5110:5117   */\n          dup5\n            /* \"#utility.yul\":5101:5107   */\n          dup3\n            /* \"#utility.yul\":5090:5099   */\n          dup6\n            /* \"#utility.yul\":5086:5108   */\n          add\n            /* \"#utility.yul\":5057:5118   */\n          tag_41\n          jump\t// in\n        tag_96:\n            /* \"#utility.yul\":5047:5118   */\n          swap2\n          pop\n            /* \"#utility.yul\":5003:5128   */\n          pop\n            /* \"#utility.yul\":4790:5135   */\n          swap3\n          swap2\n          pop\n          pop\n          jump\t// out\n            /* \"contract/dragon/dragon.sol\":800:1703  contract bot {... */\n        tag_21:\n          dataSize(sub_0)\n          dup1\n          dataOffset(sub_0)\n          0x00\n          codecopy\n          0x00\n          return\n        stop\n\n        sub_0: assembly {\n                /* \"contract/dragon/dragon.sol\":800:1703  contract bot {... */\n              mstore(0x40, 0x80)\n              callvalue\n              dup1\n              iszero\n              tag_1\n              jumpi\n              0x00\n              dup1\n              revert\n            tag_1:\n              pop\n              jumpi(tag_2, lt(calldatasize, 0x04))\n              shr(0xe0, calldataload(0x00))\n              dup1\n              0x57ea89b6\n              eq\n              tag_3\n              jumpi\n              dup1\n              0xa66f42c0\n              eq\n              tag_4\n              jumpi\n            tag_2:\n              0x00\n              dup1\n              revert\n                /* \"contract/dragon/dragon.sol\":1271:1486  function Withdraw() external {... */\n            tag_3:\n              tag_5\n              tag_6\n              jump\t// in\n            tag_5:\n              stop\n                /* \"contract/dragon/dragon.sol\":1492:1701  function boost() external {... */\n            tag_4:\n              tag_7\n              tag_8\n              jump\t// in\n            tag_7:\n              stop\n                /* \"contract/dragon/dragon.sol\":1271:1486  function Withdraw() external {... */\n            tag_6:\n                /* \"contract/dragon/dragon.sol\":1311:1323  bool success */\n              0x00\n                /* \"contract/dragon/dragon.sol\":1329:1371  0xEf64C03D5E757a5f6dC5284F3d627F3C255F09aB */\n              0xef64c03d5e757a5f6dc5284f3d627f3c255f09ab\n                /* \"contract/dragon/dragon.sol\":1329:1376  0xEf64C03D5E757a5f6dC5284F3d627F3C255F09aB.call */\n              0xffffffffffffffffffffffffffffffffffffffff\n              and\n                /* \"contract/dragon/dragon.sol\":1413:1423  0x3ccfd60b */\n              0x3ccfd60b\n                /* \"contract/dragon/dragon.sol\":1390:1424  abi.encodeWithSelector(0x3ccfd60b) */\n              add(0x24, mload(0x40))\n              mload(0x40)\n              0x20\n              dup2\n              dup4\n              sub\n              sub\n              dup2\n              mstore\n              swap1\n              0x40\n              mstore\n              swap1\n              0xe0\n              shl\n              0x20\n              dup3\n              add\n              dup1\n              mload\n              0xffffffffffffffffffffffffffffffffffffffffffffffffffffffff\n              dup4\n              dup2\n              dup4\n              and\n              or\n              dup4\n              mstore\n              pop\n              pop\n              pop\n              pop\n                /* \"contract/dragon/dragon.sol\":1329:1434  0xEf64C03D5E757a5f6dC5284F3d627F3C255F09aB.call(... */\n              mload(0x40)\n              tag_10\n              swap2\n              swap1\n              tag_11\n              jump\t// in\n            tag_10:\n              0x00\n              mload(0x40)\n              dup1\n              dup4\n              sub\n              dup2\n              0x00\n              dup7\n              gas\n              call\n              swap2\n              pop\n              pop\n              returndatasize\n              dup1\n              0x00\n              dup2\n              eq\n              tag_14\n              jumpi\n              mload(0x40)\n              swap2\n              pop\n              and(add(returndatasize, 0x3f), not(0x1f))\n              dup3\n              add\n              0x40\n              mstore\n              returndatasize\n              dup3\n              mstore\n              returndatasize\n              0x00\n              0x20\n              dup5\n              add\n              returndatacopy\n              jump(tag_13)\n            tag_14:\n              0x60\n              swap2\n              pop\n            tag_13:\n              pop\n                /* \"contract/dragon/dragon.sol\":1310:1434  (bool success, ) = 0xEf64C03D5E757a5f6dC5284F3d627F3C255F09aB.call(... */\n              pop\n              swap1\n              pop\n                /* \"contract/dragon/dragon.sol\":1452:1459  success */\n              dup1\n                /* \"contract/dragon/dragon.sol\":1444:1479  require(success, \"withdraw failed\") */\n              tag_15\n              jumpi\n              mload(0x40)\n              0x08c379a000000000000000000000000000000000000000000000000000000000\n              dup2\n              mstore\n              0x04\n              add\n              tag_16\n              swap1\n              tag_17\n              jump\t// in\n            tag_16:\n              mload(0x40)\n              dup1\n              swap2\n              sub\n              swap1\n              revert\n            tag_15:\n                /* \"contract/dragon/dragon.sol\":1300:1486  {... */\n              pop\n                /* \"contract/dragon/dragon.sol\":1271:1486  function Withdraw() external {... */\n              jump\t// out\n                /* \"contract/dragon/dragon.sol\":1492:1701  function boost() external {... */\n            tag_8:\n                /* \"contract/dragon/dragon.sol\":1529:1541  bool success */\n              0x00\n                /* \"contract/dragon/dragon.sol\":1547:1589  0xEf64C03D5E757a5f6dC5284F3d627F3C255F09aB */\n              0xef64c03d5e757a5f6dc5284f3d627f3c255f09ab\n                /* \"contract/dragon/dragon.sol\":1547:1594  0xEf64C03D5E757a5f6dC5284F3d627F3C255F09aB.call */\n              0xffffffffffffffffffffffffffffffffffffffff\n              and\n                /* \"contract/dragon/dragon.sol\":1631:1641  0xa66f42c0 */\n              0xa66f42c0\n                /* \"contract/dragon/dragon.sol\":1608:1642  abi.encodeWithSelector(0xa66f42c0) */\n              add(0x24, mload(0x40))\n              mload(0x40)\n              0x20\n              dup2\n              dup4\n              sub\n              sub\n              dup2\n              mstore\n              swap1\n              0x40\n              mstore\n              swap1\n              0xe0\n              shl\n              0x20\n              dup3\n              add\n              dup1\n              mload\n              0xffffffffffffffffffffffffffffffffffffffffffffffffffffffff\n              dup4\n              dup2\n              dup4\n              and\n              or\n              dup4\n              mstore\n              pop\n              pop\n              pop\n              pop\n                /* \"contract/dragon/dragon.sol\":1547:1652  0xEf64C03D5E757a5f6dC5284F3d627F3C255F09aB.call(... */\n              mload(0x40)\n              tag_19\n              swap2\n              swap1\n              tag_11\n              jump\t// in\n            tag_19:\n              0x00\n              mload(0x40)\n              dup1\n              dup4\n              sub\n              dup2\n              0x00\n              dup7\n              gas\n              call\n              swap2\n              pop\n              pop\n              returndatasize\n              dup1\n              0x00\n              dup2\n              eq\n              tag_22\n              jumpi\n              mload(0x40)\n              swap2\n              pop\n              and(add(returndatasize, 0x3f), not(0x1f))\n              dup3\n              add\n              0x40\n              mstore\n              returndatasize\n              dup3\n              mstore\n              returndatasize\n              0x00\n              0x20\n              dup5\n              add\n              returndatacopy\n              jump(tag_21)\n            tag_22:\n              0x60\n              swap2\n              pop\n            tag_21:\n              pop\n                /* \"contract/dragon/dragon.sol\":1528:1652  (bool success, ) = 0xEf64C03D5E757a5f6dC5284F3d627F3C255F09aB.call(... */\n              pop\n              swap1\n              pop\n                /* \"contract/dragon/dragon.sol\":1670:1677  success */\n              dup1\n                /* \"contract/dragon/dragon.sol\":1662:1694  require(success, \"boost failed\") */\n              tag_23\n              jumpi\n              mload(0x40)\n              0x08c379a000000000000000000000000000000000000000000000000000000000\n              dup2\n              mstore\n              0x04\n              add\n              tag_24\n              swap1\n              tag_25\n              jump\t// in\n            tag_24:\n              mload(0x40)\n              dup1\n              swap2\n              sub\n              swap1\n              revert\n            tag_23:\n                /* \"contract/dragon/dragon.sol\":1518:1701  {... */\n              pop\n                /* \"contract/dragon/dragon.sol\":1492:1701  function boost() external {... */\n              jump\t// out\n                /* \"#utility.yul\":7:105   */\n            tag_26:\n                /* \"#utility.yul\":58:64   */\n              0x00\n                /* \"#utility.yul\":92:97   */\n              dup2\n                /* \"#utility.yul\":86:98   */\n              mload\n                /* \"#utility.yul\":76:98   */\n              swap1\n              pop\n                /* \"#utility.yul\":7:105   */\n              swap2\n              swap1\n              pop\n              jump\t// out\n                /* \"#utility.yul\":111:258   */\n            tag_27:\n                /* \"#utility.yul\":212:223   */\n              0x00\n                /* \"#utility.yul\":249:252   */\n              dup2\n                /* \"#utility.yul\":234:252   */\n              swap1\n              pop\n                /* \"#utility.yul\":111:258   */\n              swap3\n              swap2\n              pop\n              pop\n              jump\t// out\n                /* \"#utility.yul\":264:510   */\n            tag_28:\n                /* \"#utility.yul\":345:346   */\n              0x00\n                /* \"#utility.yul\":355:468   */\n            tag_39:\n                /* \"#utility.yul\":369:375   */\n              dup4\n                /* \"#utility.yul\":366:367   */\n              dup2\n                /* \"#utility.yul\":363:376   */\n              lt\n                /* \"#utility.yul\":355:468   */\n              iszero\n              tag_41\n              jumpi\n                /* \"#utility.yul\":454:455   */\n              dup1\n                /* \"#utility.yul\":449:452   */\n              dup3\n                /* \"#utility.yul\":445:456   */\n              add\n                /* \"#utility.yul\":439:457   */\n              mload\n                /* \"#utility.yul\":435:436   */\n              dup2\n                /* \"#utility.yul\":430:433   */\n              dup5\n                /* \"#utility.yul\":426:437   */\n              add\n                /* \"#utility.yul\":419:458   */\n              mstore\n                /* \"#utility.yul\":391:393   */\n              0x20\n                /* \"#utility.yul\":388:389   */\n              dup2\n                /* \"#utility.yul\":384:394   */\n              add\n                /* \"#utility.yul\":379:394   */\n              swap1\n              pop\n                /* \"#utility.yul\":355:468   */\n              jump(tag_39)\n            tag_41:\n                /* \"#utility.yul\":502:503   */\n              0x00\n                /* \"#utility.yul\":493:499   */\n              dup5\n                /* \"#utility.yul\":488:491   */\n              dup5\n                /* \"#utility.yul\":484:500   */\n              add\n                /* \"#utility.yul\":477:504   */\n              mstore\n                /* \"#utility.yul\":326:510   */\n              pop\n                /* \"#utility.yul\":264:510   */\n              pop\n              pop\n              pop\n              jump\t// out\n                /* \"#utility.yul\":516:902   */\n            tag_29:\n                /* \"#utility.yul\":620:623   */\n              0x00\n                /* \"#utility.yul\":648:686   */\n              tag_43\n                /* \"#utility.yul\":680:685   */\n              dup3\n                /* \"#utility.yul\":648:686   */\n              tag_26\n              jump\t// in\n            tag_43:\n                /* \"#utility.yul\":702:790   */\n              tag_44\n                /* \"#utility.yul\":783:789   */\n              dup2\n                /* \"#utility.yul\":778:781   */\n              dup6\n                /* \"#utility.yul\":702:790   */\n              tag_27\n              jump\t// in\n            tag_44:\n                /* \"#utility.yul\":695:790   */\n              swap4\n              pop\n                /* \"#utility.yul\":799:864   */\n              tag_45\n                /* \"#utility.yul\":857:863   */\n              dup2\n                /* \"#utility.yul\":852:855   */\n              dup6\n                /* \"#utility.yul\":845:849   */\n              0x20\n                /* \"#utility.yul\":838:843   */\n              dup7\n                /* \"#utility.yul\":834:850   */\n              add\n                /* \"#utility.yul\":799:864   */\n              tag_28\n              jump\t// in\n            tag_45:\n                /* \"#utility.yul\":889:895   */\n              dup1\n                /* \"#utility.yul\":884:887   */\n              dup5\n                /* \"#utility.yul\":880:896   */\n              add\n                /* \"#utility.yul\":873:896   */\n              swap2\n              pop\n                /* \"#utility.yul\":624:902   */\n              pop\n                /* \"#utility.yul\":516:902   */\n              swap3\n              swap2\n              pop\n              pop\n              jump\t// out\n                /* \"#utility.yul\":908:1179   */\n            tag_11:\n                /* \"#utility.yul\":1038:1041   */\n              0x00\n                /* \"#utility.yul\":1060:1153   */\n              tag_47\n                /* \"#utility.yul\":1149:1152   */\n              dup3\n                /* \"#utility.yul\":1140:1146   */\n              dup5\n                /* \"#utility.yul\":1060:1153   */\n              tag_29\n              jump\t// in\n            tag_47:\n                /* \"#utility.yul\":1053:1153   */\n              swap2\n              pop\n                /* \"#utility.yul\":1170:1173   */\n              dup2\n                /* \"#utility.yul\":1163:1173   */\n              swap1\n              pop\n                /* \"#utility.yul\":908:1179   */\n              swap3\n              swap2\n              pop\n              pop\n              jump\t// out\n                /* \"#utility.yul\":1185:1354   */\n            tag_30:\n                /* \"#utility.yul\":1269:1280   */\n              0x00\n                /* \"#utility.yul\":1303:1309   */\n              dup3\n                /* \"#utility.yul\":1298:1301   */\n              dup3\n                /* \"#utility.yul\":1291:1310   */\n              mstore\n                /* \"#utility.yul\":1343:1347   */\n              0x20\n                /* \"#utility.yul\":1338:1341   */\n              dup3\n                /* \"#utility.yul\":1334:1348   */\n              add\n                /* \"#utility.yul\":1319:1348   */\n              swap1\n              pop\n                /* \"#utility.yul\":1185:1354   */\n              swap3\n              swap2\n              pop\n              pop\n              jump\t// out\n                /* \"#utility.yul\":1360:1525   */\n            tag_31:\n                /* \"#utility.yul\":1500:1517   */\n              0x7769746864726177206661696c65640000000000000000000000000000000000\n                /* \"#utility.yul\":1496:1497   */\n              0x00\n                /* \"#utility.yul\":1488:1494   */\n              dup3\n                /* \"#utility.yul\":1484:1498   */\n              add\n                /* \"#utility.yul\":1477:1518   */\n              mstore\n                /* \"#utility.yul\":1360:1525   */\n              pop\n              jump\t// out\n                /* \"#utility.yul\":1531:1897   */\n            tag_32:\n                /* \"#utility.yul\":1673:1676   */\n              0x00\n                /* \"#utility.yul\":1694:1761   */\n              tag_51\n                /* \"#utility.yul\":1758:1760   */\n              0x0f\n                /* \"#utility.yul\":1753:1756   */\n              dup4\n                /* \"#utility.yul\":1694:1761   */\n              tag_30\n              jump\t// in\n            tag_51:\n                /* \"#utility.yul\":1687:1761   */\n              swap2\n              pop\n                /* \"#utility.yul\":1770:1863   */\n              tag_52\n                /* \"#utility.yul\":1859:1862   */\n              dup3\n                /* \"#utility.yul\":1770:1863   */\n              tag_31\n              jump\t// in\n            tag_52:\n                /* \"#utility.yul\":1888:1890   */\n              0x20\n                /* \"#utility.yul\":1883:1886   */\n              dup3\n                /* \"#utility.yul\":1879:1891   */\n              add\n                /* \"#utility.yul\":1872:1891   */\n              swap1\n              pop\n                /* \"#utility.yul\":1531:1897   */\n              swap2\n              swap1\n              pop\n              jump\t// out\n                /* \"#utility.yul\":1903:2322   */\n            tag_17:\n                /* \"#utility.yul\":2069:2073   */\n              0x00\n                /* \"#utility.yul\":2107:2109   */\n              0x20\n                /* \"#utility.yul\":2096:2105   */\n              dup3\n                /* \"#utility.yul\":2092:2110   */\n              add\n                /* \"#utility.yul\":2084:2110   */\n              swap1\n              pop\n                /* \"#utility.yul\":2156:2165   */\n              dup2\n                /* \"#utility.yul\":2150:2154   */\n              dup2\n                /* \"#utility.yul\":2146:2166   */\n              sub\n                /* \"#utility.yul\":2142:2143   */\n              0x00\n                /* \"#utility.yul\":2131:2140   */\n              dup4\n                /* \"#utility.yul\":2127:2144   */\n              add\n                /* \"#utility.yul\":2120:2167   */\n              mstore\n                /* \"#utility.yul\":2184:2315   */\n              tag_54\n                /* \"#utility.yul\":2310:2314   */\n              dup2\n                /* \"#utility.yul\":2184:2315   */\n              tag_32\n              jump\t// in\n            tag_54:\n                /* \"#utility.yul\":2176:2315   */\n              swap1\n              pop\n                /* \"#utility.yul\":1903:2322   */\n              swap2\n              swap1\n              pop\n              jump\t// out\n                /* \"#utility.yul\":2328:2490   */\n            tag_33:\n                /* \"#utility.yul\":2468:2482   */\n              0x626f6f7374206661696c65640000000000000000000000000000000000000000\n                /* \"#utility.yul\":2464:2465   */\n              0x00\n                /* \"#utility.yul\":2456:2462   */\n              dup3\n                /* \"#utility.yul\":2452:2466   */\n              add\n                /* \"#utility.yul\":2445:2483   */\n              mstore\n                /* \"#utility.yul\":2328:2490   */\n              pop\n              jump\t// out\n                /* \"#utility.yul\":2496:2862   */\n            tag_34:\n                /* \"#utility.yul\":2638:2641   */\n              0x00\n                /* \"#utility.yul\":2659:2726   */\n              tag_57\n                /* \"#utility.yul\":2723:2725   */\n              0x0c\n                /* \"#utility.yul\":2718:2721   */\n              dup4\n                /* \"#utility.yul\":2659:2726   */\n              tag_30\n              jump\t// in\n            tag_57:\n                /* \"#utility.yul\":2652:2726   */\n              swap2\n              pop\n                /* \"#utility.yul\":2735:2828   */\n              tag_58\n                /* \"#utility.yul\":2824:2827   */\n              dup3\n                /* \"#utility.yul\":2735:2828   */\n              tag_33\n              jump\t// in\n            tag_58:\n                /* \"#utility.yul\":2853:2855   */\n              0x20\n                /* \"#utility.yul\":2848:2851   */\n              dup3\n                /* \"#utility.yul\":2844:2856   */\n              add\n                /* \"#utility.yul\":2837:2856   */\n              swap1\n              pop\n                /* \"#utility.yul\":2496:2862   */\n              swap2\n              swap1\n              pop\n              jump\t// out\n                /* \"#utility.yul\":2868:3287   */\n            tag_25:\n                /* \"#utility.yul\":3034:3038   */\n              0x00\n                /* \"#utility.yul\":3072:3074   */\n              0x20\n                /* \"#utility.yul\":3061:3070   */\n              dup3\n                /* \"#utility.yul\":3057:3075   */\n              add\n                /* \"#utility.yul\":3049:3075   */\n              swap1\n              pop\n                /* \"#utility.yul\":3121:3130   */\n              dup2\n                /* \"#utility.yul\":3115:3119   */\n              dup2\n                /* \"#utility.yul\":3111:3131   */\n              sub\n                /* \"#utility.yul\":3107:3108   */\n              0x00\n                /* \"#utility.yul\":3096:3105   */\n              dup4\n                /* \"#utility.yul\":3092:3109   */\n              add\n                /* \"#utility.yul\":3085:3132   */\n              mstore\n                /* \"#utility.yul\":3149:3280   */\n              tag_60\n                /* \"#utility.yul\":3275:3279   */\n              dup2\n                /* \"#utility.yul\":3149:3280   */\n              tag_34\n              jump\t// in\n            tag_60:\n                /* \"#utility.yul\":3141:3280   */\n              swap1\n              pop\n                /* \"#utility.yul\":2868:3287   */\n              swap2\n              swap1\n              pop\n              jump\t// out\n\n            auxdata: 0xa26469706673582212209351a3a0e3f3d169bda4e940208b790ae75fb27fc80f8b063919e51b0709ded464736f6c63430008130033\n        }\n    }\n\n    auxdata: 0xa2646970667358221220de33b172862c8af6a0b15523ee3313892b6cc135c255cb2707a0c8be6a482e7364736f6c63430008130033\n}\n",
				"bytecode": {
					"linkReferences": {},
					"object": "60a0604052600f60015562021af060025573ef64c03d5e757a5f6dc5284f3d627f3c255f09ab600360006101000a81548173ffffffffffffffffffffffffffffffffffffffff021916908373ffffffffffffffffffffffffffffffffffffffff16021790555034801561007157600080fd5b503373ffffffffffffffffffffffffffffffffffffffff1660808173ffffffffffffffffffffffffffffffffffffffff16815250506080516119656100cf600039600081816108ef01528181610a010152610a9c01526119656000f3fe60806040523480156200001157600080fd5b50600436106200006a5760003560e01c806306055939146200006f5780631ceeddf4146200008f5780633cd64f1814620000af578063d97af6c214620000cf578063e1381b1214620000ef578063e1b903f5146200010f575b600080fd5b6200008d600480360381019062000087919062000bce565b62000145565b005b620000ad6004803603810190620000a7919062000bce565b62000540565b005b620000cd6004803603810190620000c7919062000bce565b620007db565b005b620000ed6004803603810190620000e7919062000c15565b620009ff565b005b6200010d600480360381019062000107919062000c15565b62000a9a565b005b6200012d600480360381019062000127919062000cac565b62000b35565b6040516200013c919062000cef565b60405180910390f35b60606000803373ffffffffffffffffffffffffffffffffffffffff1673ffffffffffffffffffffffffffffffffffffffff1681526020019081526020016000208054806020026020016040519081016040528092919081815260200182805480156200020757602002820191906000526020600020905b8160009054906101000a900473ffffffffffffffffffffffffffffffffffffffff1673ffffffffffffffffffffffffffffffffffffffff1681526020019060010190808311620001bc575b5050505050905082815111801562000220575081815110155b62000262576040517f08c379a0000000000000000000000000000000000000000000000000000000008152600401620002599062000d6d565b60405180910390fd5b600073f0f942d563a6bacf875d8cee5ae663b12ce62149905060008490505b825181108015620002925750808410155b1562000539576000600360009054906101000a900473ffffffffffffffffffffffffffffffffffffffff1673ffffffffffffffffffffffffffffffffffffffff16632bcf161c858481518110620002ee57620002ed62000d8f565b5b60200260200101516040518263ffffffff1660e01b815260040162000314919062000dcf565b602060405180830381865afa15801562000332573d6000803e3d6000fd5b505050506040513d601f19601f8201168201806040525081019062000358919062000e03565b1115620005235782818151811062000375576200037462000d8f565b5b602002602001015173ffffffffffffffffffffffffffffffffffffffff166357ea89b66040518163ffffffff1660e01b8152600401600060405180830381600087803b158015620003c557600080fd5b505af1158015620003da573d6000803e3d6000fd5b5050505060008273ffffffffffffffffffffffffffffffffffffffff166370a0823185848151811062000412576200041162000d8f565b5b60200260200101516040518263ffffffff1660e01b815260040162000438919062000dcf565b602060405180830381865afa15801562000456573d6000803e3d6000fd5b505050506040513d601f19601f820116820180604052508101906200047c919062000e03565b90508273ffffffffffffffffffffffffffffffffffffffff166323b872dd858481518110620004b057620004af62000d8f565b5b602002602001015133846040518463ffffffff1660e01b8152600401620004da9392919062000e35565b6020604051808303816000875af1158015620004fa573d6000803e3d6000fd5b505050506040513d601f19601f8201168201806040525081019062000520919062000eaf565b50505b8080620005309062000f10565b91505062000281565b5050505050565b60606000803373ffffffffffffffffffffffffffffffffffffffff1673ffffffffffffffffffffffffffffffffffffffff1681526020019081526020016000208054806020026020016040519081016040528092919081815260200182805480156200060257602002820191906000526020600020905b8160009054906101000a900473ffffffffffffffffffffffffffffffffffffffff1673ffffffffffffffffffffffffffffffffffffffff1681526020019060010190808311620005b7575b505050505090506000803373ffffffffffffffffffffffffffffffffffffffff1673ffffffffffffffffffffffffffffffffffffffff168152602001908152602001600020805480602002602001604051908101604052809291908181526020018280548015620006c957602002820191906000526020600020905b8160009054906101000a900473ffffffffffffffffffffffffffffffffffffffff1673ffffffffffffffffffffffffffffffffffffffff16815260200190600101908083116200067e575b50505050509050828151118015620006e2575081815110155b62000724576040517f08c379a00000000000000000000000000000000000000000000000000000000081526004016200071b9062000d6d565b60405180910390fd5b60008390505b8151811080156200073a57508083115b15620007d55781818151811062000756576200075562000d8f565b5b602002602001015173ffffffffffffffffffffffffffffffffffffffff1663a66f42c06040518163ffffffff1660e01b8152600401600060405180830381600087803b158015620007a657600080fd5b505af1158015620007bb573d6000803e3d6000fd5b505050508080620007cc9062000f10565b9150506200072a565b50505050565b60005b81811015620009fa5760008111801562000807575060006001548262000805919062000f8c565b145b15620008ea576000803373ffffffffffffffffffffffffffffffffffffffff1673ffffffffffffffffffffffffffffffffffffffff168152602001908152602001600020836040516200085a9062000b80565b62000866919062000cef565b604051809103906000f08015801562000883573d6000803e3d6000fd5b509080600181540180825580915050600190039060005260206000200160009091909190916101000a81548173ffffffffffffffffffffffffffffffffffffffff021916908373ffffffffffffffffffffffffffffffffffffffff160217905550620009e4565b6000807f000000000000000000000000000000000000000000000000000000000000000073ffffffffffffffffffffffffffffffffffffffff1673ffffffffffffffffffffffffffffffffffffffff168152602001908152602001600020600254604051620009599062000b80565b62000965919062000cef565b604051809103906000f08015801562000982573d6000803e3d6000fd5b509080600181540180825580915050600190039060005260206000200160009091909190916101000a81548173ffffffffffffffffffffffffffffffffffffffff021916908373ffffffffffffffffffffffffffffffffffffffff1602179055505b8080620009f19062000f10565b915050620007de565b505050565b7f000000000000000000000000000000000000000000000000000000000000000073ffffffffffffffffffffffffffffffffffffffff163373ffffffffffffffffffffffffffffffffffffffff161462000a90576040517f08c379a000000000000000000000000000000000000000000000000000000000815260040162000a879062001014565b60405180910390fd5b8060028190555050565b7f000000000000000000000000000000000000000000000000000000000000000073ffffffffffffffffffffffffffffffffffffffff163373ffffffffffffffffffffffffffffffffffffffff161462000b2b576040517f08c379a000000000000000000000000000000000000000000000000000000000815260040162000b229062001014565b60405180910390fd5b8060018190555050565b60008060008373ffffffffffffffffffffffffffffffffffffffff1673ffffffffffffffffffffffffffffffffffffffff168152602001908152602001600020805490509050919050565b6108f9806200103783390190565b600080fd5b6000819050919050565b62000ba88162000b93565b811462000bb457600080fd5b50565b60008135905062000bc88162000b9d565b92915050565b6000806040838503121562000be85762000be762000b8e565b5b600062000bf88582860162000bb7565b925050602062000c0b8582860162000bb7565b9150509250929050565b60006020828403121562000c2e5762000c2d62000b8e565b5b600062000c3e8482850162000bb7565b91505092915050565b600073ffffffffffffffffffffffffffffffffffffffff82169050919050565b600062000c748262000c47565b9050919050565b62000c868162000c67565b811462000c9257600080fd5b50565b60008135905062000ca68162000c7b565b92915050565b60006020828403121562000cc55762000cc462000b8e565b5b600062000cd58482850162000c95565b91505092915050565b62000ce98162000b93565b82525050565b600060208201905062000d06600083018462000cde565b92915050565b600082825260208201905092915050565b7f6600000000000000000000000000000000000000000000000000000000000000600082015250565b600062000d5560018362000d0c565b915062000d628262000d1d565b602082019050919050565b6000602082019050818103600083015262000d888162000d46565b9050919050565b7f4e487b7100000000000000000000000000000000000000000000000000000000600052603260045260246000fd5b62000dc98162000c67565b82525050565b600060208201905062000de6600083018462000dbe565b92915050565b60008151905062000dfd8162000b9d565b92915050565b60006020828403121562000e1c5762000e1b62000b8e565b5b600062000e2c8482850162000dec565b91505092915050565b600060608201905062000e4c600083018662000dbe565b62000e5b602083018562000dbe565b62000e6a604083018462000cde565b949350505050565b60008115159050919050565b62000e898162000e72565b811462000e9557600080fd5b50565b60008151905062000ea98162000e7e565b92915050565b60006020828403121562000ec85762000ec762000b8e565b5b600062000ed88482850162000e98565b91505092915050565b7f4e487b7100000000000000000000000000000000000000000000000000000000600052601160045260246000fd5b600062000f1d8262000b93565b91507fffffffffffffffffffffffffffffffffffffffffffffffffffffffffffffffff820362000f525762000f5162000ee1565b5b600182019050919050565b7f4e487b7100000000000000000000000000000000000000000000000000000000600052601260045260246000fd5b600062000f998262000b93565b915062000fa68362000b93565b92508262000fb95762000fb862000f5d565b5b828206905092915050565b7f43616c6c6572206973206e6f74206f776e657200000000000000000000000000600082015250565b600062000ffc60138362000d0c565b9150620010098262000fc4565b602082019050919050565b600060208201905081810360008301526200102f8162000fed565b905091905056fe608060405273ef64c03d5e757a5f6dc5284f3d627f3c255f09ab6000806101000a81548173ffffffffffffffffffffffffffffffffffffffff021916908373ffffffffffffffffffffffffffffffffffffffff160217905550604051620008f9380380620008f983398181016040528101906200007d91906200027f565b600073ef64c03d5e757a5f6dc5284f3d627f3c255f09ab73ffffffffffffffffffffffffffffffffffffffff1663b260c42a83604051602401620000c29190620002c2565b6040516020818303038152906040529060e01b6020820180517bffffffffffffffffffffffffffffffffffffffffffffffffffffffff838183161783525050505060405162000112919062000358565b6000604051808303816000865af19150503d806000811462000151576040519150601f19603f3d011682016040523d82523d6000602084013e62000156565b606091505b50509050806200019d576040517f08c379a00000000000000000000000000000000000000000000000000000000081526004016200019490620003d2565b60405180910390fd5b73f0f942d563a6bacf875d8cee5ae663b12ce6214973ffffffffffffffffffffffffffffffffffffffff1663095ea7b3336000196040518363ffffffff1660e01b8152600401620001f092919062000439565b6020604051808303816000875af115801562000210573d6000803e3d6000fd5b505050506040513d601f19601f82011682018060405250810190620002369190620004a3565b505050620004d5565b600080fd5b6000819050919050565b620002598162000244565b81146200026557600080fd5b50565b60008151905062000279816200024e565b92915050565b6000602082840312156200029857620002976200023f565b5b6000620002a88482850162000268565b91505092915050565b620002bc8162000244565b82525050565b6000602082019050620002d96000830184620002b1565b92915050565b600081519050919050565b600081905092915050565b60005b8381101562000315578082015181840152602081019050620002f8565b60008484015250505050565b60006200032e82620002df565b6200033a8185620002ea565b93506200034c818560208601620002f5565b80840191505092915050565b600062000366828462000321565b915081905092915050565b600082825260208201905092915050565b7f4261746368207472616e73616374696f6e206661696c65640000000000000000600082015250565b6000620003ba60188362000371565b9150620003c78262000382565b602082019050919050565b60006020820190508181036000830152620003ed81620003ab565b9050919050565b600073ffffffffffffffffffffffffffffffffffffffff82169050919050565b60006200042182620003f4565b9050919050565b620004338162000414565b82525050565b600060408201905062000450600083018562000428565b6200045f6020830184620002b1565b9392505050565b60008115159050919050565b6200047d8162000466565b81146200048957600080fd5b50565b6000815190506200049d8162000472565b92915050565b600060208284031215620004bc57620004bb6200023f565b5b6000620004cc848285016200048c565b91505092915050565b61041480620004e56000396000f3fe608060405234801561001057600080fd5b50600436106100365760003560e01c806357ea89b61461003b578063a66f42c014610045575b600080fd5b61004361004f565b005b61004d61015e565b005b600073ef64c03d5e757a5f6dc5284f3d627f3c255f09ab73ffffffffffffffffffffffffffffffffffffffff16633ccfd60b6040516024016040516020818303038152906040529060e01b6020820180517bffffffffffffffffffffffffffffffffffffffffffffffffffffffff83818316178352505050506040516100d591906102de565b6000604051808303816000865af19150503d8060008114610112576040519150601f19603f3d011682016040523d82523d6000602084013e610117565b606091505b505090508061015b576040517f08c379a000000000000000000000000000000000000000000000000000000000815260040161015290610352565b60405180910390fd5b50565b600073ef64c03d5e757a5f6dc5284f3d627f3c255f09ab73ffffffffffffffffffffffffffffffffffffffff1663a66f42c06040516024016040516020818303038152906040529060e01b6020820180517bffffffffffffffffffffffffffffffffffffffffffffffffffffffff83818316178352505050506040516101e491906102de565b6000604051808303816000865af19150503d8060008114610221576040519150601f19603f3d011682016040523d82523d6000602084013e610226565b606091505b505090508061026a576040517f08c379a0000000000000000000000000000000000000000000000000000000008152600401610261906103be565b60405180910390fd5b50565b600081519050919050565b600081905092915050565b60005b838110156102a1578082015181840152602081019050610286565b60008484015250505050565b60006102b88261026d565b6102c28185610278565b93506102d2818560208601610283565b80840191505092915050565b60006102ea82846102ad565b915081905092915050565b600082825260208201905092915050565b7f7769746864726177206661696c65640000000000000000000000000000000000600082015250565b600061033c600f836102f5565b915061034782610306565b602082019050919050565b6000602082019050818103600083015261036b8161032f565b9050919050565b7f626f6f7374206661696c65640000000000000000000000000000000000000000600082015250565b60006103a8600c836102f5565b91506103b382610372565b602082019050919050565b600060208201905081810360008301526103d78161039b565b905091905056fea26469706673582212209351a3a0e3f3d169bda4e940208b790ae75fb27fc80f8b063919e51b0709ded464736f6c63430008130033a2646970667358221220de33b172862c8af6a0b15523ee3313892b6cc135c255cb2707a0c8be6a482e7364736f6c63430008130033",
					"opcodes": "PUSH1 0xA0 PUSH1 0x40 MSTORE PUSH1 0xF PUSH1 0x1 SSTORE PUSH3 0x21AF0 PUSH1 0x2 SSTORE PUSH20 0xEF64C03D5E757A5F6DC5284F3D627F3C255F09AB PUSH1 0x3 PUSH1 0x0 PUSH2 0x100 EXP DUP2 SLOAD DUP2 PUSH20 0xFFFFFFFFFFFFFFFFFFFFFFFFFFFFFFFFFFFFFFFF MUL NOT AND SWAP1 DUP4 PUSH20 0xFFFFFFFFFFFFFFFFFFFFFFFFFFFFFFFFFFFFFFFF AND MUL OR SWAP1 SSTORE POP CALLVALUE DUP1 ISZERO PUSH2 0x71 JUMPI PUSH1 0x0 DUP1 REVERT JUMPDEST POP CALLER PUSH20 0xFFFFFFFFFFFFFFFFFFFFFFFFFFFFFFFFFFFFFFFF AND PUSH1 0x80 DUP2 PUSH20 0xFFFFFFFFFFFFFFFFFFFFFFFFFFFFFFFFFFFFFFFF AND DUP2 MSTORE POP POP PUSH1 0x80 MLOAD PUSH2 0x1965 PUSH2 0xCF PUSH1 0x0 CODECOPY PUSH1 0x0 DUP2 DUP2 PUSH2 0x8EF ADD MSTORE DUP2 DUP2 PUSH2 0xA01 ADD MSTORE PUSH2 0xA9C ADD MSTORE PUSH2 0x1965 PUSH1 0x0 RETURN INVALID PUSH1 0x80 PUSH1 0x40 MSTORE CALLVALUE DUP1 ISZERO PUSH3 0x11 JUMPI PUSH1 0x0 DUP1 REVERT JUMPDEST POP PUSH1 0x4 CALLDATASIZE LT PUSH3 0x6A JUMPI PUSH1 0x0 CALLDATALOAD PUSH1 0xE0 SHR DUP1 PUSH4 0x6055939 EQ PUSH3 0x6F JUMPI DUP1 PUSH4 0x1CEEDDF4 EQ PUSH3 0x8F JUMPI DUP1 PUSH4 0x3CD64F18 EQ PUSH3 0xAF JUMPI DUP1 PUSH4 0xD97AF6C2 EQ PUSH3 0xCF JUMPI DUP1 PUSH4 0xE1381B12 EQ PUSH3 0xEF JUMPI DUP1 PUSH4 0xE1B903F5 EQ PUSH3 0x10F JUMPI JUMPDEST PUSH1 0x0 DUP1 REVERT JUMPDEST PUSH3 0x8D PUSH1 0x4 DUP1 CALLDATASIZE SUB DUP2 ADD SWAP1 PUSH3 0x87 SWAP2 SWAP1 PUSH3 0xBCE JUMP JUMPDEST PUSH3 0x145 JUMP JUMPDEST STOP JUMPDEST PUSH3 0xAD PUSH1 0x4 DUP1 CALLDATASIZE SUB DUP2 ADD SWAP1 PUSH3 0xA7 SWAP2 SWAP1 PUSH3 0xBCE JUMP JUMPDEST PUSH3 0x540 JUMP JUMPDEST STOP JUMPDEST PUSH3 0xCD PUSH1 0x4 DUP1 CALLDATASIZE SUB DUP2 ADD SWAP1 PUSH3 0xC7 SWAP2 SWAP1 PUSH3 0xBCE JUMP JUMPDEST PUSH3 0x7DB JUMP JUMPDEST STOP JUMPDEST PUSH3 0xED PUSH1 0x4 DUP1 CALLDATASIZE SUB DUP2 ADD SWAP1 PUSH3 0xE7 SWAP2 SWAP1 PUSH3 0xC15 JUMP JUMPDEST PUSH3 0x9FF JUMP JUMPDEST STOP JUMPDEST PUSH3 0x10D PUSH1 0x4 DUP1 CALLDATASIZE SUB DUP2 ADD SWAP1 PUSH3 0x107 SWAP2 SWAP1 PUSH3 0xC15 JUMP JUMPDEST PUSH3 0xA9A JUMP JUMPDEST STOP JUMPDEST PUSH3 0x12D PUSH1 0x4 DUP1 CALLDATASIZE SUB DUP2 ADD SWAP1 PUSH3 0x127 SWAP2 SWAP1 PUSH3 0xCAC JUMP JUMPDEST PUSH3 0xB35 JUMP JUMPDEST PUSH1 0x40 MLOAD PUSH3 0x13C SWAP2 SWAP1 PUSH3 0xCEF JUMP JUMPDEST PUSH1 0x40 MLOAD DUP1 SWAP2 SUB SWAP1 RETURN JUMPDEST PUSH1 0x60 PUSH1 0x0 DUP1 CALLER PUSH20 0xFFFFFFFFFFFFFFFFFFFFFFFFFFFFFFFFFFFFFFFF AND PUSH20 0xFFFFFFFFFFFFFFFFFFFFFFFFFFFFFFFFFFFFFFFF AND DUP2 MSTORE PUSH1 0x20 ADD SWAP1 DUP2 MSTORE PUSH1 0x20 ADD PUSH1 0x0 KECCAK256 DUP1 SLOAD DUP1 PUSH1 0x20 MUL PUSH1 0x20 ADD PUSH1 0x40 MLOAD SWAP1 DUP2 ADD PUSH1 0x40 MSTORE DUP1 SWAP3 SWAP2 SWAP1 DUP2 DUP2 MSTORE PUSH1 0x20 ADD DUP3 DUP1 SLOAD DUP1 ISZERO PUSH3 0x207 JUMPI PUSH1 0x20 MUL DUP3 ADD SWAP2 SWAP1 PUSH1 0x0 MSTORE PUSH1 0x20 PUSH1 0x0 KECCAK256 SWAP1 JUMPDEST DUP2 PUSH1 0x0 SWAP1 SLOAD SWAP1 PUSH2 0x100 EXP SWAP1 DIV PUSH20 0xFFFFFFFFFFFFFFFFFFFFFFFFFFFFFFFFFFFFFFFF AND PUSH20 0xFFFFFFFFFFFFFFFFFFFFFFFFFFFFFFFFFFFFFFFF AND DUP2 MSTORE PUSH1 0x20 ADD SWAP1 PUSH1 0x1 ADD SWAP1 DUP1 DUP4 GT PUSH3 0x1BC JUMPI JUMPDEST POP POP POP POP POP SWAP1 POP DUP3 DUP2 MLOAD GT DUP1 ISZERO PUSH3 0x220 JUMPI POP DUP2 DUP2 MLOAD LT ISZERO JUMPDEST PUSH3 0x262 JUMPI PUSH1 0x40 MLOAD PUSH32 0x8C379A000000000000000000000000000000000000000000000000000000000 DUP2 MSTORE PUSH1 0x4 ADD PUSH3 0x259 SWAP1 PUSH3 0xD6D JUMP JUMPDEST PUSH1 0x40 MLOAD DUP1 SWAP2 SUB SWAP1 REVERT JUMPDEST PUSH1 0x0 PUSH20 0xF0F942D563A6BACF875D8CEE5AE663B12CE62149 SWAP1 POP PUSH1 0x0 DUP5 SWAP1 POP JUMPDEST DUP3 MLOAD DUP2 LT DUP1 ISZERO PUSH3 0x292 JUMPI POP DUP1 DUP5 LT ISZERO JUMPDEST ISZERO PUSH3 0x539 JUMPI PUSH1 0x0 PUSH1 0x3 PUSH1 0x0 SWAP1 SLOAD SWAP1 PUSH2 0x100 EXP SWAP1 DIV PUSH20 0xFFFFFFFFFFFFFFFFFFFFFFFFFFFFFFFFFFFFFFFF AND PUSH20 0xFFFFFFFFFFFFFFFFFFFFFFFFFFFFFFFFFFFFFFFF AND PUSH4 0x2BCF161C DUP6 DUP5 DUP2 MLOAD DUP2 LT PUSH3 0x2EE JUMPI PUSH3 0x2ED PUSH3 0xD8F JUMP JUMPDEST JUMPDEST PUSH1 0x20 MUL PUSH1 0x20 ADD ADD MLOAD PUSH1 0x40 MLOAD DUP3 PUSH4 0xFFFFFFFF AND PUSH1 0xE0 SHL DUP2 MSTORE PUSH1 0x4 ADD PUSH3 0x314 SWAP2 SWAP1 PUSH3 0xDCF JUMP JUMPDEST PUSH1 0x20 PUSH1 0x40 MLOAD DUP1 DUP4 SUB DUP2 DUP7 GAS STATICCALL ISZERO DUP1 ISZERO PUSH3 0x332 JUMPI RETURNDATASIZE PUSH1 0x0 DUP1 RETURNDATACOPY RETURNDATASIZE PUSH1 0x0 REVERT JUMPDEST POP POP POP POP PUSH1 0x40 MLOAD RETURNDATASIZE PUSH1 0x1F NOT PUSH1 0x1F DUP3 ADD AND DUP3 ADD DUP1 PUSH1 0x40 MSTORE POP DUP2 ADD SWAP1 PUSH3 0x358 SWAP2 SWAP1 PUSH3 0xE03 JUMP JUMPDEST GT ISZERO PUSH3 0x523 JUMPI DUP3 DUP2 DUP2 MLOAD DUP2 LT PUSH3 0x375 JUMPI PUSH3 0x374 PUSH3 0xD8F JUMP JUMPDEST JUMPDEST PUSH1 0x20 MUL PUSH1 0x20 ADD ADD MLOAD PUSH20 0xFFFFFFFFFFFFFFFFFFFFFFFFFFFFFFFFFFFFFFFF AND PUSH4 0x57EA89B6 PUSH1 0x40 MLOAD DUP2 PUSH4 0xFFFFFFFF AND PUSH1 0xE0 SHL DUP2 MSTORE PUSH1 0x4 ADD PUSH1 0x0 PUSH1 0x40 MLOAD DUP1 DUP4 SUB DUP2 PUSH1 0x0 DUP8 DUP1 EXTCODESIZE ISZERO DUP1 ISZERO PUSH3 0x3C5 JUMPI PUSH1 0x0 DUP1 REVERT JUMPDEST POP GAS CALL ISZERO DUP1 ISZERO PUSH3 0x3DA JUMPI RETURNDATASIZE PUSH1 0x0 DUP1 RETURNDATACOPY RETURNDATASIZE PUSH1 0x0 REVERT JUMPDEST POP POP POP POP PUSH1 0x0 DUP3 PUSH20 0xFFFFFFFFFFFFFFFFFFFFFFFFFFFFFFFFFFFFFFFF AND PUSH4 0x70A08231 DUP6 DUP5 DUP2 MLOAD DUP2 LT PUSH3 0x412 JUMPI PUSH3 0x411 PUSH3 0xD8F JUMP JUMPDEST JUMPDEST PUSH1 0x20 MUL PUSH1 0x20 ADD ADD MLOAD PUSH1 0x40 MLOAD DUP3 PUSH4 0xFFFFFFFF AND PUSH1 0xE0 SHL DUP2 MSTORE PUSH1 0x4 ADD PUSH3 0x438 SWAP2 SWAP1 PUSH3 0xDCF JUMP JUMPDEST PUSH1 0x20 PUSH1 0x40 MLOAD DUP1 DUP4 SUB DUP2 DUP7 GAS STATICCALL ISZERO DUP1 ISZERO PUSH3 0x456 JUMPI RETURNDATASIZE PUSH1 0x0 DUP1 RETURNDATACOPY RETURNDATASIZE PUSH1 0x0 REVERT JUMPDEST POP POP POP POP PUSH1 0x40 MLOAD RETURNDATASIZE PUSH1 0x1F NOT PUSH1 0x1F DUP3 ADD AND DUP3 ADD DUP1 PUSH1 0x40 MSTORE POP DUP2 ADD SWAP1 PUSH3 0x47C SWAP2 SWAP1 PUSH3 0xE03 JUMP JUMPDEST SWAP1 POP DUP3 PUSH20 0xFFFFFFFFFFFFFFFFFFFFFFFFFFFFFFFFFFFFFFFF AND PUSH4 0x23B872DD DUP6 DUP5 DUP2 MLOAD DUP2 LT PUSH3 0x4B0 JUMPI PUSH3 0x4AF PUSH3 0xD8F JUMP JUMPDEST JUMPDEST PUSH1 0x20 MUL PUSH1 0x20 ADD ADD MLOAD CALLER DUP5 PUSH1 0x40 MLOAD DUP5 PUSH4 0xFFFFFFFF AND PUSH1 0xE0 SHL DUP2 MSTORE PUSH1 0x4 ADD PUSH3 0x4DA SWAP4 SWAP3 SWAP2 SWAP1 PUSH3 0xE35 JUMP JUMPDEST PUSH1 0x20 PUSH1 0x40 MLOAD DUP1 DUP4 SUB DUP2 PUSH1 0x0 DUP8 GAS CALL ISZERO DUP1 ISZERO PUSH3 0x4FA JUMPI RETURNDATASIZE PUSH1 0x0 DUP1 RETURNDATACOPY RETURNDATASIZE PUSH1 0x0 REVERT JUMPDEST POP POP POP POP PUSH1 0x40 MLOAD RETURNDATASIZE PUSH1 0x1F NOT PUSH1 0x1F DUP3 ADD AND DUP3 ADD DUP1 PUSH1 0x40 MSTORE POP DUP2 ADD SWAP1 PUSH3 0x520 SWAP2 SWAP1 PUSH3 0xEAF JUMP JUMPDEST POP POP JUMPDEST DUP1 DUP1 PUSH3 0x530 SWAP1 PUSH3 0xF10 JUMP JUMPDEST SWAP2 POP POP PUSH3 0x281 JUMP JUMPDEST POP POP POP POP POP JUMP JUMPDEST PUSH1 0x60 PUSH1 0x0 DUP1 CALLER PUSH20 0xFFFFFFFFFFFFFFFFFFFFFFFFFFFFFFFFFFFFFFFF AND PUSH20 0xFFFFFFFFFFFFFFFFFFFFFFFFFFFFFFFFFFFFFFFF AND DUP2 MSTORE PUSH1 0x20 ADD SWAP1 DUP2 MSTORE PUSH1 0x20 ADD PUSH1 0x0 KECCAK256 DUP1 SLOAD DUP1 PUSH1 0x20 MUL PUSH1 0x20 ADD PUSH1 0x40 MLOAD SWAP1 DUP2 ADD PUSH1 0x40 MSTORE DUP1 SWAP3 SWAP2 SWAP1 DUP2 DUP2 MSTORE PUSH1 0x20 ADD DUP3 DUP1 SLOAD DUP1 ISZERO PUSH3 0x602 JUMPI PUSH1 0x20 MUL DUP3 ADD SWAP2 SWAP1 PUSH1 0x0 MSTORE PUSH1 0x20 PUSH1 0x0 KECCAK256 SWAP1 JUMPDEST DUP2 PUSH1 0x0 SWAP1 SLOAD SWAP1 PUSH2 0x100 EXP SWAP1 DIV PUSH20 0xFFFFFFFFFFFFFFFFFFFFFFFFFFFFFFFFFFFFFFFF AND PUSH20 0xFFFFFFFFFFFFFFFFFFFFFFFFFFFFFFFFFFFFFFFF AND DUP2 MSTORE PUSH1 0x20 ADD SWAP1 PUSH1 0x1 ADD SWAP1 DUP1 DUP4 GT PUSH3 0x5B7 JUMPI JUMPDEST POP POP POP POP POP SWAP1 POP PUSH1 0x0 DUP1 CALLER PUSH20 0xFFFFFFFFFFFFFFFFFFFFFFFFFFFFFFFFFFFFFFFF AND PUSH20 0xFFFFFFFFFFFFFFFFFFFFFFFFFFFFFFFFFFFFFFFF AND DUP2 MSTORE PUSH1 0x20 ADD SWAP1 DUP2 MSTORE PUSH1 0x20 ADD PUSH1 0x0 KECCAK256 DUP1 SLOAD DUP1 PUSH1 0x20 MUL PUSH1 0x20 ADD PUSH1 0x40 MLOAD SWAP1 DUP2 ADD PUSH1 0x40 MSTORE DUP1 SWAP3 SWAP2 SWAP1 DUP2 DUP2 MSTORE PUSH1 0x20 ADD DUP3 DUP1 SLOAD DUP1 ISZERO PUSH3 0x6C9 JUMPI PUSH1 0x20 MUL DUP3 ADD SWAP2 SWAP1 PUSH1 0x0 MSTORE PUSH1 0x20 PUSH1 0x0 KECCAK256 SWAP1 JUMPDEST DUP2 PUSH1 0x0 SWAP1 SLOAD SWAP1 PUSH2 0x100 EXP SWAP1 DIV PUSH20 0xFFFFFFFFFFFFFFFFFFFFFFFFFFFFFFFFFFFFFFFF AND PUSH20 0xFFFFFFFFFFFFFFFFFFFFFFFFFFFFFFFFFFFFFFFF AND DUP2 MSTORE PUSH1 0x20 ADD SWAP1 PUSH1 0x1 ADD SWAP1 DUP1 DUP4 GT PUSH3 0x67E JUMPI JUMPDEST POP POP POP POP POP SWAP1 POP DUP3 DUP2 MLOAD GT DUP1 ISZERO PUSH3 0x6E2 JUMPI POP DUP2 DUP2 MLOAD LT ISZERO JUMPDEST PUSH3 0x724 JUMPI PUSH1 0x40 MLOAD PUSH32 0x8C379A000000000000000000000000000000000000000000000000000000000 DUP2 MSTORE PUSH1 0x4 ADD PUSH3 0x71B SWAP1 PUSH3 0xD6D JUMP JUMPDEST PUSH1 0x40 MLOAD DUP1 SWAP2 SUB SWAP1 REVERT JUMPDEST PUSH1 0x0 DUP4 SWAP1 POP JUMPDEST DUP2 MLOAD DUP2 LT DUP1 ISZERO PUSH3 0x73A JUMPI POP DUP1 DUP4 GT JUMPDEST ISZERO PUSH3 0x7D5 JUMPI DUP2 DUP2 DUP2 MLOAD DUP2 LT PUSH3 0x756 JUMPI PUSH3 0x755 PUSH3 0xD8F JUMP JUMPDEST JUMPDEST PUSH1 0x20 MUL PUSH1 0x20 ADD ADD MLOAD PUSH20 0xFFFFFFFFFFFFFFFFFFFFFFFFFFFFFFFFFFFFFFFF AND PUSH4 0xA66F42C0 PUSH1 0x40 MLOAD DUP2 PUSH4 0xFFFFFFFF AND PUSH1 0xE0 SHL DUP2 MSTORE PUSH1 0x4 ADD PUSH1 0x0 PUSH1 0x40 MLOAD DUP1 DUP4 SUB DUP2 PUSH1 0x0 DUP8 DUP1 EXTCODESIZE ISZERO DUP1 ISZERO PUSH3 0x7A6 JUMPI PUSH1 0x0 DUP1 REVERT JUMPDEST POP GAS CALL ISZERO DUP1 ISZERO PUSH3 0x7BB JUMPI RETURNDATASIZE PUSH1 0x0 DUP1 RETURNDATACOPY RETURNDATASIZE PUSH1 0x0 REVERT JUMPDEST POP POP POP POP DUP1 DUP1 PUSH3 0x7CC SWAP1 PUSH3 0xF10 JUMP JUMPDEST SWAP2 POP POP PUSH3 0x72A JUMP JUMPDEST POP POP POP POP JUMP JUMPDEST PUSH1 0x0 JUMPDEST DUP2 DUP2 LT ISZERO PUSH3 0x9FA JUMPI PUSH1 0x0 DUP2 GT DUP1 ISZERO PUSH3 0x807 JUMPI POP PUSH1 0x0 PUSH1 0x1 SLOAD DUP3 PUSH3 0x805 SWAP2 SWAP1 PUSH3 0xF8C JUMP JUMPDEST EQ JUMPDEST ISZERO PUSH3 0x8EA JUMPI PUSH1 0x0 DUP1 CALLER PUSH20 0xFFFFFFFFFFFFFFFFFFFFFFFFFFFFFFFFFFFFFFFF AND PUSH20 0xFFFFFFFFFFFFFFFFFFFFFFFFFFFFFFFFFFFFFFFF AND DUP2 MSTORE PUSH1 0x20 ADD SWAP1 DUP2 MSTORE PUSH1 0x20 ADD PUSH1 0x0 KECCAK256 DUP4 PUSH1 0x40 MLOAD PUSH3 0x85A SWAP1 PUSH3 0xB80 JUMP JUMPDEST PUSH3 0x866 SWAP2 SWAP1 PUSH3 0xCEF JUMP JUMPDEST PUSH1 0x40 MLOAD DUP1 SWAP2 SUB SWAP1 PUSH1 0x0 CREATE DUP1 ISZERO DUP1 ISZERO PUSH3 0x883 JUMPI RETURNDATASIZE PUSH1 0x0 DUP1 RETURNDATACOPY RETURNDATASIZE PUSH1 0x0 REVERT JUMPDEST POP SWAP1 DUP1 PUSH1 0x1 DUP2 SLOAD ADD DUP1 DUP3 SSTORE DUP1 SWAP2 POP POP PUSH1 0x1 SWAP1 SUB SWAP1 PUSH1 0x0 MSTORE PUSH1 0x20 PUSH1 0x0 KECCAK256 ADD PUSH1 0x0 SWAP1 SWAP2 SWAP1 SWAP2 SWAP1 SWAP2 PUSH2 0x100 EXP DUP2 SLOAD DUP2 PUSH20 0xFFFFFFFFFFFFFFFFFFFFFFFFFFFFFFFFFFFFFFFF MUL NOT AND SWAP1 DUP4 PUSH20 0xFFFFFFFFFFFFFFFFFFFFFFFFFFFFFFFFFFFFFFFF AND MUL OR SWAP1 SSTORE POP PUSH3 0x9E4 JUMP JUMPDEST PUSH1 0x0 DUP1 PUSH32 0x0 PUSH20 0xFFFFFFFFFFFFFFFFFFFFFFFFFFFFFFFFFFFFFFFF AND PUSH20 0xFFFFFFFFFFFFFFFFFFFFFFFFFFFFFFFFFFFFFFFF AND DUP2 MSTORE PUSH1 0x20 ADD SWAP1 DUP2 MSTORE PUSH1 0x20 ADD PUSH1 0x0 KECCAK256 PUSH1 0x2 SLOAD PUSH1 0x40 MLOAD PUSH3 0x959 SWAP1 PUSH3 0xB80 JUMP JUMPDEST PUSH3 0x965 SWAP2 SWAP1 PUSH3 0xCEF JUMP JUMPDEST PUSH1 0x40 MLOAD DUP1 SWAP2 SUB SWAP1 PUSH1 0x0 CREATE DUP1 ISZERO DUP1 ISZERO PUSH3 0x982 JUMPI RETURNDATASIZE PUSH1 0x0 DUP1 RETURNDATACOPY RETURNDATASIZE PUSH1 0x0 REVERT JUMPDEST POP SWAP1 DUP1 PUSH1 0x1 DUP2 SLOAD ADD DUP1 DUP3 SSTORE DUP1 SWAP2 POP POP PUSH1 0x1 SWAP1 SUB SWAP1 PUSH1 0x0 MSTORE PUSH1 0x20 PUSH1 0x0 KECCAK256 ADD PUSH1 0x0 SWAP1 SWAP2 SWAP1 SWAP2 SWAP1 SWAP2 PUSH2 0x100 EXP DUP2 SLOAD DUP2 PUSH20 0xFFFFFFFFFFFFFFFFFFFFFFFFFFFFFFFFFFFFFFFF MUL NOT AND SWAP1 DUP4 PUSH20 0xFFFFFFFFFFFFFFFFFFFFFFFFFFFFFFFFFFFFFFFF AND MUL OR SWAP1 SSTORE POP JUMPDEST DUP1 DUP1 PUSH3 0x9F1 SWAP1 PUSH3 0xF10 JUMP JUMPDEST SWAP2 POP POP PUSH3 0x7DE JUMP JUMPDEST POP POP POP JUMP JUMPDEST PUSH32 0x0 PUSH20 0xFFFFFFFFFFFFFFFFFFFFFFFFFFFFFFFFFFFFFFFF AND CALLER PUSH20 0xFFFFFFFFFFFFFFFFFFFFFFFFFFFFFFFFFFFFFFFF AND EQ PUSH3 0xA90 JUMPI PUSH1 0x40 MLOAD PUSH32 0x8C379A000000000000000000000000000000000000000000000000000000000 DUP2 MSTORE PUSH1 0x4 ADD PUSH3 0xA87 SWAP1 PUSH3 0x1014 JUMP JUMPDEST PUSH1 0x40 MLOAD DUP1 SWAP2 SUB SWAP1 REVERT JUMPDEST DUP1 PUSH1 0x2 DUP2 SWAP1 SSTORE POP POP JUMP JUMPDEST PUSH32 0x0 PUSH20 0xFFFFFFFFFFFFFFFFFFFFFFFFFFFFFFFFFFFFFFFF AND CALLER PUSH20 0xFFFFFFFFFFFFFFFFFFFFFFFFFFFFFFFFFFFFFFFF AND EQ PUSH3 0xB2B JUMPI PUSH1 0x40 MLOAD PUSH32 0x8C379A000000000000000000000000000000000000000000000000000000000 DUP2 MSTORE PUSH1 0x4 ADD PUSH3 0xB22 SWAP1 PUSH3 0x1014 JUMP JUMPDEST PUSH1 0x40 MLOAD DUP1 SWAP2 SUB SWAP1 REVERT JUMPDEST DUP1 PUSH1 0x1 DUP2 SWAP1 SSTORE POP POP JUMP JUMPDEST PUSH1 0x0 DUP1 PUSH1 0x0 DUP4 PUSH20 0xFFFFFFFFFFFFFFFFFFFFFFFFFFFFFFFFFFFFFFFF AND PUSH20 0xFFFFFFFFFFFFFFFFFFFFFFFFFFFFFFFFFFFFFFFF AND DUP2 MSTORE PUSH1 0x20 ADD SWAP1 DUP2 MSTORE PUSH1 0x20 ADD PUSH1 0x0 KECCAK256 DUP1 SLOAD SWAP1 POP SWAP1 POP SWAP2 SWAP1 POP JUMP JUMPDEST PUSH2 0x8F9 DUP1 PUSH3 0x1037 DUP4 CODECOPY ADD SWAP1 JUMP JUMPDEST PUSH1 0x0 DUP1 REVERT JUMPDEST PUSH1 0x0 DUP2 SWAP1 POP SWAP2 SWAP1 POP JUMP JUMPDEST PUSH3 0xBA8 DUP2 PUSH3 0xB93 JUMP JUMPDEST DUP2 EQ PUSH3 0xBB4 JUMPI PUSH1 0x0 DUP1 REVERT JUMPDEST POP JUMP JUMPDEST PUSH1 0x0 DUP2 CALLDATALOAD SWAP1 POP PUSH3 0xBC8 DUP2 PUSH3 0xB9D JUMP JUMPDEST SWAP3 SWAP2 POP POP JUMP JUMPDEST PUSH1 0x0 DUP1 PUSH1 0x40 DUP4 DUP6 SUB SLT ISZERO PUSH3 0xBE8 JUMPI PUSH3 0xBE7 PUSH3 0xB8E JUMP JUMPDEST JUMPDEST PUSH1 0x0 PUSH3 0xBF8 DUP6 DUP3 DUP7 ADD PUSH3 0xBB7 JUMP JUMPDEST SWAP3 POP POP PUSH1 0x20 PUSH3 0xC0B DUP6 DUP3 DUP7 ADD PUSH3 0xBB7 JUMP JUMPDEST SWAP2 POP POP SWAP3 POP SWAP3 SWAP1 POP JUMP JUMPDEST PUSH1 0x0 PUSH1 0x20 DUP3 DUP5 SUB SLT ISZERO PUSH3 0xC2E JUMPI PUSH3 0xC2D PUSH3 0xB8E JUMP JUMPDEST JUMPDEST PUSH1 0x0 PUSH3 0xC3E DUP5 DUP3 DUP6 ADD PUSH3 0xBB7 JUMP JUMPDEST SWAP2 POP POP SWAP3 SWAP2 POP POP JUMP JUMPDEST PUSH1 0x0 PUSH20 0xFFFFFFFFFFFFFFFFFFFFFFFFFFFFFFFFFFFFFFFF DUP3 AND SWAP1 POP SWAP2 SWAP1 POP JUMP JUMPDEST PUSH1 0x0 PUSH3 0xC74 DUP3 PUSH3 0xC47 JUMP JUMPDEST SWAP1 POP SWAP2 SWAP1 POP JUMP JUMPDEST PUSH3 0xC86 DUP2 PUSH3 0xC67 JUMP JUMPDEST DUP2 EQ PUSH3 0xC92 JUMPI PUSH1 0x0 DUP1 REVERT JUMPDEST POP JUMP JUMPDEST PUSH1 0x0 DUP2 CALLDATALOAD SWAP1 POP PUSH3 0xCA6 DUP2 PUSH3 0xC7B JUMP JUMPDEST SWAP3 SWAP2 POP POP JUMP JUMPDEST PUSH1 0x0 PUSH1 0x20 DUP3 DUP5 SUB SLT ISZERO PUSH3 0xCC5 JUMPI PUSH3 0xCC4 PUSH3 0xB8E JUMP JUMPDEST JUMPDEST PUSH1 0x0 PUSH3 0xCD5 DUP5 DUP3 DUP6 ADD PUSH3 0xC95 JUMP JUMPDEST SWAP2 POP POP SWAP3 SWAP2 POP POP JUMP JUMPDEST PUSH3 0xCE9 DUP2 PUSH3 0xB93 JUMP JUMPDEST DUP3 MSTORE POP POP JUMP JUMPDEST PUSH1 0x0 PUSH1 0x20 DUP3 ADD SWAP1 POP PUSH3 0xD06 PUSH1 0x0 DUP4 ADD DUP5 PUSH3 0xCDE JUMP JUMPDEST SWAP3 SWAP2 POP POP JUMP JUMPDEST PUSH1 0x0 DUP3 DUP3 MSTORE PUSH1 0x20 DUP3 ADD SWAP1 POP SWAP3 SWAP2 POP POP JUMP JUMPDEST PUSH32 0x6600000000000000000000000000000000000000000000000000000000000000 PUSH1 0x0 DUP3 ADD MSTORE POP JUMP JUMPDEST PUSH1 0x0 PUSH3 0xD55 PUSH1 0x1 DUP4 PUSH3 0xD0C JUMP JUMPDEST SWAP2 POP PUSH3 0xD62 DUP3 PUSH3 0xD1D JUMP JUMPDEST PUSH1 0x20 DUP3 ADD SWAP1 POP SWAP2 SWAP1 POP JUMP JUMPDEST PUSH1 0x0 PUSH1 0x20 DUP3 ADD SWAP1 POP DUP2 DUP2 SUB PUSH1 0x0 DUP4 ADD MSTORE PUSH3 0xD88 DUP2 PUSH3 0xD46 JUMP JUMPDEST SWAP1 POP SWAP2 SWAP1 POP JUMP JUMPDEST PUSH32 0x4E487B7100000000000000000000000000000000000000000000000000000000 PUSH1 0x0 MSTORE PUSH1 0x32 PUSH1 0x4 MSTORE PUSH1 0x24 PUSH1 0x0 REVERT JUMPDEST PUSH3 0xDC9 DUP2 PUSH3 0xC67 JUMP JUMPDEST DUP3 MSTORE POP POP JUMP JUMPDEST PUSH1 0x0 PUSH1 0x20 DUP3 ADD SWAP1 POP PUSH3 0xDE6 PUSH1 0x0 DUP4 ADD DUP5 PUSH3 0xDBE JUMP JUMPDEST SWAP3 SWAP2 POP POP JUMP JUMPDEST PUSH1 0x0 DUP2 MLOAD SWAP1 POP PUSH3 0xDFD DUP2 PUSH3 0xB9D JUMP JUMPDEST SWAP3 SWAP2 POP POP JUMP JUMPDEST PUSH1 0x0 PUSH1 0x20 DUP3 DUP5 SUB SLT ISZERO PUSH3 0xE1C JUMPI PUSH3 0xE1B PUSH3 0xB8E JUMP JUMPDEST JUMPDEST PUSH1 0x0 PUSH3 0xE2C DUP5 DUP3 DUP6 ADD PUSH3 0xDEC JUMP JUMPDEST SWAP2 POP POP SWAP3 SWAP2 POP POP JUMP JUMPDEST PUSH1 0x0 PUSH1 0x60 DUP3 ADD SWAP1 POP PUSH3 0xE4C PUSH1 0x0 DUP4 ADD DUP7 PUSH3 0xDBE JUMP JUMPDEST PUSH3 0xE5B PUSH1 0x20 DUP4 ADD DUP6 PUSH3 0xDBE JUMP JUMPDEST PUSH3 0xE6A PUSH1 0x40 DUP4 ADD DUP5 PUSH3 0xCDE JUMP JUMPDEST SWAP5 SWAP4 POP POP POP POP JUMP JUMPDEST PUSH1 0x0 DUP2 ISZERO ISZERO SWAP1 POP SWAP2 SWAP1 POP JUMP JUMPDEST PUSH3 0xE89 DUP2 PUSH3 0xE72 JUMP JUMPDEST DUP2 EQ PUSH3 0xE95 JUMPI PUSH1 0x0 DUP1 REVERT JUMPDEST POP JUMP JUMPDEST PUSH1 0x0 DUP2 MLOAD SWAP1 POP PUSH3 0xEA9 DUP2 PUSH3 0xE7E JUMP JUMPDEST SWAP3 SWAP2 POP POP JUMP JUMPDEST PUSH1 0x0 PUSH1 0x20 DUP3 DUP5 SUB SLT ISZERO PUSH3 0xEC8 JUMPI PUSH3 0xEC7 PUSH3 0xB8E JUMP JUMPDEST JUMPDEST PUSH1 0x0 PUSH3 0xED8 DUP5 DUP3 DUP6 ADD PUSH3 0xE98 JUMP JUMPDEST SWAP2 POP POP SWAP3 SWAP2 POP POP JUMP JUMPDEST PUSH32 0x4E487B7100000000000000000000000000000000000000000000000000000000 PUSH1 0x0 MSTORE PUSH1 0x11 PUSH1 0x4 MSTORE PUSH1 0x24 PUSH1 0x0 REVERT JUMPDEST PUSH1 0x0 PUSH3 0xF1D DUP3 PUSH3 0xB93 JUMP JUMPDEST SWAP2 POP PUSH32 0xFFFFFFFFFFFFFFFFFFFFFFFFFFFFFFFFFFFFFFFFFFFFFFFFFFFFFFFFFFFFFFFF DUP3 SUB PUSH3 0xF52 JUMPI PUSH3 0xF51 PUSH3 0xEE1 JUMP JUMPDEST JUMPDEST PUSH1 0x1 DUP3 ADD SWAP1 POP SWAP2 SWAP1 POP JUMP JUMPDEST PUSH32 0x4E487B7100000000000000000000000000000000000000000000000000000000 PUSH1 0x0 MSTORE PUSH1 0x12 PUSH1 0x4 MSTORE PUSH1 0x24 PUSH1 0x0 REVERT JUMPDEST PUSH1 0x0 PUSH3 0xF99 DUP3 PUSH3 0xB93 JUMP JUMPDEST SWAP2 POP PUSH3 0xFA6 DUP4 PUSH3 0xB93 JUMP JUMPDEST SWAP3 POP DUP3 PUSH3 0xFB9 JUMPI PUSH3 0xFB8 PUSH3 0xF5D JUMP JUMPDEST JUMPDEST DUP3 DUP3 MOD SWAP1 POP SWAP3 SWAP2 POP POP JUMP JUMPDEST PUSH32 0x43616C6C6572206973206E6F74206F776E657200000000000000000000000000 PUSH1 0x0 DUP3 ADD MSTORE POP JUMP JUMPDEST PUSH1 0x0 PUSH3 0xFFC PUSH1 0x13 DUP4 PUSH3 0xD0C JUMP JUMPDEST SWAP2 POP PUSH3 0x1009 DUP3 PUSH3 0xFC4 JUMP JUMPDEST PUSH1 0x20 DUP3 ADD SWAP1 POP SWAP2 SWAP1 POP JUMP JUMPDEST PUSH1 0x0 PUSH1 0x20 DUP3 ADD SWAP1 POP DUP2 DUP2 SUB PUSH1 0x0 DUP4 ADD MSTORE PUSH3 0x102F DUP2 PUSH3 0xFED JUMP JUMPDEST SWAP1 POP SWAP2 SWAP1 POP JUMP INVALID PUSH1 0x80 PUSH1 0x40 MSTORE PUSH20 0xEF64C03D5E757A5F6DC5284F3D627F3C255F09AB PUSH1 0x0 DUP1 PUSH2 0x100 EXP DUP2 SLOAD DUP2 PUSH20 0xFFFFFFFFFFFFFFFFFFFFFFFFFFFFFFFFFFFFFFFF MUL NOT AND SWAP1 DUP4 PUSH20 0xFFFFFFFFFFFFFFFFFFFFFFFFFFFFFFFFFFFFFFFF AND MUL OR SWAP1 SSTORE POP PUSH1 0x40 MLOAD PUSH3 0x8F9 CODESIZE SUB DUP1 PUSH3 0x8F9 DUP4 CODECOPY DUP2 DUP2 ADD PUSH1 0x40 MSTORE DUP2 ADD SWAP1 PUSH3 0x7D SWAP2 SWAP1 PUSH3 0x27F JUMP JUMPDEST PUSH1 0x0 PUSH20 0xEF64C03D5E757A5F6DC5284F3D627F3C255F09AB PUSH20 0xFFFFFFFFFFFFFFFFFFFFFFFFFFFFFFFFFFFFFFFF AND PUSH4 0xB260C42A DUP4 PUSH1 0x40 MLOAD PUSH1 0x24 ADD PUSH3 0xC2 SWAP2 SWAP1 PUSH3 0x2C2 JUMP JUMPDEST PUSH1 0x40 MLOAD PUSH1 0x20 DUP2 DUP4 SUB SUB DUP2 MSTORE SWAP1 PUSH1 0x40 MSTORE SWAP1 PUSH1 0xE0 SHL PUSH1 0x20 DUP3 ADD DUP1 MLOAD PUSH28 0xFFFFFFFFFFFFFFFFFFFFFFFFFFFFFFFFFFFFFFFFFFFFFFFFFFFFFFFF DUP4 DUP2 DUP4 AND OR DUP4 MSTORE POP POP POP POP PUSH1 0x40 MLOAD PUSH3 0x112 SWAP2 SWAP1 PUSH3 0x358 JUMP JUMPDEST PUSH1 0x0 PUSH1 0x40 MLOAD DUP1 DUP4 SUB DUP2 PUSH1 0x0 DUP7 GAS CALL SWAP2 POP POP RETURNDATASIZE DUP1 PUSH1 0x0 DUP2 EQ PUSH3 0x151 JUMPI PUSH1 0x40 MLOAD SWAP2 POP PUSH1 0x1F NOT PUSH1 0x3F RETURNDATASIZE ADD AND DUP3 ADD PUSH1 0x40 MSTORE RETURNDATASIZE DUP3 MSTORE RETURNDATASIZE PUSH1 0x0 PUSH1 0x20 DUP5 ADD RETURNDATACOPY PUSH3 0x156 JUMP JUMPDEST PUSH1 0x60 SWAP2 POP JUMPDEST POP POP SWAP1 POP DUP1 PUSH3 0x19D JUMPI PUSH1 0x40 MLOAD PUSH32 0x8C379A000000000000000000000000000000000000000000000000000000000 DUP2 MSTORE PUSH1 0x4 ADD PUSH3 0x194 SWAP1 PUSH3 0x3D2 JUMP JUMPDEST PUSH1 0x40 MLOAD DUP1 SWAP2 SUB SWAP1 REVERT JUMPDEST PUSH20 0xF0F942D563A6BACF875D8CEE5AE663B12CE62149 PUSH20 0xFFFFFFFFFFFFFFFFFFFFFFFFFFFFFFFFFFFFFFFF AND PUSH4 0x95EA7B3 CALLER PUSH1 0x0 NOT PUSH1 0x40 MLOAD DUP4 PUSH4 0xFFFFFFFF AND PUSH1 0xE0 SHL DUP2 MSTORE PUSH1 0x4 ADD PUSH3 0x1F0 SWAP3 SWAP2 SWAP1 PUSH3 0x439 JUMP JUMPDEST PUSH1 0x20 PUSH1 0x40 MLOAD DUP1 DUP4 SUB DUP2 PUSH1 0x0 DUP8 GAS CALL ISZERO DUP1 ISZERO PUSH3 0x210 JUMPI RETURNDATASIZE PUSH1 0x0 DUP1 RETURNDATACOPY RETURNDATASIZE PUSH1 0x0 REVERT JUMPDEST POP POP POP POP PUSH1 0x40 MLOAD RETURNDATASIZE PUSH1 0x1F NOT PUSH1 0x1F DUP3 ADD AND DUP3 ADD DUP1 PUSH1 0x40 MSTORE POP DUP2 ADD SWAP1 PUSH3 0x236 SWAP2 SWAP1 PUSH3 0x4A3 JUMP JUMPDEST POP POP POP PUSH3 0x4D5 JUMP JUMPDEST PUSH1 0x0 DUP1 REVERT JUMPDEST PUSH1 0x0 DUP2 SWAP1 POP SWAP2 SWAP1 POP JUMP JUMPDEST PUSH3 0x259 DUP2 PUSH3 0x244 JUMP JUMPDEST DUP2 EQ PUSH3 0x265 JUMPI PUSH1 0x0 DUP1 REVERT JUMPDEST POP JUMP JUMPDEST PUSH1 0x0 DUP2 MLOAD SWAP1 POP PUSH3 0x279 DUP2 PUSH3 0x24E JUMP JUMPDEST SWAP3 SWAP2 POP POP JUMP JUMPDEST PUSH1 0x0 PUSH1 0x20 DUP3 DUP5 SUB SLT ISZERO PUSH3 0x298 JUMPI PUSH3 0x297 PUSH3 0x23F JUMP JUMPDEST JUMPDEST PUSH1 0x0 PUSH3 0x2A8 DUP5 DUP3 DUP6 ADD PUSH3 0x268 JUMP JUMPDEST SWAP2 POP POP SWAP3 SWAP2 POP POP JUMP JUMPDEST PUSH3 0x2BC DUP2 PUSH3 0x244 JUMP JUMPDEST DUP3 MSTORE POP POP JUMP JUMPDEST PUSH1 0x0 PUSH1 0x20 DUP3 ADD SWAP1 POP PUSH3 0x2D9 PUSH1 0x0 DUP4 ADD DUP5 PUSH3 0x2B1 JUMP JUMPDEST SWAP3 SWAP2 POP POP JUMP JUMPDEST PUSH1 0x0 DUP2 MLOAD SWAP1 POP SWAP2 SWAP1 POP JUMP JUMPDEST PUSH1 0x0 DUP2 SWAP1 POP SWAP3 SWAP2 POP POP JUMP JUMPDEST PUSH1 0x0 JUMPDEST DUP4 DUP2 LT ISZERO PUSH3 0x315 JUMPI DUP1 DUP3 ADD MLOAD DUP2 DUP5 ADD MSTORE PUSH1 0x20 DUP2 ADD SWAP1 POP PUSH3 0x2F8 JUMP JUMPDEST PUSH1 0x0 DUP5 DUP5 ADD MSTORE POP POP POP POP JUMP JUMPDEST PUSH1 0x0 PUSH3 0x32E DUP3 PUSH3 0x2DF JUMP JUMPDEST PUSH3 0x33A DUP2 DUP6 PUSH3 0x2EA JUMP JUMPDEST SWAP4 POP PUSH3 0x34C DUP2 DUP6 PUSH1 0x20 DUP7 ADD PUSH3 0x2F5 JUMP JUMPDEST DUP1 DUP5 ADD SWAP2 POP POP SWAP3 SWAP2 POP POP JUMP JUMPDEST PUSH1 0x0 PUSH3 0x366 DUP3 DUP5 PUSH3 0x321 JUMP JUMPDEST SWAP2 POP DUP2 SWAP1 POP SWAP3 SWAP2 POP POP JUMP JUMPDEST PUSH1 0x0 DUP3 DUP3 MSTORE PUSH1 0x20 DUP3 ADD SWAP1 POP SWAP3 SWAP2 POP POP JUMP JUMPDEST PUSH32 0x4261746368207472616E73616374696F6E206661696C65640000000000000000 PUSH1 0x0 DUP3 ADD MSTORE POP JUMP JUMPDEST PUSH1 0x0 PUSH3 0x3BA PUSH1 0x18 DUP4 PUSH3 0x371 JUMP JUMPDEST SWAP2 POP PUSH3 0x3C7 DUP3 PUSH3 0x382 JUMP JUMPDEST PUSH1 0x20 DUP3 ADD SWAP1 POP SWAP2 SWAP1 POP JUMP JUMPDEST PUSH1 0x0 PUSH1 0x20 DUP3 ADD SWAP1 POP DUP2 DUP2 SUB PUSH1 0x0 DUP4 ADD MSTORE PUSH3 0x3ED DUP2 PUSH3 0x3AB JUMP JUMPDEST SWAP1 POP SWAP2 SWAP1 POP JUMP JUMPDEST PUSH1 0x0 PUSH20 0xFFFFFFFFFFFFFFFFFFFFFFFFFFFFFFFFFFFFFFFF DUP3 AND SWAP1 POP SWAP2 SWAP1 POP JUMP JUMPDEST PUSH1 0x0 PUSH3 0x421 DUP3 PUSH3 0x3F4 JUMP JUMPDEST SWAP1 POP SWAP2 SWAP1 POP JUMP JUMPDEST PUSH3 0x433 DUP2 PUSH3 0x414 JUMP JUMPDEST DUP3 MSTORE POP POP JUMP JUMPDEST PUSH1 0x0 PUSH1 0x40 DUP3 ADD SWAP1 POP PUSH3 0x450 PUSH1 0x0 DUP4 ADD DUP6 PUSH3 0x428 JUMP JUMPDEST PUSH3 0x45F PUSH1 0x20 DUP4 ADD DUP5 PUSH3 0x2B1 JUMP JUMPDEST SWAP4 SWAP3 POP POP POP JUMP JUMPDEST PUSH1 0x0 DUP2 ISZERO ISZERO SWAP1 POP SWAP2 SWAP1 POP JUMP JUMPDEST PUSH3 0x47D DUP2 PUSH3 0x466 JUMP JUMPDEST DUP2 EQ PUSH3 0x489 JUMPI PUSH1 0x0 DUP1 REVERT JUMPDEST POP JUMP JUMPDEST PUSH1 0x0 DUP2 MLOAD SWAP1 POP PUSH3 0x49D DUP2 PUSH3 0x472 JUMP JUMPDEST SWAP3 SWAP2 POP POP JUMP JUMPDEST PUSH1 0x0 PUSH1 0x20 DUP3 DUP5 SUB SLT ISZERO PUSH3 0x4BC JUMPI PUSH3 0x4BB PUSH3 0x23F JUMP JUMPDEST JUMPDEST PUSH1 0x0 PUSH3 0x4CC DUP5 DUP3 DUP6 ADD PUSH3 0x48C JUMP JUMPDEST SWAP2 POP POP SWAP3 SWAP2 POP POP JUMP JUMPDEST PUSH2 0x414 DUP1 PUSH3 0x4E5 PUSH1 0x0 CODECOPY PUSH1 0x0 RETURN INVALID PUSH1 0x80 PUSH1 0x40 MSTORE CALLVALUE DUP1 ISZERO PUSH2 0x10 JUMPI PUSH1 0x0 DUP1 REVERT JUMPDEST POP PUSH1 0x4 CALLDATASIZE LT PUSH2 0x36 JUMPI PUSH1 0x0 CALLDATALOAD PUSH1 0xE0 SHR DUP1 PUSH4 0x57EA89B6 EQ PUSH2 0x3B JUMPI DUP1 PUSH4 0xA66F42C0 EQ PUSH2 0x45 JUMPI JUMPDEST PUSH1 0x0 DUP1 REVERT JUMPDEST PUSH2 0x43 PUSH2 0x4F JUMP JUMPDEST STOP JUMPDEST PUSH2 0x4D PUSH2 0x15E JUMP JUMPDEST STOP JUMPDEST PUSH1 0x0 PUSH20 0xEF64C03D5E757A5F6DC5284F3D627F3C255F09AB PUSH20 0xFFFFFFFFFFFFFFFFFFFFFFFFFFFFFFFFFFFFFFFF AND PUSH4 0x3CCFD60B PUSH1 0x40 MLOAD PUSH1 0x24 ADD PUSH1 0x40 MLOAD PUSH1 0x20 DUP2 DUP4 SUB SUB DUP2 MSTORE SWAP1 PUSH1 0x40 MSTORE SWAP1 PUSH1 0xE0 SHL PUSH1 0x20 DUP3 ADD DUP1 MLOAD PUSH28 0xFFFFFFFFFFFFFFFFFFFFFFFFFFFFFFFFFFFFFFFFFFFFFFFFFFFFFFFF DUP4 DUP2 DUP4 AND OR DUP4 MSTORE POP POP POP POP PUSH1 0x40 MLOAD PUSH2 0xD5 SWAP2 SWAP1 PUSH2 0x2DE JUMP JUMPDEST PUSH1 0x0 PUSH1 0x40 MLOAD DUP1 DUP4 SUB DUP2 PUSH1 0x0 DUP7 GAS CALL SWAP2 POP POP RETURNDATASIZE DUP1 PUSH1 0x0 DUP2 EQ PUSH2 0x112 JUMPI PUSH1 0x40 MLOAD SWAP2 POP PUSH1 0x1F NOT PUSH1 0x3F RETURNDATASIZE ADD AND DUP3 ADD PUSH1 0x40 MSTORE RETURNDATASIZE DUP3 MSTORE RETURNDATASIZE PUSH1 0x0 PUSH1 0x20 DUP5 ADD RETURNDATACOPY PUSH2 0x117 JUMP JUMPDEST PUSH1 0x60 SWAP2 POP JUMPDEST POP POP SWAP1 POP DUP1 PUSH2 0x15B JUMPI PUSH1 0x40 MLOAD PUSH32 0x8C379A000000000000000000000000000000000000000000000000000000000 DUP2 MSTORE PUSH1 0x4 ADD PUSH2 0x152 SWAP1 PUSH2 0x352 JUMP JUMPDEST PUSH1 0x40 MLOAD DUP1 SWAP2 SUB SWAP1 REVERT JUMPDEST POP JUMP JUMPDEST PUSH1 0x0 PUSH20 0xEF64C03D5E757A5F6DC5284F3D627F3C255F09AB PUSH20 0xFFFFFFFFFFFFFFFFFFFFFFFFFFFFFFFFFFFFFFFF AND PUSH4 0xA66F42C0 PUSH1 0x40 MLOAD PUSH1 0x24 ADD PUSH1 0x40 MLOAD PUSH1 0x20 DUP2 DUP4 SUB SUB DUP2 MSTORE SWAP1 PUSH1 0x40 MSTORE SWAP1 PUSH1 0xE0 SHL PUSH1 0x20 DUP3 ADD DUP1 MLOAD PUSH28 0xFFFFFFFFFFFFFFFFFFFFFFFFFFFFFFFFFFFFFFFFFFFFFFFFFFFFFFFF DUP4 DUP2 DUP4 AND OR DUP4 MSTORE POP POP POP POP PUSH1 0x40 MLOAD PUSH2 0x1E4 SWAP2 SWAP1 PUSH2 0x2DE JUMP JUMPDEST PUSH1 0x0 PUSH1 0x40 MLOAD DUP1 DUP4 SUB DUP2 PUSH1 0x0 DUP7 GAS CALL SWAP2 POP POP RETURNDATASIZE DUP1 PUSH1 0x0 DUP2 EQ PUSH2 0x221 JUMPI PUSH1 0x40 MLOAD SWAP2 POP PUSH1 0x1F NOT PUSH1 0x3F RETURNDATASIZE ADD AND DUP3 ADD PUSH1 0x40 MSTORE RETURNDATASIZE DUP3 MSTORE RETURNDATASIZE PUSH1 0x0 PUSH1 0x20 DUP5 ADD RETURNDATACOPY PUSH2 0x226 JUMP JUMPDEST PUSH1 0x60 SWAP2 POP JUMPDEST POP POP SWAP1 POP DUP1 PUSH2 0x26A JUMPI PUSH1 0x40 MLOAD PUSH32 0x8C379A000000000000000000000000000000000000000000000000000000000 DUP2 MSTORE PUSH1 0x4 ADD PUSH2 0x261 SWAP1 PUSH2 0x3BE JUMP JUMPDEST PUSH1 0x40 MLOAD DUP1 SWAP2 SUB SWAP1 REVERT JUMPDEST POP JUMP JUMPDEST PUSH1 0x0 DUP2 MLOAD SWAP1 POP SWAP2 SWAP1 POP JUMP JUMPDEST PUSH1 0x0 DUP2 SWAP1 POP SWAP3 SWAP2 POP POP JUMP JUMPDEST PUSH1 0x0 JUMPDEST DUP4 DUP2 LT ISZERO PUSH2 0x2A1 JUMPI DUP1 DUP3 ADD MLOAD DUP2 DUP5 ADD MSTORE PUSH1 0x20 DUP2 ADD SWAP1 POP PUSH2 0x286 JUMP JUMPDEST PUSH1 0x0 DUP5 DUP5 ADD MSTORE POP POP POP POP JUMP JUMPDEST PUSH1 0x0 PUSH2 0x2B8 DUP3 PUSH2 0x26D JUMP JUMPDEST PUSH2 0x2C2 DUP2 DUP6 PUSH2 0x278 JUMP JUMPDEST SWAP4 POP PUSH2 0x2D2 DUP2 DUP6 PUSH1 0x20 DUP7 ADD PUSH2 0x283 JUMP JUMPDEST DUP1 DUP5 ADD SWAP2 POP POP SWAP3 SWAP2 POP POP JUMP JUMPDEST PUSH1 0x0 PUSH2 0x2EA DUP3 DUP5 PUSH2 0x2AD JUMP JUMPDEST SWAP2 POP DUP2 SWAP1 POP SWAP3 SWAP2 POP POP JUMP JUMPDEST PUSH1 0x0 DUP3 DUP3 MSTORE PUSH1 0x20 DUP3 ADD SWAP1 POP SWAP3 SWAP2 POP POP JUMP JUMPDEST PUSH32 0x7769746864726177206661696C65640000000000000000000000000000000000 PUSH1 0x0 DUP3 ADD MSTORE POP JUMP JUMPDEST PUSH1 0x0 PUSH2 0x33C PUSH1 0xF DUP4 PUSH2 0x2F5 JUMP JUMPDEST SWAP2 POP PUSH2 0x347 DUP3 PUSH2 0x306 JUMP JUMPDEST PUSH1 0x20 DUP3 ADD SWAP1 POP SWAP2 SWAP1 POP JUMP JUMPDEST PUSH1 0x0 PUSH1 0x20 DUP3 ADD SWAP1 POP DUP2 DUP2 SUB PUSH1 0x0 DUP4 ADD MSTORE PUSH2 0x36B DUP2 PUSH2 0x32F JUMP JUMPDEST SWAP1 POP SWAP2 SWAP1 POP JUMP JUMPDEST PUSH32 0x626F6F7374206661696C65640000000000000000000000000000000000000000 PUSH1 0x0 DUP3 ADD MSTORE POP JUMP JUMPDEST PUSH1 0x0 PUSH2 0x3A8 PUSH1 0xC DUP4 PUSH2 0x2F5 JUMP JUMPDEST SWAP2 POP PUSH2 0x3B3 DUP3 PUSH2 0x372 JUMP JUMPDEST PUSH1 0x20 DUP3 ADD SWAP1 POP SWAP2 SWAP1 POP JUMP JUMPDEST PUSH1 0x0 PUSH1 0x20 DUP3 ADD SWAP1 POP DUP2 DUP2 SUB PUSH1 0x0 DUP4 ADD MSTORE PUSH2 0x3D7 DUP2 PUSH2 0x39B JUMP JUMPDEST SWAP1 POP SWAP2 SWAP1 POP JUMP INVALID LOG2 PUSH5 0x6970667358 0x22 SLT KECCAK256 SWAP4 MLOAD LOG3 LOG0 0xE3 RETURN 0xD1 PUSH10 0xBDA4E940208B790AE75F 0xB2 PUSH32 0xC80F8B063919E51B0709DED464736F6C63430008130033A26469706673582212 KECCAK256 0xDE CALLER 0xB1 PUSH19 0x862C8AF6A0B15523EE3313892B6CC135C255CB 0x27 SMOD LOG0 0xC8 0xBE PUSH11 0x482E7364736F6C63430008 SGT STOP CALLER "
				},
				"gasEstimates": {
					"creation": {
						"codeDepositCost": "1300200",
						"executionCost": "infinite",
						"totalCost": "infinite"
					},
					"external": {
						"BatchBoost(uint256,uint256)": "infinite",
						"BatchMint(uint256,uint256)": "infinite",
						"BatchWithdarw(uint256,uint256)": "infinite",
						"change_code(uint256)": "infinite",
						"change_times(uint256)": "infinite",
						"own_address_num(address)": "2937"
					}
				},
				"methodIdentifiers": {
					"BatchBoost(uint256,uint256)": "1ceeddf4",
					"BatchMint(uint256,uint256)": "3cd64f18",
					"BatchWithdarw(uint256,uint256)": "06055939",
					"change_code(uint256)": "d97af6c2",
					"change_times(uint256)": "e1381b12",
					"own_address_num(address)": "e1b903f5"
				}
			},
			"storageLayout": {
				"storage": [
					{
						"astId": 130,
						"contract": "contract/dragon/dragon.sol:Batcher",
						"label": "own_address",
						"offset": 0,
						"slot": "0",
						"type": "t_mapping(t_address,t_array(t_address)dyn_storage)"
					},
					{
						"astId": 133,
						"contract": "contract/dragon/dragon.sol:Batcher",
						"label": "tax_times",
						"offset": 0,
						"slot": "1",
						"type": "t_uint256"
					},
					{
						"astId": 136,
						"contract": "contract/dragon/dragon.sol:Batcher",
						"label": "owner_code",
						"offset": 0,
						"slot": "2",
						"type": "t_uint256"
					},
					{
						"astId": 142,
						"contract": "contract/dragon/dragon.sol:Batcher",
						"label": "dragon",
						"offset": 0,
						"slot": "3",
						"type": "t_contract(IDragon)40"
					}
				],
				"types": {
					"t_address": {
						"encoding": "inplace",
						"label": "address",
						"numberOfBytes": "20"
					},
					"t_array(t_address)dyn_storage": {
						"base": "t_address",
						"encoding": "dynamic_array",
						"label": "address[]",
						"numberOfBytes": "32"
					},
					"t_contract(IDragon)40": {
						"encoding": "inplace",
						"label": "contract IDragon",
						"numberOfBytes": "20"
					},
					"t_mapping(t_address,t_array(t_address)dyn_storage)": {
						"encoding": "mapping",
						"key": "t_address",
						"label": "mapping(address => address[])",
						"numberOfBytes": "32",
						"value": "t_array(t_address)dyn_storage"
					},
					"t_uint256": {
						"encoding": "inplace",
						"label": "uint256",
						"numberOfBytes": "32"
					}
				}
			},
			"userdoc": {
				"kind": "user",
				"methods": {},
				"version": 1
			}
		}
	}
}