{
	"contract/dragon/dragon.sol": {
		"bot": {
			"abi": [
				{
					"inputs": [
						{
							"internalType": "uint256",
							"name": "code",
							"type": "uint256"
						}
					],
					"stateMutability": "payable",
					"type": "constructor"
				},
				{
					"inputs": [],
					"name": "Withdraw",
					"outputs": [],
					"stateMutability": "nonpayable",
					"type": "function"
				},
				{
					"inputs": [],
					"name": "boost",
					"outputs": [],
					"stateMutability": "nonpayable",
					"type": "function"
				}
			],
			"devdoc": {
				"kind": "dev",
				"methods": {},
				"version": 1
			},
			"evm": {
				"assembly": "    /* \"contract/dragon/dragon.sol\":800:1703  contract bot {... */\n  0x80\n  0x40\n  dup2\n  swap1\n  mstore\n    /* \"contract/dragon/dragon.sol\":819:887  IDragon dragon = IDragon(0xEf64C03D5E757a5f6dC5284F3d627F3C255F09aB) */\n  0x00\n  dup1\n  sload\n  not(sub(shl(0xa0, 0x01), 0x01))\n  and\n    /* \"contract/dragon/dragon.sol\":844:886  0xEf64C03D5E757a5f6dC5284F3d627F3C255F09aB */\n  0xef64c03d5e757a5f6dc5284f3d627f3c255f09ab\n    /* \"contract/dragon/dragon.sol\":819:887  IDragon dragon = IDragon(0xEf64C03D5E757a5f6dC5284F3d627F3C255F09aB) */\n  or\n  swap1\n  sstore\n    /* \"contract/dragon/dragon.sol\":894:1265  constructor(uint256 code) payable {... */\n  bytecodeSize\n  codesize\n  dup2\n  swap1\n  sub\n  swap1\n  dup2\n  swap1\n    /* \"contract/dragon/dragon.sol\":800:1703  contract bot {... */\n  dup4\n    /* \"contract/dragon/dragon.sol\":894:1265  constructor(uint256 code) payable {... */\n  codecopy\n  dup2\n  add\n  0x40\n  dup2\n  swap1\n  mstore\n  tag_1\n  swap2\n  tag_2\n  jump\t// in\ntag_1:\n    /* \"contract/dragon/dragon.sol\":939:951  bool success */\n  0x00\n    /* \"contract/dragon/dragon.sol\":957:999  0xEf64C03D5E757a5f6dC5284F3d627F3C255F09aB */\n  0xef64c03d5e757a5f6dc5284f3d627f3c255f09ab\n  sub(shl(0xa0, 0x01), 0x01)\n    /* \"contract/dragon/dragon.sol\":957:1004  0xEf64C03D5E757a5f6dC5284F3d627F3C255F09aB.call */\n  and\n    /* \"contract/dragon/dragon.sol\":1041:1051  0xb260c42a */\n  0xb260c42a\n    /* \"contract/dragon/dragon.sol\":1053:1057  code */\n  dup4\n    /* \"contract/dragon/dragon.sol\":1018:1058  abi.encodeWithSelector(0xb260c42a, code) */\n  add(0x24, mload(0x40))\n  tag_5\n  swap2\n    /* \"#utility.yul\":349:374   */\n  dup2\n  mstore\n    /* \"#utility.yul\":337:339   */\n  0x20\n    /* \"#utility.yul\":322:340   */\n  add\n  swap1\n    /* \"#utility.yul\":203:380   */\n  jump\n    /* \"contract/dragon/dragon.sol\":1018:1058  abi.encodeWithSelector(0xb260c42a, code) */\ntag_5:\n  mload(0x40)\n  0x20\n  dup2\n  dup4\n  sub\n  sub\n  dup2\n  mstore\n  swap1\n  0x40\n  mstore\n  swap1\n  0xe0\n  shl\n  0x20\n  dup3\n  add\n  dup1\n  mload\n  sub(shl(0xe0, 0x01), 0x01)\n  dup4\n  dup2\n  dup4\n  and\n  or\n  dup4\n  mstore\n  pop\n  pop\n  pop\n  pop\n    /* \"contract/dragon/dragon.sol\":957:1068  0xEf64C03D5E757a5f6dC5284F3d627F3C255F09aB.call(... */\n  mload(0x40)\n  tag_7\n  swap2\n  swap1\n  tag_8\n  jump\t// in\ntag_7:\n  0x00\n  mload(0x40)\n  dup1\n  dup4\n  sub\n  dup2\n  0x00\n  dup7\n  gas\n  call\n  swap2\n  pop\n  pop\n  returndatasize\n  dup1\n  0x00\n  dup2\n  eq\n  tag_11\n  jumpi\n  mload(0x40)\n  swap2\n  pop\n  and(add(returndatasize, 0x3f), not(0x1f))\n  dup3\n  add\n  0x40\n  mstore\n  returndatasize\n  dup3\n  mstore\n  returndatasize\n  0x00\n  0x20\n  dup5\n  add\n  returndatacopy\n  jump(tag_10)\ntag_11:\n  0x60\n  swap2\n  pop\ntag_10:\n  pop\n    /* \"contract/dragon/dragon.sol\":938:1068  (bool success, ) = 0xEf64C03D5E757a5f6dC5284F3d627F3C255F09aB.call(... */\n  pop\n  swap1\n  pop\n    /* \"contract/dragon/dragon.sol\":1086:1093  success */\n  dup1\n    /* \"contract/dragon/dragon.sol\":1078:1122  require(success, \"Batch transaction failed\") */\n  tag_12\n  jumpi\n  mload(0x40)\n  shl(0xe5, 0x461bcd)\n  dup2\n  mstore\n    /* \"#utility.yul\":1004:1006   */\n  0x20\n    /* \"contract/dragon/dragon.sol\":1078:1122  require(success, \"Batch transaction failed\") */\n  0x04\n  dup3\n  add\n    /* \"#utility.yul\":986:1007   */\n  mstore\n    /* \"#utility.yul\":1043:1045   */\n  0x18\n    /* \"#utility.yul\":1023:1041   */\n  0x24\n  dup3\n  add\n    /* \"#utility.yul\":1016:1046   */\n  mstore\n    /* \"#utility.yul\":1082:1108   */\n  0x4261746368207472616e73616374696f6e206661696c65640000000000000000\n    /* \"#utility.yul\":1062:1080   */\n  0x44\n  dup3\n  add\n    /* \"#utility.yul\":1055:1109   */\n  mstore\n    /* \"#utility.yul\":1126:1144   */\n  0x64\n  add\n    /* \"contract/dragon/dragon.sol\":1078:1122  require(success, \"Batch transaction failed\") */\n  mload(0x40)\n  dup1\n  swap2\n  sub\n  swap1\n  revert\ntag_12:\n    /* \"contract/dragon/dragon.sol\":1132:1258  IERC20(0xF0f942D563A6BaCf875d8cEe5AE663b12Ce62149).approve(... */\n  mload(0x40)\n  shl(0xe0, 0x095ea7b3)\n  dup2\n  mstore\n    /* \"contract/dragon/dragon.sol\":1204:1214  msg.sender */\n  caller\n    /* \"contract/dragon/dragon.sol\":1132:1258  IERC20(0xF0f942D563A6BaCf875d8cEe5AE663b12Ce62149).approve(... */\n  0x04\n  dup3\n  add\n    /* \"#utility.yul\":1329:1380   */\n  mstore\n  not(0x00)\n    /* \"#utility.yul\":1396:1414   */\n  0x24\n  dup3\n  add\n    /* \"#utility.yul\":1389:1423   */\n  mstore\n    /* \"contract/dragon/dragon.sol\":1139:1181  0xF0f942D563A6BaCf875d8cEe5AE663b12Ce62149 */\n  0xf0f942d563a6bacf875d8cee5ae663b12ce62149\n  swap1\n    /* \"contract/dragon/dragon.sol\":1132:1190  IERC20(0xF0f942D563A6BaCf875d8cEe5AE663b12Ce62149).approve */\n  0x095ea7b3\n  swap1\n    /* \"#utility.yul\":1302:1320   */\n  0x44\n  add\n    /* \"contract/dragon/dragon.sol\":1132:1258  IERC20(0xF0f942D563A6BaCf875d8cEe5AE663b12Ce62149).approve(... */\n  0x20\n  mload(0x40)\n  dup1\n  dup4\n  sub\n  dup2\n  0x00\n  dup8\n  gas\n  call\n  iszero\n  dup1\n  iszero\n  tag_18\n  jumpi\n  returndatasize\n  0x00\n  dup1\n  returndatacopy\n  revert(0x00, returndatasize)\ntag_18:\n  pop\n  pop\n  pop\n  pop\n  mload(0x40)\n  returndatasize\n  not(0x1f)\n  0x1f\n  dup3\n  add\n  and\n  dup3\n  add\n  dup1\n  0x40\n  mstore\n  pop\n  dup2\n  add\n  swap1\n  tag_19\n  swap2\n  swap1\n  tag_20\n  jump\t// in\ntag_19:\n  pop\n    /* \"contract/dragon/dragon.sol\":928:1265  {... */\n  pop\n    /* \"contract/dragon/dragon.sol\":894:1265  constructor(uint256 code) payable {... */\n  pop\n    /* \"contract/dragon/dragon.sol\":800:1703  contract bot {... */\n  jump(tag_22)\n    /* \"#utility.yul\":14:198   */\ntag_2:\n    /* \"#utility.yul\":84:90   */\n  0x00\n    /* \"#utility.yul\":137:139   */\n  0x20\n    /* \"#utility.yul\":125:134   */\n  dup3\n    /* \"#utility.yul\":116:123   */\n  dup5\n    /* \"#utility.yul\":112:135   */\n  sub\n    /* \"#utility.yul\":108:140   */\n  slt\n    /* \"#utility.yul\":105:157   */\n  iszero\n  tag_24\n  jumpi\n    /* \"#utility.yul\":153:154   */\n  0x00\n    /* \"#utility.yul\":150:151   */\n  dup1\n    /* \"#utility.yul\":143:155   */\n  revert\n    /* \"#utility.yul\":105:157   */\ntag_24:\n  pop\n    /* \"#utility.yul\":176:192   */\n  mload\n  swap2\n    /* \"#utility.yul\":14:198   */\n  swap1\n  pop\n  jump\t// out\n    /* \"#utility.yul\":385:797   */\ntag_8:\n    /* \"#utility.yul\":514:517   */\n  0x00\n    /* \"#utility.yul\":552:558   */\n  dup3\n    /* \"#utility.yul\":546:559   */\n  mload\n    /* \"#utility.yul\":577:578   */\n  0x00\n    /* \"#utility.yul\":587:716   */\ntag_27:\n    /* \"#utility.yul\":601:607   */\n  dup2\n    /* \"#utility.yul\":598:599   */\n  dup2\n    /* \"#utility.yul\":595:608   */\n  lt\n    /* \"#utility.yul\":587:716   */\n  iszero\n  tag_29\n  jumpi\n    /* \"#utility.yul\":699:703   */\n  0x20\n    /* \"#utility.yul\":683:697   */\n  dup2\n  dup7\n  add\n    /* \"#utility.yul\":679:704   */\n  dup2\n  add\n    /* \"#utility.yul\":673:705   */\n  mload\n    /* \"#utility.yul\":660:671   */\n  dup6\n  dup4\n  add\n    /* \"#utility.yul\":653:706   */\n  mstore\n    /* \"#utility.yul\":616:628   */\n  add\n    /* \"#utility.yul\":587:716   */\n  jump(tag_27)\ntag_29:\n  pop\n    /* \"#utility.yul\":771:772   */\n  0x00\n    /* \"#utility.yul\":735:751   */\n  swap3\n  add\n    /* \"#utility.yul\":760:773   */\n  swap2\n  dup3\n  mstore\n  pop\n    /* \"#utility.yul\":735:751   */\n  swap2\n    /* \"#utility.yul\":385:797   */\n  swap1\n  pop\n  jump\t// out\n    /* \"#utility.yul\":1434:1711   */\ntag_20:\n    /* \"#utility.yul\":1501:1507   */\n  0x00\n    /* \"#utility.yul\":1554:1556   */\n  0x20\n    /* \"#utility.yul\":1542:1551   */\n  dup3\n    /* \"#utility.yul\":1533:1540   */\n  dup5\n    /* \"#utility.yul\":1529:1552   */\n  sub\n    /* \"#utility.yul\":1525:1557   */\n  slt\n    /* \"#utility.yul\":1522:1574   */\n  iszero\n  tag_33\n  jumpi\n    /* \"#utility.yul\":1570:1571   */\n  0x00\n    /* \"#utility.yul\":1567:1568   */\n  dup1\n    /* \"#utility.yul\":1560:1572   */\n  revert\n    /* \"#utility.yul\":1522:1574   */\ntag_33:\n    /* \"#utility.yul\":1602:1611   */\n  dup2\n    /* \"#utility.yul\":1596:1612   */\n  mload\n    /* \"#utility.yul\":1655:1660   */\n  dup1\n    /* \"#utility.yul\":1648:1661   */\n  iszero\n    /* \"#utility.yul\":1641:1662   */\n  iszero\n    /* \"#utility.yul\":1634:1639   */\n  dup2\n    /* \"#utility.yul\":1631:1663   */\n  eq\n    /* \"#utility.yul\":1621:1681   */\n  tag_34\n  jumpi\n    /* \"#utility.yul\":1677:1678   */\n  0x00\n    /* \"#utility.yul\":1674:1675   */\n  dup1\n    /* \"#utility.yul\":1667:1679   */\n  revert\n    /* \"#utility.yul\":1621:1681   */\ntag_34:\n    /* \"#utility.yul\":1700:1705   */\n  swap4\n    /* \"#utility.yul\":1434:1711   */\n  swap3\n  pop\n  pop\n  pop\n  jump\t// out\ntag_22:\n    /* \"contract/dragon/dragon.sol\":800:1703  contract bot {... */\n  dataSize(sub_0)\n  dup1\n  dataOffset(sub_0)\n  0x00\n  codecopy\n  0x00\n  return\nstop\n\nsub_0: assembly {\n        /* \"contract/dragon/dragon.sol\":800:1703  contract bot {... */\n      mstore(0x40, 0x80)\n      callvalue\n      dup1\n      iszero\n      tag_1\n      jumpi\n      0x00\n      dup1\n      revert\n    tag_1:\n      pop\n      jumpi(tag_2, lt(calldatasize, 0x04))\n      shr(0xe0, calldataload(0x00))\n      dup1\n      0x57ea89b6\n      eq\n      tag_3\n      jumpi\n      dup1\n      0xa66f42c0\n      eq\n      tag_4\n      jumpi\n    tag_2:\n      0x00\n      dup1\n      revert\n        /* \"contract/dragon/dragon.sol\":1271:1486  function Withdraw() external {... */\n    tag_3:\n      tag_5\n      tag_6\n      jump\t// in\n    tag_5:\n      stop\n        /* \"contract/dragon/dragon.sol\":1492:1701  function boost() external {... */\n    tag_4:\n      tag_5\n      tag_8\n      jump\t// in\n        /* \"contract/dragon/dragon.sol\":1271:1486  function Withdraw() external {... */\n    tag_6:\n        /* \"contract/dragon/dragon.sol\":1390:1424  abi.encodeWithSelector(0x3ccfd60b) */\n      0x40\n      dup1\n      mload\n      0x04\n      dup2\n      mstore\n      0x24\n      dup2\n      add\n      dup3\n      mstore\n      0x20\n      dup2\n      add\n      dup1\n      mload\n      sub(shl(0xe0, 0x01), 0x01)\n      and\n      shl(0xe0, 0x3ccfd60b)\n      or\n      swap1\n      mstore\n        /* \"contract/dragon/dragon.sol\":1329:1434  0xEf64C03D5E757a5f6dC5284F3d627F3C255F09aB.call(... */\n      swap1\n      mload\n        /* \"contract/dragon/dragon.sol\":1311:1323  bool success */\n      0x00\n      swap2\n        /* \"contract/dragon/dragon.sol\":1329:1371  0xEf64C03D5E757a5f6dC5284F3d627F3C255F09aB */\n      0xef64c03d5e757a5f6dc5284f3d627f3c255f09ab\n      swap2\n        /* \"contract/dragon/dragon.sol\":1329:1434  0xEf64C03D5E757a5f6dC5284F3d627F3C255F09aB.call(... */\n      tag_10\n      swap2\n        /* \"contract/dragon/dragon.sol\":1390:1424  abi.encodeWithSelector(0x3ccfd60b) */\n      swap1\n        /* \"contract/dragon/dragon.sol\":1329:1434  0xEf64C03D5E757a5f6dC5284F3d627F3C255F09aB.call(... */\n      tag_11\n      jump\t// in\n    tag_10:\n      0x00\n      mload(0x40)\n      dup1\n      dup4\n      sub\n      dup2\n      0x00\n      dup7\n      gas\n      call\n      swap2\n      pop\n      pop\n      returndatasize\n      dup1\n      0x00\n      dup2\n      eq\n      tag_14\n      jumpi\n      mload(0x40)\n      swap2\n      pop\n      and(add(returndatasize, 0x3f), not(0x1f))\n      dup3\n      add\n      0x40\n      mstore\n      returndatasize\n      dup3\n      mstore\n      returndatasize\n      0x00\n      0x20\n      dup5\n      add\n      returndatacopy\n      jump(tag_13)\n    tag_14:\n      0x60\n      swap2\n      pop\n    tag_13:\n      pop\n        /* \"contract/dragon/dragon.sol\":1310:1434  (bool success, ) = 0xEf64C03D5E757a5f6dC5284F3d627F3C255F09aB.call(... */\n      pop\n      swap1\n      pop\n        /* \"contract/dragon/dragon.sol\":1452:1459  success */\n      dup1\n        /* \"contract/dragon/dragon.sol\":1444:1479  require(success, \"withdraw failed\") */\n      tag_15\n      jumpi\n      mload(0x40)\n      shl(0xe5, 0x461bcd)\n      dup2\n      mstore\n        /* \"#utility.yul\":633:635   */\n      0x20\n        /* \"contract/dragon/dragon.sol\":1444:1479  require(success, \"withdraw failed\") */\n      0x04\n      dup3\n      add\n        /* \"#utility.yul\":615:636   */\n      mstore\n        /* \"#utility.yul\":672:674   */\n      0x0f\n        /* \"#utility.yul\":652:670   */\n      0x24\n      dup3\n      add\n        /* \"#utility.yul\":645:675   */\n      mstore\n      shl(0x8a, 0x1dda5d1a191c985dc819985a5b1959)\n        /* \"#utility.yul\":691:709   */\n      0x44\n      dup3\n      add\n        /* \"#utility.yul\":684:729   */\n      mstore\n        /* \"#utility.yul\":746:764   */\n      0x64\n      add\n        /* \"contract/dragon/dragon.sol\":1444:1479  require(success, \"withdraw failed\") */\n    tag_16:\n      mload(0x40)\n      dup1\n      swap2\n      sub\n      swap1\n      revert\n    tag_15:\n        /* \"contract/dragon/dragon.sol\":1300:1486  {... */\n      pop\n        /* \"contract/dragon/dragon.sol\":1271:1486  function Withdraw() external {... */\n      jump\t// out\n        /* \"contract/dragon/dragon.sol\":1492:1701  function boost() external {... */\n    tag_8:\n        /* \"contract/dragon/dragon.sol\":1608:1642  abi.encodeWithSelector(0xa66f42c0) */\n      0x40\n      dup1\n      mload\n      0x04\n      dup2\n      mstore\n      0x24\n      dup2\n      add\n      dup3\n      mstore\n      0x20\n      dup2\n      add\n      dup1\n      mload\n      sub(shl(0xe0, 0x01), 0x01)\n      and\n      shl(0xe6, 0x0299bd0b)\n      or\n      swap1\n      mstore\n        /* \"contract/dragon/dragon.sol\":1547:1652  0xEf64C03D5E757a5f6dC5284F3d627F3C255F09aB.call(... */\n      swap1\n      mload\n        /* \"contract/dragon/dragon.sol\":1529:1541  bool success */\n      0x00\n      swap2\n        /* \"contract/dragon/dragon.sol\":1547:1589  0xEf64C03D5E757a5f6dC5284F3d627F3C255F09aB */\n      0xef64c03d5e757a5f6dc5284f3d627f3c255f09ab\n      swap2\n        /* \"contract/dragon/dragon.sol\":1547:1652  0xEf64C03D5E757a5f6dC5284F3d627F3C255F09aB.call(... */\n      tag_19\n      swap2\n        /* \"contract/dragon/dragon.sol\":1608:1642  abi.encodeWithSelector(0xa66f42c0) */\n      swap1\n        /* \"contract/dragon/dragon.sol\":1547:1652  0xEf64C03D5E757a5f6dC5284F3d627F3C255F09aB.call(... */\n      tag_11\n      jump\t// in\n    tag_19:\n      0x00\n      mload(0x40)\n      dup1\n      dup4\n      sub\n      dup2\n      0x00\n      dup7\n      gas\n      call\n      swap2\n      pop\n      pop\n      returndatasize\n      dup1\n      0x00\n      dup2\n      eq\n      tag_22\n      jumpi\n      mload(0x40)\n      swap2\n      pop\n      and(add(returndatasize, 0x3f), not(0x1f))\n      dup3\n      add\n      0x40\n      mstore\n      returndatasize\n      dup3\n      mstore\n      returndatasize\n      0x00\n      0x20\n      dup5\n      add\n      returndatacopy\n      jump(tag_21)\n    tag_22:\n      0x60\n      swap2\n      pop\n    tag_21:\n      pop\n        /* \"contract/dragon/dragon.sol\":1528:1652  (bool success, ) = 0xEf64C03D5E757a5f6dC5284F3d627F3C255F09aB.call(... */\n      pop\n      swap1\n      pop\n        /* \"contract/dragon/dragon.sol\":1670:1677  success */\n      dup1\n        /* \"contract/dragon/dragon.sol\":1662:1694  require(success, \"boost failed\") */\n      tag_15\n      jumpi\n      mload(0x40)\n      shl(0xe5, 0x461bcd)\n      dup2\n      mstore\n        /* \"#utility.yul\":977:979   */\n      0x20\n        /* \"contract/dragon/dragon.sol\":1662:1694  require(success, \"boost failed\") */\n      0x04\n      dup3\n      add\n        /* \"#utility.yul\":959:980   */\n      mstore\n        /* \"#utility.yul\":1016:1018   */\n      0x0c\n        /* \"#utility.yul\":996:1014   */\n      0x24\n      dup3\n      add\n        /* \"#utility.yul\":989:1019   */\n      mstore\n      shl(0xa2, 0x189bdbdcdd0819985a5b1959)\n        /* \"#utility.yul\":1035:1053   */\n      0x44\n      dup3\n      add\n        /* \"#utility.yul\":1028:1070   */\n      mstore\n        /* \"#utility.yul\":1087:1105   */\n      0x64\n      add\n        /* \"contract/dragon/dragon.sol\":1662:1694  require(success, \"boost failed\") */\n      tag_16\n        /* \"#utility.yul\":775:1111   */\n      jump\n        /* \"#utility.yul\":14:426   */\n    tag_11:\n        /* \"#utility.yul\":143:146   */\n      0x00\n        /* \"#utility.yul\":181:187   */\n      dup3\n        /* \"#utility.yul\":175:188   */\n      mload\n        /* \"#utility.yul\":206:207   */\n      0x00\n        /* \"#utility.yul\":216:345   */\n    tag_28:\n        /* \"#utility.yul\":230:236   */\n      dup2\n        /* \"#utility.yul\":227:228   */\n      dup2\n        /* \"#utility.yul\":224:237   */\n      lt\n        /* \"#utility.yul\":216:345   */\n      iszero\n      tag_30\n      jumpi\n        /* \"#utility.yul\":328:332   */\n      0x20\n        /* \"#utility.yul\":312:326   */\n      dup2\n      dup7\n      add\n        /* \"#utility.yul\":308:333   */\n      dup2\n      add\n        /* \"#utility.yul\":302:334   */\n      mload\n        /* \"#utility.yul\":289:300   */\n      dup6\n      dup4\n      add\n        /* \"#utility.yul\":282:335   */\n      mstore\n        /* \"#utility.yul\":245:257   */\n      add\n        /* \"#utility.yul\":216:345   */\n      jump(tag_28)\n    tag_30:\n      pop\n        /* \"#utility.yul\":400:401   */\n      0x00\n        /* \"#utility.yul\":364:380   */\n      swap3\n      add\n        /* \"#utility.yul\":389:402   */\n      swap2\n      dup3\n      mstore\n      pop\n        /* \"#utility.yul\":364:380   */\n      swap2\n        /* \"#utility.yul\":14:426   */\n      swap1\n      pop\n      jump\t// out\n\n    auxdata: 0xa2646970667358221220d5f85fa50b5f6d5df0855c046c00ebf506f0308138adc2cb2240ccb2b18873b664736f6c63430008150033\n}\n",
				"bytecode": {
					"linkReferences": {},
					"object": "608060408190525f80546001600160a01b03191673ef64c03d5e757a5f6dc5284f3d627f3c255f09ab17905561048c38819003908190833981016040819052610047916101cb565b5f73ef64c03d5e757a5f6dc5284f3d627f3c255f09ab6001600160a01b031663b260c42a8360405160240161007e91815260200190565b6040516020818303038152906040529060e01b6020820180516001600160e01b0383818316178352505050506040516100b791906101e2565b5f604051808303815f865af19150503d805f81146100f0576040519150601f19603f3d011682016040523d82523d5f602084013e6100f5565b606091505b505090508061014a5760405162461bcd60e51b815260206004820152601860248201527f4261746368207472616e73616374696f6e206661696c65640000000000000000604482015260640160405180910390fd5b60405163095ea7b360e01b81523360048201525f19602482015273f0f942d563a6bacf875d8cee5ae663b12ce621499063095ea7b3906044016020604051808303815f875af115801561019f573d5f803e3d5ffd5b505050506040513d601f19601f820116820180604052508101906101c3919061020e565b505050610234565b5f602082840312156101db575f80fd5b5051919050565b5f82515f5b8181101561020157602081860181015185830152016101e7565b505f920191825250919050565b5f6020828403121561021e575f80fd5b8151801515811461022d575f80fd5b9392505050565b61024b806102415f395ff3fe608060405234801561000f575f80fd5b5060043610610034575f3560e01c806357ea89b614610038578063a66f42c014610042575b5f80fd5b61004061004a565b005b61004061011f565b60408051600481526024810182526020810180516001600160e01b0316633ccfd60b60e01b17905290515f9173ef64c03d5e757a5f6dc5284f3d627f3c255f09ab9161009691906101e9565b5f604051808303815f865af19150503d805f81146100cf576040519150601f19603f3d011682016040523d82523d5f602084013e6100d4565b606091505b505090508061011c5760405162461bcd60e51b815260206004820152600f60248201526e1dda5d1a191c985dc819985a5b1959608a1b60448201526064015b60405180910390fd5b50565b60408051600481526024810182526020810180516001600160e01b0316630299bd0b60e61b17905290515f9173ef64c03d5e757a5f6dc5284f3d627f3c255f09ab9161016b91906101e9565b5f604051808303815f865af19150503d805f81146101a4576040519150601f19603f3d011682016040523d82523d5f602084013e6101a9565b606091505b505090508061011c5760405162461bcd60e51b815260206004820152600c60248201526b189bdbdcdd0819985a5b195960a21b6044820152606401610113565b5f82515f5b8181101561020857602081860181015185830152016101ee565b505f92019182525091905056fea2646970667358221220d5f85fa50b5f6d5df0855c046c00ebf506f0308138adc2cb2240ccb2b18873b664736f6c63430008150033",
					"opcodes": "PUSH1 0x80 PUSH1 0x40 DUP2 SWAP1 MSTORE PUSH0 DUP1 SLOAD PUSH1 0x1 PUSH1 0x1 PUSH1 0xA0 SHL SUB NOT AND PUSH20 0xEF64C03D5E757A5F6DC5284F3D627F3C255F09AB OR SWAP1 SSTORE PUSH2 0x48C CODESIZE DUP2 SWAP1 SUB SWAP1 DUP2 SWAP1 DUP4 CODECOPY DUP2 ADD PUSH1 0x40 DUP2 SWAP1 MSTORE PUSH2 0x47 SWAP2 PUSH2 0x1CB JUMP JUMPDEST PUSH0 PUSH20 0xEF64C03D5E757A5F6DC5284F3D627F3C255F09AB PUSH1 0x1 PUSH1 0x1 PUSH1 0xA0 SHL SUB AND PUSH4 0xB260C42A DUP4 PUSH1 0x40 MLOAD PUSH1 0x24 ADD PUSH2 0x7E SWAP2 DUP2 MSTORE PUSH1 0x20 ADD SWAP1 JUMP JUMPDEST PUSH1 0x40 MLOAD PUSH1 0x20 DUP2 DUP4 SUB SUB DUP2 MSTORE SWAP1 PUSH1 0x40 MSTORE SWAP1 PUSH1 0xE0 SHL PUSH1 0x20 DUP3 ADD DUP1 MLOAD PUSH1 0x1 PUSH1 0x1 PUSH1 0xE0 SHL SUB DUP4 DUP2 DUP4 AND OR DUP4 MSTORE POP POP POP POP PUSH1 0x40 MLOAD PUSH2 0xB7 SWAP2 SWAP1 PUSH2 0x1E2 JUMP JUMPDEST PUSH0 PUSH1 0x40 MLOAD DUP1 DUP4 SUB DUP2 PUSH0 DUP7 GAS CALL SWAP2 POP POP RETURNDATASIZE DUP1 PUSH0 DUP2 EQ PUSH2 0xF0 JUMPI PUSH1 0x40 MLOAD SWAP2 POP PUSH1 0x1F NOT PUSH1 0x3F RETURNDATASIZE ADD AND DUP3 ADD PUSH1 0x40 MSTORE RETURNDATASIZE DUP3 MSTORE RETURNDATASIZE PUSH0 PUSH1 0x20 DUP5 ADD RETURNDATACOPY PUSH2 0xF5 JUMP JUMPDEST PUSH1 0x60 SWAP2 POP JUMPDEST POP POP SWAP1 POP DUP1 PUSH2 0x14A JUMPI PUSH1 0x40 MLOAD PUSH3 0x461BCD PUSH1 0xE5 SHL DUP2 MSTORE PUSH1 0x20 PUSH1 0x4 DUP3 ADD MSTORE PUSH1 0x18 PUSH1 0x24 DUP3 ADD MSTORE PUSH32 0x4261746368207472616E73616374696F6E206661696C65640000000000000000 PUSH1 0x44 DUP3 ADD MSTORE PUSH1 0x64 ADD PUSH1 0x40 MLOAD DUP1 SWAP2 SUB SWAP1 REVERT JUMPDEST PUSH1 0x40 MLOAD PUSH4 0x95EA7B3 PUSH1 0xE0 SHL DUP2 MSTORE CALLER PUSH1 0x4 DUP3 ADD MSTORE PUSH0 NOT PUSH1 0x24 DUP3 ADD MSTORE PUSH20 0xF0F942D563A6BACF875D8CEE5AE663B12CE62149 SWAP1 PUSH4 0x95EA7B3 SWAP1 PUSH1 0x44 ADD PUSH1 0x20 PUSH1 0x40 MLOAD DUP1 DUP4 SUB DUP2 PUSH0 DUP8 GAS CALL ISZERO DUP1 ISZERO PUSH2 0x19F JUMPI RETURNDATASIZE PUSH0 DUP1 RETURNDATACOPY RETURNDATASIZE PUSH0 REVERT JUMPDEST POP POP POP POP PUSH1 0x40 MLOAD RETURNDATASIZE PUSH1 0x1F NOT PUSH1 0x1F DUP3 ADD AND DUP3 ADD DUP1 PUSH1 0x40 MSTORE POP DUP2 ADD SWAP1 PUSH2 0x1C3 SWAP2 SWAP1 PUSH2 0x20E JUMP JUMPDEST POP POP POP PUSH2 0x234 JUMP JUMPDEST PUSH0 PUSH1 0x20 DUP3 DUP5 SUB SLT ISZERO PUSH2 0x1DB JUMPI PUSH0 DUP1 REVERT JUMPDEST POP MLOAD SWAP2 SWAP1 POP JUMP JUMPDEST PUSH0 DUP3 MLOAD PUSH0 JUMPDEST DUP2 DUP2 LT ISZERO PUSH2 0x201 JUMPI PUSH1 0x20 DUP2 DUP7 ADD DUP2 ADD MLOAD DUP6 DUP4 ADD MSTORE ADD PUSH2 0x1E7 JUMP JUMPDEST POP PUSH0 SWAP3 ADD SWAP2 DUP3 MSTORE POP SWAP2 SWAP1 POP JUMP JUMPDEST PUSH0 PUSH1 0x20 DUP3 DUP5 SUB SLT ISZERO PUSH2 0x21E JUMPI PUSH0 DUP1 REVERT JUMPDEST DUP2 MLOAD DUP1 ISZERO ISZERO DUP2 EQ PUSH2 0x22D JUMPI PUSH0 DUP1 REVERT JUMPDEST SWAP4 SWAP3 POP POP POP JUMP JUMPDEST PUSH2 0x24B DUP1 PUSH2 0x241 PUSH0 CODECOPY PUSH0 RETURN INVALID PUSH1 0x80 PUSH1 0x40 MSTORE CALLVALUE DUP1 ISZERO PUSH2 0xF JUMPI PUSH0 DUP1 REVERT JUMPDEST POP PUSH1 0x4 CALLDATASIZE LT PUSH2 0x34 JUMPI PUSH0 CALLDATALOAD PUSH1 0xE0 SHR DUP1 PUSH4 0x57EA89B6 EQ PUSH2 0x38 JUMPI DUP1 PUSH4 0xA66F42C0 EQ PUSH2 0x42 JUMPI JUMPDEST PUSH0 DUP1 REVERT JUMPDEST PUSH2 0x40 PUSH2 0x4A JUMP JUMPDEST STOP JUMPDEST PUSH2 0x40 PUSH2 0x11F JUMP JUMPDEST PUSH1 0x40 DUP1 MLOAD PUSH1 0x4 DUP2 MSTORE PUSH1 0x24 DUP2 ADD DUP3 MSTORE PUSH1 0x20 DUP2 ADD DUP1 MLOAD PUSH1 0x1 PUSH1 0x1 PUSH1 0xE0 SHL SUB AND PUSH4 0x3CCFD60B PUSH1 0xE0 SHL OR SWAP1 MSTORE SWAP1 MLOAD PUSH0 SWAP2 PUSH20 0xEF64C03D5E757A5F6DC5284F3D627F3C255F09AB SWAP2 PUSH2 0x96 SWAP2 SWAP1 PUSH2 0x1E9 JUMP JUMPDEST PUSH0 PUSH1 0x40 MLOAD DUP1 DUP4 SUB DUP2 PUSH0 DUP7 GAS CALL SWAP2 POP POP RETURNDATASIZE DUP1 PUSH0 DUP2 EQ PUSH2 0xCF JUMPI PUSH1 0x40 MLOAD SWAP2 POP PUSH1 0x1F NOT PUSH1 0x3F RETURNDATASIZE ADD AND DUP3 ADD PUSH1 0x40 MSTORE RETURNDATASIZE DUP3 MSTORE RETURNDATASIZE PUSH0 PUSH1 0x20 DUP5 ADD RETURNDATACOPY PUSH2 0xD4 JUMP JUMPDEST PUSH1 0x60 SWAP2 POP JUMPDEST POP POP SWAP1 POP DUP1 PUSH2 0x11C JUMPI PUSH1 0x40 MLOAD PUSH3 0x461BCD PUSH1 0xE5 SHL DUP2 MSTORE PUSH1 0x20 PUSH1 0x4 DUP3 ADD MSTORE PUSH1 0xF PUSH1 0x24 DUP3 ADD MSTORE PUSH15 0x1DDA5D1A191C985DC819985A5B1959 PUSH1 0x8A SHL PUSH1 0x44 DUP3 ADD MSTORE PUSH1 0x64 ADD JUMPDEST PUSH1 0x40 MLOAD DUP1 SWAP2 SUB SWAP1 REVERT JUMPDEST POP JUMP JUMPDEST PUSH1 0x40 DUP1 MLOAD PUSH1 0x4 DUP2 MSTORE PUSH1 0x24 DUP2 ADD DUP3 MSTORE PUSH1 0x20 DUP2 ADD DUP1 MLOAD PUSH1 0x1 PUSH1 0x1 PUSH1 0xE0 SHL SUB AND PUSH4 0x299BD0B PUSH1 0xE6 SHL OR SWAP1 MSTORE SWAP1 MLOAD PUSH0 SWAP2 PUSH20 0xEF64C03D5E757A5F6DC5284F3D627F3C255F09AB SWAP2 PUSH2 0x16B SWAP2 SWAP1 PUSH2 0x1E9 JUMP JUMPDEST PUSH0 PUSH1 0x40 MLOAD DUP1 DUP4 SUB DUP2 PUSH0 DUP7 GAS CALL SWAP2 POP POP RETURNDATASIZE DUP1 PUSH0 DUP2 EQ PUSH2 0x1A4 JUMPI PUSH1 0x40 MLOAD SWAP2 POP PUSH1 0x1F NOT PUSH1 0x3F RETURNDATASIZE ADD AND DUP3 ADD PUSH1 0x40 MSTORE RETURNDATASIZE DUP3 MSTORE RETURNDATASIZE PUSH0 PUSH1 0x20 DUP5 ADD RETURNDATACOPY PUSH2 0x1A9 JUMP JUMPDEST PUSH1 0x60 SWAP2 POP JUMPDEST POP POP SWAP1 POP DUP1 PUSH2 0x11C JUMPI PUSH1 0x40 MLOAD PUSH3 0x461BCD PUSH1 0xE5 SHL DUP2 MSTORE PUSH1 0x20 PUSH1 0x4 DUP3 ADD MSTORE PUSH1 0xC PUSH1 0x24 DUP3 ADD MSTORE PUSH12 0x189BDBDCDD0819985A5B1959 PUSH1 0xA2 SHL PUSH1 0x44 DUP3 ADD MSTORE PUSH1 0x64 ADD PUSH2 0x113 JUMP JUMPDEST PUSH0 DUP3 MLOAD PUSH0 JUMPDEST DUP2 DUP2 LT ISZERO PUSH2 0x208 JUMPI PUSH1 0x20 DUP2 DUP7 ADD DUP2 ADD MLOAD DUP6 DUP4 ADD MSTORE ADD PUSH2 0x1EE JUMP JUMPDEST POP PUSH0 SWAP3 ADD SWAP2 DUP3 MSTORE POP SWAP2 SWAP1 POP JUMP INVALID LOG2 PUSH5 0x6970667358 0x22 SLT KECCAK256 0xD5 0xF8 PUSH0 0xA5 SIGNEXTEND PUSH0 PUSH14 0x5DF0855C046C00EBF506F0308138 0xAD 0xC2 0xCB 0x22 BLOCKHASH 0xCC 0xB2 0xB1 DUP9 PUSH20 0xB664736F6C634300081500330000000000000000 "
				},
				"gasEstimates": {
					"creation": {
						"codeDepositCost": "117400",
						"executionCost": "infinite",
						"totalCost": "infinite"
					},
					"external": {
						"Withdraw()": "infinite",
						"boost()": "infinite"
					}
				},
				"methodIdentifiers": {
					"Withdraw()": "57ea89b6",
					"boost()": "a66f42c0"
				}
			},
			"storageLayout": {
				"storage": [
					{
						"astId": 46,
						"contract": "contract/dragon/dragon.sol:bot",
						"label": "dragon",
						"offset": 0,
						"slot": "0",
						"type": "t_contract(IDragon)40"
					}
				],
				"types": {
					"t_contract(IDragon)40": {
						"encoding": "inplace",
						"label": "contract IDragon",
						"numberOfBytes": "20"
					}
				}
			},
			"userdoc": {
				"kind": "user",
				"methods": {},
				"version": 1
			}
		}
	}
}