{
	"contract/dragon/dragon.sol": {
		"Batcher": {
			"abi": [
				{
					"inputs": [],
					"stateMutability": "nonpayable",
					"type": "constructor"
				},
				{
					"inputs": [
						{
							"internalType": "uint256",
							"name": "start_index",
							"type": "uint256"
						},
						{
							"internalType": "uint256",
							"name": "end_index",
							"type": "uint256"
						}
					],
					"name": "BatchBoost",
					"outputs": [],
					"stateMutability": "nonpayable",
					"type": "function"
				},
				{
					"inputs": [
						{
							"internalType": "uint256",
							"name": "invite_code",
							"type": "uint256"
						},
						{
							"internalType": "uint256",
							"name": "times",
							"type": "uint256"
						}
					],
					"name": "BatchMint",
					"outputs": [],
					"stateMutability": "nonpayable",
					"type": "function"
				},
				{
					"inputs": [
						{
							"internalType": "uint256",
							"name": "start_index",
							"type": "uint256"
						},
						{
							"internalType": "uint256",
							"name": "end_index",
							"type": "uint256"
						}
					],
					"name": "BatchWithdarw",
					"outputs": [],
					"stateMutability": "nonpayable",
					"type": "function"
				},
				{
					"inputs": [
						{
							"internalType": "uint256",
							"name": "code",
							"type": "uint256"
						}
					],
					"name": "change_code",
					"outputs": [],
					"stateMutability": "nonpayable",
					"type": "function"
				},
				{
					"inputs": [
						{
							"internalType": "uint256",
							"name": "times",
							"type": "uint256"
						}
					],
					"name": "change_times",
					"outputs": [],
					"stateMutability": "nonpayable",
					"type": "function"
				},
				{
					"inputs": [
						{
							"internalType": "address",
							"name": "_owner",
							"type": "address"
						}
					],
					"name": "own_address_num",
					"outputs": [
						{
							"internalType": "uint256",
							"name": "res",
							"type": "uint256"
						}
					],
					"stateMutability": "view",
					"type": "function"
				}
			],
			"devdoc": {
				"kind": "dev",
				"methods": {},
				"version": 1
			},
			"evm": {
				"assembly": "    /* \"contract/dragon/dragon.sol\":1705:4092  contract Batcher {... */\n  mstore(0x40, 0xa0)\n    /* \"contract/dragon/dragon.sol\":1840:1842  15 */\n  0x0f\n    /* \"contract/dragon/dragon.sol\":1820:1842  uint256 tax_times = 15 */\n  0x01\n  sstore\n    /* \"contract/dragon/dragon.sol\":1869:1875  137968 */\n  0x021af0\n    /* \"contract/dragon/dragon.sol\":1848:1875  uint256 owner_code = 137968 */\n  0x02\n  sstore\n    /* \"contract/dragon/dragon.sol\":1881:1949  IDragon dragon = IDragon(0xEf64C03D5E757a5f6dC5284F3d627F3C255F09aB) */\n  0x03\n  dup1\n  sload\n  not(sub(shl(0xa0, 0x01), 0x01))\n  and\n    /* \"contract/dragon/dragon.sol\":1906:1948  0xEf64C03D5E757a5f6dC5284F3d627F3C255F09aB */\n  0xef64c03d5e757a5f6dc5284f3d627f3c255f09ab\n    /* \"contract/dragon/dragon.sol\":1881:1949  IDragon dragon = IDragon(0xEf64C03D5E757a5f6dC5284F3d627F3C255F09aB) */\n  or\n  swap1\n  sstore\n    /* \"contract/dragon/dragon.sol\":1956:2005  constructor() {... */\n  callvalue\n  dup1\n  iszero\n  tag_1\n  jumpi\n  0x00\n  dup1\n  revert\ntag_1:\n  pop\n    /* \"contract/dragon/dragon.sol\":1988:1998  msg.sender */\n  caller\n    /* \"contract/dragon/dragon.sol\":1980:1998  owner = msg.sender */\n  0x80\n  mstore\n    /* \"contract/dragon/dragon.sol\":1705:4092  contract Batcher {... */\n  mload(0x80)\n  codecopy(0x00, dataOffset(sub_0), dataSize(sub_0))\n  0x00\n  assignImmutable(\"0x631897788617bc63fb0292c44f57a6c3824e4264bc88fb4e3c08b910f3f417fc\")\n  return(0x00, dataSize(sub_0))\nstop\n\nsub_0: assembly {\n        /* \"contract/dragon/dragon.sol\":1705:4092  contract Batcher {... */\n      mstore(0x40, 0x80)\n      callvalue\n      dup1\n      iszero\n      tag_1\n      jumpi\n      0x00\n      dup1\n      revert\n    tag_1:\n      pop\n      jumpi(tag_2, lt(calldatasize, 0x04))\n      shr(0xe0, calldataload(0x00))\n      dup1\n      0x06055939\n      eq\n      tag_3\n      jumpi\n      dup1\n      0x1ceeddf4\n      eq\n      tag_4\n      jumpi\n      dup1\n      0x3cd64f18\n      eq\n      tag_5\n      jumpi\n      dup1\n      0xd97af6c2\n      eq\n      tag_6\n      jumpi\n      dup1\n      0xe1381b12\n      eq\n      tag_7\n      jumpi\n      dup1\n      0xe1b903f5\n      eq\n      tag_8\n      jumpi\n    tag_2:\n      0x00\n      dup1\n      revert\n        /* \"contract/dragon/dragon.sol\":2478:3331  function BatchWithdarw(uint256 start_index,uint256 end_index) public {... */\n    tag_3:\n      tag_9\n      tag_10\n      calldatasize\n      0x04\n      tag_11\n      jump\t// in\n    tag_10:\n      tag_12\n      jump\t// in\n    tag_9:\n      stop\n        /* \"contract/dragon/dragon.sol\":3337:3779  function BatchBoost(uint256 start_index,uint256 end_index) public {... */\n    tag_4:\n      tag_9\n      tag_14\n      calldatasize\n      0x04\n      tag_11\n      jump\t// in\n    tag_14:\n      tag_15\n      jump\t// in\n        /* \"contract/dragon/dragon.sol\":2115:2472  function BatchMint(uint256 invite_code, uint256 times) external {... */\n    tag_5:\n      tag_9\n      tag_17\n      calldatasize\n      0x04\n      tag_11\n      jump\t// in\n    tag_17:\n      tag_18\n      jump\t// in\n        /* \"contract/dragon/dragon.sol\":3914:3998  function change_code(uint256 code) public isOwner {... */\n    tag_6:\n      tag_9\n      tag_20\n      calldatasize\n      0x04\n      tag_21\n      jump\t// in\n    tag_20:\n      tag_22\n      jump\t// in\n        /* \"contract/dragon/dragon.sol\":4004:4090  function change_times(uint256 times) public isOwner {... */\n    tag_7:\n      tag_9\n      tag_24\n      calldatasize\n      0x04\n      tag_21\n      jump\t// in\n    tag_24:\n      tag_25\n      jump\t// in\n        /* \"contract/dragon/dragon.sol\":3785:3908  function own_address_num(address _owner) view public returns (uint256 res){... */\n    tag_8:\n      tag_26\n      tag_27\n      calldatasize\n      0x04\n      tag_28\n      jump\t// in\n    tag_27:\n      sub(shl(0xa0, 0x01), 0x01)\n        /* \"contract/dragon/dragon.sol\":3875:3894  own_address[_owner] */\n      and\n        /* \"contract/dragon/dragon.sol\":3847:3858  uint256 res */\n      0x00\n        /* \"contract/dragon/dragon.sol\":3875:3894  own_address[_owner] */\n      swap1\n      dup2\n      mstore\n      0x20\n      dup2\n      swap1\n      mstore\n      0x40\n      swap1\n      keccak256\n        /* \"contract/dragon/dragon.sol\":3875:3901  own_address[_owner].length */\n      sload\n      swap1\n        /* \"contract/dragon/dragon.sol\":3785:3908  function own_address_num(address _owner) view public returns (uint256 res){... */\n      jump\n    tag_26:\n      mload(0x40)\n        /* \"#utility.yul\":889:914   */\n      swap1\n      dup2\n      mstore\n        /* \"#utility.yul\":877:879   */\n      0x20\n        /* \"#utility.yul\":862:880   */\n      add\n        /* \"contract/dragon/dragon.sol\":3785:3908  function own_address_num(address _owner) view public returns (uint256 res){... */\n      mload(0x40)\n      dup1\n      swap2\n      sub\n      swap1\n      return\n        /* \"contract/dragon/dragon.sol\":2478:3331  function BatchWithdarw(uint256 start_index,uint256 end_index) public {... */\n    tag_12:\n        /* \"contract/dragon/dragon.sol\":2625:2635  msg.sender */\n      caller\n        /* \"contract/dragon/dragon.sol\":2613:2624  own_address */\n      0x00\n        /* \"contract/dragon/dragon.sol\":2613:2636  own_address[msg.sender] */\n      swap1\n      dup2\n      mstore\n      0x20\n      dup2\n      dup2\n      mstore\n      0x40\n      swap2\n      dup3\n      swap1\n      keccak256\n        /* \"contract/dragon/dragon.sol\":2597:2636  contract_list = own_address[msg.sender] */\n      dup1\n      sload\n      dup4\n      mload\n      dup2\n      dup5\n      mul\n      dup2\n      add\n      dup5\n      add\n      swap1\n      swap5\n      mstore\n      dup1\n      dup5\n      mstore\n        /* \"contract/dragon/dragon.sol\":2557:2587  address[] memory contract_list */\n      0x60\n      swap4\n        /* \"contract/dragon/dragon.sol\":2597:2636  contract_list = own_address[msg.sender] */\n      swap3\n      dup4\n      add\n        /* \"contract/dragon/dragon.sol\":2613:2636  own_address[msg.sender] */\n      dup3\n        /* \"contract/dragon/dragon.sol\":2597:2636  contract_list = own_address[msg.sender] */\n      dup3\n      dup1\n      iszero\n      tag_33\n      jumpi\n      0x20\n      mul\n      dup3\n      add\n      swap2\n      swap1\n      0x00\n      mstore\n      keccak256(0x00, 0x20)\n      swap1\n    tag_34:\n      dup2\n      sload\n      sub(shl(0xa0, 0x01), 0x01)\n      and\n      dup2\n      mstore\n      0x01\n      swap1\n      swap2\n      add\n      swap1\n      0x20\n      add\n      dup1\n      dup4\n      gt\n      tag_34\n      jumpi\n    tag_33:\n      pop\n      pop\n      pop\n      pop\n      pop\n      swap1\n      pop\n        /* \"contract/dragon/dragon.sol\":2677:2688  start_index */\n      dup3\n        /* \"contract/dragon/dragon.sol\":2654:2667  contract_list */\n      dup2\n        /* \"contract/dragon/dragon.sol\":2654:2674  contract_list.length */\n      mload\n        /* \"contract/dragon/dragon.sol\":2654:2688  contract_list.length > start_index */\n      gt\n        /* \"contract/dragon/dragon.sol\":2654:2723  contract_list.length > start_index && contract_list.length>=end_index */\n      dup1\n      iszero\n      tag_35\n      jumpi\n      pop\n        /* \"contract/dragon/dragon.sol\":2714:2723  end_index */\n      dup2\n        /* \"contract/dragon/dragon.sol\":2692:2705  contract_list */\n      dup2\n        /* \"contract/dragon/dragon.sol\":2692:2712  contract_list.length */\n      mload\n        /* \"contract/dragon/dragon.sol\":2692:2723  contract_list.length>=end_index */\n      lt\n      iszero\n        /* \"contract/dragon/dragon.sol\":2654:2723  contract_list.length > start_index && contract_list.length>=end_index */\n    tag_35:\n        /* \"contract/dragon/dragon.sol\":2646:2728  require(contract_list.length > start_index && contract_list.length>=end_index,\"f\") */\n      tag_36\n      jumpi\n      mload(0x40)\n      shl(0xe5, 0x461bcd)\n      dup2\n      mstore\n        /* \"#utility.yul\":1127:1129   */\n      0x20\n        /* \"contract/dragon/dragon.sol\":2646:2728  require(contract_list.length > start_index && contract_list.length>=end_index,\"f\") */\n      0x04\n      dup3\n      add\n        /* \"#utility.yul\":1109:1130   */\n      mstore\n        /* \"#utility.yul\":1166:1167   */\n      0x01\n        /* \"#utility.yul\":1146:1164   */\n      0x24\n      dup3\n      add\n        /* \"#utility.yul\":1139:1168   */\n      mstore\n      shl(0xf9, 0x33)\n        /* \"#utility.yul\":1184:1202   */\n      0x44\n      dup3\n      add\n        /* \"#utility.yul\":1177:1208   */\n      mstore\n        /* \"#utility.yul\":1225:1243   */\n      0x64\n      add\n        /* \"contract/dragon/dragon.sol\":2646:2728  require(contract_list.length > start_index && contract_list.length>=end_index,\"f\") */\n    tag_37:\n      mload(0x40)\n      dup1\n      swap2\n      sub\n      swap1\n      revert\n    tag_36:\n        /* \"contract/dragon/dragon.sol\":2780:2822  0xF0f942D563A6BaCf875d8cEe5AE663b12Ce62149 */\n      0xf0f942d563a6bacf875d8cee5ae663b12ce62149\n        /* \"contract/dragon/dragon.sol\":2859:2870  start_index */\n      dup4\n        /* \"contract/dragon/dragon.sol\":2842:3325  for (uint256 i = start_index; i < contract_list.length && end_index>=i; i++) {... */\n    tag_39:\n        /* \"contract/dragon/dragon.sol\":2876:2889  contract_list */\n      dup3\n        /* \"contract/dragon/dragon.sol\":2876:2896  contract_list.length */\n      mload\n        /* \"contract/dragon/dragon.sol\":2872:2873  i */\n      dup2\n        /* \"contract/dragon/dragon.sol\":2872:2896  i < contract_list.length */\n      lt\n        /* \"contract/dragon/dragon.sol\":2872:2912  i < contract_list.length && end_index>=i */\n      dup1\n      iszero\n      tag_42\n      jumpi\n      pop\n        /* \"contract/dragon/dragon.sol\":2911:2912  i */\n      dup1\n        /* \"contract/dragon/dragon.sol\":2900:2909  end_index */\n      dup5\n        /* \"contract/dragon/dragon.sol\":2900:2912  end_index>=i */\n      lt\n      iszero\n        /* \"contract/dragon/dragon.sol\":2872:2912  i < contract_list.length && end_index>=i */\n    tag_42:\n        /* \"contract/dragon/dragon.sol\":2842:3325  for (uint256 i = start_index; i < contract_list.length && end_index>=i; i++) {... */\n      iszero\n      tag_40\n      jumpi\n        /* \"contract/dragon/dragon.sol\":2937:2943  dragon */\n      sload(0x03)\n        /* \"contract/dragon/dragon.sol\":2960:2976  contract_list[i] */\n      dup4\n      mload\n        /* \"contract/dragon/dragon.sol\":2980:2981  0 */\n      0x00\n      swap2\n      sub(shl(0xa0, 0x01), 0x01)\n        /* \"contract/dragon/dragon.sol\":2937:2943  dragon */\n      and\n      swap1\n        /* \"contract/dragon/dragon.sol\":2937:2959  dragon.getTotalRewards */\n      0x2bcf161c\n      swap1\n        /* \"contract/dragon/dragon.sol\":2960:2973  contract_list */\n      dup7\n      swap1\n        /* \"contract/dragon/dragon.sol\":2974:2975  i */\n      dup6\n      swap1\n        /* \"contract/dragon/dragon.sol\":2960:2976  contract_list[i] */\n      dup2\n      lt\n      tag_44\n      jumpi\n      tag_44\n      tag_45\n      jump\t// in\n    tag_44:\n      0x20\n      mul\n      0x20\n      add\n      add\n      mload\n        /* \"contract/dragon/dragon.sol\":2937:2977  dragon.getTotalRewards(contract_list[i]) */\n      mload(0x40)\n      dup3\n      0xffffffff\n      and\n      0xe0\n      shl\n      dup2\n      mstore\n      0x04\n      add\n      tag_46\n      swap2\n      swap1\n      sub(shl(0xa0, 0x01), 0x01)\n        /* \"#utility.yul\":1550:1582   */\n      swap2\n      swap1\n      swap2\n      and\n        /* \"#utility.yul\":1532:1583   */\n      dup2\n      mstore\n        /* \"#utility.yul\":1520:1522   */\n      0x20\n        /* \"#utility.yul\":1505:1523   */\n      add\n      swap1\n        /* \"#utility.yul\":1386:1589   */\n      jump\n        /* \"contract/dragon/dragon.sol\":2937:2977  dragon.getTotalRewards(contract_list[i]) */\n    tag_46:\n      0x20\n      mload(0x40)\n      dup1\n      dup4\n      sub\n      dup2\n      dup7\n      gas\n      staticcall\n      iszero\n      dup1\n      iszero\n      tag_49\n      jumpi\n      returndatasize\n      0x00\n      dup1\n      returndatacopy\n      revert(0x00, returndatasize)\n    tag_49:\n      pop\n      pop\n      pop\n      pop\n      mload(0x40)\n      returndatasize\n      not(0x1f)\n      0x1f\n      dup3\n      add\n      and\n      dup3\n      add\n      dup1\n      0x40\n      mstore\n      pop\n      dup2\n      add\n      swap1\n      tag_50\n      swap2\n      swap1\n      tag_51\n      jump\t// in\n    tag_50:\n        /* \"contract/dragon/dragon.sol\":2937:2981  dragon.getTotalRewards(contract_list[i]) > 0 */\n      gt\n        /* \"contract/dragon/dragon.sol\":2933:3315  if (dragon.getTotalRewards(contract_list[i]) > 0) {... */\n      iszero\n      tag_52\n      jumpi\n        /* \"contract/dragon/dragon.sol\":3005:3018  contract_list */\n      dup3\n        /* \"contract/dragon/dragon.sol\":3019:3020  i */\n      dup2\n        /* \"contract/dragon/dragon.sol\":3005:3021  contract_list[i] */\n      dup2\n      mload\n      dup2\n      lt\n      tag_54\n      jumpi\n      tag_54\n      tag_45\n      jump\t// in\n    tag_54:\n      0x20\n      mul\n      0x20\n      add\n      add\n      mload\n      sub(shl(0xa0, 0x01), 0x01)\n        /* \"contract/dragon/dragon.sol\":3001:3031  bot(contract_list[i]).Withdraw */\n      and\n      0x57ea89b6\n        /* \"contract/dragon/dragon.sol\":3001:3033  bot(contract_list[i]).Withdraw() */\n      mload(0x40)\n      dup2\n      0xffffffff\n      and\n      0xe0\n      shl\n      dup2\n      mstore\n      0x04\n      add\n      0x00\n      mload(0x40)\n      dup1\n      dup4\n      sub\n      dup2\n      0x00\n      dup8\n      dup1\n      extcodesize\n      iszero\n      dup1\n      iszero\n      tag_55\n      jumpi\n      0x00\n      dup1\n      revert\n    tag_55:\n      pop\n      gas\n      call\n      iszero\n      dup1\n      iszero\n      tag_57\n      jumpi\n      returndatasize\n      0x00\n      dup1\n      returndatacopy\n      revert(0x00, returndatasize)\n    tag_57:\n      pop\n      pop\n      pop\n      pop\n        /* \"contract/dragon/dragon.sol\":3051:3068  uint256 token_num */\n      0x00\n        /* \"contract/dragon/dragon.sol\":3098:3110  dragon_token */\n      dup3\n      sub(shl(0xa0, 0x01), 0x01)\n        /* \"contract/dragon/dragon.sol\":3098:3120  dragon_token.balanceOf */\n      and\n      0x70a08231\n        /* \"contract/dragon/dragon.sol\":3121:3134  contract_list */\n      dup6\n        /* \"contract/dragon/dragon.sol\":3135:3136  i */\n      dup5\n        /* \"contract/dragon/dragon.sol\":3121:3137  contract_list[i] */\n      dup2\n      mload\n      dup2\n      lt\n      tag_59\n      jumpi\n      tag_59\n      tag_45\n      jump\t// in\n    tag_59:\n      0x20\n      mul\n      0x20\n      add\n      add\n      mload\n        /* \"contract/dragon/dragon.sol\":3098:3138  dragon_token.balanceOf(contract_list[i]) */\n      mload(0x40)\n      dup3\n      0xffffffff\n      and\n      0xe0\n      shl\n      dup2\n      mstore\n      0x04\n      add\n      tag_60\n      swap2\n      swap1\n      sub(shl(0xa0, 0x01), 0x01)\n        /* \"#utility.yul\":1550:1582   */\n      swap2\n      swap1\n      swap2\n      and\n        /* \"#utility.yul\":1532:1583   */\n      dup2\n      mstore\n        /* \"#utility.yul\":1520:1522   */\n      0x20\n        /* \"#utility.yul\":1505:1523   */\n      add\n      swap1\n        /* \"#utility.yul\":1386:1589   */\n      jump\n        /* \"contract/dragon/dragon.sol\":3098:3138  dragon_token.balanceOf(contract_list[i]) */\n    tag_60:\n      0x20\n      mload(0x40)\n      dup1\n      dup4\n      sub\n      dup2\n      dup7\n      gas\n      staticcall\n      iszero\n      dup1\n      iszero\n      tag_62\n      jumpi\n      returndatasize\n      0x00\n      dup1\n      returndatacopy\n      revert(0x00, returndatasize)\n    tag_62:\n      pop\n      pop\n      pop\n      pop\n      mload(0x40)\n      returndatasize\n      not(0x1f)\n      0x1f\n      dup3\n      add\n      and\n      dup3\n      add\n      dup1\n      0x40\n      mstore\n      pop\n      dup2\n      add\n      swap1\n      tag_63\n      swap2\n      swap1\n      tag_51\n      jump\t// in\n    tag_63:\n        /* \"contract/dragon/dragon.sol\":3086:3138  token_num = dragon_token.balanceOf(contract_list[i]) */\n      swap1\n      pop\n        /* \"contract/dragon/dragon.sol\":3156:3168  dragon_token */\n      dup3\n      sub(shl(0xa0, 0x01), 0x01)\n        /* \"contract/dragon/dragon.sol\":3156:3181  dragon_token.transferFrom */\n      and\n      0x23b872dd\n        /* \"contract/dragon/dragon.sol\":3203:3216  contract_list */\n      dup6\n        /* \"contract/dragon/dragon.sol\":3217:3218  i */\n      dup5\n        /* \"contract/dragon/dragon.sol\":3203:3219  contract_list[i] */\n      dup2\n      mload\n      dup2\n      lt\n      tag_65\n      jumpi\n      tag_65\n      tag_45\n      jump\t// in\n    tag_65:\n      0x20\n      swap1\n      dup2\n      mul\n      swap2\n      swap1\n      swap2\n      add\n      add\n      mload\n        /* \"contract/dragon/dragon.sol\":3156:3300  dragon_token.transferFrom(... */\n      mload(0x40)\n      not(sub(shl(0xe0, 0x01), 0x01))\n      0xe0\n      dup5\n      swap1\n      shl\n      and\n      dup2\n      mstore\n      sub(shl(0xa0, 0x01), 0x01)\n        /* \"#utility.yul\":2041:2056   */\n      swap1\n      swap2\n      and\n        /* \"contract/dragon/dragon.sol\":3156:3300  dragon_token.transferFrom(... */\n      0x04\n      dup3\n      add\n        /* \"#utility.yul\":2023:2057   */\n      mstore\n        /* \"contract/dragon/dragon.sol\":3241:3251  msg.sender */\n      caller\n        /* \"#utility.yul\":2073:2091   */\n      0x24\n      dup3\n      add\n        /* \"#utility.yul\":2066:2109   */\n      mstore\n        /* \"#utility.yul\":2125:2143   */\n      0x44\n      dup2\n      add\n        /* \"#utility.yul\":2118:2152   */\n      dup5\n      swap1\n      mstore\n        /* \"#utility.yul\":1958:1976   */\n      0x64\n      add\n        /* \"contract/dragon/dragon.sol\":3156:3300  dragon_token.transferFrom(... */\n      0x20\n      mload(0x40)\n      dup1\n      dup4\n      sub\n      dup2\n      0x00\n      dup8\n      gas\n      call\n      iszero\n      dup1\n      iszero\n      tag_69\n      jumpi\n      returndatasize\n      0x00\n      dup1\n      returndatacopy\n      revert(0x00, returndatasize)\n    tag_69:\n      pop\n      pop\n      pop\n      pop\n      mload(0x40)\n      returndatasize\n      not(0x1f)\n      0x1f\n      dup3\n      add\n      and\n      dup3\n      add\n      dup1\n      0x40\n      mstore\n      pop\n      dup2\n      add\n      swap1\n      tag_70\n      swap2\n      swap1\n      tag_71\n      jump\t// in\n    tag_70:\n      pop\n        /* \"contract/dragon/dragon.sol\":2983:3315  {... */\n      pop\n        /* \"contract/dragon/dragon.sol\":2933:3315  if (dragon.getTotalRewards(contract_list[i]) > 0) {... */\n    tag_52:\n        /* \"contract/dragon/dragon.sol\":2914:2917  i++ */\n      dup1\n      tag_72\n      dup2\n      tag_73\n      jump\t// in\n    tag_72:\n      swap2\n      pop\n      pop\n        /* \"contract/dragon/dragon.sol\":2842:3325  for (uint256 i = start_index; i < contract_list.length && end_index>=i; i++) {... */\n      jump(tag_39)\n    tag_40:\n      pop\n        /* \"contract/dragon/dragon.sol\":2547:3331  {... */\n      pop\n      pop\n        /* \"contract/dragon/dragon.sol\":2478:3331  function BatchWithdarw(uint256 start_index,uint256 end_index) public {... */\n      pop\n      pop\n      jump\t// out\n        /* \"contract/dragon/dragon.sol\":3337:3779  function BatchBoost(uint256 start_index,uint256 end_index) public {... */\n    tag_15:\n        /* \"contract/dragon/dragon.sol\":3481:3491  msg.sender */\n      caller\n        /* \"contract/dragon/dragon.sol\":3469:3480  own_address */\n      0x00\n        /* \"contract/dragon/dragon.sol\":3469:3492  own_address[msg.sender] */\n      swap1\n      dup2\n      mstore\n      0x20\n      dup2\n      dup2\n      mstore\n      0x40\n      swap2\n      dup3\n      swap1\n      keccak256\n        /* \"contract/dragon/dragon.sol\":3453:3492  contract_list = own_address[msg.sender] */\n      dup1\n      sload\n      dup4\n      mload\n      dup2\n      dup5\n      mul\n      dup2\n      add\n      dup5\n      add\n      swap1\n      swap5\n      mstore\n      dup1\n      dup5\n      mstore\n        /* \"contract/dragon/dragon.sol\":3413:3443  address[] memory contract_list */\n      0x60\n      swap4\n        /* \"contract/dragon/dragon.sol\":3453:3492  contract_list = own_address[msg.sender] */\n      swap3\n      dup4\n      add\n        /* \"contract/dragon/dragon.sol\":3469:3492  own_address[msg.sender] */\n      dup3\n        /* \"contract/dragon/dragon.sol\":3453:3492  contract_list = own_address[msg.sender] */\n      dup3\n      dup1\n      iszero\n      tag_75\n      jumpi\n      0x20\n      mul\n      dup3\n      add\n      swap2\n      swap1\n      0x00\n      mstore\n      keccak256(0x00, 0x20)\n      swap1\n    tag_76:\n      dup2\n      sload\n      sub(shl(0xa0, 0x01), 0x01)\n      and\n      dup2\n      mstore\n      0x01\n      swap1\n      swap2\n      add\n      swap1\n      0x20\n      add\n      dup1\n      dup4\n      gt\n      tag_76\n      jumpi\n    tag_75:\n      pop\n      pop\n        /* \"contract/dragon/dragon.sol\":3530:3540  msg.sender */\n      caller\n        /* \"contract/dragon/dragon.sol\":3518:3529  own_address */\n      0x00\n        /* \"contract/dragon/dragon.sol\":3518:3541  own_address[msg.sender] */\n      swap1\n      dup2\n      mstore\n      0x20\n      dup2\n      dup2\n      mstore\n      0x40\n      swap2\n      dup3\n      swap1\n      keccak256\n        /* \"contract/dragon/dragon.sol\":3502:3541  contract_list = own_address[msg.sender] */\n      dup1\n      sload\n      dup4\n      mload\n      dup2\n      dup5\n      mul\n      dup2\n      add\n      dup5\n      add\n      swap1\n      swap5\n      mstore\n      dup1\n      dup5\n      mstore\n        /* \"contract/dragon/dragon.sol\":3453:3492  contract_list = own_address[msg.sender] */\n      swap7\n      swap8\n      pop\n        /* \"contract/dragon/dragon.sol\":3502:3541  contract_list = own_address[msg.sender] */\n      swap2\n      swap6\n        /* \"contract/dragon/dragon.sol\":3518:3541  own_address[msg.sender] */\n      swap2\n      swap5\n      pop\n        /* \"contract/dragon/dragon.sol\":3502:3541  contract_list = own_address[msg.sender] */\n      swap1\n      swap3\n      pop\n      dup5\n      add\n      swap1\n      pop\n        /* \"contract/dragon/dragon.sol\":3518:3541  own_address[msg.sender] */\n      dup3\n        /* \"contract/dragon/dragon.sol\":3502:3541  contract_list = own_address[msg.sender] */\n      dup3\n      dup1\n      iszero\n      tag_77\n      jumpi\n      0x20\n      mul\n      dup3\n      add\n      swap2\n      swap1\n      0x00\n      mstore\n      keccak256(0x00, 0x20)\n      swap1\n    tag_78:\n      dup2\n      sload\n      sub(shl(0xa0, 0x01), 0x01)\n      and\n      dup2\n      mstore\n      0x01\n      swap1\n      swap2\n      add\n      swap1\n      0x20\n      add\n      dup1\n      dup4\n      gt\n      tag_78\n      jumpi\n    tag_77:\n      pop\n      pop\n      pop\n      pop\n      pop\n      swap1\n      pop\n        /* \"contract/dragon/dragon.sol\":3582:3593  start_index */\n      dup3\n        /* \"contract/dragon/dragon.sol\":3559:3572  contract_list */\n      dup2\n        /* \"contract/dragon/dragon.sol\":3559:3579  contract_list.length */\n      mload\n        /* \"contract/dragon/dragon.sol\":3559:3593  contract_list.length > start_index */\n      gt\n        /* \"contract/dragon/dragon.sol\":3559:3628  contract_list.length > start_index && contract_list.length>=end_index */\n      dup1\n      iszero\n      tag_79\n      jumpi\n      pop\n        /* \"contract/dragon/dragon.sol\":3619:3628  end_index */\n      dup2\n        /* \"contract/dragon/dragon.sol\":3597:3610  contract_list */\n      dup2\n        /* \"contract/dragon/dragon.sol\":3597:3617  contract_list.length */\n      mload\n        /* \"contract/dragon/dragon.sol\":3597:3628  contract_list.length>=end_index */\n      lt\n      iszero\n        /* \"contract/dragon/dragon.sol\":3559:3628  contract_list.length > start_index && contract_list.length>=end_index */\n    tag_79:\n        /* \"contract/dragon/dragon.sol\":3551:3633  require(contract_list.length > start_index && contract_list.length>=end_index,\"f\") */\n      tag_80\n      jumpi\n      mload(0x40)\n      shl(0xe5, 0x461bcd)\n      dup2\n      mstore\n        /* \"#utility.yul\":1127:1129   */\n      0x20\n        /* \"contract/dragon/dragon.sol\":3551:3633  require(contract_list.length > start_index && contract_list.length>=end_index,\"f\") */\n      0x04\n      dup3\n      add\n        /* \"#utility.yul\":1109:1130   */\n      mstore\n        /* \"#utility.yul\":1166:1167   */\n      0x01\n        /* \"#utility.yul\":1146:1164   */\n      0x24\n      dup3\n      add\n        /* \"#utility.yul\":1139:1168   */\n      mstore\n      shl(0xf9, 0x33)\n        /* \"#utility.yul\":1184:1202   */\n      0x44\n      dup3\n      add\n        /* \"#utility.yul\":1177:1208   */\n      mstore\n        /* \"#utility.yul\":1225:1243   */\n      0x64\n      add\n        /* \"contract/dragon/dragon.sol\":3551:3633  require(contract_list.length > start_index && contract_list.length>=end_index,\"f\") */\n      tag_37\n        /* \"#utility.yul\":925:1249   */\n      jump\n        /* \"contract/dragon/dragon.sol\":3551:3633  require(contract_list.length > start_index && contract_list.length>=end_index,\"f\") */\n    tag_80:\n        /* \"contract/dragon/dragon.sol\":3660:3671  start_index */\n      dup3\n        /* \"contract/dragon/dragon.sol\":3643:3773  for (uint256 i = start_index; i < contract_list.length && end_index>i; i++) {... */\n    tag_82:\n        /* \"contract/dragon/dragon.sol\":3677:3690  contract_list */\n      dup2\n        /* \"contract/dragon/dragon.sol\":3677:3697  contract_list.length */\n      mload\n        /* \"contract/dragon/dragon.sol\":3673:3674  i */\n      dup2\n        /* \"contract/dragon/dragon.sol\":3673:3697  i < contract_list.length */\n      lt\n        /* \"contract/dragon/dragon.sol\":3673:3712  i < contract_list.length && end_index>i */\n      dup1\n      iszero\n      tag_85\n      jumpi\n      pop\n        /* \"contract/dragon/dragon.sol\":3711:3712  i */\n      dup1\n        /* \"contract/dragon/dragon.sol\":3701:3710  end_index */\n      dup4\n        /* \"contract/dragon/dragon.sol\":3701:3712  end_index>i */\n      gt\n        /* \"contract/dragon/dragon.sol\":3673:3712  i < contract_list.length && end_index>i */\n    tag_85:\n        /* \"contract/dragon/dragon.sol\":3643:3773  for (uint256 i = start_index; i < contract_list.length && end_index>i; i++) {... */\n      iszero\n      tag_83\n      jumpi\n        /* \"contract/dragon/dragon.sol\":3737:3750  contract_list */\n      dup2\n        /* \"contract/dragon/dragon.sol\":3751:3752  i */\n      dup2\n        /* \"contract/dragon/dragon.sol\":3737:3753  contract_list[i] */\n      dup2\n      mload\n      dup2\n      lt\n      tag_87\n      jumpi\n      tag_87\n      tag_45\n      jump\t// in\n    tag_87:\n      0x20\n      mul\n      0x20\n      add\n      add\n      mload\n      sub(shl(0xa0, 0x01), 0x01)\n        /* \"contract/dragon/dragon.sol\":3733:3760  bot(contract_list[i]).boost */\n      and\n      0xa66f42c0\n        /* \"contract/dragon/dragon.sol\":3733:3762  bot(contract_list[i]).boost() */\n      mload(0x40)\n      dup2\n      0xffffffff\n      and\n      0xe0\n      shl\n      dup2\n      mstore\n      0x04\n      add\n      0x00\n      mload(0x40)\n      dup1\n      dup4\n      sub\n      dup2\n      0x00\n      dup8\n      dup1\n      extcodesize\n      iszero\n      dup1\n      iszero\n      tag_88\n      jumpi\n      0x00\n      dup1\n      revert\n    tag_88:\n      pop\n      gas\n      call\n      iszero\n      dup1\n      iszero\n      tag_90\n      jumpi\n      returndatasize\n      0x00\n      dup1\n      returndatacopy\n      revert(0x00, returndatasize)\n    tag_90:\n      pop\n      pop\n      pop\n      pop\n        /* \"contract/dragon/dragon.sol\":3714:3717  i++ */\n      dup1\n      dup1\n      tag_91\n      swap1\n      tag_73\n      jump\t// in\n    tag_91:\n      swap2\n      pop\n      pop\n        /* \"contract/dragon/dragon.sol\":3643:3773  for (uint256 i = start_index; i < contract_list.length && end_index>i; i++) {... */\n      jump(tag_82)\n    tag_83:\n      pop\n        /* \"contract/dragon/dragon.sol\":3403:3779  {... */\n      pop\n        /* \"contract/dragon/dragon.sol\":3337:3779  function BatchBoost(uint256 start_index,uint256 end_index) public {... */\n      pop\n      pop\n      jump\t// out\n        /* \"contract/dragon/dragon.sol\":2115:2472  function BatchMint(uint256 invite_code, uint256 times) external {... */\n    tag_18:\n        /* \"contract/dragon/dragon.sol\":2194:2203  uint256 i */\n      0x00\n        /* \"contract/dragon/dragon.sol\":2189:2466  for (uint256 i = 0; i < times; i++) {... */\n    tag_93:\n        /* \"contract/dragon/dragon.sol\":2213:2218  times */\n      dup2\n        /* \"contract/dragon/dragon.sol\":2209:2210  i */\n      dup2\n        /* \"contract/dragon/dragon.sol\":2209:2218  i < times */\n      lt\n        /* \"contract/dragon/dragon.sol\":2189:2466  for (uint256 i = 0; i < times; i++) {... */\n      iszero\n      tag_94\n      jumpi\n        /* \"contract/dragon/dragon.sol\":2247:2248  0 */\n      0x00\n        /* \"contract/dragon/dragon.sol\":2243:2244  i */\n      dup2\n        /* \"contract/dragon/dragon.sol\":2243:2248  i > 0 */\n      gt\n        /* \"contract/dragon/dragon.sol\":2243:2270  i > 0 && i % tax_times == 0 */\n      dup1\n      iszero\n      tag_96\n      jumpi\n      pop\n        /* \"contract/dragon/dragon.sol\":2256:2265  tax_times */\n      sload(0x01)\n        /* \"contract/dragon/dragon.sol\":2252:2265  i % tax_times */\n      tag_97\n      swap1\n        /* \"contract/dragon/dragon.sol\":2252:2253  i */\n      dup3\n        /* \"contract/dragon/dragon.sol\":2252:2265  i % tax_times */\n      tag_98\n      jump\t// in\n    tag_97:\n        /* \"contract/dragon/dragon.sol\":2252:2270  i % tax_times == 0 */\n      iszero\n        /* \"contract/dragon/dragon.sol\":2243:2270  i > 0 && i % tax_times == 0 */\n    tag_96:\n        /* \"contract/dragon/dragon.sol\":2239:2456  if (i > 0 && i % tax_times == 0) {... */\n      iszero\n      tag_99\n      jumpi\n        /* \"contract/dragon/dragon.sol\":2302:2312  msg.sender */\n      caller\n        /* \"contract/dragon/dragon.sol\":2290:2301  own_address */\n      0x00\n        /* \"contract/dragon/dragon.sol\":2290:2313  own_address[msg.sender] */\n      swap1\n      dup2\n      mstore\n      0x20\n      dup2\n      swap1\n      mstore\n      0x40\n      swap1\n      dup2\n      swap1\n      keccak256\n        /* \"contract/dragon/dragon.sol\":2327:2347  new bot(invite_code) */\n      swap1\n      mload\n        /* \"contract/dragon/dragon.sol\":2335:2346  invite_code */\n      dup5\n      swap1\n        /* \"contract/dragon/dragon.sol\":2327:2347  new bot(invite_code) */\n      tag_100\n      swap1\n      tag_101\n      jump\t// in\n    tag_100:\n        /* \"#utility.yul\":889:914   */\n      swap1\n      dup2\n      mstore\n        /* \"#utility.yul\":877:879   */\n      0x20\n        /* \"#utility.yul\":862:880   */\n      add\n        /* \"contract/dragon/dragon.sol\":2327:2347  new bot(invite_code) */\n      mload(0x40)\n      dup1\n      swap2\n      sub\n      swap1\n      0x00\n      create\n      dup1\n      iszero\n      dup1\n      iszero\n      tag_103\n      jumpi\n      returndatasize\n      0x00\n      dup1\n      returndatacopy\n      revert(0x00, returndatasize)\n    tag_103:\n      pop\n        /* \"contract/dragon/dragon.sol\":2290:2349  own_address[msg.sender].push(address(new bot(invite_code))) */\n      dup2\n      sload\n      0x01\n      dup2\n      add\n      dup4\n      sstore\n      0x00\n      swap3\n      dup4\n      mstore\n      0x20\n      swap1\n      swap3\n      keccak256\n      swap1\n      swap2\n      add\n      dup1\n      sload\n      not(sub(shl(0xa0, 0x01), 0x01))\n      and\n      sub(shl(0xa0, 0x01), 0x01)\n      swap1\n      swap3\n      and\n      swap2\n      swap1\n      swap2\n      or\n      swap1\n      sstore\n        /* \"contract/dragon/dragon.sol\":2239:2456  if (i > 0 && i % tax_times == 0) {... */\n      jump(tag_105)\n    tag_99:\n        /* \"contract/dragon/dragon.sol\":2388:2399  own_address */\n      0x00\n        /* \"contract/dragon/dragon.sol\":2388:2406  own_address[owner] */\n      dup1\n        /* \"contract/dragon/dragon.sol\":2400:2405  owner */\n      immutable(\"0x631897788617bc63fb0292c44f57a6c3824e4264bc88fb4e3c08b910f3f417fc\")\n      sub(shl(0xa0, 0x01), 0x01)\n        /* \"contract/dragon/dragon.sol\":2388:2406  own_address[owner] */\n      and\n      sub(shl(0xa0, 0x01), 0x01)\n      and\n      dup2\n      mstore\n      0x20\n      add\n      swap1\n      dup2\n      mstore\n      0x20\n      add\n      0x00\n      keccak256\n        /* \"contract/dragon/dragon.sol\":2428:2438  owner_code */\n      sload(0x02)\n        /* \"contract/dragon/dragon.sol\":2420:2439  new bot(owner_code) */\n      mload(0x40)\n      tag_106\n      swap1\n      tag_101\n      jump\t// in\n    tag_106:\n        /* \"#utility.yul\":889:914   */\n      swap1\n      dup2\n      mstore\n        /* \"#utility.yul\":877:879   */\n      0x20\n        /* \"#utility.yul\":862:880   */\n      add\n        /* \"contract/dragon/dragon.sol\":2420:2439  new bot(owner_code) */\n      mload(0x40)\n      dup1\n      swap2\n      sub\n      swap1\n      0x00\n      create\n      dup1\n      iszero\n      dup1\n      iszero\n      tag_108\n      jumpi\n      returndatasize\n      0x00\n      dup1\n      returndatacopy\n      revert(0x00, returndatasize)\n    tag_108:\n      pop\n        /* \"contract/dragon/dragon.sol\":2388:2441  own_address[owner].push(address(new bot(owner_code))) */\n      dup2\n      sload\n      0x01\n      dup2\n      add\n      dup4\n      sstore\n      0x00\n      swap3\n      dup4\n      mstore\n      0x20\n      swap1\n      swap3\n      keccak256\n      swap1\n      swap2\n      add\n      dup1\n      sload\n      not(sub(shl(0xa0, 0x01), 0x01))\n      and\n      sub(shl(0xa0, 0x01), 0x01)\n      swap1\n      swap3\n      and\n      swap2\n      swap1\n      swap2\n      or\n      swap1\n      sstore\n        /* \"contract/dragon/dragon.sol\":2239:2456  if (i > 0 && i % tax_times == 0) {... */\n    tag_105:\n        /* \"contract/dragon/dragon.sol\":2220:2223  i++ */\n      dup1\n      tag_110\n      dup2\n      tag_73\n      jump\t// in\n    tag_110:\n      swap2\n      pop\n      pop\n        /* \"contract/dragon/dragon.sol\":2189:2466  for (uint256 i = 0; i < times; i++) {... */\n      jump(tag_93)\n    tag_94:\n      pop\n        /* \"contract/dragon/dragon.sol\":2115:2472  function BatchMint(uint256 invite_code, uint256 times) external {... */\n      pop\n      pop\n      jump\t// out\n        /* \"contract/dragon/dragon.sol\":3914:3998  function change_code(uint256 code) public isOwner {... */\n    tag_22:\n        /* \"contract/dragon/dragon.sol\":2048:2058  msg.sender */\n      caller\n      sub(shl(0xa0, 0x01), 0x01)\n        /* \"contract/dragon/dragon.sol\":2062:2067  owner */\n      immutable(\"0x631897788617bc63fb0292c44f57a6c3824e4264bc88fb4e3c08b910f3f417fc\")\n        /* \"contract/dragon/dragon.sol\":2048:2067  msg.sender == owner */\n      and\n      eq\n        /* \"contract/dragon/dragon.sol\":2040:2091  require(msg.sender == owner, \"Caller is not owner\") */\n      tag_112\n      jumpi\n      mload(0x40)\n      shl(0xe5, 0x461bcd)\n      dup2\n      mstore\n        /* \"#utility.yul\":3098:3100   */\n      0x20\n        /* \"contract/dragon/dragon.sol\":2040:2091  require(msg.sender == owner, \"Caller is not owner\") */\n      0x04\n      dup3\n      add\n        /* \"#utility.yul\":3080:3101   */\n      mstore\n        /* \"#utility.yul\":3137:3139   */\n      0x13\n        /* \"#utility.yul\":3117:3135   */\n      0x24\n      dup3\n      add\n        /* \"#utility.yul\":3110:3140   */\n      mstore\n      shl(0x69, 0x21b0b63632b91034b9903737ba1037bbb732b9)\n        /* \"#utility.yul\":3156:3174   */\n      0x44\n      dup3\n      add\n        /* \"#utility.yul\":3149:3198   */\n      mstore\n        /* \"#utility.yul\":3215:3233   */\n      0x64\n      add\n        /* \"contract/dragon/dragon.sol\":2040:2091  require(msg.sender == owner, \"Caller is not owner\") */\n      tag_37\n        /* \"#utility.yul\":2896:3239   */\n      jump\n        /* \"contract/dragon/dragon.sol\":2040:2091  require(msg.sender == owner, \"Caller is not owner\") */\n    tag_112:\n        /* \"contract/dragon/dragon.sol\":3974:3984  owner_code */\n      0x02\n        /* \"contract/dragon/dragon.sol\":3974:3991  owner_code = code */\n      sstore\n        /* \"contract/dragon/dragon.sol\":3914:3998  function change_code(uint256 code) public isOwner {... */\n      jump\t// out\n        /* \"contract/dragon/dragon.sol\":4004:4090  function change_times(uint256 times) public isOwner {... */\n    tag_25:\n        /* \"contract/dragon/dragon.sol\":2048:2058  msg.sender */\n      caller\n      sub(shl(0xa0, 0x01), 0x01)\n        /* \"contract/dragon/dragon.sol\":2062:2067  owner */\n      immutable(\"0x631897788617bc63fb0292c44f57a6c3824e4264bc88fb4e3c08b910f3f417fc\")\n        /* \"contract/dragon/dragon.sol\":2048:2067  msg.sender == owner */\n      and\n      eq\n        /* \"contract/dragon/dragon.sol\":2040:2091  require(msg.sender == owner, \"Caller is not owner\") */\n      tag_117\n      jumpi\n      mload(0x40)\n      shl(0xe5, 0x461bcd)\n      dup2\n      mstore\n        /* \"#utility.yul\":3098:3100   */\n      0x20\n        /* \"contract/dragon/dragon.sol\":2040:2091  require(msg.sender == owner, \"Caller is not owner\") */\n      0x04\n      dup3\n      add\n        /* \"#utility.yul\":3080:3101   */\n      mstore\n        /* \"#utility.yul\":3137:3139   */\n      0x13\n        /* \"#utility.yul\":3117:3135   */\n      0x24\n      dup3\n      add\n        /* \"#utility.yul\":3110:3140   */\n      mstore\n      shl(0x69, 0x21b0b63632b91034b9903737ba1037bbb732b9)\n        /* \"#utility.yul\":3156:3174   */\n      0x44\n      dup3\n      add\n        /* \"#utility.yul\":3149:3198   */\n      mstore\n        /* \"#utility.yul\":3215:3233   */\n      0x64\n      add\n        /* \"contract/dragon/dragon.sol\":2040:2091  require(msg.sender == owner, \"Caller is not owner\") */\n      tag_37\n        /* \"#utility.yul\":2896:3239   */\n      jump\n        /* \"contract/dragon/dragon.sol\":2040:2091  require(msg.sender == owner, \"Caller is not owner\") */\n    tag_117:\n        /* \"contract/dragon/dragon.sol\":4066:4075  tax_times */\n      0x01\n        /* \"contract/dragon/dragon.sol\":4066:4083  tax_times = times */\n      sstore\n        /* \"contract/dragon/dragon.sol\":4004:4090  function change_times(uint256 times) public isOwner {... */\n      jump\t// out\n    tag_101:\n      dataSize(sub_0)\n      dup1\n      dataOffset(sub_0)\n      dup4\n      codecopy\n      add\n      swap1\n      jump\t// out\n        /* \"#utility.yul\":14:262   */\n    tag_11:\n        /* \"#utility.yul\":82:88   */\n      0x00\n        /* \"#utility.yul\":90:96   */\n      dup1\n        /* \"#utility.yul\":143:145   */\n      0x40\n        /* \"#utility.yul\":131:140   */\n      dup4\n        /* \"#utility.yul\":122:129   */\n      dup6\n        /* \"#utility.yul\":118:141   */\n      sub\n        /* \"#utility.yul\":114:146   */\n      slt\n        /* \"#utility.yul\":111:163   */\n      iszero\n      tag_123\n      jumpi\n        /* \"#utility.yul\":159:160   */\n      0x00\n        /* \"#utility.yul\":156:157   */\n      dup1\n        /* \"#utility.yul\":149:161   */\n      revert\n        /* \"#utility.yul\":111:163   */\n    tag_123:\n      pop\n      pop\n        /* \"#utility.yul\":182:205   */\n      dup1\n      calldataload\n      swap3\n        /* \"#utility.yul\":252:254   */\n      0x20\n        /* \"#utility.yul\":237:255   */\n      swap1\n      swap2\n      add\n        /* \"#utility.yul\":224:256   */\n      calldataload\n      swap2\n      pop\n        /* \"#utility.yul\":14:262   */\n      jump\t// out\n        /* \"#utility.yul\":267:447   */\n    tag_21:\n        /* \"#utility.yul\":326:332   */\n      0x00\n        /* \"#utility.yul\":379:381   */\n      0x20\n        /* \"#utility.yul\":367:376   */\n      dup3\n        /* \"#utility.yul\":358:365   */\n      dup5\n        /* \"#utility.yul\":354:377   */\n      sub\n        /* \"#utility.yul\":350:382   */\n      slt\n        /* \"#utility.yul\":347:399   */\n      iszero\n      tag_125\n      jumpi\n        /* \"#utility.yul\":395:396   */\n      0x00\n        /* \"#utility.yul\":392:393   */\n      dup1\n        /* \"#utility.yul\":385:397   */\n      revert\n        /* \"#utility.yul\":347:399   */\n    tag_125:\n      pop\n        /* \"#utility.yul\":418:441   */\n      calldataload\n      swap2\n        /* \"#utility.yul\":267:447   */\n      swap1\n      pop\n      jump\t// out\n        /* \"#utility.yul\":452:738   */\n    tag_28:\n        /* \"#utility.yul\":511:517   */\n      0x00\n        /* \"#utility.yul\":564:566   */\n      0x20\n        /* \"#utility.yul\":552:561   */\n      dup3\n        /* \"#utility.yul\":543:550   */\n      dup5\n        /* \"#utility.yul\":539:562   */\n      sub\n        /* \"#utility.yul\":535:567   */\n      slt\n        /* \"#utility.yul\":532:584   */\n      iszero\n      tag_127\n      jumpi\n        /* \"#utility.yul\":580:581   */\n      0x00\n        /* \"#utility.yul\":577:578   */\n      dup1\n        /* \"#utility.yul\":570:582   */\n      revert\n        /* \"#utility.yul\":532:584   */\n    tag_127:\n        /* \"#utility.yul\":606:629   */\n      dup2\n      calldataload\n      sub(shl(0xa0, 0x01), 0x01)\n        /* \"#utility.yul\":658:689   */\n      dup2\n      and\n        /* \"#utility.yul\":648:690   */\n      dup2\n      eq\n        /* \"#utility.yul\":638:708   */\n      tag_128\n      jumpi\n        /* \"#utility.yul\":704:705   */\n      0x00\n        /* \"#utility.yul\":701:702   */\n      dup1\n        /* \"#utility.yul\":694:706   */\n      revert\n        /* \"#utility.yul\":638:708   */\n    tag_128:\n        /* \"#utility.yul\":727:732   */\n      swap4\n        /* \"#utility.yul\":452:738   */\n      swap3\n      pop\n      pop\n      pop\n      jump\t// out\n        /* \"#utility.yul\":1254:1381   */\n    tag_45:\n        /* \"#utility.yul\":1315:1325   */\n      0x4e487b71\n        /* \"#utility.yul\":1310:1313   */\n      0xe0\n        /* \"#utility.yul\":1306:1326   */\n      shl\n        /* \"#utility.yul\":1303:1304   */\n      0x00\n        /* \"#utility.yul\":1296:1327   */\n      mstore\n        /* \"#utility.yul\":1346:1350   */\n      0x32\n        /* \"#utility.yul\":1343:1344   */\n      0x04\n        /* \"#utility.yul\":1336:1351   */\n      mstore\n        /* \"#utility.yul\":1370:1374   */\n      0x24\n        /* \"#utility.yul\":1367:1368   */\n      0x00\n        /* \"#utility.yul\":1360:1375   */\n      revert\n        /* \"#utility.yul\":1594:1778   */\n    tag_51:\n        /* \"#utility.yul\":1664:1670   */\n      0x00\n        /* \"#utility.yul\":1717:1719   */\n      0x20\n        /* \"#utility.yul\":1705:1714   */\n      dup3\n        /* \"#utility.yul\":1696:1703   */\n      dup5\n        /* \"#utility.yul\":1692:1715   */\n      sub\n        /* \"#utility.yul\":1688:1720   */\n      slt\n        /* \"#utility.yul\":1685:1737   */\n      iszero\n      tag_134\n      jumpi\n        /* \"#utility.yul\":1733:1734   */\n      0x00\n        /* \"#utility.yul\":1730:1731   */\n      dup1\n        /* \"#utility.yul\":1723:1735   */\n      revert\n        /* \"#utility.yul\":1685:1737   */\n    tag_134:\n      pop\n        /* \"#utility.yul\":1756:1772   */\n      mload\n      swap2\n        /* \"#utility.yul\":1594:1778   */\n      swap1\n      pop\n      jump\t// out\n        /* \"#utility.yul\":2163:2440   */\n    tag_71:\n        /* \"#utility.yul\":2230:2236   */\n      0x00\n        /* \"#utility.yul\":2283:2285   */\n      0x20\n        /* \"#utility.yul\":2271:2280   */\n      dup3\n        /* \"#utility.yul\":2262:2269   */\n      dup5\n        /* \"#utility.yul\":2258:2281   */\n      sub\n        /* \"#utility.yul\":2254:2286   */\n      slt\n        /* \"#utility.yul\":2251:2303   */\n      iszero\n      tag_137\n      jumpi\n        /* \"#utility.yul\":2299:2300   */\n      0x00\n        /* \"#utility.yul\":2296:2297   */\n      dup1\n        /* \"#utility.yul\":2289:2301   */\n      revert\n        /* \"#utility.yul\":2251:2303   */\n    tag_137:\n        /* \"#utility.yul\":2331:2340   */\n      dup2\n        /* \"#utility.yul\":2325:2341   */\n      mload\n        /* \"#utility.yul\":2384:2389   */\n      dup1\n        /* \"#utility.yul\":2377:2390   */\n      iszero\n        /* \"#utility.yul\":2370:2391   */\n      iszero\n        /* \"#utility.yul\":2363:2368   */\n      dup2\n        /* \"#utility.yul\":2360:2392   */\n      eq\n        /* \"#utility.yul\":2350:2410   */\n      tag_128\n      jumpi\n        /* \"#utility.yul\":2406:2407   */\n      0x00\n        /* \"#utility.yul\":2403:2404   */\n      dup1\n        /* \"#utility.yul\":2396:2408   */\n      revert\n        /* \"#utility.yul\":2445:2677   */\n    tag_73:\n        /* \"#utility.yul\":2484:2487   */\n      0x00\n        /* \"#utility.yul\":2505:2522   */\n      0x01\n      dup3\n      add\n        /* \"#utility.yul\":2502:2642   */\n      tag_140\n      jumpi\n        /* \"#utility.yul\":2564:2574   */\n      0x4e487b71\n        /* \"#utility.yul\":2559:2562   */\n      0xe0\n        /* \"#utility.yul\":2555:2575   */\n      shl\n        /* \"#utility.yul\":2552:2553   */\n      0x00\n        /* \"#utility.yul\":2545:2576   */\n      mstore\n        /* \"#utility.yul\":2599:2603   */\n      0x11\n        /* \"#utility.yul\":2596:2597   */\n      0x04\n        /* \"#utility.yul\":2589:2604   */\n      mstore\n        /* \"#utility.yul\":2627:2631   */\n      0x24\n        /* \"#utility.yul\":2624:2625   */\n      0x00\n        /* \"#utility.yul\":2617:2632   */\n      revert\n        /* \"#utility.yul\":2502:2642   */\n    tag_140:\n      pop\n        /* \"#utility.yul\":2669:2670   */\n      0x01\n        /* \"#utility.yul\":2658:2671   */\n      add\n      swap1\n        /* \"#utility.yul\":2445:2677   */\n      jump\t// out\n        /* \"#utility.yul\":2682:2891   */\n    tag_98:\n        /* \"#utility.yul\":2714:2715   */\n      0x00\n        /* \"#utility.yul\":2740:2741   */\n      dup3\n        /* \"#utility.yul\":2730:2862   */\n      tag_142\n      jumpi\n        /* \"#utility.yul\":2784:2794   */\n      0x4e487b71\n        /* \"#utility.yul\":2779:2782   */\n      0xe0\n        /* \"#utility.yul\":2775:2795   */\n      shl\n        /* \"#utility.yul\":2772:2773   */\n      0x00\n        /* \"#utility.yul\":2765:2796   */\n      mstore\n        /* \"#utility.yul\":2819:2823   */\n      0x12\n        /* \"#utility.yul\":2816:2817   */\n      0x04\n        /* \"#utility.yul\":2809:2824   */\n      mstore\n        /* \"#utility.yul\":2847:2851   */\n      0x24\n        /* \"#utility.yul\":2844:2845   */\n      0x00\n        /* \"#utility.yul\":2837:2852   */\n      revert\n        /* \"#utility.yul\":2730:2862   */\n    tag_142:\n      pop\n        /* \"#utility.yul\":2876:2885   */\n      mod\n      swap1\n        /* \"#utility.yul\":2682:2891   */\n      jump\t// out\n    stop\n\n    sub_0: assembly {\n            /* \"contract/dragon/dragon.sol\":800:1703  contract bot {... */\n          0x80\n          0x40\n          dup2\n          swap1\n          mstore\n            /* \"contract/dragon/dragon.sol\":819:887  IDragon dragon = IDragon(0xEf64C03D5E757a5f6dC5284F3d627F3C255F09aB) */\n          0x00\n          dup1\n          sload\n          not(sub(shl(0xa0, 0x01), 0x01))\n          and\n            /* \"contract/dragon/dragon.sol\":844:886  0xEf64C03D5E757a5f6dC5284F3d627F3C255F09aB */\n          0xef64c03d5e757a5f6dc5284f3d627f3c255f09ab\n            /* \"contract/dragon/dragon.sol\":819:887  IDragon dragon = IDragon(0xEf64C03D5E757a5f6dC5284F3d627F3C255F09aB) */\n          or\n          swap1\n          sstore\n            /* \"contract/dragon/dragon.sol\":894:1265  constructor(uint256 code) payable {... */\n          bytecodeSize\n          codesize\n          dup2\n          swap1\n          sub\n          swap1\n          dup2\n          swap1\n            /* \"contract/dragon/dragon.sol\":800:1703  contract bot {... */\n          dup4\n            /* \"contract/dragon/dragon.sol\":894:1265  constructor(uint256 code) payable {... */\n          codecopy\n          dup2\n          add\n          0x40\n          dup2\n          swap1\n          mstore\n          tag_1\n          swap2\n          tag_2\n          jump\t// in\n        tag_1:\n            /* \"contract/dragon/dragon.sol\":939:951  bool success */\n          0x00\n            /* \"contract/dragon/dragon.sol\":957:999  0xEf64C03D5E757a5f6dC5284F3d627F3C255F09aB */\n          0xef64c03d5e757a5f6dc5284f3d627f3c255f09ab\n          sub(shl(0xa0, 0x01), 0x01)\n            /* \"contract/dragon/dragon.sol\":957:1004  0xEf64C03D5E757a5f6dC5284F3d627F3C255F09aB.call */\n          and\n            /* \"contract/dragon/dragon.sol\":1041:1051  0xb260c42a */\n          0xb260c42a\n            /* \"contract/dragon/dragon.sol\":1053:1057  code */\n          dup4\n            /* \"contract/dragon/dragon.sol\":1018:1058  abi.encodeWithSelector(0xb260c42a, code) */\n          add(0x24, mload(0x40))\n          tag_5\n          swap2\n            /* \"#utility.yul\":349:374   */\n          dup2\n          mstore\n            /* \"#utility.yul\":337:339   */\n          0x20\n            /* \"#utility.yul\":322:340   */\n          add\n          swap1\n            /* \"#utility.yul\":203:380   */\n          jump\n            /* \"contract/dragon/dragon.sol\":1018:1058  abi.encodeWithSelector(0xb260c42a, code) */\n        tag_5:\n          mload(0x40)\n          0x20\n          dup2\n          dup4\n          sub\n          sub\n          dup2\n          mstore\n          swap1\n          0x40\n          mstore\n          swap1\n          0xe0\n          shl\n          0x20\n          dup3\n          add\n          dup1\n          mload\n          sub(shl(0xe0, 0x01), 0x01)\n          dup4\n          dup2\n          dup4\n          and\n          or\n          dup4\n          mstore\n          pop\n          pop\n          pop\n          pop\n            /* \"contract/dragon/dragon.sol\":957:1068  0xEf64C03D5E757a5f6dC5284F3d627F3C255F09aB.call(... */\n          mload(0x40)\n          tag_7\n          swap2\n          swap1\n          tag_8\n          jump\t// in\n        tag_7:\n          0x00\n          mload(0x40)\n          dup1\n          dup4\n          sub\n          dup2\n          0x00\n          dup7\n          gas\n          call\n          swap2\n          pop\n          pop\n          returndatasize\n          dup1\n          0x00\n          dup2\n          eq\n          tag_11\n          jumpi\n          mload(0x40)\n          swap2\n          pop\n          and(add(returndatasize, 0x3f), not(0x1f))\n          dup3\n          add\n          0x40\n          mstore\n          returndatasize\n          dup3\n          mstore\n          returndatasize\n          0x00\n          0x20\n          dup5\n          add\n          returndatacopy\n          jump(tag_10)\n        tag_11:\n          0x60\n          swap2\n          pop\n        tag_10:\n          pop\n            /* \"contract/dragon/dragon.sol\":938:1068  (bool success, ) = 0xEf64C03D5E757a5f6dC5284F3d627F3C255F09aB.call(... */\n          pop\n          swap1\n          pop\n            /* \"contract/dragon/dragon.sol\":1086:1093  success */\n          dup1\n            /* \"contract/dragon/dragon.sol\":1078:1122  require(success, \"Batch transaction failed\") */\n          tag_12\n          jumpi\n          mload(0x40)\n          shl(0xe5, 0x461bcd)\n          dup2\n          mstore\n            /* \"#utility.yul\":1004:1006   */\n          0x20\n            /* \"contract/dragon/dragon.sol\":1078:1122  require(success, \"Batch transaction failed\") */\n          0x04\n          dup3\n          add\n            /* \"#utility.yul\":986:1007   */\n          mstore\n            /* \"#utility.yul\":1043:1045   */\n          0x18\n            /* \"#utility.yul\":1023:1041   */\n          0x24\n          dup3\n          add\n            /* \"#utility.yul\":1016:1046   */\n          mstore\n            /* \"#utility.yul\":1082:1108   */\n          0x4261746368207472616e73616374696f6e206661696c65640000000000000000\n            /* \"#utility.yul\":1062:1080   */\n          0x44\n          dup3\n          add\n            /* \"#utility.yul\":1055:1109   */\n          mstore\n            /* \"#utility.yul\":1126:1144   */\n          0x64\n          add\n            /* \"contract/dragon/dragon.sol\":1078:1122  require(success, \"Batch transaction failed\") */\n          mload(0x40)\n          dup1\n          swap2\n          sub\n          swap1\n          revert\n        tag_12:\n            /* \"contract/dragon/dragon.sol\":1132:1258  IERC20(0xF0f942D563A6BaCf875d8cEe5AE663b12Ce62149).approve(... */\n          mload(0x40)\n          shl(0xe0, 0x095ea7b3)\n          dup2\n          mstore\n            /* \"contract/dragon/dragon.sol\":1204:1214  msg.sender */\n          caller\n            /* \"contract/dragon/dragon.sol\":1132:1258  IERC20(0xF0f942D563A6BaCf875d8cEe5AE663b12Ce62149).approve(... */\n          0x04\n          dup3\n          add\n            /* \"#utility.yul\":1329:1380   */\n          mstore\n          not(0x00)\n            /* \"#utility.yul\":1396:1414   */\n          0x24\n          dup3\n          add\n            /* \"#utility.yul\":1389:1423   */\n          mstore\n            /* \"contract/dragon/dragon.sol\":1139:1181  0xF0f942D563A6BaCf875d8cEe5AE663b12Ce62149 */\n          0xf0f942d563a6bacf875d8cee5ae663b12ce62149\n          swap1\n            /* \"contract/dragon/dragon.sol\":1132:1190  IERC20(0xF0f942D563A6BaCf875d8cEe5AE663b12Ce62149).approve */\n          0x095ea7b3\n          swap1\n            /* \"#utility.yul\":1302:1320   */\n          0x44\n          add\n            /* \"contract/dragon/dragon.sol\":1132:1258  IERC20(0xF0f942D563A6BaCf875d8cEe5AE663b12Ce62149).approve(... */\n          0x20\n          mload(0x40)\n          dup1\n          dup4\n          sub\n          dup2\n          0x00\n          dup8\n          gas\n          call\n          iszero\n          dup1\n          iszero\n          tag_18\n          jumpi\n          returndatasize\n          0x00\n          dup1\n          returndatacopy\n          revert(0x00, returndatasize)\n        tag_18:\n          pop\n          pop\n          pop\n          pop\n          mload(0x40)\n          returndatasize\n          not(0x1f)\n          0x1f\n          dup3\n          add\n          and\n          dup3\n          add\n          dup1\n          0x40\n          mstore\n          pop\n          dup2\n          add\n          swap1\n          tag_19\n          swap2\n          swap1\n          tag_20\n          jump\t// in\n        tag_19:\n          pop\n            /* \"contract/dragon/dragon.sol\":928:1265  {... */\n          pop\n            /* \"contract/dragon/dragon.sol\":894:1265  constructor(uint256 code) payable {... */\n          pop\n            /* \"contract/dragon/dragon.sol\":800:1703  contract bot {... */\n          jump(tag_22)\n            /* \"#utility.yul\":14:198   */\n        tag_2:\n            /* \"#utility.yul\":84:90   */\n          0x00\n            /* \"#utility.yul\":137:139   */\n          0x20\n            /* \"#utility.yul\":125:134   */\n          dup3\n            /* \"#utility.yul\":116:123   */\n          dup5\n            /* \"#utility.yul\":112:135   */\n          sub\n            /* \"#utility.yul\":108:140   */\n          slt\n            /* \"#utility.yul\":105:157   */\n          iszero\n          tag_24\n          jumpi\n            /* \"#utility.yul\":153:154   */\n          0x00\n            /* \"#utility.yul\":150:151   */\n          dup1\n            /* \"#utility.yul\":143:155   */\n          revert\n            /* \"#utility.yul\":105:157   */\n        tag_24:\n          pop\n            /* \"#utility.yul\":176:192   */\n          mload\n          swap2\n            /* \"#utility.yul\":14:198   */\n          swap1\n          pop\n          jump\t// out\n            /* \"#utility.yul\":385:797   */\n        tag_8:\n            /* \"#utility.yul\":514:517   */\n          0x00\n            /* \"#utility.yul\":552:558   */\n          dup3\n            /* \"#utility.yul\":546:559   */\n          mload\n            /* \"#utility.yul\":577:578   */\n          0x00\n            /* \"#utility.yul\":587:716   */\n        tag_27:\n            /* \"#utility.yul\":601:607   */\n          dup2\n            /* \"#utility.yul\":598:599   */\n          dup2\n            /* \"#utility.yul\":595:608   */\n          lt\n            /* \"#utility.yul\":587:716   */\n          iszero\n          tag_29\n          jumpi\n            /* \"#utility.yul\":699:703   */\n          0x20\n            /* \"#utility.yul\":683:697   */\n          dup2\n          dup7\n          add\n            /* \"#utility.yul\":679:704   */\n          dup2\n          add\n            /* \"#utility.yul\":673:705   */\n          mload\n            /* \"#utility.yul\":660:671   */\n          dup6\n          dup4\n          add\n            /* \"#utility.yul\":653:706   */\n          mstore\n            /* \"#utility.yul\":616:628   */\n          add\n            /* \"#utility.yul\":587:716   */\n          jump(tag_27)\n        tag_29:\n          pop\n            /* \"#utility.yul\":771:772   */\n          0x00\n            /* \"#utility.yul\":735:751   */\n          swap3\n          add\n            /* \"#utility.yul\":760:773   */\n          swap2\n          dup3\n          mstore\n          pop\n            /* \"#utility.yul\":735:751   */\n          swap2\n            /* \"#utility.yul\":385:797   */\n          swap1\n          pop\n          jump\t// out\n            /* \"#utility.yul\":1434:1711   */\n        tag_20:\n            /* \"#utility.yul\":1501:1507   */\n          0x00\n            /* \"#utility.yul\":1554:1556   */\n          0x20\n            /* \"#utility.yul\":1542:1551   */\n          dup3\n            /* \"#utility.yul\":1533:1540   */\n          dup5\n            /* \"#utility.yul\":1529:1552   */\n          sub\n            /* \"#utility.yul\":1525:1557   */\n          slt\n            /* \"#utility.yul\":1522:1574   */\n          iszero\n          tag_33\n          jumpi\n            /* \"#utility.yul\":1570:1571   */\n          0x00\n            /* \"#utility.yul\":1567:1568   */\n          dup1\n            /* \"#utility.yul\":1560:1572   */\n          revert\n            /* \"#utility.yul\":1522:1574   */\n        tag_33:\n            /* \"#utility.yul\":1602:1611   */\n          dup2\n            /* \"#utility.yul\":1596:1612   */\n          mload\n            /* \"#utility.yul\":1655:1660   */\n          dup1\n            /* \"#utility.yul\":1648:1661   */\n          iszero\n            /* \"#utility.yul\":1641:1662   */\n          iszero\n            /* \"#utility.yul\":1634:1639   */\n          dup2\n            /* \"#utility.yul\":1631:1663   */\n          eq\n            /* \"#utility.yul\":1621:1681   */\n          tag_34\n          jumpi\n            /* \"#utility.yul\":1677:1678   */\n          0x00\n            /* \"#utility.yul\":1674:1675   */\n          dup1\n            /* \"#utility.yul\":1667:1679   */\n          revert\n            /* \"#utility.yul\":1621:1681   */\n        tag_34:\n            /* \"#utility.yul\":1700:1705   */\n          swap4\n            /* \"#utility.yul\":1434:1711   */\n          swap3\n          pop\n          pop\n          pop\n          jump\t// out\n        tag_22:\n            /* \"contract/dragon/dragon.sol\":800:1703  contract bot {... */\n          dataSize(sub_0)\n          dup1\n          dataOffset(sub_0)\n          0x00\n          codecopy\n          0x00\n          return\n        stop\n\n        sub_0: assembly {\n                /* \"contract/dragon/dragon.sol\":800:1703  contract bot {... */\n              mstore(0x40, 0x80)\n              callvalue\n              dup1\n              iszero\n              tag_1\n              jumpi\n              0x00\n              dup1\n              revert\n            tag_1:\n              pop\n              jumpi(tag_2, lt(calldatasize, 0x04))\n              shr(0xe0, calldataload(0x00))\n              dup1\n              0x57ea89b6\n              eq\n              tag_3\n              jumpi\n              dup1\n              0xa66f42c0\n              eq\n              tag_4\n              jumpi\n            tag_2:\n              0x00\n              dup1\n              revert\n                /* \"contract/dragon/dragon.sol\":1271:1486  function Withdraw() external {... */\n            tag_3:\n              tag_5\n              tag_6\n              jump\t// in\n            tag_5:\n              stop\n                /* \"contract/dragon/dragon.sol\":1492:1701  function boost() external {... */\n            tag_4:\n              tag_5\n              tag_8\n              jump\t// in\n                /* \"contract/dragon/dragon.sol\":1271:1486  function Withdraw() external {... */\n            tag_6:\n                /* \"contract/dragon/dragon.sol\":1390:1424  abi.encodeWithSelector(0x3ccfd60b) */\n              0x40\n              dup1\n              mload\n              0x04\n              dup2\n              mstore\n              0x24\n              dup2\n              add\n              dup3\n              mstore\n              0x20\n              dup2\n              add\n              dup1\n              mload\n              sub(shl(0xe0, 0x01), 0x01)\n              and\n              shl(0xe0, 0x3ccfd60b)\n              or\n              swap1\n              mstore\n                /* \"contract/dragon/dragon.sol\":1329:1434  0xEf64C03D5E757a5f6dC5284F3d627F3C255F09aB.call(... */\n              swap1\n              mload\n                /* \"contract/dragon/dragon.sol\":1311:1323  bool success */\n              0x00\n              swap2\n                /* \"contract/dragon/dragon.sol\":1329:1371  0xEf64C03D5E757a5f6dC5284F3d627F3C255F09aB */\n              0xef64c03d5e757a5f6dc5284f3d627f3c255f09ab\n              swap2\n                /* \"contract/dragon/dragon.sol\":1329:1434  0xEf64C03D5E757a5f6dC5284F3d627F3C255F09aB.call(... */\n              tag_10\n              swap2\n                /* \"contract/dragon/dragon.sol\":1390:1424  abi.encodeWithSelector(0x3ccfd60b) */\n              swap1\n                /* \"contract/dragon/dragon.sol\":1329:1434  0xEf64C03D5E757a5f6dC5284F3d627F3C255F09aB.call(... */\n              tag_11\n              jump\t// in\n            tag_10:\n              0x00\n              mload(0x40)\n              dup1\n              dup4\n              sub\n              dup2\n              0x00\n              dup7\n              gas\n              call\n              swap2\n              pop\n              pop\n              returndatasize\n              dup1\n              0x00\n              dup2\n              eq\n              tag_14\n              jumpi\n              mload(0x40)\n              swap2\n              pop\n              and(add(returndatasize, 0x3f), not(0x1f))\n              dup3\n              add\n              0x40\n              mstore\n              returndatasize\n              dup3\n              mstore\n              returndatasize\n              0x00\n              0x20\n              dup5\n              add\n              returndatacopy\n              jump(tag_13)\n            tag_14:\n              0x60\n              swap2\n              pop\n            tag_13:\n              pop\n                /* \"contract/dragon/dragon.sol\":1310:1434  (bool success, ) = 0xEf64C03D5E757a5f6dC5284F3d627F3C255F09aB.call(... */\n              pop\n              swap1\n              pop\n                /* \"contract/dragon/dragon.sol\":1452:1459  success */\n              dup1\n                /* \"contract/dragon/dragon.sol\":1444:1479  require(success, \"withdraw failed\") */\n              tag_15\n              jumpi\n              mload(0x40)\n              shl(0xe5, 0x461bcd)\n              dup2\n              mstore\n                /* \"#utility.yul\":633:635   */\n              0x20\n                /* \"contract/dragon/dragon.sol\":1444:1479  require(success, \"withdraw failed\") */\n              0x04\n              dup3\n              add\n                /* \"#utility.yul\":615:636   */\n              mstore\n                /* \"#utility.yul\":672:674   */\n              0x0f\n                /* \"#utility.yul\":652:670   */\n              0x24\n              dup3\n              add\n                /* \"#utility.yul\":645:675   */\n              mstore\n              shl(0x8a, 0x1dda5d1a191c985dc819985a5b1959)\n                /* \"#utility.yul\":691:709   */\n              0x44\n              dup3\n              add\n                /* \"#utility.yul\":684:729   */\n              mstore\n                /* \"#utility.yul\":746:764   */\n              0x64\n              add\n                /* \"contract/dragon/dragon.sol\":1444:1479  require(success, \"withdraw failed\") */\n            tag_16:\n              mload(0x40)\n              dup1\n              swap2\n              sub\n              swap1\n              revert\n            tag_15:\n                /* \"contract/dragon/dragon.sol\":1300:1486  {... */\n              pop\n                /* \"contract/dragon/dragon.sol\":1271:1486  function Withdraw() external {... */\n              jump\t// out\n                /* \"contract/dragon/dragon.sol\":1492:1701  function boost() external {... */\n            tag_8:\n                /* \"contract/dragon/dragon.sol\":1608:1642  abi.encodeWithSelector(0xa66f42c0) */\n              0x40\n              dup1\n              mload\n              0x04\n              dup2\n              mstore\n              0x24\n              dup2\n              add\n              dup3\n              mstore\n              0x20\n              dup2\n              add\n              dup1\n              mload\n              sub(shl(0xe0, 0x01), 0x01)\n              and\n              shl(0xe6, 0x0299bd0b)\n              or\n              swap1\n              mstore\n                /* \"contract/dragon/dragon.sol\":1547:1652  0xEf64C03D5E757a5f6dC5284F3d627F3C255F09aB.call(... */\n              swap1\n              mload\n                /* \"contract/dragon/dragon.sol\":1529:1541  bool success */\n              0x00\n              swap2\n                /* \"contract/dragon/dragon.sol\":1547:1589  0xEf64C03D5E757a5f6dC5284F3d627F3C255F09aB */\n              0xef64c03d5e757a5f6dc5284f3d627f3c255f09ab\n              swap2\n                /* \"contract/dragon/dragon.sol\":1547:1652  0xEf64C03D5E757a5f6dC5284F3d627F3C255F09aB.call(... */\n              tag_19\n              swap2\n                /* \"contract/dragon/dragon.sol\":1608:1642  abi.encodeWithSelector(0xa66f42c0) */\n              swap1\n                /* \"contract/dragon/dragon.sol\":1547:1652  0xEf64C03D5E757a5f6dC5284F3d627F3C255F09aB.call(... */\n              tag_11\n              jump\t// in\n            tag_19:\n              0x00\n              mload(0x40)\n              dup1\n              dup4\n              sub\n              dup2\n              0x00\n              dup7\n              gas\n              call\n              swap2\n              pop\n              pop\n              returndatasize\n              dup1\n              0x00\n              dup2\n              eq\n              tag_22\n              jumpi\n              mload(0x40)\n              swap2\n              pop\n              and(add(returndatasize, 0x3f), not(0x1f))\n              dup3\n              add\n              0x40\n              mstore\n              returndatasize\n              dup3\n              mstore\n              returndatasize\n              0x00\n              0x20\n              dup5\n              add\n              returndatacopy\n              jump(tag_21)\n            tag_22:\n              0x60\n              swap2\n              pop\n            tag_21:\n              pop\n                /* \"contract/dragon/dragon.sol\":1528:1652  (bool success, ) = 0xEf64C03D5E757a5f6dC5284F3d627F3C255F09aB.call(... */\n              pop\n              swap1\n              pop\n                /* \"contract/dragon/dragon.sol\":1670:1677  success */\n              dup1\n                /* \"contract/dragon/dragon.sol\":1662:1694  require(success, \"boost failed\") */\n              tag_15\n              jumpi\n              mload(0x40)\n              shl(0xe5, 0x461bcd)\n              dup2\n              mstore\n                /* \"#utility.yul\":977:979   */\n              0x20\n                /* \"contract/dragon/dragon.sol\":1662:1694  require(success, \"boost failed\") */\n              0x04\n              dup3\n              add\n                /* \"#utility.yul\":959:980   */\n              mstore\n                /* \"#utility.yul\":1016:1018   */\n              0x0c\n                /* \"#utility.yul\":996:1014   */\n              0x24\n              dup3\n              add\n                /* \"#utility.yul\":989:1019   */\n              mstore\n              shl(0xa2, 0x189bdbdcdd0819985a5b1959)\n                /* \"#utility.yul\":1035:1053   */\n              0x44\n              dup3\n              add\n                /* \"#utility.yul\":1028:1070   */\n              mstore\n                /* \"#utility.yul\":1087:1105   */\n              0x64\n              add\n                /* \"contract/dragon/dragon.sol\":1662:1694  require(success, \"boost failed\") */\n              tag_16\n                /* \"#utility.yul\":775:1111   */\n              jump\n                /* \"#utility.yul\":14:426   */\n            tag_11:\n                /* \"#utility.yul\":143:146   */\n              0x00\n                /* \"#utility.yul\":181:187   */\n              dup3\n                /* \"#utility.yul\":175:188   */\n              mload\n                /* \"#utility.yul\":206:207   */\n              0x00\n                /* \"#utility.yul\":216:345   */\n            tag_28:\n                /* \"#utility.yul\":230:236   */\n              dup2\n                /* \"#utility.yul\":227:228   */\n              dup2\n                /* \"#utility.yul\":224:237   */\n              lt\n                /* \"#utility.yul\":216:345   */\n              iszero\n              tag_30\n              jumpi\n                /* \"#utility.yul\":328:332   */\n              0x20\n                /* \"#utility.yul\":312:326   */\n              dup2\n              dup7\n              add\n                /* \"#utility.yul\":308:333   */\n              dup2\n              add\n                /* \"#utility.yul\":302:334   */\n              mload\n                /* \"#utility.yul\":289:300   */\n              dup6\n              dup4\n              add\n                /* \"#utility.yul\":282:335   */\n              mstore\n                /* \"#utility.yul\":245:257   */\n              add\n                /* \"#utility.yul\":216:345   */\n              jump(tag_28)\n            tag_30:\n              pop\n                /* \"#utility.yul\":400:401   */\n              0x00\n                /* \"#utility.yul\":364:380   */\n              swap3\n              add\n                /* \"#utility.yul\":389:402   */\n              swap2\n              dup3\n              mstore\n              pop\n                /* \"#utility.yul\":364:380   */\n              swap2\n                /* \"#utility.yul\":14:426   */\n              swap1\n              pop\n              jump\t// out\n\n            auxdata: 0xa2646970667358221220d5f85fa50b5f6d5df0855c046c00ebf506f0308138adc2cb2240ccb2b18873b664736f6c63430008150033\n        }\n    }\n\n    auxdata: 0xa264697066735822122022981581baf3c6829ad9d8906522e5881356e38b34efebee7d75e91ce04f8a1a64736f6c63430008150033\n}\n",
				"bytecode": {
					"linkReferences": {},
					"object": "60a0604052600f60015562021af0600255600380546001600160a01b03191673ef64c03d5e757a5f6dc5284f3d627f3c255f09ab179055348015610041575f80fd5b5033608052608051610dcb61006c5f395f818161066e0152818161072f01526107a20152610dcb5ff3fe608060405234801561000f575f80fd5b5060043610610060575f3560e01c806306055939146100645780631ceeddf4146100795780633cd64f181461008c578063d97af6c21461009f578063e1381b12146100b2578063e1b903f5146100c5575b5f80fd5b610077610072366004610818565b6100ff565b005b610077610087366004610818565b61042e565b61007761009a366004610818565b6105cf565b6100776100ad366004610838565b610724565b6100776100c0366004610838565b610797565b6100ed6100d336600461084f565b6001600160a01b03165f9081526020819052604090205490565b60405190815260200160405180910390f35b335f908152602081815260409182902080548351818402810184019094528084526060939283018282801561015b57602002820191905f5260205f20905b81546001600160a01b0316815260019091019060200180831161013d575b50505050509050828151118015610173575081815110155b6101a85760405162461bcd60e51b81526020600482015260016024820152603360f91b60448201526064015b60405180910390fd5b73f0f942d563a6bacf875d8cee5ae663b12ce62149835b8251811080156101cf5750808410155b156104275760035483515f916001600160a01b031690632bcf161c908690859081106101fd576101fd61087c565b60200260200101516040518263ffffffff1660e01b815260040161023091906001600160a01b0391909116815260200190565b602060405180830381865afa15801561024b573d5f803e3d5ffd5b505050506040513d601f19601f8201168201806040525081019061026f9190610890565b1115610415578281815181106102875761028761087c565b60200260200101516001600160a01b03166357ea89b66040518163ffffffff1660e01b81526004015f604051808303815f87803b1580156102c6575f80fd5b505af11580156102d8573d5f803e3d5ffd5b505050505f826001600160a01b03166370a082318584815181106102fe576102fe61087c565b60200260200101516040518263ffffffff1660e01b815260040161033191906001600160a01b0391909116815260200190565b602060405180830381865afa15801561034c573d5f803e3d5ffd5b505050506040513d601f19601f820116820180604052508101906103709190610890565b9050826001600160a01b03166323b872dd8584815181106103935761039361087c565b60209081029190910101516040516001600160e01b031960e084901b1681526001600160a01b039091166004820152336024820152604481018490526064016020604051808303815f875af11580156103ee573d5f803e3d5ffd5b505050506040513d601f19601f8201168201806040525081019061041291906108a7565b50505b8061041f816108c6565b9150506101bf565b5050505050565b335f908152602081815260409182902080548351818402810184019094528084526060939283018282801561048a57602002820191905f5260205f20905b81546001600160a01b0316815260019091019060200180831161046c575b5050335f90815260208181526040918290208054835181840281018401909452808452969750919591945090925084019050828280156104f157602002820191905f5260205f20905b81546001600160a01b031681526001909101906020018083116104d3575b50505050509050828151118015610509575081815110155b6105395760405162461bcd60e51b81526020600482015260016024820152603360f91b604482015260640161019f565b825b81518110801561054a57508083115b156105c9578181815181106105615761056161087c565b60200260200101516001600160a01b031663a66f42c06040518163ffffffff1660e01b81526004015f604051808303815f87803b1580156105a0575f80fd5b505af11580156105b2573d5f803e3d5ffd5b5050505080806105c1906108c6565b91505061053b565b50505050565b5f5b8181101561071f575f811180156105f257506001546105f090826108ea565b155b1561066a57335f9081526020819052604090819020905184906106149061080a565b908152602001604051809103905ff080158015610633573d5f803e3d5ffd5b5081546001810183555f928352602090922090910180546001600160a01b0319166001600160a01b0390921691909117905561070d565b5f807f00000000000000000000000000000000000000000000000000000000000000006001600160a01b03166001600160a01b031681526020019081526020015f206002546040516106bb9061080a565b908152602001604051809103905ff0801580156106da573d5f803e3d5ffd5b5081546001810183555f928352602090922090910180546001600160a01b0319166001600160a01b039092169190911790555b80610717816108c6565b9150506105d1565b505050565b336001600160a01b037f000000000000000000000000000000000000000000000000000000000000000016146107925760405162461bcd60e51b815260206004820152601360248201527221b0b63632b91034b9903737ba1037bbb732b960691b604482015260640161019f565b600255565b336001600160a01b037f000000000000000000000000000000000000000000000000000000000000000016146108055760405162461bcd60e51b815260206004820152601360248201527221b0b63632b91034b9903737ba1037bbb732b960691b604482015260640161019f565b600155565b61048c806200090a83390190565b5f8060408385031215610829575f80fd5b50508035926020909101359150565b5f60208284031215610848575f80fd5b5035919050565b5f6020828403121561085f575f80fd5b81356001600160a01b0381168114610875575f80fd5b9392505050565b634e487b7160e01b5f52603260045260245ffd5b5f602082840312156108a0575f80fd5b5051919050565b5f602082840312156108b7575f80fd5b81518015158114610875575f80fd5b5f600182016108e357634e487b7160e01b5f52601160045260245ffd5b5060010190565b5f8261090457634e487b7160e01b5f52601260045260245ffd5b50069056fe608060408190525f80546001600160a01b03191673ef64c03d5e757a5f6dc5284f3d627f3c255f09ab17905561048c38819003908190833981016040819052610047916101cb565b5f73ef64c03d5e757a5f6dc5284f3d627f3c255f09ab6001600160a01b031663b260c42a8360405160240161007e91815260200190565b6040516020818303038152906040529060e01b6020820180516001600160e01b0383818316178352505050506040516100b791906101e2565b5f604051808303815f865af19150503d805f81146100f0576040519150601f19603f3d011682016040523d82523d5f602084013e6100f5565b606091505b505090508061014a5760405162461bcd60e51b815260206004820152601860248201527f4261746368207472616e73616374696f6e206661696c65640000000000000000604482015260640160405180910390fd5b60405163095ea7b360e01b81523360048201525f19602482015273f0f942d563a6bacf875d8cee5ae663b12ce621499063095ea7b3906044016020604051808303815f875af115801561019f573d5f803e3d5ffd5b505050506040513d601f19601f820116820180604052508101906101c3919061020e565b505050610234565b5f602082840312156101db575f80fd5b5051919050565b5f82515f5b8181101561020157602081860181015185830152016101e7565b505f920191825250919050565b5f6020828403121561021e575f80fd5b8151801515811461022d575f80fd5b9392505050565b61024b806102415f395ff3fe608060405234801561000f575f80fd5b5060043610610034575f3560e01c806357ea89b614610038578063a66f42c014610042575b5f80fd5b61004061004a565b005b61004061011f565b60408051600481526024810182526020810180516001600160e01b0316633ccfd60b60e01b17905290515f9173ef64c03d5e757a5f6dc5284f3d627f3c255f09ab9161009691906101e9565b5f604051808303815f865af19150503d805f81146100cf576040519150601f19603f3d011682016040523d82523d5f602084013e6100d4565b606091505b505090508061011c5760405162461bcd60e51b815260206004820152600f60248201526e1dda5d1a191c985dc819985a5b1959608a1b60448201526064015b60405180910390fd5b50565b60408051600481526024810182526020810180516001600160e01b0316630299bd0b60e61b17905290515f9173ef64c03d5e757a5f6dc5284f3d627f3c255f09ab9161016b91906101e9565b5f604051808303815f865af19150503d805f81146101a4576040519150601f19603f3d011682016040523d82523d5f602084013e6101a9565b606091505b505090508061011c5760405162461bcd60e51b815260206004820152600c60248201526b189bdbdcdd0819985a5b195960a21b6044820152606401610113565b5f82515f5b8181101561020857602081860181015185830152016101ee565b505f92019182525091905056fea2646970667358221220d5f85fa50b5f6d5df0855c046c00ebf506f0308138adc2cb2240ccb2b18873b664736f6c63430008150033a264697066735822122022981581baf3c6829ad9d8906522e5881356e38b34efebee7d75e91ce04f8a1a64736f6c63430008150033",
					"opcodes": "PUSH1 0xA0 PUSH1 0x40 MSTORE PUSH1 0xF PUSH1 0x1 SSTORE PUSH3 0x21AF0 PUSH1 0x2 SSTORE PUSH1 0x3 DUP1 SLOAD PUSH1 0x1 PUSH1 0x1 PUSH1 0xA0 SHL SUB NOT AND PUSH20 0xEF64C03D5E757A5F6DC5284F3D627F3C255F09AB OR SWAP1 SSTORE CALLVALUE DUP1 ISZERO PUSH2 0x41 JUMPI PUSH0 DUP1 REVERT JUMPDEST POP CALLER PUSH1 0x80 MSTORE PUSH1 0x80 MLOAD PUSH2 0xDCB PUSH2 0x6C PUSH0 CODECOPY PUSH0 DUP2 DUP2 PUSH2 0x66E ADD MSTORE DUP2 DUP2 PUSH2 0x72F ADD MSTORE PUSH2 0x7A2 ADD MSTORE PUSH2 0xDCB PUSH0 RETURN INVALID PUSH1 0x80 PUSH1 0x40 MSTORE CALLVALUE DUP1 ISZERO PUSH2 0xF JUMPI PUSH0 DUP1 REVERT JUMPDEST POP PUSH1 0x4 CALLDATASIZE LT PUSH2 0x60 JUMPI PUSH0 CALLDATALOAD PUSH1 0xE0 SHR DUP1 PUSH4 0x6055939 EQ PUSH2 0x64 JUMPI DUP1 PUSH4 0x1CEEDDF4 EQ PUSH2 0x79 JUMPI DUP1 PUSH4 0x3CD64F18 EQ PUSH2 0x8C JUMPI DUP1 PUSH4 0xD97AF6C2 EQ PUSH2 0x9F JUMPI DUP1 PUSH4 0xE1381B12 EQ PUSH2 0xB2 JUMPI DUP1 PUSH4 0xE1B903F5 EQ PUSH2 0xC5 JUMPI JUMPDEST PUSH0 DUP1 REVERT JUMPDEST PUSH2 0x77 PUSH2 0x72 CALLDATASIZE PUSH1 0x4 PUSH2 0x818 JUMP JUMPDEST PUSH2 0xFF JUMP JUMPDEST STOP JUMPDEST PUSH2 0x77 PUSH2 0x87 CALLDATASIZE PUSH1 0x4 PUSH2 0x818 JUMP JUMPDEST PUSH2 0x42E JUMP JUMPDEST PUSH2 0x77 PUSH2 0x9A CALLDATASIZE PUSH1 0x4 PUSH2 0x818 JUMP JUMPDEST PUSH2 0x5CF JUMP JUMPDEST PUSH2 0x77 PUSH2 0xAD CALLDATASIZE PUSH1 0x4 PUSH2 0x838 JUMP JUMPDEST PUSH2 0x724 JUMP JUMPDEST PUSH2 0x77 PUSH2 0xC0 CALLDATASIZE PUSH1 0x4 PUSH2 0x838 JUMP JUMPDEST PUSH2 0x797 JUMP JUMPDEST PUSH2 0xED PUSH2 0xD3 CALLDATASIZE PUSH1 0x4 PUSH2 0x84F JUMP JUMPDEST PUSH1 0x1 PUSH1 0x1 PUSH1 0xA0 SHL SUB AND PUSH0 SWAP1 DUP2 MSTORE PUSH1 0x20 DUP2 SWAP1 MSTORE PUSH1 0x40 SWAP1 KECCAK256 SLOAD SWAP1 JUMP JUMPDEST PUSH1 0x40 MLOAD SWAP1 DUP2 MSTORE PUSH1 0x20 ADD PUSH1 0x40 MLOAD DUP1 SWAP2 SUB SWAP1 RETURN JUMPDEST CALLER PUSH0 SWAP1 DUP2 MSTORE PUSH1 0x20 DUP2 DUP2 MSTORE PUSH1 0x40 SWAP2 DUP3 SWAP1 KECCAK256 DUP1 SLOAD DUP4 MLOAD DUP2 DUP5 MUL DUP2 ADD DUP5 ADD SWAP1 SWAP5 MSTORE DUP1 DUP5 MSTORE PUSH1 0x60 SWAP4 SWAP3 DUP4 ADD DUP3 DUP3 DUP1 ISZERO PUSH2 0x15B JUMPI PUSH1 0x20 MUL DUP3 ADD SWAP2 SWAP1 PUSH0 MSTORE PUSH1 0x20 PUSH0 KECCAK256 SWAP1 JUMPDEST DUP2 SLOAD PUSH1 0x1 PUSH1 0x1 PUSH1 0xA0 SHL SUB AND DUP2 MSTORE PUSH1 0x1 SWAP1 SWAP2 ADD SWAP1 PUSH1 0x20 ADD DUP1 DUP4 GT PUSH2 0x13D JUMPI JUMPDEST POP POP POP POP POP SWAP1 POP DUP3 DUP2 MLOAD GT DUP1 ISZERO PUSH2 0x173 JUMPI POP DUP2 DUP2 MLOAD LT ISZERO JUMPDEST PUSH2 0x1A8 JUMPI PUSH1 0x40 MLOAD PUSH3 0x461BCD PUSH1 0xE5 SHL DUP2 MSTORE PUSH1 0x20 PUSH1 0x4 DUP3 ADD MSTORE PUSH1 0x1 PUSH1 0x24 DUP3 ADD MSTORE PUSH1 0x33 PUSH1 0xF9 SHL PUSH1 0x44 DUP3 ADD MSTORE PUSH1 0x64 ADD JUMPDEST PUSH1 0x40 MLOAD DUP1 SWAP2 SUB SWAP1 REVERT JUMPDEST PUSH20 0xF0F942D563A6BACF875D8CEE5AE663B12CE62149 DUP4 JUMPDEST DUP3 MLOAD DUP2 LT DUP1 ISZERO PUSH2 0x1CF JUMPI POP DUP1 DUP5 LT ISZERO JUMPDEST ISZERO PUSH2 0x427 JUMPI PUSH1 0x3 SLOAD DUP4 MLOAD PUSH0 SWAP2 PUSH1 0x1 PUSH1 0x1 PUSH1 0xA0 SHL SUB AND SWAP1 PUSH4 0x2BCF161C SWAP1 DUP7 SWAP1 DUP6 SWAP1 DUP2 LT PUSH2 0x1FD JUMPI PUSH2 0x1FD PUSH2 0x87C JUMP JUMPDEST PUSH1 0x20 MUL PUSH1 0x20 ADD ADD MLOAD PUSH1 0x40 MLOAD DUP3 PUSH4 0xFFFFFFFF AND PUSH1 0xE0 SHL DUP2 MSTORE PUSH1 0x4 ADD PUSH2 0x230 SWAP2 SWAP1 PUSH1 0x1 PUSH1 0x1 PUSH1 0xA0 SHL SUB SWAP2 SWAP1 SWAP2 AND DUP2 MSTORE PUSH1 0x20 ADD SWAP1 JUMP JUMPDEST PUSH1 0x20 PUSH1 0x40 MLOAD DUP1 DUP4 SUB DUP2 DUP7 GAS STATICCALL ISZERO DUP1 ISZERO PUSH2 0x24B JUMPI RETURNDATASIZE PUSH0 DUP1 RETURNDATACOPY RETURNDATASIZE PUSH0 REVERT JUMPDEST POP POP POP POP PUSH1 0x40 MLOAD RETURNDATASIZE PUSH1 0x1F NOT PUSH1 0x1F DUP3 ADD AND DUP3 ADD DUP1 PUSH1 0x40 MSTORE POP DUP2 ADD SWAP1 PUSH2 0x26F SWAP2 SWAP1 PUSH2 0x890 JUMP JUMPDEST GT ISZERO PUSH2 0x415 JUMPI DUP3 DUP2 DUP2 MLOAD DUP2 LT PUSH2 0x287 JUMPI PUSH2 0x287 PUSH2 0x87C JUMP JUMPDEST PUSH1 0x20 MUL PUSH1 0x20 ADD ADD MLOAD PUSH1 0x1 PUSH1 0x1 PUSH1 0xA0 SHL SUB AND PUSH4 0x57EA89B6 PUSH1 0x40 MLOAD DUP2 PUSH4 0xFFFFFFFF AND PUSH1 0xE0 SHL DUP2 MSTORE PUSH1 0x4 ADD PUSH0 PUSH1 0x40 MLOAD DUP1 DUP4 SUB DUP2 PUSH0 DUP8 DUP1 EXTCODESIZE ISZERO DUP1 ISZERO PUSH2 0x2C6 JUMPI PUSH0 DUP1 REVERT JUMPDEST POP GAS CALL ISZERO DUP1 ISZERO PUSH2 0x2D8 JUMPI RETURNDATASIZE PUSH0 DUP1 RETURNDATACOPY RETURNDATASIZE PUSH0 REVERT JUMPDEST POP POP POP POP PUSH0 DUP3 PUSH1 0x1 PUSH1 0x1 PUSH1 0xA0 SHL SUB AND PUSH4 0x70A08231 DUP6 DUP5 DUP2 MLOAD DUP2 LT PUSH2 0x2FE JUMPI PUSH2 0x2FE PUSH2 0x87C JUMP JUMPDEST PUSH1 0x20 MUL PUSH1 0x20 ADD ADD MLOAD PUSH1 0x40 MLOAD DUP3 PUSH4 0xFFFFFFFF AND PUSH1 0xE0 SHL DUP2 MSTORE PUSH1 0x4 ADD PUSH2 0x331 SWAP2 SWAP1 PUSH1 0x1 PUSH1 0x1 PUSH1 0xA0 SHL SUB SWAP2 SWAP1 SWAP2 AND DUP2 MSTORE PUSH1 0x20 ADD SWAP1 JUMP JUMPDEST PUSH1 0x20 PUSH1 0x40 MLOAD DUP1 DUP4 SUB DUP2 DUP7 GAS STATICCALL ISZERO DUP1 ISZERO PUSH2 0x34C JUMPI RETURNDATASIZE PUSH0 DUP1 RETURNDATACOPY RETURNDATASIZE PUSH0 REVERT JUMPDEST POP POP POP POP PUSH1 0x40 MLOAD RETURNDATASIZE PUSH1 0x1F NOT PUSH1 0x1F DUP3 ADD AND DUP3 ADD DUP1 PUSH1 0x40 MSTORE POP DUP2 ADD SWAP1 PUSH2 0x370 SWAP2 SWAP1 PUSH2 0x890 JUMP JUMPDEST SWAP1 POP DUP3 PUSH1 0x1 PUSH1 0x1 PUSH1 0xA0 SHL SUB AND PUSH4 0x23B872DD DUP6 DUP5 DUP2 MLOAD DUP2 LT PUSH2 0x393 JUMPI PUSH2 0x393 PUSH2 0x87C JUMP JUMPDEST PUSH1 0x20 SWAP1 DUP2 MUL SWAP2 SWAP1 SWAP2 ADD ADD MLOAD PUSH1 0x40 MLOAD PUSH1 0x1 PUSH1 0x1 PUSH1 0xE0 SHL SUB NOT PUSH1 0xE0 DUP5 SWAP1 SHL AND DUP2 MSTORE PUSH1 0x1 PUSH1 0x1 PUSH1 0xA0 SHL SUB SWAP1 SWAP2 AND PUSH1 0x4 DUP3 ADD MSTORE CALLER PUSH1 0x24 DUP3 ADD MSTORE PUSH1 0x44 DUP2 ADD DUP5 SWAP1 MSTORE PUSH1 0x64 ADD PUSH1 0x20 PUSH1 0x40 MLOAD DUP1 DUP4 SUB DUP2 PUSH0 DUP8 GAS CALL ISZERO DUP1 ISZERO PUSH2 0x3EE JUMPI RETURNDATASIZE PUSH0 DUP1 RETURNDATACOPY RETURNDATASIZE PUSH0 REVERT JUMPDEST POP POP POP POP PUSH1 0x40 MLOAD RETURNDATASIZE PUSH1 0x1F NOT PUSH1 0x1F DUP3 ADD AND DUP3 ADD DUP1 PUSH1 0x40 MSTORE POP DUP2 ADD SWAP1 PUSH2 0x412 SWAP2 SWAP1 PUSH2 0x8A7 JUMP JUMPDEST POP POP JUMPDEST DUP1 PUSH2 0x41F DUP2 PUSH2 0x8C6 JUMP JUMPDEST SWAP2 POP POP PUSH2 0x1BF JUMP JUMPDEST POP POP POP POP POP JUMP JUMPDEST CALLER PUSH0 SWAP1 DUP2 MSTORE PUSH1 0x20 DUP2 DUP2 MSTORE PUSH1 0x40 SWAP2 DUP3 SWAP1 KECCAK256 DUP1 SLOAD DUP4 MLOAD DUP2 DUP5 MUL DUP2 ADD DUP5 ADD SWAP1 SWAP5 MSTORE DUP1 DUP5 MSTORE PUSH1 0x60 SWAP4 SWAP3 DUP4 ADD DUP3 DUP3 DUP1 ISZERO PUSH2 0x48A JUMPI PUSH1 0x20 MUL DUP3 ADD SWAP2 SWAP1 PUSH0 MSTORE PUSH1 0x20 PUSH0 KECCAK256 SWAP1 JUMPDEST DUP2 SLOAD PUSH1 0x1 PUSH1 0x1 PUSH1 0xA0 SHL SUB AND DUP2 MSTORE PUSH1 0x1 SWAP1 SWAP2 ADD SWAP1 PUSH1 0x20 ADD DUP1 DUP4 GT PUSH2 0x46C JUMPI JUMPDEST POP POP CALLER PUSH0 SWAP1 DUP2 MSTORE PUSH1 0x20 DUP2 DUP2 MSTORE PUSH1 0x40 SWAP2 DUP3 SWAP1 KECCAK256 DUP1 SLOAD DUP4 MLOAD DUP2 DUP5 MUL DUP2 ADD DUP5 ADD SWAP1 SWAP5 MSTORE DUP1 DUP5 MSTORE SWAP7 SWAP8 POP SWAP2 SWAP6 SWAP2 SWAP5 POP SWAP1 SWAP3 POP DUP5 ADD SWAP1 POP DUP3 DUP3 DUP1 ISZERO PUSH2 0x4F1 JUMPI PUSH1 0x20 MUL DUP3 ADD SWAP2 SWAP1 PUSH0 MSTORE PUSH1 0x20 PUSH0 KECCAK256 SWAP1 JUMPDEST DUP2 SLOAD PUSH1 0x1 PUSH1 0x1 PUSH1 0xA0 SHL SUB AND DUP2 MSTORE PUSH1 0x1 SWAP1 SWAP2 ADD SWAP1 PUSH1 0x20 ADD DUP1 DUP4 GT PUSH2 0x4D3 JUMPI JUMPDEST POP POP POP POP POP SWAP1 POP DUP3 DUP2 MLOAD GT DUP1 ISZERO PUSH2 0x509 JUMPI POP DUP2 DUP2 MLOAD LT ISZERO JUMPDEST PUSH2 0x539 JUMPI PUSH1 0x40 MLOAD PUSH3 0x461BCD PUSH1 0xE5 SHL DUP2 MSTORE PUSH1 0x20 PUSH1 0x4 DUP3 ADD MSTORE PUSH1 0x1 PUSH1 0x24 DUP3 ADD MSTORE PUSH1 0x33 PUSH1 0xF9 SHL PUSH1 0x44 DUP3 ADD MSTORE PUSH1 0x64 ADD PUSH2 0x19F JUMP JUMPDEST DUP3 JUMPDEST DUP2 MLOAD DUP2 LT DUP1 ISZERO PUSH2 0x54A JUMPI POP DUP1 DUP4 GT JUMPDEST ISZERO PUSH2 0x5C9 JUMPI DUP2 DUP2 DUP2 MLOAD DUP2 LT PUSH2 0x561 JUMPI PUSH2 0x561 PUSH2 0x87C JUMP JUMPDEST PUSH1 0x20 MUL PUSH1 0x20 ADD ADD MLOAD PUSH1 0x1 PUSH1 0x1 PUSH1 0xA0 SHL SUB AND PUSH4 0xA66F42C0 PUSH1 0x40 MLOAD DUP2 PUSH4 0xFFFFFFFF AND PUSH1 0xE0 SHL DUP2 MSTORE PUSH1 0x4 ADD PUSH0 PUSH1 0x40 MLOAD DUP1 DUP4 SUB DUP2 PUSH0 DUP8 DUP1 EXTCODESIZE ISZERO DUP1 ISZERO PUSH2 0x5A0 JUMPI PUSH0 DUP1 REVERT JUMPDEST POP GAS CALL ISZERO DUP1 ISZERO PUSH2 0x5B2 JUMPI RETURNDATASIZE PUSH0 DUP1 RETURNDATACOPY RETURNDATASIZE PUSH0 REVERT JUMPDEST POP POP POP POP DUP1 DUP1 PUSH2 0x5C1 SWAP1 PUSH2 0x8C6 JUMP JUMPDEST SWAP2 POP POP PUSH2 0x53B JUMP JUMPDEST POP POP POP POP JUMP JUMPDEST PUSH0 JUMPDEST DUP2 DUP2 LT ISZERO PUSH2 0x71F JUMPI PUSH0 DUP2 GT DUP1 ISZERO PUSH2 0x5F2 JUMPI POP PUSH1 0x1 SLOAD PUSH2 0x5F0 SWAP1 DUP3 PUSH2 0x8EA JUMP JUMPDEST ISZERO JUMPDEST ISZERO PUSH2 0x66A JUMPI CALLER PUSH0 SWAP1 DUP2 MSTORE PUSH1 0x20 DUP2 SWAP1 MSTORE PUSH1 0x40 SWAP1 DUP2 SWAP1 KECCAK256 SWAP1 MLOAD DUP5 SWAP1 PUSH2 0x614 SWAP1 PUSH2 0x80A JUMP JUMPDEST SWAP1 DUP2 MSTORE PUSH1 0x20 ADD PUSH1 0x40 MLOAD DUP1 SWAP2 SUB SWAP1 PUSH0 CREATE DUP1 ISZERO DUP1 ISZERO PUSH2 0x633 JUMPI RETURNDATASIZE PUSH0 DUP1 RETURNDATACOPY RETURNDATASIZE PUSH0 REVERT JUMPDEST POP DUP2 SLOAD PUSH1 0x1 DUP2 ADD DUP4 SSTORE PUSH0 SWAP3 DUP4 MSTORE PUSH1 0x20 SWAP1 SWAP3 KECCAK256 SWAP1 SWAP2 ADD DUP1 SLOAD PUSH1 0x1 PUSH1 0x1 PUSH1 0xA0 SHL SUB NOT AND PUSH1 0x1 PUSH1 0x1 PUSH1 0xA0 SHL SUB SWAP1 SWAP3 AND SWAP2 SWAP1 SWAP2 OR SWAP1 SSTORE PUSH2 0x70D JUMP JUMPDEST PUSH0 DUP1 PUSH32 0x0 PUSH1 0x1 PUSH1 0x1 PUSH1 0xA0 SHL SUB AND PUSH1 0x1 PUSH1 0x1 PUSH1 0xA0 SHL SUB AND DUP2 MSTORE PUSH1 0x20 ADD SWAP1 DUP2 MSTORE PUSH1 0x20 ADD PUSH0 KECCAK256 PUSH1 0x2 SLOAD PUSH1 0x40 MLOAD PUSH2 0x6BB SWAP1 PUSH2 0x80A JUMP JUMPDEST SWAP1 DUP2 MSTORE PUSH1 0x20 ADD PUSH1 0x40 MLOAD DUP1 SWAP2 SUB SWAP1 PUSH0 CREATE DUP1 ISZERO DUP1 ISZERO PUSH2 0x6DA JUMPI RETURNDATASIZE PUSH0 DUP1 RETURNDATACOPY RETURNDATASIZE PUSH0 REVERT JUMPDEST POP DUP2 SLOAD PUSH1 0x1 DUP2 ADD DUP4 SSTORE PUSH0 SWAP3 DUP4 MSTORE PUSH1 0x20 SWAP1 SWAP3 KECCAK256 SWAP1 SWAP2 ADD DUP1 SLOAD PUSH1 0x1 PUSH1 0x1 PUSH1 0xA0 SHL SUB NOT AND PUSH1 0x1 PUSH1 0x1 PUSH1 0xA0 SHL SUB SWAP1 SWAP3 AND SWAP2 SWAP1 SWAP2 OR SWAP1 SSTORE JUMPDEST DUP1 PUSH2 0x717 DUP2 PUSH2 0x8C6 JUMP JUMPDEST SWAP2 POP POP PUSH2 0x5D1 JUMP JUMPDEST POP POP POP JUMP JUMPDEST CALLER PUSH1 0x1 PUSH1 0x1 PUSH1 0xA0 SHL SUB PUSH32 0x0 AND EQ PUSH2 0x792 JUMPI PUSH1 0x40 MLOAD PUSH3 0x461BCD PUSH1 0xE5 SHL DUP2 MSTORE PUSH1 0x20 PUSH1 0x4 DUP3 ADD MSTORE PUSH1 0x13 PUSH1 0x24 DUP3 ADD MSTORE PUSH19 0x21B0B63632B91034B9903737BA1037BBB732B9 PUSH1 0x69 SHL PUSH1 0x44 DUP3 ADD MSTORE PUSH1 0x64 ADD PUSH2 0x19F JUMP JUMPDEST PUSH1 0x2 SSTORE JUMP JUMPDEST CALLER PUSH1 0x1 PUSH1 0x1 PUSH1 0xA0 SHL SUB PUSH32 0x0 AND EQ PUSH2 0x805 JUMPI PUSH1 0x40 MLOAD PUSH3 0x461BCD PUSH1 0xE5 SHL DUP2 MSTORE PUSH1 0x20 PUSH1 0x4 DUP3 ADD MSTORE PUSH1 0x13 PUSH1 0x24 DUP3 ADD MSTORE PUSH19 0x21B0B63632B91034B9903737BA1037BBB732B9 PUSH1 0x69 SHL PUSH1 0x44 DUP3 ADD MSTORE PUSH1 0x64 ADD PUSH2 0x19F JUMP JUMPDEST PUSH1 0x1 SSTORE JUMP JUMPDEST PUSH2 0x48C DUP1 PUSH3 0x90A DUP4 CODECOPY ADD SWAP1 JUMP JUMPDEST PUSH0 DUP1 PUSH1 0x40 DUP4 DUP6 SUB SLT ISZERO PUSH2 0x829 JUMPI PUSH0 DUP1 REVERT JUMPDEST POP POP DUP1 CALLDATALOAD SWAP3 PUSH1 0x20 SWAP1 SWAP2 ADD CALLDATALOAD SWAP2 POP JUMP JUMPDEST PUSH0 PUSH1 0x20 DUP3 DUP5 SUB SLT ISZERO PUSH2 0x848 JUMPI PUSH0 DUP1 REVERT JUMPDEST POP CALLDATALOAD SWAP2 SWAP1 POP JUMP JUMPDEST PUSH0 PUSH1 0x20 DUP3 DUP5 SUB SLT ISZERO PUSH2 0x85F JUMPI PUSH0 DUP1 REVERT JUMPDEST DUP2 CALLDATALOAD PUSH1 0x1 PUSH1 0x1 PUSH1 0xA0 SHL SUB DUP2 AND DUP2 EQ PUSH2 0x875 JUMPI PUSH0 DUP1 REVERT JUMPDEST SWAP4 SWAP3 POP POP POP JUMP JUMPDEST PUSH4 0x4E487B71 PUSH1 0xE0 SHL PUSH0 MSTORE PUSH1 0x32 PUSH1 0x4 MSTORE PUSH1 0x24 PUSH0 REVERT JUMPDEST PUSH0 PUSH1 0x20 DUP3 DUP5 SUB SLT ISZERO PUSH2 0x8A0 JUMPI PUSH0 DUP1 REVERT JUMPDEST POP MLOAD SWAP2 SWAP1 POP JUMP JUMPDEST PUSH0 PUSH1 0x20 DUP3 DUP5 SUB SLT ISZERO PUSH2 0x8B7 JUMPI PUSH0 DUP1 REVERT JUMPDEST DUP2 MLOAD DUP1 ISZERO ISZERO DUP2 EQ PUSH2 0x875 JUMPI PUSH0 DUP1 REVERT JUMPDEST PUSH0 PUSH1 0x1 DUP3 ADD PUSH2 0x8E3 JUMPI PUSH4 0x4E487B71 PUSH1 0xE0 SHL PUSH0 MSTORE PUSH1 0x11 PUSH1 0x4 MSTORE PUSH1 0x24 PUSH0 REVERT JUMPDEST POP PUSH1 0x1 ADD SWAP1 JUMP JUMPDEST PUSH0 DUP3 PUSH2 0x904 JUMPI PUSH4 0x4E487B71 PUSH1 0xE0 SHL PUSH0 MSTORE PUSH1 0x12 PUSH1 0x4 MSTORE PUSH1 0x24 PUSH0 REVERT JUMPDEST POP MOD SWAP1 JUMP INVALID PUSH1 0x80 PUSH1 0x40 DUP2 SWAP1 MSTORE PUSH0 DUP1 SLOAD PUSH1 0x1 PUSH1 0x1 PUSH1 0xA0 SHL SUB NOT AND PUSH20 0xEF64C03D5E757A5F6DC5284F3D627F3C255F09AB OR SWAP1 SSTORE PUSH2 0x48C CODESIZE DUP2 SWAP1 SUB SWAP1 DUP2 SWAP1 DUP4 CODECOPY DUP2 ADD PUSH1 0x40 DUP2 SWAP1 MSTORE PUSH2 0x47 SWAP2 PUSH2 0x1CB JUMP JUMPDEST PUSH0 PUSH20 0xEF64C03D5E757A5F6DC5284F3D627F3C255F09AB PUSH1 0x1 PUSH1 0x1 PUSH1 0xA0 SHL SUB AND PUSH4 0xB260C42A DUP4 PUSH1 0x40 MLOAD PUSH1 0x24 ADD PUSH2 0x7E SWAP2 DUP2 MSTORE PUSH1 0x20 ADD SWAP1 JUMP JUMPDEST PUSH1 0x40 MLOAD PUSH1 0x20 DUP2 DUP4 SUB SUB DUP2 MSTORE SWAP1 PUSH1 0x40 MSTORE SWAP1 PUSH1 0xE0 SHL PUSH1 0x20 DUP3 ADD DUP1 MLOAD PUSH1 0x1 PUSH1 0x1 PUSH1 0xE0 SHL SUB DUP4 DUP2 DUP4 AND OR DUP4 MSTORE POP POP POP POP PUSH1 0x40 MLOAD PUSH2 0xB7 SWAP2 SWAP1 PUSH2 0x1E2 JUMP JUMPDEST PUSH0 PUSH1 0x40 MLOAD DUP1 DUP4 SUB DUP2 PUSH0 DUP7 GAS CALL SWAP2 POP POP RETURNDATASIZE DUP1 PUSH0 DUP2 EQ PUSH2 0xF0 JUMPI PUSH1 0x40 MLOAD SWAP2 POP PUSH1 0x1F NOT PUSH1 0x3F RETURNDATASIZE ADD AND DUP3 ADD PUSH1 0x40 MSTORE RETURNDATASIZE DUP3 MSTORE RETURNDATASIZE PUSH0 PUSH1 0x20 DUP5 ADD RETURNDATACOPY PUSH2 0xF5 JUMP JUMPDEST PUSH1 0x60 SWAP2 POP JUMPDEST POP POP SWAP1 POP DUP1 PUSH2 0x14A JUMPI PUSH1 0x40 MLOAD PUSH3 0x461BCD PUSH1 0xE5 SHL DUP2 MSTORE PUSH1 0x20 PUSH1 0x4 DUP3 ADD MSTORE PUSH1 0x18 PUSH1 0x24 DUP3 ADD MSTORE PUSH32 0x4261746368207472616E73616374696F6E206661696C65640000000000000000 PUSH1 0x44 DUP3 ADD MSTORE PUSH1 0x64 ADD PUSH1 0x40 MLOAD DUP1 SWAP2 SUB SWAP1 REVERT JUMPDEST PUSH1 0x40 MLOAD PUSH4 0x95EA7B3 PUSH1 0xE0 SHL DUP2 MSTORE CALLER PUSH1 0x4 DUP3 ADD MSTORE PUSH0 NOT PUSH1 0x24 DUP3 ADD MSTORE PUSH20 0xF0F942D563A6BACF875D8CEE5AE663B12CE62149 SWAP1 PUSH4 0x95EA7B3 SWAP1 PUSH1 0x44 ADD PUSH1 0x20 PUSH1 0x40 MLOAD DUP1 DUP4 SUB DUP2 PUSH0 DUP8 GAS CALL ISZERO DUP1 ISZERO PUSH2 0x19F JUMPI RETURNDATASIZE PUSH0 DUP1 RETURNDATACOPY RETURNDATASIZE PUSH0 REVERT JUMPDEST POP POP POP POP PUSH1 0x40 MLOAD RETURNDATASIZE PUSH1 0x1F NOT PUSH1 0x1F DUP3 ADD AND DUP3 ADD DUP1 PUSH1 0x40 MSTORE POP DUP2 ADD SWAP1 PUSH2 0x1C3 SWAP2 SWAP1 PUSH2 0x20E JUMP JUMPDEST POP POP POP PUSH2 0x234 JUMP JUMPDEST PUSH0 PUSH1 0x20 DUP3 DUP5 SUB SLT ISZERO PUSH2 0x1DB JUMPI PUSH0 DUP1 REVERT JUMPDEST POP MLOAD SWAP2 SWAP1 POP JUMP JUMPDEST PUSH0 DUP3 MLOAD PUSH0 JUMPDEST DUP2 DUP2 LT ISZERO PUSH2 0x201 JUMPI PUSH1 0x20 DUP2 DUP7 ADD DUP2 ADD MLOAD DUP6 DUP4 ADD MSTORE ADD PUSH2 0x1E7 JUMP JUMPDEST POP PUSH0 SWAP3 ADD SWAP2 DUP3 MSTORE POP SWAP2 SWAP1 POP JUMP JUMPDEST PUSH0 PUSH1 0x20 DUP3 DUP5 SUB SLT ISZERO PUSH2 0x21E JUMPI PUSH0 DUP1 REVERT JUMPDEST DUP2 MLOAD DUP1 ISZERO ISZERO DUP2 EQ PUSH2 0x22D JUMPI PUSH0 DUP1 REVERT JUMPDEST SWAP4 SWAP3 POP POP POP JUMP JUMPDEST PUSH2 0x24B DUP1 PUSH2 0x241 PUSH0 CODECOPY PUSH0 RETURN INVALID PUSH1 0x80 PUSH1 0x40 MSTORE CALLVALUE DUP1 ISZERO PUSH2 0xF JUMPI PUSH0 DUP1 REVERT JUMPDEST POP PUSH1 0x4 CALLDATASIZE LT PUSH2 0x34 JUMPI PUSH0 CALLDATALOAD PUSH1 0xE0 SHR DUP1 PUSH4 0x57EA89B6 EQ PUSH2 0x38 JUMPI DUP1 PUSH4 0xA66F42C0 EQ PUSH2 0x42 JUMPI JUMPDEST PUSH0 DUP1 REVERT JUMPDEST PUSH2 0x40 PUSH2 0x4A JUMP JUMPDEST STOP JUMPDEST PUSH2 0x40 PUSH2 0x11F JUMP JUMPDEST PUSH1 0x40 DUP1 MLOAD PUSH1 0x4 DUP2 MSTORE PUSH1 0x24 DUP2 ADD DUP3 MSTORE PUSH1 0x20 DUP2 ADD DUP1 MLOAD PUSH1 0x1 PUSH1 0x1 PUSH1 0xE0 SHL SUB AND PUSH4 0x3CCFD60B PUSH1 0xE0 SHL OR SWAP1 MSTORE SWAP1 MLOAD PUSH0 SWAP2 PUSH20 0xEF64C03D5E757A5F6DC5284F3D627F3C255F09AB SWAP2 PUSH2 0x96 SWAP2 SWAP1 PUSH2 0x1E9 JUMP JUMPDEST PUSH0 PUSH1 0x40 MLOAD DUP1 DUP4 SUB DUP2 PUSH0 DUP7 GAS CALL SWAP2 POP POP RETURNDATASIZE DUP1 PUSH0 DUP2 EQ PUSH2 0xCF JUMPI PUSH1 0x40 MLOAD SWAP2 POP PUSH1 0x1F NOT PUSH1 0x3F RETURNDATASIZE ADD AND DUP3 ADD PUSH1 0x40 MSTORE RETURNDATASIZE DUP3 MSTORE RETURNDATASIZE PUSH0 PUSH1 0x20 DUP5 ADD RETURNDATACOPY PUSH2 0xD4 JUMP JUMPDEST PUSH1 0x60 SWAP2 POP JUMPDEST POP POP SWAP1 POP DUP1 PUSH2 0x11C JUMPI PUSH1 0x40 MLOAD PUSH3 0x461BCD PUSH1 0xE5 SHL DUP2 MSTORE PUSH1 0x20 PUSH1 0x4 DUP3 ADD MSTORE PUSH1 0xF PUSH1 0x24 DUP3 ADD MSTORE PUSH15 0x1DDA5D1A191C985DC819985A5B1959 PUSH1 0x8A SHL PUSH1 0x44 DUP3 ADD MSTORE PUSH1 0x64 ADD JUMPDEST PUSH1 0x40 MLOAD DUP1 SWAP2 SUB SWAP1 REVERT JUMPDEST POP JUMP JUMPDEST PUSH1 0x40 DUP1 MLOAD PUSH1 0x4 DUP2 MSTORE PUSH1 0x24 DUP2 ADD DUP3 MSTORE PUSH1 0x20 DUP2 ADD DUP1 MLOAD PUSH1 0x1 PUSH1 0x1 PUSH1 0xE0 SHL SUB AND PUSH4 0x299BD0B PUSH1 0xE6 SHL OR SWAP1 MSTORE SWAP1 MLOAD PUSH0 SWAP2 PUSH20 0xEF64C03D5E757A5F6DC5284F3D627F3C255F09AB SWAP2 PUSH2 0x16B SWAP2 SWAP1 PUSH2 0x1E9 JUMP JUMPDEST PUSH0 PUSH1 0x40 MLOAD DUP1 DUP4 SUB DUP2 PUSH0 DUP7 GAS CALL SWAP2 POP POP RETURNDATASIZE DUP1 PUSH0 DUP2 EQ PUSH2 0x1A4 JUMPI PUSH1 0x40 MLOAD SWAP2 POP PUSH1 0x1F NOT PUSH1 0x3F RETURNDATASIZE ADD AND DUP3 ADD PUSH1 0x40 MSTORE RETURNDATASIZE DUP3 MSTORE RETURNDATASIZE PUSH0 PUSH1 0x20 DUP5 ADD RETURNDATACOPY PUSH2 0x1A9 JUMP JUMPDEST PUSH1 0x60 SWAP2 POP JUMPDEST POP POP SWAP1 POP DUP1 PUSH2 0x11C JUMPI PUSH1 0x40 MLOAD PUSH3 0x461BCD PUSH1 0xE5 SHL DUP2 MSTORE PUSH1 0x20 PUSH1 0x4 DUP3 ADD MSTORE PUSH1 0xC PUSH1 0x24 DUP3 ADD MSTORE PUSH12 0x189BDBDCDD0819985A5B1959 PUSH1 0xA2 SHL PUSH1 0x44 DUP3 ADD MSTORE PUSH1 0x64 ADD PUSH2 0x113 JUMP JUMPDEST PUSH0 DUP3 MLOAD PUSH0 JUMPDEST DUP2 DUP2 LT ISZERO PUSH2 0x208 JUMPI PUSH1 0x20 DUP2 DUP7 ADD DUP2 ADD MLOAD DUP6 DUP4 ADD MSTORE ADD PUSH2 0x1EE JUMP JUMPDEST POP PUSH0 SWAP3 ADD SWAP2 DUP3 MSTORE POP SWAP2 SWAP1 POP JUMP INVALID LOG2 PUSH5 0x6970667358 0x22 SLT KECCAK256 0xD5 0xF8 PUSH0 0xA5 SIGNEXTEND PUSH0 PUSH14 0x5DF0855C046C00EBF506F0308138 0xAD 0xC2 0xCB 0x22 BLOCKHASH 0xCC 0xB2 0xB1 DUP9 PUSH20 0xB664736F6C63430008150033A264697066735822 SLT KECCAK256 0x22 SWAP9 ISZERO DUP2 0xBA RETURN 0xC6 DUP3 SWAP11 0xD9 0xD8 SWAP1 PUSH6 0x22E5881356E3 DUP12 CALLVALUE 0xEF 0xEB 0xEE PUSH30 0x75E91CE04F8A1A64736F6C63430008150033000000000000000000000000 "
				},
				"gasEstimates": {
					"creation": {
						"codeDepositCost": "706200",
						"executionCost": "infinite",
						"totalCost": "infinite"
					},
					"external": {
						"BatchBoost(uint256,uint256)": "infinite",
						"BatchMint(uint256,uint256)": "infinite",
						"BatchWithdarw(uint256,uint256)": "infinite",
						"change_code(uint256)": "infinite",
						"change_times(uint256)": "infinite",
						"own_address_num(address)": "2578"
					}
				},
				"methodIdentifiers": {
					"BatchBoost(uint256,uint256)": "1ceeddf4",
					"BatchMint(uint256,uint256)": "3cd64f18",
					"BatchWithdarw(uint256,uint256)": "06055939",
					"change_code(uint256)": "d97af6c2",
					"change_times(uint256)": "e1381b12",
					"own_address_num(address)": "e1b903f5"
				}
			},
			"storageLayout": {
				"storage": [
					{
						"astId": 130,
						"contract": "contract/dragon/dragon.sol:Batcher",
						"label": "own_address",
						"offset": 0,
						"slot": "0",
						"type": "t_mapping(t_address,t_array(t_address)dyn_storage)"
					},
					{
						"astId": 133,
						"contract": "contract/dragon/dragon.sol:Batcher",
						"label": "tax_times",
						"offset": 0,
						"slot": "1",
						"type": "t_uint256"
					},
					{
						"astId": 136,
						"contract": "contract/dragon/dragon.sol:Batcher",
						"label": "owner_code",
						"offset": 0,
						"slot": "2",
						"type": "t_uint256"
					},
					{
						"astId": 142,
						"contract": "contract/dragon/dragon.sol:Batcher",
						"label": "dragon",
						"offset": 0,
						"slot": "3",
						"type": "t_contract(IDragon)40"
					}
				],
				"types": {
					"t_address": {
						"encoding": "inplace",
						"label": "address",
						"numberOfBytes": "20"
					},
					"t_array(t_address)dyn_storage": {
						"base": "t_address",
						"encoding": "dynamic_array",
						"label": "address[]",
						"numberOfBytes": "32"
					},
					"t_contract(IDragon)40": {
						"encoding": "inplace",
						"label": "contract IDragon",
						"numberOfBytes": "20"
					},
					"t_mapping(t_address,t_array(t_address)dyn_storage)": {
						"encoding": "mapping",
						"key": "t_address",
						"label": "mapping(address => address[])",
						"numberOfBytes": "32",
						"value": "t_array(t_address)dyn_storage"
					},
					"t_uint256": {
						"encoding": "inplace",
						"label": "uint256",
						"numberOfBytes": "32"
					}
				}
			},
			"userdoc": {
				"kind": "user",
				"methods": {},
				"version": 1
			}
		}
	}
}